{
  "_format": "hh-sol-artifact-1",
  "contractName": "FHEVMTestSuite2",
  "sourceName": "examples/tests/FHEVMTestSuite2.sol",
  "abi": [
    {
      "inputs": [],
      "stateMutability": "nonpayable",
      "type": "constructor"
    },
    {
      "anonymous": false,
      "inputs": [
        {
          "indexed": false,
          "internalType": "bytes32",
          "name": "inputHandle",
          "type": "bytes32"
        },
        {
          "indexed": false,
          "internalType": "bytes",
          "name": "inputProof",
          "type": "bytes"
        },
        {
          "indexed": false,
          "internalType": "bytes32",
          "name": "result",
          "type": "bytes32"
        }
      ],
      "name": "DebugVerify",
      "type": "event"
    },
    {
      "inputs": [
        {
          "internalType": "externalEuint16",
          "name": "a",
          "type": "bytes32"
        },
        {
          "internalType": "externalEuint128",
          "name": "b",
          "type": "bytes32"
        },
        {
          "internalType": "bytes",
          "name": "inputProof",
          "type": "bytes"
        }
      ],
      "name": "add_euint16_euint128",
      "outputs": [],
      "stateMutability": "nonpayable",
      "type": "function"
    },
    {
      "inputs": [
        {
          "internalType": "externalEuint16",
          "name": "a",
          "type": "bytes32"
        },
        {
          "internalType": "externalEuint32",
          "name": "b",
          "type": "bytes32"
        },
        {
          "internalType": "bytes",
          "name": "inputProof",
          "type": "bytes"
        }
      ],
      "name": "add_euint16_euint32",
      "outputs": [],
      "stateMutability": "nonpayable",
      "type": "function"
    },
    {
      "inputs": [
        {
          "internalType": "externalEuint16",
          "name": "a",
          "type": "bytes32"
        },
        {
          "internalType": "externalEuint64",
          "name": "b",
          "type": "bytes32"
        },
        {
          "internalType": "bytes",
          "name": "inputProof",
          "type": "bytes"
        }
      ],
      "name": "add_euint16_euint64",
      "outputs": [],
      "stateMutability": "nonpayable",
      "type": "function"
    },
    {
      "inputs": [
        {
          "internalType": "externalEuint32",
          "name": "a",
          "type": "bytes32"
        },
        {
          "internalType": "externalEuint16",
          "name": "b",
          "type": "bytes32"
        },
        {
          "internalType": "bytes",
          "name": "inputProof",
          "type": "bytes"
        }
      ],
      "name": "add_euint32_euint16",
      "outputs": [],
      "stateMutability": "nonpayable",
      "type": "function"
    },
    {
      "inputs": [
        {
          "internalType": "externalEuint32",
          "name": "a",
          "type": "bytes32"
        },
        {
          "internalType": "externalEuint32",
          "name": "b",
          "type": "bytes32"
        },
        {
          "internalType": "bytes",
          "name": "inputProof",
          "type": "bytes"
        }
      ],
      "name": "add_euint32_euint32",
      "outputs": [],
      "stateMutability": "nonpayable",
      "type": "function"
    },
    {
      "inputs": [
        {
          "internalType": "externalEuint32",
          "name": "a",
          "type": "bytes32"
        },
        {
          "internalType": "externalEuint8",
          "name": "b",
          "type": "bytes32"
        },
        {
          "internalType": "bytes",
          "name": "inputProof",
          "type": "bytes"
        }
      ],
      "name": "add_euint32_euint8",
      "outputs": [],
      "stateMutability": "nonpayable",
      "type": "function"
    },
    {
      "inputs": [
        {
          "internalType": "externalEuint16",
          "name": "a",
          "type": "bytes32"
        },
        {
          "internalType": "externalEuint128",
          "name": "b",
          "type": "bytes32"
        },
        {
          "internalType": "bytes",
          "name": "inputProof",
          "type": "bytes"
        }
      ],
      "name": "and_euint16_euint128",
      "outputs": [],
      "stateMutability": "nonpayable",
      "type": "function"
    },
    {
      "inputs": [
        {
          "internalType": "externalEuint16",
          "name": "a",
          "type": "bytes32"
        },
        {
          "internalType": "externalEuint16",
          "name": "b",
          "type": "bytes32"
        },
        {
          "internalType": "bytes",
          "name": "inputProof",
          "type": "bytes"
        }
      ],
      "name": "and_euint16_euint16",
      "outputs": [],
      "stateMutability": "nonpayable",
      "type": "function"
    },
    {
      "inputs": [
        {
          "internalType": "externalEuint16",
          "name": "a",
          "type": "bytes32"
        },
        {
          "internalType": "externalEuint256",
          "name": "b",
          "type": "bytes32"
        },
        {
          "internalType": "bytes",
          "name": "inputProof",
          "type": "bytes"
        }
      ],
      "name": "and_euint16_euint256",
      "outputs": [],
      "stateMutability": "nonpayable",
      "type": "function"
    },
    {
      "inputs": [
        {
          "internalType": "externalEuint16",
          "name": "a",
          "type": "bytes32"
        },
        {
          "internalType": "externalEuint32",
          "name": "b",
          "type": "bytes32"
        },
        {
          "internalType": "bytes",
          "name": "inputProof",
          "type": "bytes"
        }
      ],
      "name": "and_euint16_euint32",
      "outputs": [],
      "stateMutability": "nonpayable",
      "type": "function"
    },
    {
      "inputs": [
        {
          "internalType": "externalEuint16",
          "name": "a",
          "type": "bytes32"
        },
        {
          "internalType": "externalEuint64",
          "name": "b",
          "type": "bytes32"
        },
        {
          "internalType": "bytes",
          "name": "inputProof",
          "type": "bytes"
        }
      ],
      "name": "and_euint16_euint64",
      "outputs": [],
      "stateMutability": "nonpayable",
      "type": "function"
    },
    {
      "inputs": [
        {
          "internalType": "externalEuint32",
          "name": "a",
          "type": "bytes32"
        },
        {
          "internalType": "externalEuint16",
          "name": "b",
          "type": "bytes32"
        },
        {
          "internalType": "bytes",
          "name": "inputProof",
          "type": "bytes"
        }
      ],
      "name": "and_euint32_euint16",
      "outputs": [],
      "stateMutability": "nonpayable",
      "type": "function"
    },
    {
      "inputs": [
        {
          "internalType": "externalEuint32",
          "name": "a",
          "type": "bytes32"
        },
        {
          "internalType": "externalEuint8",
          "name": "b",
          "type": "bytes32"
        },
        {
          "internalType": "bytes",
          "name": "inputProof",
          "type": "bytes"
        }
      ],
      "name": "and_euint32_euint8",
      "outputs": [],
      "stateMutability": "nonpayable",
      "type": "function"
    },
    {
      "inputs": [],
      "name": "encrypt_euint16",
      "outputs": [],
      "stateMutability": "nonpayable",
      "type": "function"
    },
    {
      "inputs": [
        {
          "internalType": "externalEuint16",
          "name": "a",
          "type": "bytes32"
        },
        {
          "internalType": "externalEuint128",
          "name": "b",
          "type": "bytes32"
        },
        {
          "internalType": "bytes",
          "name": "inputProof",
          "type": "bytes"
        }
      ],
      "name": "eq_euint16_euint128",
      "outputs": [],
      "stateMutability": "nonpayable",
      "type": "function"
    },
    {
      "inputs": [
        {
          "internalType": "externalEuint16",
          "name": "a",
          "type": "bytes32"
        },
        {
          "internalType": "externalEuint16",
          "name": "b",
          "type": "bytes32"
        },
        {
          "internalType": "bytes",
          "name": "inputProof",
          "type": "bytes"
        }
      ],
      "name": "eq_euint16_euint16",
      "outputs": [],
      "stateMutability": "nonpayable",
      "type": "function"
    },
    {
      "inputs": [
        {
          "internalType": "externalEuint16",
          "name": "a",
          "type": "bytes32"
        },
        {
          "internalType": "externalEuint256",
          "name": "b",
          "type": "bytes32"
        },
        {
          "internalType": "bytes",
          "name": "inputProof",
          "type": "bytes"
        }
      ],
      "name": "eq_euint16_euint256",
      "outputs": [],
      "stateMutability": "nonpayable",
      "type": "function"
    },
    {
      "inputs": [
        {
          "internalType": "externalEuint16",
          "name": "a",
          "type": "bytes32"
        },
        {
          "internalType": "externalEuint32",
          "name": "b",
          "type": "bytes32"
        },
        {
          "internalType": "bytes",
          "name": "inputProof",
          "type": "bytes"
        }
      ],
      "name": "eq_euint16_euint32",
      "outputs": [],
      "stateMutability": "nonpayable",
      "type": "function"
    },
    {
      "inputs": [
        {
          "internalType": "externalEuint16",
          "name": "a",
          "type": "bytes32"
        },
        {
          "internalType": "externalEuint64",
          "name": "b",
          "type": "bytes32"
        },
        {
          "internalType": "bytes",
          "name": "inputProof",
          "type": "bytes"
        }
      ],
      "name": "eq_euint16_euint64",
      "outputs": [],
      "stateMutability": "nonpayable",
      "type": "function"
    },
    {
      "inputs": [
        {
          "internalType": "externalEuint32",
          "name": "a",
          "type": "bytes32"
        },
        {
          "internalType": "externalEuint16",
          "name": "b",
          "type": "bytes32"
        },
        {
          "internalType": "bytes",
          "name": "inputProof",
          "type": "bytes"
        }
      ],
      "name": "eq_euint32_euint16",
      "outputs": [],
      "stateMutability": "nonpayable",
      "type": "function"
    },
    {
      "inputs": [
        {
          "internalType": "externalEuint32",
          "name": "a",
          "type": "bytes32"
        },
        {
          "internalType": "externalEuint8",
          "name": "b",
          "type": "bytes32"
        },
        {
          "internalType": "bytes",
          "name": "inputProof",
          "type": "bytes"
        }
      ],
      "name": "eq_euint32_euint8",
      "outputs": [],
      "stateMutability": "nonpayable",
      "type": "function"
    },
    {
      "inputs": [
        {
          "internalType": "externalEuint16",
          "name": "a",
          "type": "bytes32"
        },
        {
          "internalType": "externalEuint128",
          "name": "b",
          "type": "bytes32"
        },
        {
          "internalType": "bytes",
          "name": "inputProof",
          "type": "bytes"
        }
      ],
      "name": "ge_euint16_euint128",
      "outputs": [],
      "stateMutability": "nonpayable",
      "type": "function"
    },
    {
      "inputs": [
        {
          "internalType": "externalEuint16",
          "name": "a",
          "type": "bytes32"
        },
        {
          "internalType": "externalEuint16",
          "name": "b",
          "type": "bytes32"
        },
        {
          "internalType": "bytes",
          "name": "inputProof",
          "type": "bytes"
        }
      ],
      "name": "ge_euint16_euint16",
      "outputs": [],
      "stateMutability": "nonpayable",
      "type": "function"
    },
    {
      "inputs": [
        {
          "internalType": "externalEuint16",
          "name": "a",
          "type": "bytes32"
        },
        {
          "internalType": "externalEuint32",
          "name": "b",
          "type": "bytes32"
        },
        {
          "internalType": "bytes",
          "name": "inputProof",
          "type": "bytes"
        }
      ],
      "name": "ge_euint16_euint32",
      "outputs": [],
      "stateMutability": "nonpayable",
      "type": "function"
    },
    {
      "inputs": [
        {
          "internalType": "externalEuint16",
          "name": "a",
          "type": "bytes32"
        },
        {
          "internalType": "externalEuint64",
          "name": "b",
          "type": "bytes32"
        },
        {
          "internalType": "bytes",
          "name": "inputProof",
          "type": "bytes"
        }
      ],
      "name": "ge_euint16_euint64",
      "outputs": [],
      "stateMutability": "nonpayable",
      "type": "function"
    },
    {
      "inputs": [
        {
          "internalType": "externalEuint32",
          "name": "a",
          "type": "bytes32"
        },
        {
          "internalType": "externalEuint16",
          "name": "b",
          "type": "bytes32"
        },
        {
          "internalType": "bytes",
          "name": "inputProof",
          "type": "bytes"
        }
      ],
      "name": "ge_euint32_euint16",
      "outputs": [],
      "stateMutability": "nonpayable",
      "type": "function"
    },
    {
      "inputs": [
        {
          "internalType": "externalEuint32",
          "name": "a",
          "type": "bytes32"
        },
        {
          "internalType": "externalEuint8",
          "name": "b",
          "type": "bytes32"
        },
        {
          "internalType": "bytes",
          "name": "inputProof",
          "type": "bytes"
        }
      ],
      "name": "ge_euint32_euint8",
      "outputs": [],
      "stateMutability": "nonpayable",
      "type": "function"
    },
    {
      "inputs": [
        {
          "internalType": "externalEuint16",
          "name": "a",
          "type": "bytes32"
        },
        {
          "internalType": "externalEuint128",
          "name": "b",
          "type": "bytes32"
        },
        {
          "internalType": "bytes",
          "name": "inputProof",
          "type": "bytes"
        }
      ],
      "name": "gt_euint16_euint128",
      "outputs": [],
      "stateMutability": "nonpayable",
      "type": "function"
    },
    {
      "inputs": [
        {
          "internalType": "externalEuint16",
          "name": "a",
          "type": "bytes32"
        },
        {
          "internalType": "externalEuint16",
          "name": "b",
          "type": "bytes32"
        },
        {
          "internalType": "bytes",
          "name": "inputProof",
          "type": "bytes"
        }
      ],
      "name": "gt_euint16_euint16",
      "outputs": [],
      "stateMutability": "nonpayable",
      "type": "function"
    },
    {
      "inputs": [
        {
          "internalType": "externalEuint16",
          "name": "a",
          "type": "bytes32"
        },
        {
          "internalType": "externalEuint32",
          "name": "b",
          "type": "bytes32"
        },
        {
          "internalType": "bytes",
          "name": "inputProof",
          "type": "bytes"
        }
      ],
      "name": "gt_euint16_euint32",
      "outputs": [],
      "stateMutability": "nonpayable",
      "type": "function"
    },
    {
      "inputs": [
        {
          "internalType": "externalEuint16",
          "name": "a",
          "type": "bytes32"
        },
        {
          "internalType": "externalEuint64",
          "name": "b",
          "type": "bytes32"
        },
        {
          "internalType": "bytes",
          "name": "inputProof",
          "type": "bytes"
        }
      ],
      "name": "gt_euint16_euint64",
      "outputs": [],
      "stateMutability": "nonpayable",
      "type": "function"
    },
    {
      "inputs": [
        {
          "internalType": "externalEuint32",
          "name": "a",
          "type": "bytes32"
        },
        {
          "internalType": "externalEuint16",
          "name": "b",
          "type": "bytes32"
        },
        {
          "internalType": "bytes",
          "name": "inputProof",
          "type": "bytes"
        }
      ],
      "name": "gt_euint32_euint16",
      "outputs": [],
      "stateMutability": "nonpayable",
      "type": "function"
    },
    {
      "inputs": [
        {
          "internalType": "externalEuint32",
          "name": "a",
          "type": "bytes32"
        },
        {
          "internalType": "externalEuint8",
          "name": "b",
          "type": "bytes32"
        },
        {
          "internalType": "bytes",
          "name": "inputProof",
          "type": "bytes"
        }
      ],
      "name": "gt_euint32_euint8",
      "outputs": [],
      "stateMutability": "nonpayable",
      "type": "function"
    },
    {
      "inputs": [
        {
          "internalType": "externalEuint16",
          "name": "a",
          "type": "bytes32"
        },
        {
          "internalType": "externalEuint128",
          "name": "b",
          "type": "bytes32"
        },
        {
          "internalType": "bytes",
          "name": "inputProof",
          "type": "bytes"
        }
      ],
      "name": "le_euint16_euint128",
      "outputs": [],
      "stateMutability": "nonpayable",
      "type": "function"
    },
    {
      "inputs": [
        {
          "internalType": "externalEuint16",
          "name": "a",
          "type": "bytes32"
        },
        {
          "internalType": "externalEuint16",
          "name": "b",
          "type": "bytes32"
        },
        {
          "internalType": "bytes",
          "name": "inputProof",
          "type": "bytes"
        }
      ],
      "name": "le_euint16_euint16",
      "outputs": [],
      "stateMutability": "nonpayable",
      "type": "function"
    },
    {
      "inputs": [
        {
          "internalType": "externalEuint16",
          "name": "a",
          "type": "bytes32"
        },
        {
          "internalType": "externalEuint32",
          "name": "b",
          "type": "bytes32"
        },
        {
          "internalType": "bytes",
          "name": "inputProof",
          "type": "bytes"
        }
      ],
      "name": "le_euint16_euint32",
      "outputs": [],
      "stateMutability": "nonpayable",
      "type": "function"
    },
    {
      "inputs": [
        {
          "internalType": "externalEuint16",
          "name": "a",
          "type": "bytes32"
        },
        {
          "internalType": "externalEuint64",
          "name": "b",
          "type": "bytes32"
        },
        {
          "internalType": "bytes",
          "name": "inputProof",
          "type": "bytes"
        }
      ],
      "name": "le_euint16_euint64",
      "outputs": [],
      "stateMutability": "nonpayable",
      "type": "function"
    },
    {
      "inputs": [
        {
          "internalType": "externalEuint32",
          "name": "a",
          "type": "bytes32"
        },
        {
          "internalType": "externalEuint16",
          "name": "b",
          "type": "bytes32"
        },
        {
          "internalType": "bytes",
          "name": "inputProof",
          "type": "bytes"
        }
      ],
      "name": "le_euint32_euint16",
      "outputs": [],
      "stateMutability": "nonpayable",
      "type": "function"
    },
    {
      "inputs": [
        {
          "internalType": "externalEuint32",
          "name": "a",
          "type": "bytes32"
        },
        {
          "internalType": "externalEuint8",
          "name": "b",
          "type": "bytes32"
        },
        {
          "internalType": "bytes",
          "name": "inputProof",
          "type": "bytes"
        }
      ],
      "name": "le_euint32_euint8",
      "outputs": [],
      "stateMutability": "nonpayable",
      "type": "function"
    },
    {
      "inputs": [
        {
          "internalType": "externalEuint16",
          "name": "a",
          "type": "bytes32"
        },
        {
          "internalType": "externalEuint128",
          "name": "b",
          "type": "bytes32"
        },
        {
          "internalType": "bytes",
          "name": "inputProof",
          "type": "bytes"
        }
      ],
      "name": "lt_euint16_euint128",
      "outputs": [],
      "stateMutability": "nonpayable",
      "type": "function"
    },
    {
      "inputs": [
        {
          "internalType": "externalEuint16",
          "name": "a",
          "type": "bytes32"
        },
        {
          "internalType": "externalEuint16",
          "name": "b",
          "type": "bytes32"
        },
        {
          "internalType": "bytes",
          "name": "inputProof",
          "type": "bytes"
        }
      ],
      "name": "lt_euint16_euint16",
      "outputs": [],
      "stateMutability": "nonpayable",
      "type": "function"
    },
    {
      "inputs": [
        {
          "internalType": "externalEuint16",
          "name": "a",
          "type": "bytes32"
        },
        {
          "internalType": "externalEuint32",
          "name": "b",
          "type": "bytes32"
        },
        {
          "internalType": "bytes",
          "name": "inputProof",
          "type": "bytes"
        }
      ],
      "name": "lt_euint16_euint32",
      "outputs": [],
      "stateMutability": "nonpayable",
      "type": "function"
    },
    {
      "inputs": [
        {
          "internalType": "externalEuint16",
          "name": "a",
          "type": "bytes32"
        },
        {
          "internalType": "externalEuint64",
          "name": "b",
          "type": "bytes32"
        },
        {
          "internalType": "bytes",
          "name": "inputProof",
          "type": "bytes"
        }
      ],
      "name": "lt_euint16_euint64",
      "outputs": [],
      "stateMutability": "nonpayable",
      "type": "function"
    },
    {
      "inputs": [
        {
          "internalType": "externalEuint32",
          "name": "a",
          "type": "bytes32"
        },
        {
          "internalType": "externalEuint16",
          "name": "b",
          "type": "bytes32"
        },
        {
          "internalType": "bytes",
          "name": "inputProof",
          "type": "bytes"
        }
      ],
      "name": "lt_euint32_euint16",
      "outputs": [],
      "stateMutability": "nonpayable",
      "type": "function"
    },
    {
      "inputs": [
        {
          "internalType": "externalEuint32",
          "name": "a",
          "type": "bytes32"
        },
        {
          "internalType": "externalEuint8",
          "name": "b",
          "type": "bytes32"
        },
        {
          "internalType": "bytes",
          "name": "inputProof",
          "type": "bytes"
        }
      ],
      "name": "lt_euint32_euint8",
      "outputs": [],
      "stateMutability": "nonpayable",
      "type": "function"
    },
    {
      "inputs": [
        {
          "internalType": "externalEuint16",
          "name": "a",
          "type": "bytes32"
        },
        {
          "internalType": "externalEuint128",
          "name": "b",
          "type": "bytes32"
        },
        {
          "internalType": "bytes",
          "name": "inputProof",
          "type": "bytes"
        }
      ],
      "name": "max_euint16_euint128",
      "outputs": [],
      "stateMutability": "nonpayable",
      "type": "function"
    },
    {
      "inputs": [
        {
          "internalType": "externalEuint16",
          "name": "a",
          "type": "bytes32"
        },
        {
          "internalType": "externalEuint16",
          "name": "b",
          "type": "bytes32"
        },
        {
          "internalType": "bytes",
          "name": "inputProof",
          "type": "bytes"
        }
      ],
      "name": "max_euint16_euint16",
      "outputs": [],
      "stateMutability": "nonpayable",
      "type": "function"
    },
    {
      "inputs": [
        {
          "internalType": "externalEuint16",
          "name": "a",
          "type": "bytes32"
        },
        {
          "internalType": "externalEuint32",
          "name": "b",
          "type": "bytes32"
        },
        {
          "internalType": "bytes",
          "name": "inputProof",
          "type": "bytes"
        }
      ],
      "name": "max_euint16_euint32",
      "outputs": [],
      "stateMutability": "nonpayable",
      "type": "function"
    },
    {
      "inputs": [
        {
          "internalType": "externalEuint16",
          "name": "a",
          "type": "bytes32"
        },
        {
          "internalType": "externalEuint64",
          "name": "b",
          "type": "bytes32"
        },
        {
          "internalType": "bytes",
          "name": "inputProof",
          "type": "bytes"
        }
      ],
      "name": "max_euint16_euint64",
      "outputs": [],
      "stateMutability": "nonpayable",
      "type": "function"
    },
    {
      "inputs": [
        {
          "internalType": "externalEuint32",
          "name": "a",
          "type": "bytes32"
        },
        {
          "internalType": "externalEuint16",
          "name": "b",
          "type": "bytes32"
        },
        {
          "internalType": "bytes",
          "name": "inputProof",
          "type": "bytes"
        }
      ],
      "name": "max_euint32_euint16",
      "outputs": [],
      "stateMutability": "nonpayable",
      "type": "function"
    },
    {
      "inputs": [
        {
          "internalType": "externalEuint32",
          "name": "a",
          "type": "bytes32"
        },
        {
          "internalType": "externalEuint8",
          "name": "b",
          "type": "bytes32"
        },
        {
          "internalType": "bytes",
          "name": "inputProof",
          "type": "bytes"
        }
      ],
      "name": "max_euint32_euint8",
      "outputs": [],
      "stateMutability": "nonpayable",
      "type": "function"
    },
    {
      "inputs": [
        {
          "internalType": "externalEuint16",
          "name": "a",
          "type": "bytes32"
        },
        {
          "internalType": "externalEuint128",
          "name": "b",
          "type": "bytes32"
        },
        {
          "internalType": "bytes",
          "name": "inputProof",
          "type": "bytes"
        }
      ],
      "name": "min_euint16_euint128",
      "outputs": [],
      "stateMutability": "nonpayable",
      "type": "function"
    },
    {
      "inputs": [
        {
          "internalType": "externalEuint16",
          "name": "a",
          "type": "bytes32"
        },
        {
          "internalType": "externalEuint16",
          "name": "b",
          "type": "bytes32"
        },
        {
          "internalType": "bytes",
          "name": "inputProof",
          "type": "bytes"
        }
      ],
      "name": "min_euint16_euint16",
      "outputs": [],
      "stateMutability": "nonpayable",
      "type": "function"
    },
    {
      "inputs": [
        {
          "internalType": "externalEuint16",
          "name": "a",
          "type": "bytes32"
        },
        {
          "internalType": "externalEuint32",
          "name": "b",
          "type": "bytes32"
        },
        {
          "internalType": "bytes",
          "name": "inputProof",
          "type": "bytes"
        }
      ],
      "name": "min_euint16_euint32",
      "outputs": [],
      "stateMutability": "nonpayable",
      "type": "function"
    },
    {
      "inputs": [
        {
          "internalType": "externalEuint16",
          "name": "a",
          "type": "bytes32"
        },
        {
          "internalType": "externalEuint64",
          "name": "b",
          "type": "bytes32"
        },
        {
          "internalType": "bytes",
          "name": "inputProof",
          "type": "bytes"
        }
      ],
      "name": "min_euint16_euint64",
      "outputs": [],
      "stateMutability": "nonpayable",
      "type": "function"
    },
    {
      "inputs": [
        {
          "internalType": "externalEuint32",
          "name": "a",
          "type": "bytes32"
        },
        {
          "internalType": "externalEuint16",
          "name": "b",
          "type": "bytes32"
        },
        {
          "internalType": "bytes",
          "name": "inputProof",
          "type": "bytes"
        }
      ],
      "name": "min_euint32_euint16",
      "outputs": [],
      "stateMutability": "nonpayable",
      "type": "function"
    },
    {
      "inputs": [
        {
          "internalType": "externalEuint32",
          "name": "a",
          "type": "bytes32"
        },
        {
          "internalType": "externalEuint8",
          "name": "b",
          "type": "bytes32"
        },
        {
          "internalType": "bytes",
          "name": "inputProof",
          "type": "bytes"
        }
      ],
      "name": "min_euint32_euint8",
      "outputs": [],
      "stateMutability": "nonpayable",
      "type": "function"
    },
    {
      "inputs": [
        {
          "internalType": "externalEuint16",
          "name": "a",
          "type": "bytes32"
        },
        {
          "internalType": "externalEuint128",
          "name": "b",
          "type": "bytes32"
        },
        {
          "internalType": "bytes",
          "name": "inputProof",
          "type": "bytes"
        }
      ],
      "name": "mul_euint16_euint128",
      "outputs": [],
      "stateMutability": "nonpayable",
      "type": "function"
    },
    {
      "inputs": [
        {
          "internalType": "externalEuint16",
          "name": "a",
          "type": "bytes32"
        },
        {
          "internalType": "externalEuint16",
          "name": "b",
          "type": "bytes32"
        },
        {
          "internalType": "bytes",
          "name": "inputProof",
          "type": "bytes"
        }
      ],
      "name": "mul_euint16_euint16",
      "outputs": [],
      "stateMutability": "nonpayable",
      "type": "function"
    },
    {
      "inputs": [
        {
          "internalType": "externalEuint16",
          "name": "a",
          "type": "bytes32"
        },
        {
          "internalType": "externalEuint32",
          "name": "b",
          "type": "bytes32"
        },
        {
          "internalType": "bytes",
          "name": "inputProof",
          "type": "bytes"
        }
      ],
      "name": "mul_euint16_euint32",
      "outputs": [],
      "stateMutability": "nonpayable",
      "type": "function"
    },
    {
      "inputs": [
        {
          "internalType": "externalEuint16",
          "name": "a",
          "type": "bytes32"
        },
        {
          "internalType": "externalEuint64",
          "name": "b",
          "type": "bytes32"
        },
        {
          "internalType": "bytes",
          "name": "inputProof",
          "type": "bytes"
        }
      ],
      "name": "mul_euint16_euint64",
      "outputs": [],
      "stateMutability": "nonpayable",
      "type": "function"
    },
    {
      "inputs": [
        {
          "internalType": "externalEuint32",
          "name": "a",
          "type": "bytes32"
        },
        {
          "internalType": "externalEuint16",
          "name": "b",
          "type": "bytes32"
        },
        {
          "internalType": "bytes",
          "name": "inputProof",
          "type": "bytes"
        }
      ],
      "name": "mul_euint32_euint16",
      "outputs": [],
      "stateMutability": "nonpayable",
      "type": "function"
    },
    {
      "inputs": [
        {
          "internalType": "externalEuint32",
          "name": "a",
          "type": "bytes32"
        },
        {
          "internalType": "externalEuint8",
          "name": "b",
          "type": "bytes32"
        },
        {
          "internalType": "bytes",
          "name": "inputProof",
          "type": "bytes"
        }
      ],
      "name": "mul_euint32_euint8",
      "outputs": [],
      "stateMutability": "nonpayable",
      "type": "function"
    },
    {
      "inputs": [
        {
          "internalType": "externalEuint16",
          "name": "a",
          "type": "bytes32"
        },
        {
          "internalType": "externalEuint128",
          "name": "b",
          "type": "bytes32"
        },
        {
          "internalType": "bytes",
          "name": "inputProof",
          "type": "bytes"
        }
      ],
      "name": "ne_euint16_euint128",
      "outputs": [],
      "stateMutability": "nonpayable",
      "type": "function"
    },
    {
      "inputs": [
        {
          "internalType": "externalEuint16",
          "name": "a",
          "type": "bytes32"
        },
        {
          "internalType": "externalEuint16",
          "name": "b",
          "type": "bytes32"
        },
        {
          "internalType": "bytes",
          "name": "inputProof",
          "type": "bytes"
        }
      ],
      "name": "ne_euint16_euint16",
      "outputs": [],
      "stateMutability": "nonpayable",
      "type": "function"
    },
    {
      "inputs": [
        {
          "internalType": "externalEuint16",
          "name": "a",
          "type": "bytes32"
        },
        {
          "internalType": "externalEuint256",
          "name": "b",
          "type": "bytes32"
        },
        {
          "internalType": "bytes",
          "name": "inputProof",
          "type": "bytes"
        }
      ],
      "name": "ne_euint16_euint256",
      "outputs": [],
      "stateMutability": "nonpayable",
      "type": "function"
    },
    {
      "inputs": [
        {
          "internalType": "externalEuint16",
          "name": "a",
          "type": "bytes32"
        },
        {
          "internalType": "externalEuint32",
          "name": "b",
          "type": "bytes32"
        },
        {
          "internalType": "bytes",
          "name": "inputProof",
          "type": "bytes"
        }
      ],
      "name": "ne_euint16_euint32",
      "outputs": [],
      "stateMutability": "nonpayable",
      "type": "function"
    },
    {
      "inputs": [
        {
          "internalType": "externalEuint16",
          "name": "a",
          "type": "bytes32"
        },
        {
          "internalType": "externalEuint64",
          "name": "b",
          "type": "bytes32"
        },
        {
          "internalType": "bytes",
          "name": "inputProof",
          "type": "bytes"
        }
      ],
      "name": "ne_euint16_euint64",
      "outputs": [],
      "stateMutability": "nonpayable",
      "type": "function"
    },
    {
      "inputs": [
        {
          "internalType": "externalEuint32",
          "name": "a",
          "type": "bytes32"
        },
        {
          "internalType": "externalEuint16",
          "name": "b",
          "type": "bytes32"
        },
        {
          "internalType": "bytes",
          "name": "inputProof",
          "type": "bytes"
        }
      ],
      "name": "ne_euint32_euint16",
      "outputs": [],
      "stateMutability": "nonpayable",
      "type": "function"
    },
    {
      "inputs": [
        {
          "internalType": "externalEuint32",
          "name": "a",
          "type": "bytes32"
        },
        {
          "internalType": "externalEuint8",
          "name": "b",
          "type": "bytes32"
        },
        {
          "internalType": "bytes",
          "name": "inputProof",
          "type": "bytes"
        }
      ],
      "name": "ne_euint32_euint8",
      "outputs": [],
      "stateMutability": "nonpayable",
      "type": "function"
    },
    {
      "inputs": [
        {
          "internalType": "externalEuint16",
          "name": "a",
          "type": "bytes32"
        },
        {
          "internalType": "externalEuint128",
          "name": "b",
          "type": "bytes32"
        },
        {
          "internalType": "bytes",
          "name": "inputProof",
          "type": "bytes"
        }
      ],
      "name": "or_euint16_euint128",
      "outputs": [],
      "stateMutability": "nonpayable",
      "type": "function"
    },
    {
      "inputs": [
        {
          "internalType": "externalEuint16",
          "name": "a",
          "type": "bytes32"
        },
        {
          "internalType": "externalEuint16",
          "name": "b",
          "type": "bytes32"
        },
        {
          "internalType": "bytes",
          "name": "inputProof",
          "type": "bytes"
        }
      ],
      "name": "or_euint16_euint16",
      "outputs": [],
      "stateMutability": "nonpayable",
      "type": "function"
    },
    {
      "inputs": [
        {
          "internalType": "externalEuint16",
          "name": "a",
          "type": "bytes32"
        },
        {
          "internalType": "externalEuint256",
          "name": "b",
          "type": "bytes32"
        },
        {
          "internalType": "bytes",
          "name": "inputProof",
          "type": "bytes"
        }
      ],
      "name": "or_euint16_euint256",
      "outputs": [],
      "stateMutability": "nonpayable",
      "type": "function"
    },
    {
      "inputs": [
        {
          "internalType": "externalEuint16",
          "name": "a",
          "type": "bytes32"
        },
        {
          "internalType": "externalEuint32",
          "name": "b",
          "type": "bytes32"
        },
        {
          "internalType": "bytes",
          "name": "inputProof",
          "type": "bytes"
        }
      ],
      "name": "or_euint16_euint32",
      "outputs": [],
      "stateMutability": "nonpayable",
      "type": "function"
    },
    {
      "inputs": [
        {
          "internalType": "externalEuint16",
          "name": "a",
          "type": "bytes32"
        },
        {
          "internalType": "externalEuint64",
          "name": "b",
          "type": "bytes32"
        },
        {
          "internalType": "bytes",
          "name": "inputProof",
          "type": "bytes"
        }
      ],
      "name": "or_euint16_euint64",
      "outputs": [],
      "stateMutability": "nonpayable",
      "type": "function"
    },
    {
      "inputs": [
        {
          "internalType": "externalEuint32",
          "name": "a",
          "type": "bytes32"
        },
        {
          "internalType": "externalEuint16",
          "name": "b",
          "type": "bytes32"
        },
        {
          "internalType": "bytes",
          "name": "inputProof",
          "type": "bytes"
        }
      ],
      "name": "or_euint32_euint16",
      "outputs": [],
      "stateMutability": "nonpayable",
      "type": "function"
    },
    {
      "inputs": [
        {
          "internalType": "externalEuint32",
          "name": "a",
          "type": "bytes32"
        },
        {
          "internalType": "externalEuint8",
          "name": "b",
          "type": "bytes32"
        },
        {
          "internalType": "bytes",
          "name": "inputProof",
          "type": "bytes"
        }
      ],
      "name": "or_euint32_euint8",
      "outputs": [],
      "stateMutability": "nonpayable",
      "type": "function"
    },
    {
      "inputs": [],
      "name": "resEbool",
      "outputs": [
        {
          "internalType": "ebool",
          "name": "",
          "type": "bytes32"
        }
      ],
      "stateMutability": "view",
      "type": "function"
    },
    {
      "inputs": [],
      "name": "resEuint128",
      "outputs": [
        {
          "internalType": "euint128",
          "name": "",
          "type": "bytes32"
        }
      ],
      "stateMutability": "view",
      "type": "function"
    },
    {
      "inputs": [],
      "name": "resEuint16",
      "outputs": [
        {
          "internalType": "euint16",
          "name": "",
          "type": "bytes32"
        }
      ],
      "stateMutability": "view",
      "type": "function"
    },
    {
      "inputs": [],
      "name": "resEuint256",
      "outputs": [
        {
          "internalType": "euint256",
          "name": "",
          "type": "bytes32"
        }
      ],
      "stateMutability": "view",
      "type": "function"
    },
    {
      "inputs": [],
      "name": "resEuint32",
      "outputs": [
        {
          "internalType": "euint32",
          "name": "",
          "type": "bytes32"
        }
      ],
      "stateMutability": "view",
      "type": "function"
    },
    {
      "inputs": [],
      "name": "resEuint64",
      "outputs": [
        {
          "internalType": "euint64",
          "name": "",
          "type": "bytes32"
        }
      ],
      "stateMutability": "view",
      "type": "function"
    },
    {
      "inputs": [],
      "name": "resEuint8",
      "outputs": [
        {
          "internalType": "euint8",
          "name": "",
          "type": "bytes32"
        }
      ],
      "stateMutability": "view",
      "type": "function"
    },
    {
      "inputs": [
        {
          "internalType": "externalEuint16",
          "name": "a",
          "type": "bytes32"
        },
        {
          "internalType": "externalEuint128",
          "name": "b",
          "type": "bytes32"
        },
        {
          "internalType": "bytes",
          "name": "inputProof",
          "type": "bytes"
        }
      ],
      "name": "sub_euint16_euint128",
      "outputs": [],
      "stateMutability": "nonpayable",
      "type": "function"
    },
    {
      "inputs": [
        {
          "internalType": "externalEuint16",
          "name": "a",
          "type": "bytes32"
        },
        {
          "internalType": "externalEuint16",
          "name": "b",
          "type": "bytes32"
        },
        {
          "internalType": "bytes",
          "name": "inputProof",
          "type": "bytes"
        }
      ],
      "name": "sub_euint16_euint16",
      "outputs": [],
      "stateMutability": "nonpayable",
      "type": "function"
    },
    {
      "inputs": [
        {
          "internalType": "externalEuint16",
          "name": "a",
          "type": "bytes32"
        },
        {
          "internalType": "externalEuint32",
          "name": "b",
          "type": "bytes32"
        },
        {
          "internalType": "bytes",
          "name": "inputProof",
          "type": "bytes"
        }
      ],
      "name": "sub_euint16_euint32",
      "outputs": [],
      "stateMutability": "nonpayable",
      "type": "function"
    },
    {
      "inputs": [
        {
          "internalType": "externalEuint16",
          "name": "a",
          "type": "bytes32"
        },
        {
          "internalType": "externalEuint64",
          "name": "b",
          "type": "bytes32"
        },
        {
          "internalType": "bytes",
          "name": "inputProof",
          "type": "bytes"
        }
      ],
      "name": "sub_euint16_euint64",
      "outputs": [],
      "stateMutability": "nonpayable",
      "type": "function"
    },
    {
      "inputs": [
        {
          "internalType": "externalEuint32",
          "name": "a",
          "type": "bytes32"
        },
        {
          "internalType": "externalEuint16",
          "name": "b",
          "type": "bytes32"
        },
        {
          "internalType": "bytes",
          "name": "inputProof",
          "type": "bytes"
        }
      ],
      "name": "sub_euint32_euint16",
      "outputs": [],
      "stateMutability": "nonpayable",
      "type": "function"
    },
    {
      "inputs": [
        {
          "internalType": "externalEuint32",
          "name": "a",
          "type": "bytes32"
        },
        {
          "internalType": "externalEuint32",
          "name": "b",
          "type": "bytes32"
        },
        {
          "internalType": "bytes",
          "name": "inputProof",
          "type": "bytes"
        }
      ],
      "name": "sub_euint32_euint32",
      "outputs": [],
      "stateMutability": "nonpayable",
      "type": "function"
    },
    {
      "inputs": [
        {
          "internalType": "externalEuint32",
          "name": "a",
          "type": "bytes32"
        },
        {
          "internalType": "externalEuint8",
          "name": "b",
          "type": "bytes32"
        },
        {
          "internalType": "bytes",
          "name": "inputProof",
          "type": "bytes"
        }
      ],
      "name": "sub_euint32_euint8",
      "outputs": [],
      "stateMutability": "nonpayable",
      "type": "function"
    },
    {
      "inputs": [
        {
          "internalType": "externalEuint16",
          "name": "a",
          "type": "bytes32"
        },
        {
          "internalType": "externalEuint128",
          "name": "b",
          "type": "bytes32"
        },
        {
          "internalType": "bytes",
          "name": "inputProof",
          "type": "bytes"
        }
      ],
      "name": "xor_euint16_euint128",
      "outputs": [],
      "stateMutability": "nonpayable",
      "type": "function"
    },
    {
      "inputs": [
        {
          "internalType": "externalEuint16",
          "name": "a",
          "type": "bytes32"
        },
        {
          "internalType": "externalEuint16",
          "name": "b",
          "type": "bytes32"
        },
        {
          "internalType": "bytes",
          "name": "inputProof",
          "type": "bytes"
        }
      ],
      "name": "xor_euint16_euint16",
      "outputs": [],
      "stateMutability": "nonpayable",
      "type": "function"
    },
    {
      "inputs": [
        {
          "internalType": "externalEuint16",
          "name": "a",
          "type": "bytes32"
        },
        {
          "internalType": "externalEuint256",
          "name": "b",
          "type": "bytes32"
        },
        {
          "internalType": "bytes",
          "name": "inputProof",
          "type": "bytes"
        }
      ],
      "name": "xor_euint16_euint256",
      "outputs": [],
      "stateMutability": "nonpayable",
      "type": "function"
    },
    {
      "inputs": [
        {
          "internalType": "externalEuint16",
          "name": "a",
          "type": "bytes32"
        },
        {
          "internalType": "externalEuint32",
          "name": "b",
          "type": "bytes32"
        },
        {
          "internalType": "bytes",
          "name": "inputProof",
          "type": "bytes"
        }
      ],
      "name": "xor_euint16_euint32",
      "outputs": [],
      "stateMutability": "nonpayable",
      "type": "function"
    },
    {
      "inputs": [
        {
          "internalType": "externalEuint16",
          "name": "a",
          "type": "bytes32"
        },
        {
          "internalType": "externalEuint64",
          "name": "b",
          "type": "bytes32"
        },
        {
          "internalType": "bytes",
          "name": "inputProof",
          "type": "bytes"
        }
      ],
      "name": "xor_euint16_euint64",
      "outputs": [],
      "stateMutability": "nonpayable",
      "type": "function"
    },
    {
      "inputs": [
        {
          "internalType": "externalEuint32",
          "name": "a",
          "type": "bytes32"
        },
        {
          "internalType": "externalEuint16",
          "name": "b",
          "type": "bytes32"
        },
        {
          "internalType": "bytes",
          "name": "inputProof",
          "type": "bytes"
        }
      ],
      "name": "xor_euint32_euint16",
      "outputs": [],
      "stateMutability": "nonpayable",
      "type": "function"
    },
    {
      "inputs": [
        {
          "internalType": "externalEuint32",
          "name": "a",
          "type": "bytes32"
        },
        {
          "internalType": "externalEuint8",
          "name": "b",
          "type": "bytes32"
        },
        {
          "internalType": "bytes",
          "name": "inputProof",
          "type": "bytes"
        }
      ],
      "name": "xor_euint32_euint8",
      "outputs": [],
      "stateMutability": "nonpayable",
      "type": "function"
    }
  ],
  "bytecode": "0x608060405234801562000010575f80fd5b506200018d620000b1604080516080810182525f8082526020820181905291810182905260608101919091525060408051608081018252738b867b46793a978847e1254781579867fb129a13815273c5092f6c1f30c8970dc835f0f754057f79b89cc66020820152730ca0dc8810361829363ab17196a747fa1387d2029181019190915273482af59820c30d13c9b06adc75c741912e599d29606082015290565b80517fed8d60e34876f751cc8b014c560745351147d9de11b9347c854e881b128ea60080546001600160a01b03199081166001600160a01b039384161790915560208301517fed8d60e34876f751cc8b014c560745351147d9de11b9347c854e881b128ea6018054831691841691909117905560408301517fed8d60e34876f751cc8b014c560745351147d9de11b9347c854e881b128ea6028054831691841691909117905560608301517fed8d60e34876f751cc8b014c560745351147d9de11b9347c854e881b128ea6038054909216921691909117905550565b615014806200019b5f395ff3fe608060405234801561000f575f80fd5b5060043610610625575f3560e01c8063962706b411610328578063c93b3078116101b3578063e45db778116100fe578063f28031be116100a9578063f7ea105611610084578063f7ea105614610ce5578063faebb21014610cf8578063fb48265414610d0b578063ff3002a714610d1e575f80fd5b8063f28031be14610cac578063f5f5e09614610cbf578063f750512d14610cd2575f80fd5b8063eb04c2da116100d9578063eb04c2da14610c7d578063f1b5aa4114610c86578063f1c6af9e14610c99575f80fd5b8063e45db77814610c44578063e6f79e4c14610c57578063e9c6b43f14610c6a575f80fd5b8063d6ec68b41161015e578063df8104eb11610139578063df8104eb14610c0b578063e10c7d3914610c1e578063e1a4a68a14610c31575f80fd5b8063d6ec68b414610bd2578063dd19c56914610be5578063df012a2614610bf8575f80fd5b8063ce9f10eb1161018e578063ce9f10eb14610b99578063cefa38f414610bac578063d1c5a8d014610bbf575f80fd5b8063c93b307814610b60578063cac3cb0814610b73578063cb59749614610b86575f80fd5b8063b7440fdb11610273578063c53e64d01161021e578063c6628342116101f9578063c662834214610b31578063c832e26914610b3a578063c83d99d714610b4d575f80fd5b8063c53e64d014610af8578063c542330614610b0b578063c55ba61b14610b1e575f80fd5b8063bbc307da1161024e578063bbc307da14610ac9578063bef4f8b714610ad2578063c34b6b7b14610ae5575f80fd5b8063b7440fdb14610a9a578063b7ee6f7e14610aa3578063bba77ea014610ab6575f80fd5b8063aafefc35116102d3578063b1752cef116102ae578063b1752cef14610a61578063b3be160b14610a74578063b69caae114610a87575f80fd5b8063aafefc3514610a28578063b04c63e314610a3b578063b10ae79614610a4e575f80fd5b80639d54ddb6116103035780639d54ddb6146109f95780639ee9a4a814610a0c578063a71a71eb14610a1f575f80fd5b8063962706b4146109cb57806399695070146109de5780639c6aba6e146109e6575f80fd5b806352e93882116104b357806380f670e0116103fe5780638a59c9bc116103a95780638bf4c538116103845780638bf4c5381461097f5780638f77138114610992578063927a4dfa146109a557806392cbf998146109b8575f80fd5b80638a59c9bc146109465780638b041c00146109595780638bb45cbf1461096c575f80fd5b8063840e6162116103d9578063840e61621461090d57806386a58d5b14610920578063870b486814610933575f80fd5b806380f670e0146108d4578063811591c1146108e757806382930e9a146108fa575f80fd5b8063722f7dcc1161045e57806377d911781161043957806377d91178146108a55780637a75a5ee146108ae5780637d7b94c4146108c1575f80fd5b8063722f7dcc1461086c57806373afd5561461087f57806377ad813914610892575f80fd5b80635f5c16301161048e5780635f5c16301461083357806362d4795e146108465780636a44174514610859575f80fd5b806352e93882146107fa578063548241ab1461080d5780635dcbca7b14610820575f80fd5b80632ec23d0b1161057357806332c812ee1161051e578063493d39fe116104f9578063493d39fe146107c15780634c7d393e146107d4578063502ba258146107e7575f80fd5b806332c812ee146107885780633bdf41281461079b57806344cb665f146107ae575f80fd5b80633054bc551161054e5780633054bc551461074f5780633112805f14610762578063311aba8d14610775575f80fd5b80632ec23d0b146107165780632fc630c9146107295780632fe1404c1461073c575f80fd5b806310787a85116105d35780631cde8009116105ae5780631cde8009146106d657806325db19d4146106e95780632d37c2ff146106fc575f80fd5b806310787a851461069d5780631a4c12b0146106b05780631b1e58f5146106c3575f80fd5b8063068582f411610603578063068582f4146106645780630ceb895b146106775780630f91ed541461068a575f80fd5b806301e00cd91461062957806302059d151461063e57806304e82a3614610651575b5f80fd5b61063c610637366004614e83565b610d31565b005b61063c61064c366004614e83565b610dd6565b61063c61065f366004614e83565b610e65565b61063c610672366004614e83565b610f0b565b61063c610685366004614e83565b610fb1565b61063c610698366004614e83565b611057565b61063c6106ab366004614e83565b6110fd565b61063c6106be366004614e83565b61118c565b61063c6106d1366004614e83565b61121b565b61063c6106e4366004614e83565b6112aa565b61063c6106f7366004614e83565b611350565b6107045f5481565b60405190815260200160405180910390f35b61063c610724366004614e83565b6113df565b61063c610737366004614e83565b61146e565b61063c61074a366004614e83565b6114fd565b61063c61075d366004614e83565b61158c565b61063c610770366004614e83565b61161b565b61063c610783366004614e83565b6116aa565b61063c610796366004614e83565b611739565b61063c6107a9366004614e83565b6117c8565b61063c6107bc366004614e83565b611857565b61063c6107cf366004614e83565b6118e6565b61063c6107e2366004614e83565b611975565b61063c6107f5366004614e83565b611a04565b61063c610808366004614e83565b611a93565b61063c61081b366004614e83565b611b22565b61063c61082e366004614e83565b611bb1565b61063c610841366004614e83565b611c40565b61063c610854366004614e83565b611ccf565b61063c610867366004614e83565b611d5e565b61063c61087a366004614e83565b611de0565b61063c61088d366004614e83565b611e6f565b61063c6108a0366004614e83565b611efe565b61070460065481565b61063c6108bc366004614e83565b611f8d565b61063c6108cf366004614e83565b61201c565b61063c6108e2366004614e83565b6120ab565b61063c6108f5366004614e83565b61213a565b61063c610908366004614e83565b6121c9565b61063c61091b366004614e83565b612258565b61063c61092e366004614e83565b6122e7565b61063c610941366004614e83565b612369565b61063c610954366004614e83565b6123f8565b61063c610967366004614e83565b612487565b61063c61097a366004614e83565b612516565b61063c61098d366004614e83565b6125a5565b61063c6109a0366004614e83565b612634565b61063c6109b3366004614e83565b6126c3565b61063c6109c6366004614e83565b612752565b61063c6109d9366004614e83565b6127e1565b61063c612870565b61063c6109f4366004614e83565b6128a3565b61063c610a07366004614e83565b612932565b61063c610a1a366004614e83565b6129c1565b61070460035481565b61063c610a36366004614e83565b612a50565b61063c610a49366004614e83565b612adf565b61063c610a5c366004614e83565b612b6e565b61063c610a6f366004614e83565b612bfd565b61063c610a82366004614e83565b612c8c565b61063c610a95366004614e83565b612d1b565b61070460015481565b61063c610ab1366004614e83565b612daa565b61063c610ac4366004614e83565b612e39565b61070460025481565b61063c610ae0366004614e83565b612ec8565b61063c610af3366004614e83565b612f57565b61063c610b06366004614e83565b612fe6565b61063c610b19366004614e83565b613075565b61063c610b2c366004614e83565b6130f7565b61070460055481565b61063c610b48366004614e83565b613186565b61063c610b5b366004614e83565b613215565b61063c610b6e366004614e83565b613297565b61063c610b81366004614e83565b613326565b61063c610b94366004614e83565b6133a8565b61063c610ba7366004614e83565b61342a565b61063c610bba366004614e83565b6134b9565b61063c610bcd366004614e83565b613548565b61063c610be0366004614e83565b6135d7565b61063c610bf3366004614e83565b613666565b61063c610c06366004614e83565b6136f5565b61063c610c19366004614e83565b613784565b61063c610c2c366004614e83565b613806565b61063c610c3f366004614e83565b613895565b61063c610c52366004614e83565b613924565b61063c610c65366004614e83565b6139a6565b61063c610c78366004614e83565b613a28565b61070460045481565b61063c610c94366004614e83565b613aaa565b61063c610ca7366004614e83565b613b39565b61063c610cba366004614e83565b613bc8565b61063c610ccd366004614e83565b613c4a565b61063c610ce0366004614e83565b613cd9565b61063c610cf3366004614e83565b613d68565b61063c610d06366004614e83565b613dea565b61063c610d19366004614e83565b613e79565b61063c610d2c366004614e83565b613efb565b5f610d718584848080601f0160208091040260200160405190810160405280939291908181526020018383808284375f92019190915250613f7d92505050565b90505f610db38585858080601f0160208091040260200160405190810160405280939291908181526020018383808284375f92019190915250613f9192505050565b90505f610dc08383613f9e565b9050610dcb81613fb2565b505f55505050505050565b5f610e168584848080601f0160208091040260200160405190810160405280939291908181526020018383808284375f92019190915250613f7d92505050565b90505f610e588585858080601f0160208091040260200160405190810160405280939291908181526020018383808284375f92019190915250613fc192505050565b90505f610dc08383613fce565b5f610ea58584848080601f0160208091040260200160405190810160405280939291908181526020018383808284375f92019190915250613f9192505050565b90505f610ee78585858080601f0160208091040260200160405190810160405280939291908181526020018383808284375f92019190915250613fe292505050565b90505f610ef48383613fef565b9050610eff81613fb2565b50600455505050505050565b5f610f4b8584848080601f0160208091040260200160405190810160405280939291908181526020018383808284375f92019190915250613f9192505050565b90505f610f8d8585858080601f0160208091040260200160405190810160405280939291908181526020018383808284375f9201919091525061400392505050565b90505f610f9a8383614010565b9050610fa581613fb2565b50600655505050505050565b5f610ff18584848080601f0160208091040260200160405190810160405280939291908181526020018383808284375f92019190915250613f9192505050565b90505f6110338585858080601f0160208091040260200160405190810160405280939291908181526020018383808284375f92019190915250613f9192505050565b90505f6110408383614024565b905061104b81613fb2565b50600255505050505050565b5f6110978584848080601f0160208091040260200160405190810160405280939291908181526020018383808284375f92019190915250613f9192505050565b90505f6110d98585858080601f0160208091040260200160405190810160405280939291908181526020018383808284375f92019190915250613f7d92505050565b90505f6110e68383614030565b90506110f181613fb2565b50600355505050505050565b5f61113d8584848080601f0160208091040260200160405190810160405280939291908181526020018383808284375f92019190915250613f7d92505050565b90505f61117f8585858080601f0160208091040260200160405190810160405280939291908181526020018383808284375f92019190915250613f9192505050565b90505f6110e68383614044565b5f6111cc8584848080601f0160208091040260200160405190810160405280939291908181526020018383808284375f92019190915250613f9192505050565b90505f61120e8585858080601f0160208091040260200160405190810160405280939291908181526020018383808284375f92019190915250613fe292505050565b90505f610ef48383614058565b5f61125b8584848080601f0160208091040260200160405190810160405280939291908181526020018383808284375f92019190915250613f7d92505050565b90505f61129d8585858080601f0160208091040260200160405190810160405280939291908181526020018383808284375f92019190915250613f7d92505050565b90505f6110e6838361406c565b5f6112ea8584848080601f0160208091040260200160405190810160405280939291908181526020018383808284375f92019190915250613f9192505050565b90505f61132c8585858080601f0160208091040260200160405190810160405280939291908181526020018383808284375f9201919091525061407892505050565b90505f6113398383614085565b905061134481613fb2565b50600555505050505050565b5f6113908584848080601f0160208091040260200160405190810160405280939291908181526020018383808284375f92019190915250613f9192505050565b90505f6113d28585858080601f0160208091040260200160405190810160405280939291908181526020018383808284375f9201919091525061400392505050565b90505f610dc08383614099565b5f61141f8584848080601f0160208091040260200160405190810160405280939291908181526020018383808284375f92019190915250613f7d92505050565b90505f6114618585858080601f0160208091040260200160405190810160405280939291908181526020018383808284375f92019190915250613fc192505050565b90505f6110e683836140ad565b5f6114ae8584848080601f0160208091040260200160405190810160405280939291908181526020018383808284375f92019190915250613f9192505050565b90505f6114f08585858080601f0160208091040260200160405190810160405280939291908181526020018383808284375f92019190915250613f9192505050565b90505f61104083836140c1565b5f61153d8584848080601f0160208091040260200160405190810160405280939291908181526020018383808284375f92019190915250613f7d92505050565b90505f61157f8585858080601f0160208091040260200160405190810160405280939291908181526020018383808284375f92019190915250613f9192505050565b90505f610dc083836140cd565b5f6115cc8584848080601f0160208091040260200160405190810160405280939291908181526020018383808284375f92019190915250613f7d92505050565b90505f61160e8585858080601f0160208091040260200160405190810160405280939291908181526020018383808284375f92019190915250613f9192505050565b90505f610dc083836140e1565b5f61165b8584848080601f0160208091040260200160405190810160405280939291908181526020018383808284375f92019190915250613f9192505050565b90505f61169d8585858080601f0160208091040260200160405190810160405280939291908181526020018383808284375f92019190915250613f7d92505050565b90505f6110e683836140f5565b5f6116ea8584848080601f0160208091040260200160405190810160405280939291908181526020018383808284375f92019190915250613f9192505050565b90505f61172c8585858080601f0160208091040260200160405190810160405280939291908181526020018383808284375f9201919091525061407892505050565b90505f6113398383614102565b5f6117798584848080601f0160208091040260200160405190810160405280939291908181526020018383808284375f92019190915250613f9192505050565b90505f6117bb8585858080601f0160208091040260200160405190810160405280939291908181526020018383808284375f92019190915250613fe292505050565b90505f610ef4838361410f565b5f6118088584848080601f0160208091040260200160405190810160405280939291908181526020018383808284375f92019190915250613f9192505050565b90505f61184a8585858080601f0160208091040260200160405190810160405280939291908181526020018383808284375f9201919091525061407892505050565b90505f610dc08383614123565b5f6118978584848080601f0160208091040260200160405190810160405280939291908181526020018383808284375f92019190915250613f7d92505050565b90505f6118d98585858080601f0160208091040260200160405190810160405280939291908181526020018383808284375f92019190915250613fc192505050565b90505f6110e68383614137565b5f6119268584848080601f0160208091040260200160405190810160405280939291908181526020018383808284375f92019190915250613f9192505050565b90505f6119688585858080601f0160208091040260200160405190810160405280939291908181526020018383808284375f92019190915250613f7d92505050565b90505f6110e6838361414b565b5f6119b58584848080601f0160208091040260200160405190810160405280939291908181526020018383808284375f92019190915250613f9192505050565b90505f6119f78585858080601f0160208091040260200160405190810160405280939291908181526020018383808284375f92019190915250613fe292505050565b90505f610dc08383614158565b5f611a448584848080601f0160208091040260200160405190810160405280939291908181526020018383808284375f92019190915250613f9192505050565b90505f611a868585858080601f0160208091040260200160405190810160405280939291908181526020018383808284375f9201919091525061407892505050565b90505f610dc0838361416c565b5f611ad38584848080601f0160208091040260200160405190810160405280939291908181526020018383808284375f92019190915250613f9192505050565b90505f611b158585858080601f0160208091040260200160405190810160405280939291908181526020018383808284375f92019190915250613fe292505050565b90505f610dc08383614180565b5f611b628584848080601f0160208091040260200160405190810160405280939291908181526020018383808284375f92019190915250613f9192505050565b90505f611ba48585858080601f0160208091040260200160405190810160405280939291908181526020018383808284375f92019190915250613f7d92505050565b90505f6110e6838361418d565b5f611bf18584848080601f0160208091040260200160405190810160405280939291908181526020018383808284375f92019190915250613f9192505050565b90505f611c338585858080601f0160208091040260200160405190810160405280939291908181526020018383808284375f92019190915250613f7d92505050565b90505f610dc083836141a1565b5f611c808584848080601f0160208091040260200160405190810160405280939291908181526020018383808284375f92019190915250613f7d92505050565b90505f611cc28585858080601f0160208091040260200160405190810160405280939291908181526020018383808284375f92019190915250613f9192505050565b90505f6110e683836141ae565b5f611d0f8584848080601f0160208091040260200160405190810160405280939291908181526020018383808284375f92019190915250613f9192505050565b90505f611d518585858080601f0160208091040260200160405190810160405280939291908181526020018383808284375f92019190915250613f7d92505050565b90505f6110e683836141c2565b5f611d9e8584848080601f0160208091040260200160405190810160405280939291908181526020018383808284375f92019190915250613f7d92505050565b90505f6114618585858080601f0160208091040260200160405190810160405280939291908181526020018383808284375f92019190915250613f9192505050565b5f611e208584848080601f0160208091040260200160405190810160405280939291908181526020018383808284375f92019190915250613f9192505050565b90505f611e628585858080601f0160208091040260200160405190810160405280939291908181526020018383808284375f92019190915250613fe292505050565b90505f610ef483836141d6565b5f611eaf8584848080601f0160208091040260200160405190810160405280939291908181526020018383808284375f92019190915250613f9192505050565b90505f611ef18585858080601f0160208091040260200160405190810160405280939291908181526020018383808284375f92019190915250613fe292505050565b90505f610dc083836141e3565b5f611f3e8584848080601f0160208091040260200160405190810160405280939291908181526020018383808284375f92019190915250613f9192505050565b90505f611f808585858080601f0160208091040260200160405190810160405280939291908181526020018383808284375f92019190915250613f7d92505050565b90505f6110e683836141f0565b5f611fcd8584848080601f0160208091040260200160405190810160405280939291908181526020018383808284375f92019190915250613f9192505050565b90505f61200f8585858080601f0160208091040260200160405190810160405280939291908181526020018383808284375f9201919091525061407892505050565b90505f61133983836141fd565b5f61205c8584848080601f0160208091040260200160405190810160405280939291908181526020018383808284375f92019190915250613f7d92505050565b90505f61209e8585858080601f0160208091040260200160405190810160405280939291908181526020018383808284375f92019190915250613f9192505050565b90505f6110e6838361420a565b5f6120eb8584848080601f0160208091040260200160405190810160405280939291908181526020018383808284375f92019190915250613f9192505050565b90505f61212d8585858080601f0160208091040260200160405190810160405280939291908181526020018383808284375f9201919091525061407892505050565b90505f610dc0838361421e565b5f61217a8584848080601f0160208091040260200160405190810160405280939291908181526020018383808284375f92019190915250613f9192505050565b90505f6121bc8585858080601f0160208091040260200160405190810160405280939291908181526020018383808284375f9201919091525061407892505050565b90505f6113398383614232565b5f6122098584848080601f0160208091040260200160405190810160405280939291908181526020018383808284375f92019190915250613f9192505050565b90505f61224b8585858080601f0160208091040260200160405190810160405280939291908181526020018383808284375f92019190915250613f7d92505050565b90505f610dc0838361423f565b5f6122988584848080601f0160208091040260200160405190810160405280939291908181526020018383808284375f92019190915250613f9192505050565b90505f6122da8585858080601f0160208091040260200160405190810160405280939291908181526020018383808284375f92019190915250613f7d92505050565b90505f610dc0838361424c565b5f6123278584848080601f0160208091040260200160405190810160405280939291908181526020018383808284375f92019190915250613f7d92505050565b90505f610db38585858080601f0160208091040260200160405190810160405280939291908181526020018383808284375f92019190915250613fc192505050565b5f6123a98584848080601f0160208091040260200160405190810160405280939291908181526020018383808284375f92019190915250613f9192505050565b90505f6123eb8585858080601f0160208091040260200160405190810160405280939291908181526020018383808284375f9201919091525061400392505050565b90505f610f9a8383614259565b5f6124388584848080601f0160208091040260200160405190810160405280939291908181526020018383808284375f92019190915250613f9192505050565b90505f61247a8585858080601f0160208091040260200160405190810160405280939291908181526020018383808284375f9201919091525061407892505050565b90505f6113398383614266565b5f6124c78584848080601f0160208091040260200160405190810160405280939291908181526020018383808284375f92019190915250613f9192505050565b90505f6125098585858080601f0160208091040260200160405190810160405280939291908181526020018383808284375f92019190915250613f9192505050565b90505f6110408383614273565b5f6125568584848080601f0160208091040260200160405190810160405280939291908181526020018383808284375f92019190915250613f9192505050565b90505f6125988585858080601f0160208091040260200160405190810160405280939291908181526020018383808284375f9201919091525061407892505050565b90505f611339838361427f565b5f6125e58584848080601f0160208091040260200160405190810160405280939291908181526020018383808284375f92019190915250613f7d92505050565b90505f6126278585858080601f0160208091040260200160405190810160405280939291908181526020018383808284375f92019190915250613fc192505050565b90505f6110e6838361428c565b5f6126748584848080601f0160208091040260200160405190810160405280939291908181526020018383808284375f92019190915250613f9192505050565b90505f6126b68585858080601f0160208091040260200160405190810160405280939291908181526020018383808284375f92019190915250613f9192505050565b90505f61104083836142a0565b5f6127038584848080601f0160208091040260200160405190810160405280939291908181526020018383808284375f92019190915250613f7d92505050565b90505f6127458585858080601f0160208091040260200160405190810160405280939291908181526020018383808284375f92019190915250613f9192505050565b90505f6110e683836142ac565b5f6127928584848080601f0160208091040260200160405190810160405280939291908181526020018383808284375f92019190915250613f9192505050565b90505f6127d48585858080601f0160208091040260200160405190810160405280939291908181526020018383808284375f92019190915250613f7d92505050565b90505f6110e683836142c0565b5f6128218584848080601f0160208091040260200160405190810160405280939291908181526020018383808284375f92019190915250613f9192505050565b90505f6128638585858080601f0160208091040260200160405190810160405280939291908181526020018383808284375f92019190915250613f9192505050565b90505f610dc083836142cd565b5f61287b60c76142d9565b905061288681613fb2565b505f61289361012b6142d9565b905061289e81613fb2565b505050565b5f6128e38584848080601f0160208091040260200160405190810160405280939291908181526020018383808284375f92019190915250613f9192505050565b90505f6129258585858080601f0160208091040260200160405190810160405280939291908181526020018383808284375f9201919091525061407892505050565b90505f61133983836142ef565b5f6129728584848080601f0160208091040260200160405190810160405280939291908181526020018383808284375f92019190915250613f9192505050565b90505f6129b48585858080601f0160208091040260200160405190810160405280939291908181526020018383808284375f9201919091525061407892505050565b90505f610dc083836142fc565b5f612a018584848080601f0160208091040260200160405190810160405280939291908181526020018383808284375f92019190915250613f9192505050565b90505f612a438585858080601f0160208091040260200160405190810160405280939291908181526020018383808284375f92019190915250613f9192505050565b90505f610dc08383614309565b5f612a908584848080601f0160208091040260200160405190810160405280939291908181526020018383808284375f92019190915250613f9192505050565b90505f612ad28585858080601f0160208091040260200160405190810160405280939291908181526020018383808284375f9201919091525061407892505050565b90505f610dc08383614315565b5f612b1f8584848080601f0160208091040260200160405190810160405280939291908181526020018383808284375f92019190915250613f9192505050565b90505f612b618585858080601f0160208091040260200160405190810160405280939291908181526020018383808284375f92019190915250613f9192505050565b90505f611040838361406c565b5f612bae8584848080601f0160208091040260200160405190810160405280939291908181526020018383808284375f92019190915250613f9192505050565b90505f612bf08585858080601f0160208091040260200160405190810160405280939291908181526020018383808284375f92019190915250613f7d92505050565b90505f6110e68383614329565b5f612c3d8584848080601f0160208091040260200160405190810160405280939291908181526020018383808284375f92019190915250613f9192505050565b90505f612c7f8585858080601f0160208091040260200160405190810160405280939291908181526020018383808284375f92019190915250613fe292505050565b90505f610dc08383614336565b5f612ccc8584848080601f0160208091040260200160405190810160405280939291908181526020018383808284375f92019190915250613f9192505050565b90505f612d0e8585858080601f0160208091040260200160405190810160405280939291908181526020018383808284375f92019190915250613f9192505050565b90505f6110408383614343565b5f612d5b8584848080601f0160208091040260200160405190810160405280939291908181526020018383808284375f92019190915250613f9192505050565b90505f612d9d8585858080601f0160208091040260200160405190810160405280939291908181526020018383808284375f92019190915250613fe292505050565b90505f610ef4838361434f565b5f612dea8584848080601f0160208091040260200160405190810160405280939291908181526020018383808284375f92019190915250613f7d92505050565b90505f612e2c8585858080601f0160208091040260200160405190810160405280939291908181526020018383808284375f92019190915250613f9192505050565b90505f610dc0838361435c565b5f612e798584848080601f0160208091040260200160405190810160405280939291908181526020018383808284375f92019190915250613f7d92505050565b90505f612ebb8585858080601f0160208091040260200160405190810160405280939291908181526020018383808284375f92019190915250613f9192505050565b90505f610dc08383614370565b5f612f088584848080601f0160208091040260200160405190810160405280939291908181526020018383808284375f92019190915250613f9192505050565b90505f612f4a8585858080601f0160208091040260200160405190810160405280939291908181526020018383808284375f92019190915250613f7d92505050565b90505f610dc08383614384565b5f612f978584848080601f0160208091040260200160405190810160405280939291908181526020018383808284375f92019190915250613f9192505050565b90505f612fd98585858080601f0160208091040260200160405190810160405280939291908181526020018383808284375f92019190915250613f9192505050565b90505f610dc08383614391565b5f6130268584848080601f0160208091040260200160405190810160405280939291908181526020018383808284375f92019190915250613f9192505050565b90505f6130688585858080601f0160208091040260200160405190810160405280939291908181526020018383808284375f92019190915250613f9192505050565b90505f610dc0838361439d565b5f6130b58584848080601f0160208091040260200160405190810160405280939291908181526020018383808284375f92019190915250613f7d92505050565b90505f61209e8585858080601f0160208091040260200160405190810160405280939291908181526020018383808284375f92019190915250613fc192505050565b5f6131378584848080601f0160208091040260200160405190810160405280939291908181526020018383808284375f92019190915250613f9192505050565b90505f6131798585858080601f0160208091040260200160405190810160405280939291908181526020018383808284375f92019190915250613fe292505050565b90505f610ef483836143a9565b5f6131c68584848080601f0160208091040260200160405190810160405280939291908181526020018383808284375f92019190915250613f9192505050565b90505f6132088585858080601f0160208091040260200160405190810160405280939291908181526020018383808284375f92019190915250613f7d92505050565b90505f610dc083836143b6565b5f6132558584848080601f0160208091040260200160405190810160405280939291908181526020018383808284375f92019190915250613f7d92505050565b90505f610e588585858080601f0160208091040260200160405190810160405280939291908181526020018383808284375f92019190915250613f9192505050565b5f6132d78584848080601f0160208091040260200160405190810160405280939291908181526020018383808284375f92019190915250613f9192505050565b90505f6133198585858080601f0160208091040260200160405190810160405280939291908181526020018383808284375f92019190915250613fe292505050565b90505f610ef483836143c3565b5f6133668584848080601f0160208091040260200160405190810160405280939291908181526020018383808284375f92019190915250613f7d92505050565b90505f6118d98585858080601f0160208091040260200160405190810160405280939291908181526020018383808284375f92019190915250613f9192505050565b5f6133e88584848080601f0160208091040260200160405190810160405280939291908181526020018383808284375f92019190915250613f7d92505050565b90505f612e2c8585858080601f0160208091040260200160405190810160405280939291908181526020018383808284375f92019190915250613fc192505050565b5f61346a8584848080601f0160208091040260200160405190810160405280939291908181526020018383808284375f92019190915250613f9192505050565b90505f6134ac8585858080601f0160208091040260200160405190810160405280939291908181526020018383808284375f92019190915250613fe292505050565b90505f610ef483836143d0565b5f6134f98584848080601f0160208091040260200160405190810160405280939291908181526020018383808284375f92019190915250613f9192505050565b90505f61353b8585858080601f0160208091040260200160405190810160405280939291908181526020018383808284375f92019190915250613f9192505050565b90505f61104083836143dd565b5f6135888584848080601f0160208091040260200160405190810160405280939291908181526020018383808284375f92019190915250613f9192505050565b90505f6135ca8585858080601f0160208091040260200160405190810160405280939291908181526020018383808284375f92019190915250613f7d92505050565b90505f610dc083836143e9565b5f6136178584848080601f0160208091040260200160405190810160405280939291908181526020018383808284375f92019190915250613f9192505050565b90505f6136598585858080601f0160208091040260200160405190810160405280939291908181526020018383808284375f92019190915250613f9192505050565b90505f610dc083836143f6565b5f6136a68584848080601f0160208091040260200160405190810160405280939291908181526020018383808284375f92019190915250613f9192505050565b90505f6136e88585858080601f0160208091040260200160405190810160405280939291908181526020018383808284375f9201919091525061400392505050565b90505f610dc08383614402565b5f6137358584848080601f0160208091040260200160405190810160405280939291908181526020018383808284375f92019190915250613f9192505050565b90505f6137778585858080601f0160208091040260200160405190810160405280939291908181526020018383808284375f9201919091525061407892505050565b90505f610dc0838361440f565b5f6137c48584848080601f0160208091040260200160405190810160405280939291908181526020018383808284375f92019190915250613f7d92505050565b90505f611cc28585858080601f0160208091040260200160405190810160405280939291908181526020018383808284375f92019190915250613fc192505050565b5f6138468584848080601f0160208091040260200160405190810160405280939291908181526020018383808284375f92019190915250613f9192505050565b90505f6138888585858080601f0160208091040260200160405190810160405280939291908181526020018383808284375f92019190915250613fe292505050565b90505f610dc0838361441c565b5f6138d58584848080601f0160208091040260200160405190810160405280939291908181526020018383808284375f92019190915250613f7d92505050565b90505f6139178585858080601f0160208091040260200160405190810160405280939291908181526020018383808284375f92019190915250613f9192505050565b90505f6110e68383614429565b5f6139648584848080601f0160208091040260200160405190810160405280939291908181526020018383808284375f92019190915250613f7d92505050565b90505f61157f8585858080601f0160208091040260200160405190810160405280939291908181526020018383808284375f92019190915250613fc192505050565b5f6139e68584848080601f0160208091040260200160405190810160405280939291908181526020018383808284375f92019190915250613f7d92505050565b90505f6127458585858080601f0160208091040260200160405190810160405280939291908181526020018383808284375f92019190915250613fc192505050565b5f613a688584848080601f0160208091040260200160405190810160405280939291908181526020018383808284375f92019190915250613f7d92505050565b90505f6139178585858080601f0160208091040260200160405190810160405280939291908181526020018383808284375f92019190915250613fc192505050565b5f613aea8584848080601f0160208091040260200160405190810160405280939291908181526020018383808284375f92019190915250613f9192505050565b90505f613b2c8585858080601f0160208091040260200160405190810160405280939291908181526020018383808284375f92019190915250613fe292505050565b90505f610dc0838361443d565b5f613b798584848080601f0160208091040260200160405190810160405280939291908181526020018383808284375f92019190915250613f9192505050565b90505f613bbb8585858080601f0160208091040260200160405190810160405280939291908181526020018383808284375f92019190915250613f9192505050565b90505f610dc0838361444a565b5f613c088584848080601f0160208091040260200160405190810160405280939291908181526020018383808284375f92019190915250613f7d92505050565b90505f6126278585858080601f0160208091040260200160405190810160405280939291908181526020018383808284375f92019190915250613f9192505050565b5f613c8a8584848080601f0160208091040260200160405190810160405280939291908181526020018383808284375f92019190915250613f9192505050565b90505f613ccc8585858080601f0160208091040260200160405190810160405280939291908181526020018383808284375f9201919091525061400392505050565b90505f610f9a8383614456565b5f613d198584848080601f0160208091040260200160405190810160405280939291908181526020018383808284375f92019190915250613f7d92505050565b90505f613d5b8585858080601f0160208091040260200160405190810160405280939291908181526020018383808284375f92019190915250613f7d92505050565b90505f6110e68383614463565b5f613da88584848080601f0160208091040260200160405190810160405280939291908181526020018383808284375f92019190915250613f7d92505050565b90505f61117f8585858080601f0160208091040260200160405190810160405280939291908181526020018383808284375f92019190915250613fc192505050565b5f613e2a8584848080601f0160208091040260200160405190810160405280939291908181526020018383808284375f92019190915250613f9192505050565b90505f613e6c8585858080601f0160208091040260200160405190810160405280939291908181526020018383808284375f9201919091525061407892505050565b90505f611339838361446f565b5f613eb98584848080601f0160208091040260200160405190810160405280939291908181526020018383808284375f92019190915250613f7d92505050565b90505f612ebb8585858080601f0160208091040260200160405190810160405280939291908181526020018383808284375f92019190915250613fc192505050565b5f613f3b8584848080601f0160208091040260200160405190810160405280939291908181526020018383808284375f92019190915250613f7d92505050565b90505f61160e8585858080601f0160208091040260200160405190810160405280939291908181526020018383808284375f92019190915250613fc192505050565b5f613f8a8383600461447c565b9392505050565b5f613f8a8383600361447c565b5f613f8a83613fac846145ea565b5f6145f6565b5f613fbd82306146b3565b5090565b5f613f8a8383600261447c565b5f613f8a83613fdc846145ea565b5f614729565b5f613f8a8383600561447c565b5f613f8a613ffc846147a0565b835f6147ac565b5f613f8a8383600861447c565b5f613f8a61401d84614823565b835f61482f565b5f613f8a83835f6148a6565b5f613f8a61403d846145ea565b835f61491d565b5f613f8a83614052846145ea565b5f614994565b5f613f8a614065846147a0565b835f614a0b565b5f613f8a83835f61491d565b5f613f8a8383600661447c565b5f613f8a61409284614a82565b835f614a8e565b5f613f8a6140a684614823565b835f614b05565b5f613f8a836140bb846145ea565b5f614b7c565b5f613f8a83835f61482f565b5f613f8a836140db846145ea565b5f614bf3565b5f613f8a836140ef846145ea565b5f614c6a565b5f613f8a614065846145ea565b5f613f8a613ffc84614a82565b5f613f8a61411c846147a0565b835f614b7c565b5f613f8a61413084614a82565b835f6145f6565b5f613f8a83614145846145ea565b5f61491d565b5f613f8a613ffc846145ea565b5f613f8a614165846147a0565b835f614ce1565b5f613f8a61417984614a82565b835f614c6a565b5f613f8a6140a6846147a0565b5f613f8a61419a846145ea565b835f614994565b5f613f8a614165846145ea565b5f613f8a836141bc846145ea565b5f61482f565b5f613f8a6141cf846145ea565b835f6148a6565b5f613f8a61419a846147a0565b5f613f8a614179846147a0565b5f613f8a61411c846145ea565b5f613f8a61406584614a82565b5f613f8a83614218846145ea565b5f614a8e565b5f613f8a61422b84614a82565b835f614bf3565b5f613f8a61411c84614a82565b5f613f8a614130846145ea565b5f613f8a614179846145ea565b5f613f8a61409284614823565b5f613f8a6141cf84614a82565b5f613f8a83835f614a0b565b5f613f8a61401d84614a82565b5f613f8a8361429a846145ea565b5f6147ac565b5f613f8a83835f6147ac565b5f613f8a836142ba846145ea565b5f6148a6565b5f613f8a614092846145ea565b5f613f8a83835f6145f6565b5f6142e98261ffff166003614d58565b92915050565b5f613f8a61419a84614a82565b5f613f8a6140a684614a82565b5f613f8a83835f614c6a565b5f613f8a61432284614a82565b835f614729565b5f613f8a61401d846145ea565b5f613f8a614130846147a0565b5f613f8a83835f614a8e565b5f613f8a614092846147a0565b5f613f8a8361436a846145ea565b5f614b05565b5f613f8a8361437e846145ea565b5f614ce1565b5f613f8a6140a6846145ea565b5f613f8a83835f614bf3565b5f613f8a83835f614ce1565b5f613f8a61401d846147a0565b5f613f8a61422b846145ea565b5f613f8a61403d846147a0565b5f613f8a6141cf846147a0565b5f613f8a83835f614994565b5f613f8a614322846145ea565b5f613f8a83835f614b05565b5f613f8a61416584614823565b5f613f8a61416584614a82565b5f613f8a614322846147a0565b5f613f8a83614437846145ea565b5f614a0b565b5f613f8a61422b846147a0565b5f613f8a83835f614729565b5f613f8a61419a84614823565b5f613f8a83835f614b7c565b5f613f8a61403d84614a82565b5f7f962fa50f382287015f056c358858a5ce291a354f9e7465a7774aa01c0200ed7884845f6040516144b093929190614f15565b60405180910390a15f80516020614fe88339815191525460405163196d0b9b60e01b81525f80516020614fc8833981519152916001600160a01b03169063196d0b9b90614507908890339089908990600401614f5d565b6020604051808303815f875af1158015614523573d5f803e3d5ffd5b505050506040513d601f19601f820116820180604052508101906145479190614f9c565b91507f962fa50f382287015f056c358858a5ce291a354f9e7465a7774aa01c0200ed7885858460405161457c93929190614f15565b60405180910390a18054604051630f8e573b60e21b8152600481018490523360248201526001600160a01b0390911690633e395cec906044015f604051808303815f87803b1580156145cc575f80fd5b505af11580156145de573d5f803e3d5ffd5b50505050509392505050565b5f6142e9826004614def565b5f8082156146095750600160f81b61460c565b505f5b5f80516020614fe883398151915254604051637210768160e01b815260048101879052602481018690526001600160f81b0319831660448201525f80516020614fc8833981519152916001600160a01b0316906372107681906064015b6020604051808303815f875af1158015614685573d5f803e3d5ffd5b505050506040513d601f19601f820116820180604052508101906146a99190614f9c565b9695505050505050565b5f5f80516020614fc88339815191528054604051635ca4b5b160e11b8152600481018690526001600160a01b03858116602483015292935091169063b9496b62906044015f604051808303815f87803b15801561470e575f80fd5b505af1158015614720573d5f803e3d5ffd5b50505050505050565b5f80821561473c5750600160f81b61473f565b505f5b5f80516020614fe8833981519152546040516385362ee760e01b815260048101879052602481018690526001600160f81b0319831660448201525f80516020614fc8833981519152916001600160a01b0316906385362ee790606401614669565b5f6142e9826005614def565b5f8082156147bf5750600160f81b6147c2565b505f5b5f80516020614fe883398151915254604051630afe14ad60e31b815260048101879052602481018690526001600160f81b0319831660448201525f80516020614fc8833981519152916001600160a01b0316906357f0a56890606401614669565b5f6142e9826008614def565b5f8082156148425750600160f81b614845565b505f5b5f80516020614fe88339815191525460405163d99882d560e01b815260048101879052602481018690526001600160f81b0319831660448201525f80516020614fc8833981519152916001600160a01b03169063d99882d590606401614669565b5f8082156148b95750600160f81b6148bc565b505f5b5f80516020614fe883398151915254604051630d8c635960e21b815260048101879052602481018690526001600160f81b0319831660448201525f80516020614fc8833981519152916001600160a01b0316906336318d6490606401614669565b5f8082156149305750600160f81b614933565b505f5b5f80516020614fe8833981519152546040516303056db360e31b815260048101879052602481018690526001600160f81b0319831660448201525f80516020614fc8833981519152916001600160a01b03169063182b6d9890606401614669565b5f8082156149a75750600160f81b6149aa565b505f5b5f80516020614fe8833981519152546040516322d273ad60e21b815260048101879052602481018690526001600160f81b0319831660448201525f80516020614fc8833981519152916001600160a01b031690638b49ceb490606401614669565b5f808215614a1e5750600160f81b614a21565b505f5b5f80516020614fe8833981519152546040516304559f7160e01b815260048101879052602481018690526001600160f81b0319831660448201525f80516020614fc8833981519152916001600160a01b0316906304559f7190606401614669565b5f6142e9826006614def565b5f808215614aa15750600160f81b614aa4565b505f5b5f80516020614fe8833981519152546040516363a2db2960e01b815260048101879052602481018690526001600160f81b0319831660448201525f80516020614fc8833981519152916001600160a01b0316906363a2db2990606401614669565b5f808215614b185750600160f81b614b1b565b505f5b5f80516020614fe8833981519152546040516336024b2f60e21b815260048101879052602481018690526001600160f81b0319831660448201525f80516020614fc8833981519152916001600160a01b03169063d8092cbc90606401614669565b5f808215614b8f5750600160f81b614b92565b505f5b5f80516020614fe88339815191525460405163022f65e760e31b815260048101879052602481018690526001600160f81b0319831660448201525f80516020614fc8833981519152916001600160a01b03169063117b2f3890606401614669565b5f808215614c065750600160f81b614c09565b505f5b5f80516020614fe883398151915254604051631391547f60e01b815260048101879052602481018690526001600160f81b0319831660448201525f80516020614fc8833981519152916001600160a01b031690631391547f90606401614669565b5f808215614c7d5750600160f81b614c80565b505f5b5f80516020614fe883398151915254604051631d44e90160e21b815260048101879052602481018690526001600160f81b0319831660448201525f80516020614fc8833981519152916001600160a01b031690637513a40490606401614669565b5f808215614cf45750600160f81b614cf7565b505f5b5f80516020614fe88339815191525460405163f77f3f1d60e01b815260048101879052602481018690526001600160f81b0319831660448201525f80516020614fc8833981519152916001600160a01b03169063f77f3f1d90606401614669565b5f80516020614fe883398151915254604051639cd07acb60e01b81525f915f80516020614fc8833981519152916001600160a01b0390911690639cd07acb90614da79087908790600401614fb3565b6020604051808303815f875af1158015614dc3573d5f803e3d5ffd5b505050506040513d601f19601f82011682018060405250810190614de79190614f9c565b949350505050565b5f80516020614fe8833981519152546040516307227b9160e21b81525f915f80516020614fc8833981519152916001600160a01b0390911690631c89ee4490614da79087908790600401614fb3565b5f8083601f840112614e4e575f80fd5b50813567ffffffffffffffff811115614e65575f80fd5b602083019150836020828501011115614e7c575f80fd5b9250929050565b5f805f8060608587031215614e96575f80fd5b8435935060208501359250604085013567ffffffffffffffff811115614eba575f80fd5b614ec687828801614e3e565b95989497509550505050565b5f81518084525f5b81811015614ef657602081850181015186830182015201614eda565b505f602082860101526020601f19601f83011685010191505092915050565b838152606060208201525f614f2d6060830185614ed2565b9050826040830152949350505050565b60548110614f5957634e487b7160e01b5f52602160045260245ffd5b9052565b8481526001600160a01b0384166020820152608060408201525f614f846080830185614ed2565b9050614f936060830184614f3d565b95945050505050565b5f60208284031215614fac575f80fd5b5051919050565b82815260408101613f8a6020830184614f3d56feed8d60e34876f751cc8b014c560745351147d9de11b9347c854e881b128ea600ed8d60e34876f751cc8b014c560745351147d9de11b9347c854e881b128ea601a164736f6c6343000818000a",
  "linkReferences": {},
  "deployedLinkReferences": {}
}