{
  "_format": "hh-sol-artifact-1",
  "contractName": "FHEVMManualTestSuite",
  "sourceName": "examples/tests/FHEVMManualTestSuite.sol",
  "abi": [
    {
      "inputs": [],
      "stateMutability": "nonpayable",
      "type": "constructor"
    },
    {
      "anonymous": false,
      "inputs": [
        {
          "indexed": false,
          "internalType": "bytes32",
          "name": "inputHandle",
          "type": "bytes32"
        },
        {
          "indexed": false,
          "internalType": "bytes",
          "name": "inputProof",
          "type": "bytes"
        },
        {
          "indexed": false,
          "internalType": "bytes32",
          "name": "result",
          "type": "bytes32"
        }
      ],
      "name": "DebugVerify",
      "type": "event"
    },
    {
      "inputs": [
        {
          "internalType": "bool",
          "name": "a",
          "type": "bool"
        },
        {
          "internalType": "bool",
          "name": "b",
          "type": "bool"
        }
      ],
      "name": "eqEbool",
      "outputs": [],
      "stateMutability": "nonpayable",
      "type": "function"
    },
    {
      "inputs": [
        {
          "internalType": "bool",
          "name": "a",
          "type": "bool"
        },
        {
          "internalType": "bool",
          "name": "b",
          "type": "bool"
        }
      ],
      "name": "eqEboolScalarL",
      "outputs": [],
      "stateMutability": "nonpayable",
      "type": "function"
    },
    {
      "inputs": [
        {
          "internalType": "bool",
          "name": "a",
          "type": "bool"
        },
        {
          "internalType": "bool",
          "name": "b",
          "type": "bool"
        }
      ],
      "name": "eqEboolScalarR",
      "outputs": [],
      "stateMutability": "nonpayable",
      "type": "function"
    },
    {
      "inputs": [
        {
          "internalType": "bool",
          "name": "a",
          "type": "bool"
        },
        {
          "internalType": "bool",
          "name": "b",
          "type": "bool"
        }
      ],
      "name": "neEbool",
      "outputs": [],
      "stateMutability": "nonpayable",
      "type": "function"
    },
    {
      "inputs": [
        {
          "internalType": "bool",
          "name": "a",
          "type": "bool"
        },
        {
          "internalType": "bool",
          "name": "b",
          "type": "bool"
        }
      ],
      "name": "neEboolScalarL",
      "outputs": [],
      "stateMutability": "nonpayable",
      "type": "function"
    },
    {
      "inputs": [
        {
          "internalType": "bool",
          "name": "a",
          "type": "bool"
        },
        {
          "internalType": "bool",
          "name": "b",
          "type": "bool"
        }
      ],
      "name": "neEboolScalarR",
      "outputs": [],
      "stateMutability": "nonpayable",
      "type": "function"
    },
    {
      "inputs": [],
      "name": "resAdd",
      "outputs": [
        {
          "internalType": "eaddress",
          "name": "",
          "type": "bytes32"
        }
      ],
      "stateMutability": "view",
      "type": "function"
    },
    {
      "inputs": [],
      "name": "resEbool",
      "outputs": [
        {
          "internalType": "ebool",
          "name": "",
          "type": "bytes32"
        }
      ],
      "stateMutability": "view",
      "type": "function"
    },
    {
      "inputs": [],
      "name": "resEuint128",
      "outputs": [
        {
          "internalType": "euint128",
          "name": "",
          "type": "bytes32"
        }
      ],
      "stateMutability": "view",
      "type": "function"
    },
    {
      "inputs": [],
      "name": "resEuint16",
      "outputs": [
        {
          "internalType": "euint16",
          "name": "",
          "type": "bytes32"
        }
      ],
      "stateMutability": "view",
      "type": "function"
    },
    {
      "inputs": [],
      "name": "resEuint256",
      "outputs": [
        {
          "internalType": "euint256",
          "name": "",
          "type": "bytes32"
        }
      ],
      "stateMutability": "view",
      "type": "function"
    },
    {
      "inputs": [],
      "name": "resEuint32",
      "outputs": [
        {
          "internalType": "euint32",
          "name": "",
          "type": "bytes32"
        }
      ],
      "stateMutability": "view",
      "type": "function"
    },
    {
      "inputs": [],
      "name": "resEuint64",
      "outputs": [
        {
          "internalType": "euint64",
          "name": "",
          "type": "bytes32"
        }
      ],
      "stateMutability": "view",
      "type": "function"
    },
    {
      "inputs": [],
      "name": "resEuint8",
      "outputs": [
        {
          "internalType": "euint8",
          "name": "",
          "type": "bytes32"
        }
      ],
      "stateMutability": "view",
      "type": "function"
    },
    {
      "inputs": [
        {
          "internalType": "bool",
          "name": "a",
          "type": "bool"
        },
        {
          "internalType": "bool",
          "name": "b",
          "type": "bool"
        }
      ],
      "name": "test_ebool_and",
      "outputs": [],
      "stateMutability": "nonpayable",
      "type": "function"
    },
    {
      "inputs": [
        {
          "internalType": "bool",
          "name": "a",
          "type": "bool"
        },
        {
          "internalType": "bool",
          "name": "b",
          "type": "bool"
        }
      ],
      "name": "test_ebool_and_scalarL",
      "outputs": [],
      "stateMutability": "nonpayable",
      "type": "function"
    },
    {
      "inputs": [
        {
          "internalType": "bool",
          "name": "a",
          "type": "bool"
        },
        {
          "internalType": "bool",
          "name": "b",
          "type": "bool"
        }
      ],
      "name": "test_ebool_and_scalarR",
      "outputs": [],
      "stateMutability": "nonpayable",
      "type": "function"
    },
    {
      "inputs": [
        {
          "internalType": "bool",
          "name": "input",
          "type": "bool"
        }
      ],
      "name": "test_ebool_not",
      "outputs": [],
      "stateMutability": "nonpayable",
      "type": "function"
    },
    {
      "inputs": [
        {
          "internalType": "bool",
          "name": "a",
          "type": "bool"
        },
        {
          "internalType": "bool",
          "name": "b",
          "type": "bool"
        }
      ],
      "name": "test_ebool_or",
      "outputs": [],
      "stateMutability": "nonpayable",
      "type": "function"
    },
    {
      "inputs": [
        {
          "internalType": "bool",
          "name": "a",
          "type": "bool"
        },
        {
          "internalType": "bool",
          "name": "b",
          "type": "bool"
        }
      ],
      "name": "test_ebool_or_scalarL",
      "outputs": [],
      "stateMutability": "nonpayable",
      "type": "function"
    },
    {
      "inputs": [
        {
          "internalType": "bool",
          "name": "a",
          "type": "bool"
        },
        {
          "internalType": "bool",
          "name": "b",
          "type": "bool"
        }
      ],
      "name": "test_ebool_or_scalarR",
      "outputs": [],
      "stateMutability": "nonpayable",
      "type": "function"
    },
    {
      "inputs": [
        {
          "internalType": "bool",
          "name": "input",
          "type": "bool"
        }
      ],
      "name": "test_ebool_to_euint128_cast",
      "outputs": [],
      "stateMutability": "nonpayable",
      "type": "function"
    },
    {
      "inputs": [
        {
          "internalType": "bool",
          "name": "input",
          "type": "bool"
        }
      ],
      "name": "test_ebool_to_euint16_cast",
      "outputs": [],
      "stateMutability": "nonpayable",
      "type": "function"
    },
    {
      "inputs": [
        {
          "internalType": "bool",
          "name": "input",
          "type": "bool"
        }
      ],
      "name": "test_ebool_to_euint256_cast",
      "outputs": [],
      "stateMutability": "nonpayable",
      "type": "function"
    },
    {
      "inputs": [
        {
          "internalType": "bool",
          "name": "input",
          "type": "bool"
        }
      ],
      "name": "test_ebool_to_euint32_cast",
      "outputs": [],
      "stateMutability": "nonpayable",
      "type": "function"
    },
    {
      "inputs": [
        {
          "internalType": "bool",
          "name": "input",
          "type": "bool"
        }
      ],
      "name": "test_ebool_to_euint64_cast",
      "outputs": [],
      "stateMutability": "nonpayable",
      "type": "function"
    },
    {
      "inputs": [
        {
          "internalType": "bool",
          "name": "input",
          "type": "bool"
        }
      ],
      "name": "test_ebool_to_euint8_cast",
      "outputs": [],
      "stateMutability": "nonpayable",
      "type": "function"
    },
    {
      "inputs": [
        {
          "internalType": "bool",
          "name": "a",
          "type": "bool"
        },
        {
          "internalType": "bool",
          "name": "b",
          "type": "bool"
        }
      ],
      "name": "test_ebool_xor",
      "outputs": [],
      "stateMutability": "nonpayable",
      "type": "function"
    },
    {
      "inputs": [
        {
          "internalType": "bool",
          "name": "a",
          "type": "bool"
        },
        {
          "internalType": "bool",
          "name": "b",
          "type": "bool"
        }
      ],
      "name": "test_ebool_xor_scalarL",
      "outputs": [],
      "stateMutability": "nonpayable",
      "type": "function"
    },
    {
      "inputs": [
        {
          "internalType": "bool",
          "name": "a",
          "type": "bool"
        },
        {
          "internalType": "bool",
          "name": "b",
          "type": "bool"
        }
      ],
      "name": "test_ebool_xor_scalarR",
      "outputs": [],
      "stateMutability": "nonpayable",
      "type": "function"
    },
    {
      "inputs": [
        {
          "internalType": "externalEaddress",
          "name": "a",
          "type": "bytes32"
        },
        {
          "internalType": "address",
          "name": "b",
          "type": "address"
        },
        {
          "internalType": "bytes",
          "name": "inputProof",
          "type": "bytes"
        }
      ],
      "name": "test_eq_address_eaddress",
      "outputs": [],
      "stateMutability": "nonpayable",
      "type": "function"
    },
    {
      "inputs": [
        {
          "internalType": "externalEaddress",
          "name": "a",
          "type": "bytes32"
        },
        {
          "internalType": "address",
          "name": "b",
          "type": "address"
        },
        {
          "internalType": "bytes",
          "name": "inputProof",
          "type": "bytes"
        }
      ],
      "name": "test_eq_eaddress_address",
      "outputs": [],
      "stateMutability": "nonpayable",
      "type": "function"
    },
    {
      "inputs": [
        {
          "internalType": "externalEaddress",
          "name": "a",
          "type": "bytes32"
        },
        {
          "internalType": "externalEaddress",
          "name": "b",
          "type": "bytes32"
        },
        {
          "internalType": "bytes",
          "name": "inputProof",
          "type": "bytes"
        }
      ],
      "name": "test_eq_eaddress_eaddress",
      "outputs": [],
      "stateMutability": "nonpayable",
      "type": "function"
    },
    {
      "inputs": [
        {
          "internalType": "uint128",
          "name": "input",
          "type": "uint128"
        }
      ],
      "name": "test_euint128_to_euint8_cast",
      "outputs": [],
      "stateMutability": "nonpayable",
      "type": "function"
    },
    {
      "inputs": [
        {
          "internalType": "externalEaddress",
          "name": "a",
          "type": "bytes32"
        },
        {
          "internalType": "address",
          "name": "b",
          "type": "address"
        },
        {
          "internalType": "bytes",
          "name": "inputProof",
          "type": "bytes"
        }
      ],
      "name": "test_ne_address_eaddress",
      "outputs": [],
      "stateMutability": "nonpayable",
      "type": "function"
    },
    {
      "inputs": [
        {
          "internalType": "externalEaddress",
          "name": "a",
          "type": "bytes32"
        },
        {
          "internalType": "address",
          "name": "b",
          "type": "address"
        },
        {
          "internalType": "bytes",
          "name": "inputProof",
          "type": "bytes"
        }
      ],
      "name": "test_ne_eaddress_address",
      "outputs": [],
      "stateMutability": "nonpayable",
      "type": "function"
    },
    {
      "inputs": [
        {
          "internalType": "externalEaddress",
          "name": "a",
          "type": "bytes32"
        },
        {
          "internalType": "externalEaddress",
          "name": "b",
          "type": "bytes32"
        },
        {
          "internalType": "bytes",
          "name": "inputProof",
          "type": "bytes"
        }
      ],
      "name": "test_ne_eaddress_eaddress",
      "outputs": [],
      "stateMutability": "nonpayable",
      "type": "function"
    },
    {
      "inputs": [
        {
          "internalType": "externalEbool",
          "name": "control",
          "type": "bytes32"
        },
        {
          "internalType": "externalEuint32",
          "name": "ifTrue",
          "type": "bytes32"
        },
        {
          "internalType": "externalEuint32",
          "name": "ifFalse",
          "type": "bytes32"
        },
        {
          "internalType": "bytes",
          "name": "inputProof",
          "type": "bytes"
        }
      ],
      "name": "test_select",
      "outputs": [],
      "stateMutability": "nonpayable",
      "type": "function"
    },
    {
      "inputs": [
        {
          "internalType": "externalEbool",
          "name": "control",
          "type": "bytes32"
        },
        {
          "internalType": "externalEaddress",
          "name": "ifTrue",
          "type": "bytes32"
        },
        {
          "internalType": "externalEaddress",
          "name": "ifFalse",
          "type": "bytes32"
        },
        {
          "internalType": "bytes",
          "name": "inputProof",
          "type": "bytes"
        }
      ],
      "name": "test_select_eaddress",
      "outputs": [],
      "stateMutability": "nonpayable",
      "type": "function"
    },
    {
      "inputs": [
        {
          "internalType": "bool",
          "name": "control",
          "type": "bool"
        },
        {
          "internalType": "bool",
          "name": "ifTrue",
          "type": "bool"
        },
        {
          "internalType": "bool",
          "name": "ifFalse",
          "type": "bool"
        }
      ],
      "name": "test_select_ebool",
      "outputs": [],
      "stateMutability": "nonpayable",
      "type": "function"
    }
  ],
  "bytecode": "0x608060405234801561000f575f80fd5b5061018a6100ae604080516080810182525f8082526020820181905291810182905260608101919091525060408051608081018252738b867b46793a978847e1254781579867fb129a13815273c5092f6c1f30c8970dc835f0f754057f79b89cc66020820152730ca0dc8810361829363ab17196a747fa1387d2029181019190915273482af59820c30d13c9b06adc75c741912e599d29606082015290565b80517fed8d60e34876f751cc8b014c560745351147d9de11b9347c854e881b128ea60080546001600160a01b03199081166001600160a01b039384161790915560208301517fed8d60e34876f751cc8b014c560745351147d9de11b9347c854e881b128ea6018054831691841691909117905560408301517fed8d60e34876f751cc8b014c560745351147d9de11b9347c854e881b128ea6028054831691841691909117905560608301517fed8d60e34876f751cc8b014c560745351147d9de11b9347c854e881b128ea6038054909216921691909117905550565b6118ad806101975f395ff3fe608060405234801561000f575f80fd5b50600436106102b7575f3560e01c80636e5cab4111610171578063b8da668c116100d2578063e9444a6f11610088578063ec69947b1161006e578063ec69947b1461053d578063ec8e0bee14610550578063f0d277bf14610563575f80fd5b8063e9444a6f14610521578063eb04c2da14610534575f80fd5b8063c6628342116100b8578063c6628342146104fc578063ca52660714610505578063d1f57dce1461050e575f80fd5b8063b8da668c146104e0578063bbc307da146104f3575f80fd5b80639ef639d811610127578063b1d0ccea1161010d578063b1d0ccea146104b1578063b25264e6146104c4578063b7440fdb146104d7575f80fd5b80639ef639d814610495578063a71a71eb146104a8575f80fd5b80637bf23e80116101575780637bf23e801461045c5780637fbb0e671461046f57806381b41d8414610482575f80fd5b80636e5cab411461044057806377d9117814610453575f80fd5b8063347d67df1161021b578063522d9ba5116101d15780635c329edd116101b75780635c329edd1461040757806362c5e4611461041a57806366661fd71461042d575f80fd5b8063522d9ba5146103e15780635b3f1a52146103f4575f80fd5b80634136c521116102015780634136c521146103a857806341ff6dc3146103bb57806350ab9806146103ce575f80fd5b8063347d67df14610382578063400c465a14610395575f80fd5b80632478677e116102705780632c57d1a6116102565780632c57d1a6146103425780632d37c2ff14610355578063311d86651461036f575f80fd5b80632478677e1461031c57806327ef68e41461032f575f80fd5b806313d2d399116102a057806313d2d399146102e357806319147b7c146102f65780631ea762ed14610309575f80fd5b8063036ae41f146102bb57806308c373aa146102d0575b5f80fd5b6102ce6102c93660046115a0565b610576565b005b6102ce6102de366004611616565b61058e565b6102ce6102f13660046115a0565b6105f0565b6102ce6103043660046115a0565b610602565b6102ce6103173660046115a0565b61062c565b6102ce61032a366004611679565b610663565b6102ce61033d366004611692565b61067a565b6102ce6103503660046116ee565b610765565b61035d5f5481565b60405190815260200160405180910390f35b6102ce61037d366004611679565b6107ab565b6102ce6103903660046115a0565b6107c2565b6102ce6103a3366004611616565b6107dc565b6102ce6103b6366004611616565b610829565b6102ce6103c93660046115a0565b610876565b6102ce6103dc36600461172e565b610890565b6102ce6103ef366004611679565b61091f565b6102ce610402366004611679565b610936565b6102ce610415366004611679565b61094d565b6102ce610428366004611692565b610964565b6102ce61043b366004611616565b610a4f565b6102ce61044e3660046115a0565b610a9c565b61035d60065481565b6102ce61046a366004611679565b610aae565b6102ce61047d3660046115a0565b610ac4565b6102ce6104903660046115a0565b610ad6565b6102ce6104a33660046115a0565b610ae8565b61035d60035481565b6102ce6104bf3660046115a0565b610aff565b6102ce6104d2366004611679565b610b11565b61035d60015481565b6102ce6104ee366004611765565b610b28565b61035d60025481565b61035d60055481565b61035d60075481565b6102ce61051c3660046115a0565b610b34565b6102ce61052f36600461172e565b610b4b565b61035d60045481565b6102ce61054b3660046115a0565b610bda565b6102ce61055e3660046115a0565b610bfd565b6102ce6105713660046115a0565b610c17565b61058861058283610c2e565b82610c4f565b5f555050565b5f6105ce8584848080601f0160208091040260200160405190810160405280939291908181526020018383808284375f92019190915250610c7392505050565b90505f6105db8286610c80565b90506105e681610c96565b505f555050505050565b610588826105fd83610c2e565b610ca5565b5f61060c82610c2e565b90505f6106198483610cb5565b905061062481610c96565b505f55505050565b5f61063683610c2e565b90505f61064283610c2e565b90505f61064f8383610cd2565b905061065a81610c96565b505f5550505050565b61067461066f82610c2e565b610cde565b60035550565b5f6106ba8684848080601f0160208091040260200160405190810160405280939291908181526020018383808284375f92019190915250610cea92505050565b90505f6106fc8685858080601f0160208091040260200160405190810160405280939291908181526020018383808284375f92019190915250610c7392505050565b90505f61073e8686868080601f0160208091040260200160405190810160405280939291908181526020018383808284375f92019190915250610c7392505050565b90505f61074c848484610cf6565b905061075781610c96565b506007555050505050505050565b5f61076f84610c2e565b90505f61077b84610c2e565b90505f61078784610c2e565b90505f610795848484610cf6565b90506107a081610c96565b505f55505050505050565b6107bc6107b782610c2e565b610d0a565b60065550565b6105886107ce83610c2e565b6107d783610c2e565b610d16565b5f61081c8584848080601f0160208091040260200160405190810160405280939291908181526020018383808284375f92019190915250610c7392505050565b90505f6105db8583610d22565b5f6108698584848080601f0160208091040260200160405190810160405280939291908181526020018383808284375f92019190915250610c7392505050565b90505f6105db8286610d38565b61058861088283610c2e565b61088b83610c2e565b610d4e565b5f6108d08584848080601f0160208091040260200160405190810160405280939291908181526020018383808284375f92019190915250610c7392505050565b90505f6109128585858080601f0160208091040260200160405190810160405280939291908181526020018383808284375f92019190915250610c7392505050565b90505f6107958383610d5a565b61093061092b82610c2e565b610d66565b60025550565b61094761094282610c2e565b610d72565b60045550565b61095e61095982610c2e565b610d7e565b60015550565b5f6109a48684848080601f0160208091040260200160405190810160405280939291908181526020018383808284375f92019190915250610cea92505050565b90505f6109e68685858080601f0160208091040260200160405190810160405280939291908181526020018383808284375f92019190915250610d8a92505050565b90505f610a288686868080601f0160208091040260200160405190810160405280939291908181526020018383808284375f92019190915250610d8a92505050565b90505f610a36848484610cf6565b9050610a4181610c96565b506003555050505050505050565b5f610a8f8584848080601f0160208091040260200160405190810160405280939291908181526020018383808284375f92019190915250610c7392505050565b90505f6105db8583610d97565b61058882610aa983610c2e565b610dad565b610abf610aba82610c2e565b610dca565b5f5550565b610588610ad083610c2e565b82610dd4565b61058882610ae383610c2e565b610df1565b5f610af283610c2e565b90505f6106198284610e01565b610588610b0b83610c2e565b82610e1e565b610b22610b1d82610c2e565b610e2e565b60055550565b61095e61095982610e3a565b5f610b3e82610c2e565b90505f6106198483610e58565b5f610b8b8584848080601f0160208091040260200160405190810160405280939291908181526020018383808284375f92019190915250610c7392505050565b90505f610bcd8585858080601f0160208091040260200160405190810160405280939291908181526020018383808284375f92019190915250610c7392505050565b90505f6107958383610cd2565b5f610be483610c2e565b90505f610bf083610c2e565b90505f61064f8383610d5a565b610588610c0983610c2e565b610c1283610c2e565b610e68565b5f610c2183610c2e565b90505f6106198284610e74565b5f610c4982610c3d575f610c40565b60015b60ff165f610e84565b92915050565b5f610c6c8383610c5f575f610c62565b60015b60ff166001610f26565b9392505050565b5f610c6c83836007610ff6565b5f610c6c836001600160a01b0384166001611177565b5f610ca18230611201565b5090565b5f610c6c8284610c5f575f610c62565b5f610c6c8284610cc5575f610cc8565b60015b60ff166001611177565b5f610c6c83835f611177565b5f610c49826004611277565b5f610c6c83835f610ff6565b5f610d028484846112d9565b949350505050565b5f610c49826008611277565b5f610c6c83835f610f26565b5f610c6c826001600160a01b038516600161136f565b5f610c6c836001600160a01b038416600161136f565b5f610c6c83835f6113f9565b5f610c6c83835f61136f565b5f610c49826003611277565b5f610c49826005611277565b5f610c49826002611277565b5f610c6c83836004610ff6565b5f610c6c826001600160a01b0385166001611177565b5f610c6c8284610dbd575f610dc0565b60015b60ff1660016113f9565b5f610c4982611483565b5f610c6c8383610de4575f610de7565b60015b60ff166001611502565b5f610c6c8284610de4575f610de7565b5f610c6c8383610e11575f610e14565b60015b60ff16600161136f565b5f610c6c8383610dbd575f610dc0565b5f610c49826006611277565b5f610c49826fffffffffffffffffffffffffffffffff166006610e84565b5f610c6c8284610e11575f610e14565b5f610c6c83835f611502565b5f610c6c8383610cc5575f610cc8565b7fed8d60e34876f751cc8b014c560745351147d9de11b9347c854e881b128ea60154604051639cd07acb60e01b81525f915f80516020611881833981519152916001600160a01b0390911690639cd07acb90610ee690879087906004016117b4565b6020604051808303815f875af1158015610f02573d5f803e3d5ffd5b505050506040513d601f19601f82011682018060405250810190610d0291906117c8565b5f808215610f395750600160f81b610f3c565b505f5b7fed8d60e34876f751cc8b014c560745351147d9de11b9347c854e881b128ea601546040516322d273ad60e21b815260048101879052602481018690526001600160f81b0319831660448201525f80516020611881833981519152916001600160a01b031690638b49ceb4906064015b6020604051808303815f875af1158015610fc8573d5f803e3d5ffd5b505050506040513d601f19601f82011682018060405250810190610fec91906117c8565b9695505050505050565b5f7f962fa50f382287015f056c358858a5ce291a354f9e7465a7774aa01c0200ed7884845f60405161102a93929190611822565b60405180910390a17fed8d60e34876f751cc8b014c560745351147d9de11b9347c854e881b128ea6015460405163196d0b9b60e01b81525f80516020611881833981519152916001600160a01b03169063196d0b9b9061109490889033908990899060040161184a565b6020604051808303815f875af11580156110b0573d5f803e3d5ffd5b505050506040513d601f19601f820116820180604052508101906110d491906117c8565b91507f962fa50f382287015f056c358858a5ce291a354f9e7465a7774aa01c0200ed7885858460405161110993929190611822565b60405180910390a18054604051630f8e573b60e21b8152600481018490523360248201526001600160a01b0390911690633e395cec906044015f604051808303815f87803b158015611159575f80fd5b505af115801561116b573d5f803e3d5ffd5b50505050509392505050565b5f80821561118a5750600160f81b61118d565b505f5b7fed8d60e34876f751cc8b014c560745351147d9de11b9347c854e881b128ea6015460405163f77f3f1d60e01b815260048101879052602481018690526001600160f81b0319831660448201525f80516020611881833981519152916001600160a01b03169063f77f3f1d90606401610fac565b5f5f805160206118818339815191528054604051635ca4b5b160e11b8152600481018690526001600160a01b03858116602483015292935091169063b9496b62906044015f604051808303815f87803b15801561125c575f80fd5b505af115801561126e573d5f803e3d5ffd5b50505050505050565b7fed8d60e34876f751cc8b014c560745351147d9de11b9347c854e881b128ea601546040516307227b9160e21b81525f915f80516020611881833981519152916001600160a01b0390911690631c89ee4490610ee690879087906004016117b4565b5f805f805160206118818339815191526001810154604051637702dcff60e01b81526004810188905260248101879052604481018690529192506001600160a01b031690637702dcff906064016020604051808303815f875af1158015611342573d5f803e3d5ffd5b505050506040513d601f19601f8201168201806040525081019061136691906117c8565b95945050505050565b5f8082156113825750600160f81b611385565b505f5b7fed8d60e34876f751cc8b014c560745351147d9de11b9347c854e881b128ea601546040516336024b2f60e21b815260048101879052602481018690526001600160f81b0319831660448201525f80516020611881833981519152916001600160a01b03169063d8092cbc90606401610fac565b5f80821561140c5750600160f81b61140f565b505f5b7fed8d60e34876f751cc8b014c560745351147d9de11b9347c854e881b128ea6015460405163d99882d560e01b815260048101879052602481018690526001600160f81b0319831660448201525f80516020611881833981519152916001600160a01b03169063d99882d590606401610fac565b5f805f805160206118818339815191526001810154604051630f51ccfb60e41b8152600481018690529192506001600160a01b03169063f51ccfb0906024016020604051808303815f875af11580156114de573d5f803e3d5ffd5b505050506040513d601f19601f82011682018060405250810190610c6c91906117c8565b5f8082156115155750600160f81b611518565b505f5b7fed8d60e34876f751cc8b014c560745351147d9de11b9347c854e881b128ea601546040516363a2db2960e01b815260048101879052602481018690526001600160f81b0319831660448201525f80516020611881833981519152916001600160a01b0316906363a2db2990606401610fac565b8035801515811461159b575f80fd5b919050565b5f80604083850312156115b1575f80fd5b6115ba8361158c565b91506115c86020840161158c565b90509250929050565b5f8083601f8401126115e1575f80fd5b50813567ffffffffffffffff8111156115f8575f80fd5b60208301915083602082850101111561160f575f80fd5b9250929050565b5f805f8060608587031215611629575f80fd5b8435935060208501356001600160a01b0381168114611646575f80fd5b9250604085013567ffffffffffffffff811115611661575f80fd5b61166d878288016115d1565b95989497509550505050565b5f60208284031215611689575f80fd5b610c6c8261158c565b5f805f805f608086880312156116a6575f80fd5b853594506020860135935060408601359250606086013567ffffffffffffffff8111156116d1575f80fd5b6116dd888289016115d1565b969995985093965092949392505050565b5f805f60608486031215611700575f80fd5b6117098461158c565b92506117176020850161158c565b91506117256040850161158c565b90509250925092565b5f805f8060608587031215611741575f80fd5b8435935060208501359250604085013567ffffffffffffffff811115611661575f80fd5b5f60208284031215611775575f80fd5b81356fffffffffffffffffffffffffffffffff81168114610c6c575f80fd5b605481106117b057634e487b7160e01b5f52602160045260245ffd5b9052565b82815260408101610c6c6020830184611794565b5f602082840312156117d8575f80fd5b5051919050565b5f81518084525f5b81811015611803576020818501810151868301820152016117e7565b505f602082860101526020601f19601f83011685010191505092915050565b838152606060208201525f61183a60608301856117df565b9050826040830152949350505050565b8481526001600160a01b0384166020820152608060408201525f61187160808301856117df565b9050611366606083018461179456feed8d60e34876f751cc8b014c560745351147d9de11b9347c854e881b128ea600a164736f6c6343000818000a",
  "linkReferences": {},
  "deployedLinkReferences": {}
}