{
  "_format": "hh-sol-artifact-1",
  "contractName": "Counter",
  "sourceName": "examples/Counter.sol",
  "abi": [
    {
      "inputs": [],
      "name": "currentValue",
      "outputs": [
        {
          "internalType": "uint32",
          "name": "",
          "type": "uint32"
        }
      ],
      "stateMutability": "view",
      "type": "function"
    },
    {
      "inputs": [],
      "name": "increment",
      "outputs": [],
      "stateMutability": "nonpayable",
      "type": "function"
    }
  ],
  "bytecode": "0x608060405234801561000f575f80fd5b5060cb8061001c5f395ff3fe6080604052348015600e575f80fd5b50600436106030575f3560e01c8063698996f8146034578063d09de08a14604f575b5f80fd5b5f546040805163ffffffff9092168252519081900360200190f35b60556057565b005b5f8054600191908190606f90849063ffffffff16608f565b92506101000a81548163ffffffff021916908363ffffffff160217905550565b63ffffffff81811683821601908082111560b757634e487b7160e01b5f52601160045260245ffd5b509291505056fea164736f6c6343000818000a",
  "linkReferences": {},
  "deployedLinkReferences": {}
}