{
  "_format": "hh-sol-artifact-1",
  "contractName": "FHEVMTestSuite5",
  "sourceName": "examples/tests/FHEVMTestSuite5.sol",
  "abi": [
    {
      "inputs": [],
      "stateMutability": "nonpayable",
      "type": "constructor"
    },
    {
      "anonymous": false,
      "inputs": [
        {
          "indexed": false,
          "internalType": "bytes32",
          "name": "inputHandle",
          "type": "bytes32"
        },
        {
          "indexed": false,
          "internalType": "bytes",
          "name": "inputProof",
          "type": "bytes"
        },
        {
          "indexed": false,
          "internalType": "bytes32",
          "name": "result",
          "type": "bytes32"
        }
      ],
      "name": "DebugVerify",
      "type": "event"
    },
    {
      "inputs": [
        {
          "internalType": "externalEuint16",
          "name": "a",
          "type": "bytes32"
        },
        {
          "internalType": "uint16",
          "name": "b",
          "type": "uint16"
        },
        {
          "internalType": "bytes",
          "name": "inputProof",
          "type": "bytes"
        }
      ],
      "name": "add_euint16_uint16",
      "outputs": [],
      "stateMutability": "nonpayable",
      "type": "function"
    },
    {
      "inputs": [
        {
          "internalType": "externalEuint8",
          "name": "a",
          "type": "bytes32"
        },
        {
          "internalType": "uint8",
          "name": "b",
          "type": "uint8"
        },
        {
          "internalType": "bytes",
          "name": "inputProof",
          "type": "bytes"
        }
      ],
      "name": "add_euint8_uint8",
      "outputs": [],
      "stateMutability": "nonpayable",
      "type": "function"
    },
    {
      "inputs": [
        {
          "internalType": "uint16",
          "name": "a",
          "type": "uint16"
        },
        {
          "internalType": "externalEuint16",
          "name": "b",
          "type": "bytes32"
        },
        {
          "internalType": "bytes",
          "name": "inputProof",
          "type": "bytes"
        }
      ],
      "name": "add_uint16_euint16",
      "outputs": [],
      "stateMutability": "nonpayable",
      "type": "function"
    },
    {
      "inputs": [
        {
          "internalType": "uint8",
          "name": "a",
          "type": "uint8"
        },
        {
          "internalType": "externalEuint8",
          "name": "b",
          "type": "bytes32"
        },
        {
          "internalType": "bytes",
          "name": "inputProof",
          "type": "bytes"
        }
      ],
      "name": "add_uint8_euint8",
      "outputs": [],
      "stateMutability": "nonpayable",
      "type": "function"
    },
    {
      "inputs": [
        {
          "internalType": "externalEuint128",
          "name": "a",
          "type": "bytes32"
        },
        {
          "internalType": "externalEuint256",
          "name": "b",
          "type": "bytes32"
        },
        {
          "internalType": "bytes",
          "name": "inputProof",
          "type": "bytes"
        }
      ],
      "name": "and_euint128_euint256",
      "outputs": [],
      "stateMutability": "nonpayable",
      "type": "function"
    },
    {
      "inputs": [
        {
          "internalType": "externalEuint16",
          "name": "a",
          "type": "bytes32"
        },
        {
          "internalType": "uint16",
          "name": "b",
          "type": "uint16"
        },
        {
          "internalType": "bytes",
          "name": "inputProof",
          "type": "bytes"
        }
      ],
      "name": "and_euint16_uint16",
      "outputs": [],
      "stateMutability": "nonpayable",
      "type": "function"
    },
    {
      "inputs": [
        {
          "internalType": "externalEuint256",
          "name": "a",
          "type": "bytes32"
        },
        {
          "internalType": "externalEuint128",
          "name": "b",
          "type": "bytes32"
        },
        {
          "internalType": "bytes",
          "name": "inputProof",
          "type": "bytes"
        }
      ],
      "name": "and_euint256_euint128",
      "outputs": [],
      "stateMutability": "nonpayable",
      "type": "function"
    },
    {
      "inputs": [
        {
          "internalType": "externalEuint256",
          "name": "a",
          "type": "bytes32"
        },
        {
          "internalType": "externalEuint16",
          "name": "b",
          "type": "bytes32"
        },
        {
          "internalType": "bytes",
          "name": "inputProof",
          "type": "bytes"
        }
      ],
      "name": "and_euint256_euint16",
      "outputs": [],
      "stateMutability": "nonpayable",
      "type": "function"
    },
    {
      "inputs": [
        {
          "internalType": "externalEuint256",
          "name": "a",
          "type": "bytes32"
        },
        {
          "internalType": "externalEuint256",
          "name": "b",
          "type": "bytes32"
        },
        {
          "internalType": "bytes",
          "name": "inputProof",
          "type": "bytes"
        }
      ],
      "name": "and_euint256_euint256",
      "outputs": [],
      "stateMutability": "nonpayable",
      "type": "function"
    },
    {
      "inputs": [
        {
          "internalType": "externalEuint256",
          "name": "a",
          "type": "bytes32"
        },
        {
          "internalType": "externalEuint32",
          "name": "b",
          "type": "bytes32"
        },
        {
          "internalType": "bytes",
          "name": "inputProof",
          "type": "bytes"
        }
      ],
      "name": "and_euint256_euint32",
      "outputs": [],
      "stateMutability": "nonpayable",
      "type": "function"
    },
    {
      "inputs": [
        {
          "internalType": "externalEuint256",
          "name": "a",
          "type": "bytes32"
        },
        {
          "internalType": "externalEuint64",
          "name": "b",
          "type": "bytes32"
        },
        {
          "internalType": "bytes",
          "name": "inputProof",
          "type": "bytes"
        }
      ],
      "name": "and_euint256_euint64",
      "outputs": [],
      "stateMutability": "nonpayable",
      "type": "function"
    },
    {
      "inputs": [
        {
          "internalType": "externalEuint256",
          "name": "a",
          "type": "bytes32"
        },
        {
          "internalType": "externalEuint8",
          "name": "b",
          "type": "bytes32"
        },
        {
          "internalType": "bytes",
          "name": "inputProof",
          "type": "bytes"
        }
      ],
      "name": "and_euint256_euint8",
      "outputs": [],
      "stateMutability": "nonpayable",
      "type": "function"
    },
    {
      "inputs": [
        {
          "internalType": "externalEuint8",
          "name": "a",
          "type": "bytes32"
        },
        {
          "internalType": "uint8",
          "name": "b",
          "type": "uint8"
        },
        {
          "internalType": "bytes",
          "name": "inputProof",
          "type": "bytes"
        }
      ],
      "name": "and_euint8_uint8",
      "outputs": [],
      "stateMutability": "nonpayable",
      "type": "function"
    },
    {
      "inputs": [
        {
          "internalType": "uint16",
          "name": "a",
          "type": "uint16"
        },
        {
          "internalType": "externalEuint16",
          "name": "b",
          "type": "bytes32"
        },
        {
          "internalType": "bytes",
          "name": "inputProof",
          "type": "bytes"
        }
      ],
      "name": "and_uint16_euint16",
      "outputs": [],
      "stateMutability": "nonpayable",
      "type": "function"
    },
    {
      "inputs": [
        {
          "internalType": "uint8",
          "name": "a",
          "type": "uint8"
        },
        {
          "internalType": "externalEuint8",
          "name": "b",
          "type": "bytes32"
        },
        {
          "internalType": "bytes",
          "name": "inputProof",
          "type": "bytes"
        }
      ],
      "name": "and_uint8_euint8",
      "outputs": [],
      "stateMutability": "nonpayable",
      "type": "function"
    },
    {
      "inputs": [
        {
          "internalType": "externalEuint16",
          "name": "a",
          "type": "bytes32"
        },
        {
          "internalType": "uint16",
          "name": "b",
          "type": "uint16"
        },
        {
          "internalType": "bytes",
          "name": "inputProof",
          "type": "bytes"
        }
      ],
      "name": "div_euint16_uint16",
      "outputs": [],
      "stateMutability": "nonpayable",
      "type": "function"
    },
    {
      "inputs": [
        {
          "internalType": "externalEuint8",
          "name": "a",
          "type": "bytes32"
        },
        {
          "internalType": "uint8",
          "name": "b",
          "type": "uint8"
        },
        {
          "internalType": "bytes",
          "name": "inputProof",
          "type": "bytes"
        }
      ],
      "name": "div_euint8_uint8",
      "outputs": [],
      "stateMutability": "nonpayable",
      "type": "function"
    },
    {
      "inputs": [
        {
          "internalType": "externalEuint128",
          "name": "a",
          "type": "bytes32"
        },
        {
          "internalType": "externalEuint128",
          "name": "b",
          "type": "bytes32"
        },
        {
          "internalType": "bytes",
          "name": "inputProof",
          "type": "bytes"
        }
      ],
      "name": "eq_euint128_euint128",
      "outputs": [],
      "stateMutability": "nonpayable",
      "type": "function"
    },
    {
      "inputs": [
        {
          "internalType": "externalEuint128",
          "name": "a",
          "type": "bytes32"
        },
        {
          "internalType": "externalEuint256",
          "name": "b",
          "type": "bytes32"
        },
        {
          "internalType": "bytes",
          "name": "inputProof",
          "type": "bytes"
        }
      ],
      "name": "eq_euint128_euint256",
      "outputs": [],
      "stateMutability": "nonpayable",
      "type": "function"
    },
    {
      "inputs": [
        {
          "internalType": "externalEuint16",
          "name": "a",
          "type": "bytes32"
        },
        {
          "internalType": "uint16",
          "name": "b",
          "type": "uint16"
        },
        {
          "internalType": "bytes",
          "name": "inputProof",
          "type": "bytes"
        }
      ],
      "name": "eq_euint16_uint16",
      "outputs": [],
      "stateMutability": "nonpayable",
      "type": "function"
    },
    {
      "inputs": [
        {
          "internalType": "externalEuint256",
          "name": "a",
          "type": "bytes32"
        },
        {
          "internalType": "externalEuint128",
          "name": "b",
          "type": "bytes32"
        },
        {
          "internalType": "bytes",
          "name": "inputProof",
          "type": "bytes"
        }
      ],
      "name": "eq_euint256_euint128",
      "outputs": [],
      "stateMutability": "nonpayable",
      "type": "function"
    },
    {
      "inputs": [
        {
          "internalType": "externalEuint256",
          "name": "a",
          "type": "bytes32"
        },
        {
          "internalType": "externalEuint16",
          "name": "b",
          "type": "bytes32"
        },
        {
          "internalType": "bytes",
          "name": "inputProof",
          "type": "bytes"
        }
      ],
      "name": "eq_euint256_euint16",
      "outputs": [],
      "stateMutability": "nonpayable",
      "type": "function"
    },
    {
      "inputs": [
        {
          "internalType": "externalEuint256",
          "name": "a",
          "type": "bytes32"
        },
        {
          "internalType": "externalEuint256",
          "name": "b",
          "type": "bytes32"
        },
        {
          "internalType": "bytes",
          "name": "inputProof",
          "type": "bytes"
        }
      ],
      "name": "eq_euint256_euint256",
      "outputs": [],
      "stateMutability": "nonpayable",
      "type": "function"
    },
    {
      "inputs": [
        {
          "internalType": "externalEuint256",
          "name": "a",
          "type": "bytes32"
        },
        {
          "internalType": "externalEuint32",
          "name": "b",
          "type": "bytes32"
        },
        {
          "internalType": "bytes",
          "name": "inputProof",
          "type": "bytes"
        }
      ],
      "name": "eq_euint256_euint32",
      "outputs": [],
      "stateMutability": "nonpayable",
      "type": "function"
    },
    {
      "inputs": [
        {
          "internalType": "externalEuint256",
          "name": "a",
          "type": "bytes32"
        },
        {
          "internalType": "externalEuint64",
          "name": "b",
          "type": "bytes32"
        },
        {
          "internalType": "bytes",
          "name": "inputProof",
          "type": "bytes"
        }
      ],
      "name": "eq_euint256_euint64",
      "outputs": [],
      "stateMutability": "nonpayable",
      "type": "function"
    },
    {
      "inputs": [
        {
          "internalType": "externalEuint256",
          "name": "a",
          "type": "bytes32"
        },
        {
          "internalType": "externalEuint8",
          "name": "b",
          "type": "bytes32"
        },
        {
          "internalType": "bytes",
          "name": "inputProof",
          "type": "bytes"
        }
      ],
      "name": "eq_euint256_euint8",
      "outputs": [],
      "stateMutability": "nonpayable",
      "type": "function"
    },
    {
      "inputs": [
        {
          "internalType": "externalEuint8",
          "name": "a",
          "type": "bytes32"
        },
        {
          "internalType": "uint8",
          "name": "b",
          "type": "uint8"
        },
        {
          "internalType": "bytes",
          "name": "inputProof",
          "type": "bytes"
        }
      ],
      "name": "eq_euint8_uint8",
      "outputs": [],
      "stateMutability": "nonpayable",
      "type": "function"
    },
    {
      "inputs": [
        {
          "internalType": "uint8",
          "name": "a",
          "type": "uint8"
        },
        {
          "internalType": "externalEuint8",
          "name": "b",
          "type": "bytes32"
        },
        {
          "internalType": "bytes",
          "name": "inputProof",
          "type": "bytes"
        }
      ],
      "name": "eq_uint8_euint8",
      "outputs": [],
      "stateMutability": "nonpayable",
      "type": "function"
    },
    {
      "inputs": [
        {
          "internalType": "externalEuint128",
          "name": "a",
          "type": "bytes32"
        },
        {
          "internalType": "externalEuint128",
          "name": "b",
          "type": "bytes32"
        },
        {
          "internalType": "bytes",
          "name": "inputProof",
          "type": "bytes"
        }
      ],
      "name": "ge_euint128_euint128",
      "outputs": [],
      "stateMutability": "nonpayable",
      "type": "function"
    },
    {
      "inputs": [
        {
          "internalType": "externalEuint8",
          "name": "a",
          "type": "bytes32"
        },
        {
          "internalType": "uint8",
          "name": "b",
          "type": "uint8"
        },
        {
          "internalType": "bytes",
          "name": "inputProof",
          "type": "bytes"
        }
      ],
      "name": "ge_euint8_uint8",
      "outputs": [],
      "stateMutability": "nonpayable",
      "type": "function"
    },
    {
      "inputs": [
        {
          "internalType": "uint8",
          "name": "a",
          "type": "uint8"
        },
        {
          "internalType": "externalEuint8",
          "name": "b",
          "type": "bytes32"
        },
        {
          "internalType": "bytes",
          "name": "inputProof",
          "type": "bytes"
        }
      ],
      "name": "ge_uint8_euint8",
      "outputs": [],
      "stateMutability": "nonpayable",
      "type": "function"
    },
    {
      "inputs": [
        {
          "internalType": "externalEuint128",
          "name": "a",
          "type": "bytes32"
        },
        {
          "internalType": "externalEuint128",
          "name": "b",
          "type": "bytes32"
        },
        {
          "internalType": "bytes",
          "name": "inputProof",
          "type": "bytes"
        }
      ],
      "name": "gt_euint128_euint128",
      "outputs": [],
      "stateMutability": "nonpayable",
      "type": "function"
    },
    {
      "inputs": [
        {
          "internalType": "externalEuint8",
          "name": "a",
          "type": "bytes32"
        },
        {
          "internalType": "uint8",
          "name": "b",
          "type": "uint8"
        },
        {
          "internalType": "bytes",
          "name": "inputProof",
          "type": "bytes"
        }
      ],
      "name": "gt_euint8_uint8",
      "outputs": [],
      "stateMutability": "nonpayable",
      "type": "function"
    },
    {
      "inputs": [
        {
          "internalType": "uint8",
          "name": "a",
          "type": "uint8"
        },
        {
          "internalType": "externalEuint8",
          "name": "b",
          "type": "bytes32"
        },
        {
          "internalType": "bytes",
          "name": "inputProof",
          "type": "bytes"
        }
      ],
      "name": "gt_uint8_euint8",
      "outputs": [],
      "stateMutability": "nonpayable",
      "type": "function"
    },
    {
      "inputs": [
        {
          "internalType": "externalEuint128",
          "name": "a",
          "type": "bytes32"
        },
        {
          "internalType": "externalEuint128",
          "name": "b",
          "type": "bytes32"
        },
        {
          "internalType": "bytes",
          "name": "inputProof",
          "type": "bytes"
        }
      ],
      "name": "le_euint128_euint128",
      "outputs": [],
      "stateMutability": "nonpayable",
      "type": "function"
    },
    {
      "inputs": [
        {
          "internalType": "externalEuint8",
          "name": "a",
          "type": "bytes32"
        },
        {
          "internalType": "uint8",
          "name": "b",
          "type": "uint8"
        },
        {
          "internalType": "bytes",
          "name": "inputProof",
          "type": "bytes"
        }
      ],
      "name": "le_euint8_uint8",
      "outputs": [],
      "stateMutability": "nonpayable",
      "type": "function"
    },
    {
      "inputs": [
        {
          "internalType": "uint8",
          "name": "a",
          "type": "uint8"
        },
        {
          "internalType": "externalEuint8",
          "name": "b",
          "type": "bytes32"
        },
        {
          "internalType": "bytes",
          "name": "inputProof",
          "type": "bytes"
        }
      ],
      "name": "le_uint8_euint8",
      "outputs": [],
      "stateMutability": "nonpayable",
      "type": "function"
    },
    {
      "inputs": [
        {
          "internalType": "externalEuint128",
          "name": "a",
          "type": "bytes32"
        },
        {
          "internalType": "externalEuint128",
          "name": "b",
          "type": "bytes32"
        },
        {
          "internalType": "bytes",
          "name": "inputProof",
          "type": "bytes"
        }
      ],
      "name": "lt_euint128_euint128",
      "outputs": [],
      "stateMutability": "nonpayable",
      "type": "function"
    },
    {
      "inputs": [
        {
          "internalType": "externalEuint8",
          "name": "a",
          "type": "bytes32"
        },
        {
          "internalType": "uint8",
          "name": "b",
          "type": "uint8"
        },
        {
          "internalType": "bytes",
          "name": "inputProof",
          "type": "bytes"
        }
      ],
      "name": "lt_euint8_uint8",
      "outputs": [],
      "stateMutability": "nonpayable",
      "type": "function"
    },
    {
      "inputs": [
        {
          "internalType": "uint8",
          "name": "a",
          "type": "uint8"
        },
        {
          "internalType": "externalEuint8",
          "name": "b",
          "type": "bytes32"
        },
        {
          "internalType": "bytes",
          "name": "inputProof",
          "type": "bytes"
        }
      ],
      "name": "lt_uint8_euint8",
      "outputs": [],
      "stateMutability": "nonpayable",
      "type": "function"
    },
    {
      "inputs": [
        {
          "internalType": "externalEuint128",
          "name": "a",
          "type": "bytes32"
        },
        {
          "internalType": "externalEuint128",
          "name": "b",
          "type": "bytes32"
        },
        {
          "internalType": "bytes",
          "name": "inputProof",
          "type": "bytes"
        }
      ],
      "name": "max_euint128_euint128",
      "outputs": [],
      "stateMutability": "nonpayable",
      "type": "function"
    },
    {
      "inputs": [
        {
          "internalType": "externalEuint8",
          "name": "a",
          "type": "bytes32"
        },
        {
          "internalType": "uint8",
          "name": "b",
          "type": "uint8"
        },
        {
          "internalType": "bytes",
          "name": "inputProof",
          "type": "bytes"
        }
      ],
      "name": "max_euint8_uint8",
      "outputs": [],
      "stateMutability": "nonpayable",
      "type": "function"
    },
    {
      "inputs": [
        {
          "internalType": "uint8",
          "name": "a",
          "type": "uint8"
        },
        {
          "internalType": "externalEuint8",
          "name": "b",
          "type": "bytes32"
        },
        {
          "internalType": "bytes",
          "name": "inputProof",
          "type": "bytes"
        }
      ],
      "name": "max_uint8_euint8",
      "outputs": [],
      "stateMutability": "nonpayable",
      "type": "function"
    },
    {
      "inputs": [
        {
          "internalType": "externalEuint128",
          "name": "a",
          "type": "bytes32"
        },
        {
          "internalType": "externalEuint128",
          "name": "b",
          "type": "bytes32"
        },
        {
          "internalType": "bytes",
          "name": "inputProof",
          "type": "bytes"
        }
      ],
      "name": "min_euint128_euint128",
      "outputs": [],
      "stateMutability": "nonpayable",
      "type": "function"
    },
    {
      "inputs": [
        {
          "internalType": "externalEuint8",
          "name": "a",
          "type": "bytes32"
        },
        {
          "internalType": "uint8",
          "name": "b",
          "type": "uint8"
        },
        {
          "internalType": "bytes",
          "name": "inputProof",
          "type": "bytes"
        }
      ],
      "name": "min_euint8_uint8",
      "outputs": [],
      "stateMutability": "nonpayable",
      "type": "function"
    },
    {
      "inputs": [
        {
          "internalType": "uint8",
          "name": "a",
          "type": "uint8"
        },
        {
          "internalType": "externalEuint8",
          "name": "b",
          "type": "bytes32"
        },
        {
          "internalType": "bytes",
          "name": "inputProof",
          "type": "bytes"
        }
      ],
      "name": "min_uint8_euint8",
      "outputs": [],
      "stateMutability": "nonpayable",
      "type": "function"
    },
    {
      "inputs": [
        {
          "internalType": "externalEuint16",
          "name": "a",
          "type": "bytes32"
        },
        {
          "internalType": "uint16",
          "name": "b",
          "type": "uint16"
        },
        {
          "internalType": "bytes",
          "name": "inputProof",
          "type": "bytes"
        }
      ],
      "name": "mul_euint16_uint16",
      "outputs": [],
      "stateMutability": "nonpayable",
      "type": "function"
    },
    {
      "inputs": [
        {
          "internalType": "externalEuint8",
          "name": "a",
          "type": "bytes32"
        },
        {
          "internalType": "uint8",
          "name": "b",
          "type": "uint8"
        },
        {
          "internalType": "bytes",
          "name": "inputProof",
          "type": "bytes"
        }
      ],
      "name": "mul_euint8_uint8",
      "outputs": [],
      "stateMutability": "nonpayable",
      "type": "function"
    },
    {
      "inputs": [
        {
          "internalType": "uint16",
          "name": "a",
          "type": "uint16"
        },
        {
          "internalType": "externalEuint16",
          "name": "b",
          "type": "bytes32"
        },
        {
          "internalType": "bytes",
          "name": "inputProof",
          "type": "bytes"
        }
      ],
      "name": "mul_uint16_euint16",
      "outputs": [],
      "stateMutability": "nonpayable",
      "type": "function"
    },
    {
      "inputs": [
        {
          "internalType": "uint8",
          "name": "a",
          "type": "uint8"
        },
        {
          "internalType": "externalEuint8",
          "name": "b",
          "type": "bytes32"
        },
        {
          "internalType": "bytes",
          "name": "inputProof",
          "type": "bytes"
        }
      ],
      "name": "mul_uint8_euint8",
      "outputs": [],
      "stateMutability": "nonpayable",
      "type": "function"
    },
    {
      "inputs": [
        {
          "internalType": "externalEuint128",
          "name": "a",
          "type": "bytes32"
        },
        {
          "internalType": "externalEuint128",
          "name": "b",
          "type": "bytes32"
        },
        {
          "internalType": "bytes",
          "name": "inputProof",
          "type": "bytes"
        }
      ],
      "name": "ne_euint128_euint128",
      "outputs": [],
      "stateMutability": "nonpayable",
      "type": "function"
    },
    {
      "inputs": [
        {
          "internalType": "externalEuint128",
          "name": "a",
          "type": "bytes32"
        },
        {
          "internalType": "externalEuint256",
          "name": "b",
          "type": "bytes32"
        },
        {
          "internalType": "bytes",
          "name": "inputProof",
          "type": "bytes"
        }
      ],
      "name": "ne_euint128_euint256",
      "outputs": [],
      "stateMutability": "nonpayable",
      "type": "function"
    },
    {
      "inputs": [
        {
          "internalType": "externalEuint256",
          "name": "a",
          "type": "bytes32"
        },
        {
          "internalType": "externalEuint128",
          "name": "b",
          "type": "bytes32"
        },
        {
          "internalType": "bytes",
          "name": "inputProof",
          "type": "bytes"
        }
      ],
      "name": "ne_euint256_euint128",
      "outputs": [],
      "stateMutability": "nonpayable",
      "type": "function"
    },
    {
      "inputs": [
        {
          "internalType": "externalEuint256",
          "name": "a",
          "type": "bytes32"
        },
        {
          "internalType": "externalEuint16",
          "name": "b",
          "type": "bytes32"
        },
        {
          "internalType": "bytes",
          "name": "inputProof",
          "type": "bytes"
        }
      ],
      "name": "ne_euint256_euint16",
      "outputs": [],
      "stateMutability": "nonpayable",
      "type": "function"
    },
    {
      "inputs": [
        {
          "internalType": "externalEuint256",
          "name": "a",
          "type": "bytes32"
        },
        {
          "internalType": "externalEuint256",
          "name": "b",
          "type": "bytes32"
        },
        {
          "internalType": "bytes",
          "name": "inputProof",
          "type": "bytes"
        }
      ],
      "name": "ne_euint256_euint256",
      "outputs": [],
      "stateMutability": "nonpayable",
      "type": "function"
    },
    {
      "inputs": [
        {
          "internalType": "externalEuint256",
          "name": "a",
          "type": "bytes32"
        },
        {
          "internalType": "externalEuint32",
          "name": "b",
          "type": "bytes32"
        },
        {
          "internalType": "bytes",
          "name": "inputProof",
          "type": "bytes"
        }
      ],
      "name": "ne_euint256_euint32",
      "outputs": [],
      "stateMutability": "nonpayable",
      "type": "function"
    },
    {
      "inputs": [
        {
          "internalType": "externalEuint256",
          "name": "a",
          "type": "bytes32"
        },
        {
          "internalType": "externalEuint64",
          "name": "b",
          "type": "bytes32"
        },
        {
          "internalType": "bytes",
          "name": "inputProof",
          "type": "bytes"
        }
      ],
      "name": "ne_euint256_euint64",
      "outputs": [],
      "stateMutability": "nonpayable",
      "type": "function"
    },
    {
      "inputs": [
        {
          "internalType": "externalEuint256",
          "name": "a",
          "type": "bytes32"
        },
        {
          "internalType": "externalEuint8",
          "name": "b",
          "type": "bytes32"
        },
        {
          "internalType": "bytes",
          "name": "inputProof",
          "type": "bytes"
        }
      ],
      "name": "ne_euint256_euint8",
      "outputs": [],
      "stateMutability": "nonpayable",
      "type": "function"
    },
    {
      "inputs": [
        {
          "internalType": "externalEuint8",
          "name": "a",
          "type": "bytes32"
        },
        {
          "internalType": "uint8",
          "name": "b",
          "type": "uint8"
        },
        {
          "internalType": "bytes",
          "name": "inputProof",
          "type": "bytes"
        }
      ],
      "name": "ne_euint8_uint8",
      "outputs": [],
      "stateMutability": "nonpayable",
      "type": "function"
    },
    {
      "inputs": [
        {
          "internalType": "uint8",
          "name": "a",
          "type": "uint8"
        },
        {
          "internalType": "externalEuint8",
          "name": "b",
          "type": "bytes32"
        },
        {
          "internalType": "bytes",
          "name": "inputProof",
          "type": "bytes"
        }
      ],
      "name": "ne_uint8_euint8",
      "outputs": [],
      "stateMutability": "nonpayable",
      "type": "function"
    },
    {
      "inputs": [
        {
          "internalType": "externalEuint128",
          "name": "a",
          "type": "bytes32"
        },
        {
          "internalType": "externalEuint128",
          "name": "b",
          "type": "bytes32"
        },
        {
          "internalType": "bytes",
          "name": "inputProof",
          "type": "bytes"
        }
      ],
      "name": "or_euint128_euint128",
      "outputs": [],
      "stateMutability": "nonpayable",
      "type": "function"
    },
    {
      "inputs": [
        {
          "internalType": "externalEuint128",
          "name": "a",
          "type": "bytes32"
        },
        {
          "internalType": "externalEuint256",
          "name": "b",
          "type": "bytes32"
        },
        {
          "internalType": "bytes",
          "name": "inputProof",
          "type": "bytes"
        }
      ],
      "name": "or_euint128_euint256",
      "outputs": [],
      "stateMutability": "nonpayable",
      "type": "function"
    },
    {
      "inputs": [
        {
          "internalType": "externalEuint16",
          "name": "a",
          "type": "bytes32"
        },
        {
          "internalType": "uint16",
          "name": "b",
          "type": "uint16"
        },
        {
          "internalType": "bytes",
          "name": "inputProof",
          "type": "bytes"
        }
      ],
      "name": "or_euint16_uint16",
      "outputs": [],
      "stateMutability": "nonpayable",
      "type": "function"
    },
    {
      "inputs": [
        {
          "internalType": "externalEuint256",
          "name": "a",
          "type": "bytes32"
        },
        {
          "internalType": "externalEuint128",
          "name": "b",
          "type": "bytes32"
        },
        {
          "internalType": "bytes",
          "name": "inputProof",
          "type": "bytes"
        }
      ],
      "name": "or_euint256_euint128",
      "outputs": [],
      "stateMutability": "nonpayable",
      "type": "function"
    },
    {
      "inputs": [
        {
          "internalType": "externalEuint256",
          "name": "a",
          "type": "bytes32"
        },
        {
          "internalType": "externalEuint16",
          "name": "b",
          "type": "bytes32"
        },
        {
          "internalType": "bytes",
          "name": "inputProof",
          "type": "bytes"
        }
      ],
      "name": "or_euint256_euint16",
      "outputs": [],
      "stateMutability": "nonpayable",
      "type": "function"
    },
    {
      "inputs": [
        {
          "internalType": "externalEuint256",
          "name": "a",
          "type": "bytes32"
        },
        {
          "internalType": "externalEuint256",
          "name": "b",
          "type": "bytes32"
        },
        {
          "internalType": "bytes",
          "name": "inputProof",
          "type": "bytes"
        }
      ],
      "name": "or_euint256_euint256",
      "outputs": [],
      "stateMutability": "nonpayable",
      "type": "function"
    },
    {
      "inputs": [
        {
          "internalType": "externalEuint256",
          "name": "a",
          "type": "bytes32"
        },
        {
          "internalType": "externalEuint32",
          "name": "b",
          "type": "bytes32"
        },
        {
          "internalType": "bytes",
          "name": "inputProof",
          "type": "bytes"
        }
      ],
      "name": "or_euint256_euint32",
      "outputs": [],
      "stateMutability": "nonpayable",
      "type": "function"
    },
    {
      "inputs": [
        {
          "internalType": "externalEuint256",
          "name": "a",
          "type": "bytes32"
        },
        {
          "internalType": "externalEuint64",
          "name": "b",
          "type": "bytes32"
        },
        {
          "internalType": "bytes",
          "name": "inputProof",
          "type": "bytes"
        }
      ],
      "name": "or_euint256_euint64",
      "outputs": [],
      "stateMutability": "nonpayable",
      "type": "function"
    },
    {
      "inputs": [
        {
          "internalType": "externalEuint256",
          "name": "a",
          "type": "bytes32"
        },
        {
          "internalType": "externalEuint8",
          "name": "b",
          "type": "bytes32"
        },
        {
          "internalType": "bytes",
          "name": "inputProof",
          "type": "bytes"
        }
      ],
      "name": "or_euint256_euint8",
      "outputs": [],
      "stateMutability": "nonpayable",
      "type": "function"
    },
    {
      "inputs": [
        {
          "internalType": "externalEuint8",
          "name": "a",
          "type": "bytes32"
        },
        {
          "internalType": "uint8",
          "name": "b",
          "type": "uint8"
        },
        {
          "internalType": "bytes",
          "name": "inputProof",
          "type": "bytes"
        }
      ],
      "name": "or_euint8_uint8",
      "outputs": [],
      "stateMutability": "nonpayable",
      "type": "function"
    },
    {
      "inputs": [
        {
          "internalType": "uint16",
          "name": "a",
          "type": "uint16"
        },
        {
          "internalType": "externalEuint16",
          "name": "b",
          "type": "bytes32"
        },
        {
          "internalType": "bytes",
          "name": "inputProof",
          "type": "bytes"
        }
      ],
      "name": "or_uint16_euint16",
      "outputs": [],
      "stateMutability": "nonpayable",
      "type": "function"
    },
    {
      "inputs": [
        {
          "internalType": "uint8",
          "name": "a",
          "type": "uint8"
        },
        {
          "internalType": "externalEuint8",
          "name": "b",
          "type": "bytes32"
        },
        {
          "internalType": "bytes",
          "name": "inputProof",
          "type": "bytes"
        }
      ],
      "name": "or_uint8_euint8",
      "outputs": [],
      "stateMutability": "nonpayable",
      "type": "function"
    },
    {
      "inputs": [
        {
          "internalType": "externalEuint16",
          "name": "a",
          "type": "bytes32"
        },
        {
          "internalType": "uint16",
          "name": "b",
          "type": "uint16"
        },
        {
          "internalType": "bytes",
          "name": "inputProof",
          "type": "bytes"
        }
      ],
      "name": "rem_euint16_uint16",
      "outputs": [],
      "stateMutability": "nonpayable",
      "type": "function"
    },
    {
      "inputs": [
        {
          "internalType": "externalEuint8",
          "name": "a",
          "type": "bytes32"
        },
        {
          "internalType": "uint8",
          "name": "b",
          "type": "uint8"
        },
        {
          "internalType": "bytes",
          "name": "inputProof",
          "type": "bytes"
        }
      ],
      "name": "rem_euint8_uint8",
      "outputs": [],
      "stateMutability": "nonpayable",
      "type": "function"
    },
    {
      "inputs": [],
      "name": "resEbool",
      "outputs": [
        {
          "internalType": "ebool",
          "name": "",
          "type": "bytes32"
        }
      ],
      "stateMutability": "view",
      "type": "function"
    },
    {
      "inputs": [],
      "name": "resEuint128",
      "outputs": [
        {
          "internalType": "euint128",
          "name": "",
          "type": "bytes32"
        }
      ],
      "stateMutability": "view",
      "type": "function"
    },
    {
      "inputs": [],
      "name": "resEuint16",
      "outputs": [
        {
          "internalType": "euint16",
          "name": "",
          "type": "bytes32"
        }
      ],
      "stateMutability": "view",
      "type": "function"
    },
    {
      "inputs": [],
      "name": "resEuint256",
      "outputs": [
        {
          "internalType": "euint256",
          "name": "",
          "type": "bytes32"
        }
      ],
      "stateMutability": "view",
      "type": "function"
    },
    {
      "inputs": [],
      "name": "resEuint32",
      "outputs": [
        {
          "internalType": "euint32",
          "name": "",
          "type": "bytes32"
        }
      ],
      "stateMutability": "view",
      "type": "function"
    },
    {
      "inputs": [],
      "name": "resEuint64",
      "outputs": [
        {
          "internalType": "euint64",
          "name": "",
          "type": "bytes32"
        }
      ],
      "stateMutability": "view",
      "type": "function"
    },
    {
      "inputs": [],
      "name": "resEuint8",
      "outputs": [
        {
          "internalType": "euint8",
          "name": "",
          "type": "bytes32"
        }
      ],
      "stateMutability": "view",
      "type": "function"
    },
    {
      "inputs": [
        {
          "internalType": "externalEuint16",
          "name": "a",
          "type": "bytes32"
        },
        {
          "internalType": "uint16",
          "name": "b",
          "type": "uint16"
        },
        {
          "internalType": "bytes",
          "name": "inputProof",
          "type": "bytes"
        }
      ],
      "name": "sub_euint16_uint16",
      "outputs": [],
      "stateMutability": "nonpayable",
      "type": "function"
    },
    {
      "inputs": [
        {
          "internalType": "externalEuint8",
          "name": "a",
          "type": "bytes32"
        },
        {
          "internalType": "uint8",
          "name": "b",
          "type": "uint8"
        },
        {
          "internalType": "bytes",
          "name": "inputProof",
          "type": "bytes"
        }
      ],
      "name": "sub_euint8_uint8",
      "outputs": [],
      "stateMutability": "nonpayable",
      "type": "function"
    },
    {
      "inputs": [
        {
          "internalType": "uint16",
          "name": "a",
          "type": "uint16"
        },
        {
          "internalType": "externalEuint16",
          "name": "b",
          "type": "bytes32"
        },
        {
          "internalType": "bytes",
          "name": "inputProof",
          "type": "bytes"
        }
      ],
      "name": "sub_uint16_euint16",
      "outputs": [],
      "stateMutability": "nonpayable",
      "type": "function"
    },
    {
      "inputs": [
        {
          "internalType": "uint8",
          "name": "a",
          "type": "uint8"
        },
        {
          "internalType": "externalEuint8",
          "name": "b",
          "type": "bytes32"
        },
        {
          "internalType": "bytes",
          "name": "inputProof",
          "type": "bytes"
        }
      ],
      "name": "sub_uint8_euint8",
      "outputs": [],
      "stateMutability": "nonpayable",
      "type": "function"
    },
    {
      "inputs": [
        {
          "internalType": "externalEuint128",
          "name": "a",
          "type": "bytes32"
        },
        {
          "internalType": "externalEuint128",
          "name": "b",
          "type": "bytes32"
        },
        {
          "internalType": "bytes",
          "name": "inputProof",
          "type": "bytes"
        }
      ],
      "name": "xor_euint128_euint128",
      "outputs": [],
      "stateMutability": "nonpayable",
      "type": "function"
    },
    {
      "inputs": [
        {
          "internalType": "externalEuint128",
          "name": "a",
          "type": "bytes32"
        },
        {
          "internalType": "externalEuint256",
          "name": "b",
          "type": "bytes32"
        },
        {
          "internalType": "bytes",
          "name": "inputProof",
          "type": "bytes"
        }
      ],
      "name": "xor_euint128_euint256",
      "outputs": [],
      "stateMutability": "nonpayable",
      "type": "function"
    },
    {
      "inputs": [
        {
          "internalType": "externalEuint16",
          "name": "a",
          "type": "bytes32"
        },
        {
          "internalType": "uint16",
          "name": "b",
          "type": "uint16"
        },
        {
          "internalType": "bytes",
          "name": "inputProof",
          "type": "bytes"
        }
      ],
      "name": "xor_euint16_uint16",
      "outputs": [],
      "stateMutability": "nonpayable",
      "type": "function"
    },
    {
      "inputs": [
        {
          "internalType": "externalEuint256",
          "name": "a",
          "type": "bytes32"
        },
        {
          "internalType": "externalEuint128",
          "name": "b",
          "type": "bytes32"
        },
        {
          "internalType": "bytes",
          "name": "inputProof",
          "type": "bytes"
        }
      ],
      "name": "xor_euint256_euint128",
      "outputs": [],
      "stateMutability": "nonpayable",
      "type": "function"
    },
    {
      "inputs": [
        {
          "internalType": "externalEuint256",
          "name": "a",
          "type": "bytes32"
        },
        {
          "internalType": "externalEuint16",
          "name": "b",
          "type": "bytes32"
        },
        {
          "internalType": "bytes",
          "name": "inputProof",
          "type": "bytes"
        }
      ],
      "name": "xor_euint256_euint16",
      "outputs": [],
      "stateMutability": "nonpayable",
      "type": "function"
    },
    {
      "inputs": [
        {
          "internalType": "externalEuint256",
          "name": "a",
          "type": "bytes32"
        },
        {
          "internalType": "externalEuint256",
          "name": "b",
          "type": "bytes32"
        },
        {
          "internalType": "bytes",
          "name": "inputProof",
          "type": "bytes"
        }
      ],
      "name": "xor_euint256_euint256",
      "outputs": [],
      "stateMutability": "nonpayable",
      "type": "function"
    },
    {
      "inputs": [
        {
          "internalType": "externalEuint256",
          "name": "a",
          "type": "bytes32"
        },
        {
          "internalType": "externalEuint32",
          "name": "b",
          "type": "bytes32"
        },
        {
          "internalType": "bytes",
          "name": "inputProof",
          "type": "bytes"
        }
      ],
      "name": "xor_euint256_euint32",
      "outputs": [],
      "stateMutability": "nonpayable",
      "type": "function"
    },
    {
      "inputs": [
        {
          "internalType": "externalEuint256",
          "name": "a",
          "type": "bytes32"
        },
        {
          "internalType": "externalEuint64",
          "name": "b",
          "type": "bytes32"
        },
        {
          "internalType": "bytes",
          "name": "inputProof",
          "type": "bytes"
        }
      ],
      "name": "xor_euint256_euint64",
      "outputs": [],
      "stateMutability": "nonpayable",
      "type": "function"
    },
    {
      "inputs": [
        {
          "internalType": "externalEuint256",
          "name": "a",
          "type": "bytes32"
        },
        {
          "internalType": "externalEuint8",
          "name": "b",
          "type": "bytes32"
        },
        {
          "internalType": "bytes",
          "name": "inputProof",
          "type": "bytes"
        }
      ],
      "name": "xor_euint256_euint8",
      "outputs": [],
      "stateMutability": "nonpayable",
      "type": "function"
    },
    {
      "inputs": [
        {
          "internalType": "externalEuint8",
          "name": "a",
          "type": "bytes32"
        },
        {
          "internalType": "uint8",
          "name": "b",
          "type": "uint8"
        },
        {
          "internalType": "bytes",
          "name": "inputProof",
          "type": "bytes"
        }
      ],
      "name": "xor_euint8_uint8",
      "outputs": [],
      "stateMutability": "nonpayable",
      "type": "function"
    },
    {
      "inputs": [
        {
          "internalType": "uint16",
          "name": "a",
          "type": "uint16"
        },
        {
          "internalType": "externalEuint16",
          "name": "b",
          "type": "bytes32"
        },
        {
          "internalType": "bytes",
          "name": "inputProof",
          "type": "bytes"
        }
      ],
      "name": "xor_uint16_euint16",
      "outputs": [],
      "stateMutability": "nonpayable",
      "type": "function"
    },
    {
      "inputs": [
        {
          "internalType": "uint8",
          "name": "a",
          "type": "uint8"
        },
        {
          "internalType": "externalEuint8",
          "name": "b",
          "type": "bytes32"
        },
        {
          "internalType": "bytes",
          "name": "inputProof",
          "type": "bytes"
        }
      ],
      "name": "xor_uint8_euint8",
      "outputs": [],
      "stateMutability": "nonpayable",
      "type": "function"
    }
  ],
  "bytecode": "0x608060405234801562000010575f80fd5b506200018d620000b1604080516080810182525f80825260208201819052918101829052606081019190915250604080516080810182527305ce5c99898b2a4376381c3c39217833ed0e15a4815273556994566b825becb7db89c345fc994f27e4ba0960208201527386b28e406738f2928be33d111a0b821bbc5610a291810191909152732af486b3c64d73b03a01ee8abd5a94287a5bfd49606082015290565b80517fed8d60e34876f751cc8b014c560745351147d9de11b9347c854e881b128ea60080546001600160a01b03199081166001600160a01b039384161790915560208301517fed8d60e34876f751cc8b014c560745351147d9de11b9347c854e881b128ea6018054831691841691909117905560408301517fed8d60e34876f751cc8b014c560745351147d9de11b9347c854e881b128ea6028054831691841691909117905560608301517fed8d60e34876f751cc8b014c560745351147d9de11b9347c854e881b128ea6038054909216921691909117905550565b614587806200019b5f395ff3fe608060405234801561000f575f80fd5b5060043610610619575f3560e01c80638c4dc4cb11610328578063b9ed2de9116101b3578063d03c78af116100fe578063e565c97a116100a9578063eb04c2da11610084578063eb04c2da14610cdb578063f02d503d14610ce4578063f5312a8b14610cf7578063fb25afd614610d0a575f80fd5b8063e565c97a14610ca2578063e837657d14610cb5578063e95730b814610cc8575f80fd5b8063dad91c5a116100d9578063dad91c5a14610c69578063df411fd514610c7c578063e3ac9b3c14610c8f575f80fd5b8063d03c78af14610c30578063d12c822414610c43578063d8aa9bff14610c56575f80fd5b8063c66283421161015e578063c9bb1bc011610139578063c9bb1bc014610bf7578063cd28fa7e14610c0a578063cff6762014610c1d575f80fd5b8063c662834214610bc8578063c670773114610bd1578063c73f22cc14610be4575f80fd5b8063c196ca331161018e578063c196ca3314610b8f578063c458198114610ba2578063c5962bab14610bb5575f80fd5b8063b9ed2de914610b60578063bbc307da14610b73578063c1851bd214610b7c575f80fd5b80639c70f80e11610273578063a3441df01161021e578063b65a15e4116101f9578063b65a15e414610b31578063b7440fdb14610b44578063b7f1666514610b4d575f80fd5b8063a3441df014610b02578063a71a71eb14610b15578063b0f34c9514610b1e575f80fd5b80639f29b4991161024e5780639f29b49914610ac9578063a1e4aec114610adc578063a2377bcf14610aef575f80fd5b80639c70f80e14610a905780639da5218b14610aa35780639f1f207814610ab6575f80fd5b806394f5e098116102d357806397a3ab9a116102ae57806397a3ab9a14610a5757806397ca10ff14610a6a5780639a0eff6f14610a7d575f80fd5b806394f5e09814610a1e57806395e0cb7f14610a315780639635fd9714610a44575f80fd5b80639443a8e5116103035780639443a8e5146109e557806394953bfd146109f857806394b98c4614610a0b575f80fd5b80638c4dc4cb146109ac5780638e2109bc146109bf57806391c3b74a146109d2575f80fd5b80633a1f978f116104a85780635ab06825116103f35780636fd06f6e1161039e57806377d911781161037957806377d911781461097d57806386052aa51461098657806386bcedc514610999575f80fd5b80636fd06f6e14610944578063760219b21461095757806376ea29191461096a575f80fd5b8063683b9d4c116103ce578063683b9d4c1461090b5780636a3c12911461091e5780636f27b94414610931575f80fd5b80635ab06825146108d25780635cc52fc6146108e557806362eafb2e146108f8575f80fd5b8063455f73d4116104535780634cd23e711161042e5780634cd23e71146108995780634df78b66146108ac57806354cd6fa4146108bf575f80fd5b8063455f73d4146108605780634859fb151461087357806348d5a52014610886575f80fd5b806343a274691161048357806343a2746914610827578063440ddc4e1461083a5780634523b2e51461084d575f80fd5b80633a1f978f146107ee5780633f972a7a14610801578063404602e414610814575f80fd5b80631a489a07116105685780632c3bdb0c116105135780633276c69d116104ee5780633276c69d146107b557806334975aa6146107c857806335a67aa7146107db575f80fd5b80632c3bdb0c146107755780632d37c2ff14610788578063320c280a146107a2575f80fd5b8063263a25e111610543578063263a25e11461073c5780632681a5701461074f57806326ccd59714610762575f80fd5b80631a489a07146107035780631a61ad1914610716578063230531b314610729575f80fd5b80630d8f7b1f116105c857806316f6b145116105a357806316f6b145146106ca57806318124742146106dd578063197222b9146106f0575f80fd5b80630d8f7b1f146106915780630df105cf146106a4578063112b6939146106b7575f80fd5b806309f02224116105f857806309f02224146106585780630a5a51ac1461066b5780630c32a67e1461067e575f80fd5b80628acd2d1461061d57806305bd46381461063257806305bfef1114610645575b5f80fd5b61063061062b366004614334565b610d1d565b005b61063061064036600461439a565b610d82565b6106306106533660046143bd565b610de7565b6106306106663660046143f4565b610e8d565b6106306106793660046143f4565b610ede565b61063061068c366004614432565b610f2f565b61063061069f3660046143bd565b610f96565b6106306106b236600461439a565b611025565b6106306106c5366004614432565b611073565b6106306106d8366004614432565b6110c4565b6106306106eb36600461439a565b611115565b6106306106fe3660046143f4565b611163565b6106306107113660046143bd565b6111b4565b61063061072436600461439a565b611243565b6106306107373660046143bd565b611291565b61063061074a3660046143bd565b611320565b61063061075d3660046143bd565b6113c6565b6106306107703660046143f4565b611448565b6106306107833660046143bd565b611499565b6107905f5481565b60405190815260200160405180910390f35b6106306107b03660046143bd565b611528565b6106306107c33660046143bd565b6115aa565b6106306107d63660046143bd565b611639565b6106306107e93660046143f4565b6116bb565b6106306107fc3660046143f4565b61170c565b61063061080f3660046143bd565b61175d565b610630610822366004614334565b6117ec565b6106306108353660046143bd565b61183a565b6106306108483660046143bd565b6118bc565b61063061085b36600461439a565b61194b565b61063061086e366004614432565b611999565b6106306108813660046143bd565b6119ea565b6106306108943660046143bd565b611a79565b6106306108a736600461439a565b611b08565b6106306108ba36600461439a565b611b56565b6106306108cd36600461439a565b611ba4565b6106306108e03660046143bd565b611bf2565b6106306108f33660046143bd565b611c74565b61063061090636600461439a565b611d03565b6106306109193660046143bd565b611d51565b61063061092c366004614334565b611dd3565b61063061093f36600461439a565b611e21565b610630610952366004614432565b611e6f565b6106306109653660046143bd565b611ec0565b6106306109783660046143bd565b611f42565b61079060065481565b610630610994366004614334565b611fd1565b6106306109a736600461439a565b61201f565b6106306109ba366004614432565b61206d565b6106306109cd3660046143bd565b6120be565b6106306109e03660046143bd565b612140565b6106306109f33660046143bd565b6121c2565b610630610a063660046143bd565b612244565b610630610a1936600461439a565b6122c6565b610630610a2c3660046143bd565b612314565b610630610a3f3660046143bd565b612396565b610630610a52366004614334565b612418565b610630610a65366004614432565b612466565b610630610a78366004614334565b6124b7565b610630610a8b3660046143bd565b612505565b610630610a9e366004614432565b612587565b610630610ab1366004614432565b6125d8565b610630610ac4366004614432565b612629565b610630610ad73660046143bd565b61267a565b610630610aea3660046143bd565b612709565b610630610afd3660046143bd565b612798565b610630610b103660046143bd565b612827565b61079060035481565b610630610b2c3660046143bd565b6128b6565b610630610b3f3660046143bd565b612945565b61079060015481565b610630610b5b36600461439a565b6129d4565b610630610b6e3660046143bd565b612a22565b61079060025481565b610630610b8a3660046143bd565b612aa4565b610630610b9d3660046143bd565b612b33565b610630610bb0366004614432565b612bc2565b610630610bc3366004614432565b612c13565b61079060055481565b610630610bdf366004614432565b612c64565b610630610bf236600461439a565b612cb5565b610630610c053660046143bd565b612d03565b610630610c1836600461439a565b612d85565b610630610c2b3660046143bd565b612dd3565b610630610c3e366004614334565b612e62565b610630610c5136600461439a565b612eb0565b610630610c643660046143bd565b612efe565b610630610c77366004614334565b612f8d565b610630610c8a3660046143bd565b612fdb565b610630610c9d366004614432565b61305d565b610630610cb03660046143bd565b6130ae565b610630610cc33660046143bd565b613130565b610630610cd63660046143bd565b6131b2565b61079060045481565b610630610cf23660046143bd565b613234565b610630610d053660046143bd565b6132b6565b610630610d18366004614334565b613338565b5f610d5d8584848080601f0160208091040260200160405190810160405280939291908181526020018383808284375f9201919091525061338692505050565b9050835f610d6b838361339a565b9050610d76816133ab565b50600255505050505050565b5f610dc28584848080601f0160208091040260200160405190810160405280939291908181526020018383808284375f920191909152506133ba92505050565b9050835f610dd083836133c7565b9050610ddb816133ab565b50600155505050505050565b5f610e278584848080601f0160208091040260200160405190810160405280939291908181526020018383808284375f920191909152506133d592505050565b90505f610e698585858080601f0160208091040260200160405190810160405280939291908181526020018383808284375f920191909152506133e292505050565b90505f610e7683836133ef565b9050610e81816133ab565b50600655505050505050565b5f8490505f610ed18585858080601f0160208091040260200160405190810160405280939291908181526020018383808284375f9201919091525061338692505050565b90505f610d6b8383613403565b5f8490505f610f228585858080601f0160208091040260200160405190810160405280939291908181526020018383808284375f9201919091525061338692505050565b90505f610d6b8383613414565b5f8490505f610f738585858080601f0160208091040260200160405190810160405280939291908181526020018383808284375f920191909152506133ba92505050565b90505f610f808383613434565b9050610f8b816133ab565b505f55505050505050565b5f610fd68584848080601f0160208091040260200160405190810160405280939291908181526020018383808284375f920191909152506133e292505050565b90505f6110188585858080601f0160208091040260200160405190810160405280939291908181526020018383808284375f9201919091525061338692505050565b90505f610e768383613444565b5f6110658584848080601f0160208091040260200160405190810160405280939291908181526020018383808284375f920191909152506133ba92505050565b9050835f610dd08383613458565b5f8490505f6110b78585858080601f0160208091040260200160405190810160405280939291908181526020018383808284375f920191909152506133ba92505050565b90505f610dd08383613468565b5f8490505f6111088585858080601f0160208091040260200160405190810160405280939291908181526020018383808284375f920191909152506133ba92505050565b90505f610dd08383613478565b5f6111558584848080601f0160208091040260200160405190810160405280939291908181526020018383808284375f920191909152506133ba92505050565b9050835f610f808383613488565b5f8490505f6111a78585858080601f0160208091040260200160405190810160405280939291908181526020018383808284375f9201919091525061338692505050565b90505f610d6b8383613498565b5f6111f48584848080601f0160208091040260200160405190810160405280939291908181526020018383808284375f920191909152506133e292505050565b90505f6112368585858080601f0160208091040260200160405190810160405280939291908181526020018383808284375f920191909152506134a992505050565b90505f610e7683836134b6565b5f6112838584848080601f0160208091040260200160405190810160405280939291908181526020018383808284375f920191909152506133ba92505050565b9050835f610dd083836134ca565b5f6112d18584848080601f0160208091040260200160405190810160405280939291908181526020018383808284375f920191909152506133e292505050565b90505f6113138585858080601f0160208091040260200160405190810160405280939291908181526020018383808284375f920191909152506133ba92505050565b90505f610e7683836134da565b5f6113608584848080601f0160208091040260200160405190810160405280939291908181526020018383808284375f920191909152506133d592505050565b90505f6113a28585858080601f0160208091040260200160405190810160405280939291908181526020018383808284375f920191909152506133d592505050565b90505f6113af83836134ee565b90506113ba816133ab565b50600555505050505050565b5f6114068584848080601f0160208091040260200160405190810160405280939291908181526020018383808284375f920191909152506133e292505050565b90505f6110188585858080601f0160208091040260200160405190810160405280939291908181526020018383808284375f920191909152506133ba92505050565b5f8490505f61148c8585858080601f0160208091040260200160405190810160405280939291908181526020018383808284375f9201919091525061338692505050565b90505f610d6b83836134fa565b5f6114d98584848080601f0160208091040260200160405190810160405280939291908181526020018383808284375f920191909152506133d592505050565b90505f61151b8585858080601f0160208091040260200160405190810160405280939291908181526020018383808284375f920191909152506133d592505050565b90505f610f80838361350b565b5f6115688584848080601f0160208091040260200160405190810160405280939291908181526020018383808284375f920191909152506133e292505050565b90505f6113138585858080601f0160208091040260200160405190810160405280939291908181526020018383808284375f9201919091525061351792505050565b5f6115ea8584848080601f0160208091040260200160405190810160405280939291908181526020018383808284375f920191909152506133e292505050565b90505f61162c8585858080601f0160208091040260200160405190810160405280939291908181526020018383808284375f9201919091525061351792505050565b90505f610f808383613524565b5f6116798584848080601f0160208091040260200160405190810160405280939291908181526020018383808284375f920191909152506133e292505050565b90505f6110188585858080601f0160208091040260200160405190810160405280939291908181526020018383808284375f920191909152506133d592505050565b5f8490505f6116ff8585858080601f0160208091040260200160405190810160405280939291908181526020018383808284375f9201919091525061338692505050565b90505f610d6b8383613538565b5f8490505f6117508585858080601f0160208091040260200160405190810160405280939291908181526020018383808284375f9201919091525061338692505050565b90505f610d6b8383613549565b5f61179d8584848080601f0160208091040260200160405190810160405280939291908181526020018383808284375f920191909152506133e292505050565b90505f6117df8585858080601f0160208091040260200160405190810160405280939291908181526020018383808284375f9201919091525061338692505050565b90505f610f80838361355a565b5f61182c8584848080601f0160208091040260200160405190810160405280939291908181526020018383808284375f9201919091525061338692505050565b9050835f610f80838361356e565b5f61187a8584848080601f0160208091040260200160405190810160405280939291908181526020018383808284375f920191909152506133e292505050565b90505f6117df8585858080601f0160208091040260200160405190810160405280939291908181526020018383808284375f920191909152506133ba92505050565b5f6118fc8584848080601f0160208091040260200160405190810160405280939291908181526020018383808284375f920191909152506133e292505050565b90505f61193e8585858080601f0160208091040260200160405190810160405280939291908181526020018383808284375f920191909152506133e292505050565b90505f610e76838361357f565b5f61198b8584848080601f0160208091040260200160405190810160405280939291908181526020018383808284375f920191909152506133ba92505050565b9050835f610dd0838361358b565b5f8490505f6119dd8585858080601f0160208091040260200160405190810160405280939291908181526020018383808284375f920191909152506133ba92505050565b90505f610dd08383613599565b5f611a2a8584848080601f0160208091040260200160405190810160405280939291908181526020018383808284375f920191909152506133e292505050565b90505f611a6c8585858080601f0160208091040260200160405190810160405280939291908181526020018383808284375f920191909152506133e292505050565b90505f610e7683836135a4565b5f611ab98584848080601f0160208091040260200160405190810160405280939291908181526020018383808284375f920191909152506133d592505050565b90505f611afb8585858080601f0160208091040260200160405190810160405280939291908181526020018383808284375f920191909152506133d592505050565b90505f6113af83836135b0565b5f611b488584848080601f0160208091040260200160405190810160405280939291908181526020018383808284375f920191909152506133ba92505050565b9050835f610dd083836135bc565b5f611b968584848080601f0160208091040260200160405190810160405280939291908181526020018383808284375f920191909152506133ba92505050565b9050835f610dd083836135cc565b5f611be48584848080601f0160208091040260200160405190810160405280939291908181526020018383808284375f920191909152506133ba92505050565b9050835f610f8083836135dc565b5f611c328584848080601f0160208091040260200160405190810160405280939291908181526020018383808284375f920191909152506133e292505050565b90505f61162c8585858080601f0160208091040260200160405190810160405280939291908181526020018383808284375f9201919091525061338692505050565b5f611cb48584848080601f0160208091040260200160405190810160405280939291908181526020018383808284375f920191909152506133d592505050565b90505f611cf68585858080601f0160208091040260200160405190810160405280939291908181526020018383808284375f920191909152506133d592505050565b90505f610f8083836135ec565b5f611d438584848080601f0160208091040260200160405190810160405280939291908181526020018383808284375f920191909152506133ba92505050565b9050835f610dd083836135f8565b5f611d918584848080601f0160208091040260200160405190810160405280939291908181526020018383808284375f920191909152506133e292505050565b90505f6112368585858080601f0160208091040260200160405190810160405280939291908181526020018383808284375f9201919091525061351792505050565b5f611e138584848080601f0160208091040260200160405190810160405280939291908181526020018383808284375f9201919091525061338692505050565b9050835f610d6b8383613608565b5f611e618584848080601f0160208091040260200160405190810160405280939291908181526020018383808284375f920191909152506133ba92505050565b9050835f610dd08383613619565b5f8490505f611eb38585858080601f0160208091040260200160405190810160405280939291908181526020018383808284375f920191909152506133ba92505050565b90505f610dd08383613629565b5f611f008584848080601f0160208091040260200160405190810160405280939291908181526020018383808284375f920191909152506133e292505050565b90505f6110188585858080601f0160208091040260200160405190810160405280939291908181526020018383808284375f920191909152506134a992505050565b5f611f828584848080601f0160208091040260200160405190810160405280939291908181526020018383808284375f920191909152506133e292505050565b90505f611fc48585858080601f0160208091040260200160405190810160405280939291908181526020018383808284375f920191909152506133e292505050565b90505f610f808383613639565b5f6120118584848080601f0160208091040260200160405190810160405280939291908181526020018383808284375f9201919091525061338692505050565b9050835f610d6b8383613645565b5f61205f8584848080601f0160208091040260200160405190810160405280939291908181526020018383808284375f920191909152506133ba92505050565b9050835f610f808383613656565b5f8490505f6120b18585858080601f0160208091040260200160405190810160405280939291908181526020018383808284375f920191909152506133ba92505050565b90505f610f808383613666565b5f6120fe8584848080601f0160208091040260200160405190810160405280939291908181526020018383808284375f920191909152506133e292505050565b90505f6112368585858080601f0160208091040260200160405190810160405280939291908181526020018383808284375f920191909152506133ba92505050565b5f6121808584848080601f0160208091040260200160405190810160405280939291908181526020018383808284375f920191909152506133e292505050565b90505f61162c8585858080601f0160208091040260200160405190810160405280939291908181526020018383808284375f920191909152506134a992505050565b5f6122028584848080601f0160208091040260200160405190810160405280939291908181526020018383808284375f920191909152506133e292505050565b90505f6113138585858080601f0160208091040260200160405190810160405280939291908181526020018383808284375f920191909152506133d592505050565b5f6122848584848080601f0160208091040260200160405190810160405280939291908181526020018383808284375f920191909152506133e292505050565b90505f61162c8585858080601f0160208091040260200160405190810160405280939291908181526020018383808284375f920191909152506133d592505050565b5f6123068584848080601f0160208091040260200160405190810160405280939291908181526020018383808284375f920191909152506133ba92505050565b9050835f610f808383613676565b5f6123548584848080601f0160208091040260200160405190810160405280939291908181526020018383808284375f920191909152506133e292505050565b90505f6110188585858080601f0160208091040260200160405190810160405280939291908181526020018383808284375f9201919091525061351792505050565b5f6123d68584848080601f0160208091040260200160405190810160405280939291908181526020018383808284375f920191909152506133e292505050565b90505f6117df8585858080601f0160208091040260200160405190810160405280939291908181526020018383808284375f920191909152506133d592505050565b5f6124588584848080601f0160208091040260200160405190810160405280939291908181526020018383808284375f9201919091525061338692505050565b9050835f610d6b8383613686565b5f8490505f6124aa8585858080601f0160208091040260200160405190810160405280939291908181526020018383808284375f920191909152506133ba92505050565b90505f610f808383613695565b5f6124f78584848080601f0160208091040260200160405190810160405280939291908181526020018383808284375f9201919091525061338692505050565b9050835f610d6b83836136a5565b5f6125458584848080601f0160208091040260200160405190810160405280939291908181526020018383808284375f920191909152506133e292505050565b90505f6113138585858080601f0160208091040260200160405190810160405280939291908181526020018383808284375f9201919091525061338692505050565b5f8490505f6125cb8585858080601f0160208091040260200160405190810160405280939291908181526020018383808284375f920191909152506133ba92505050565b90505f610dd083836136b6565b5f8490505f61261c8585858080601f0160208091040260200160405190810160405280939291908181526020018383808284375f920191909152506133ba92505050565b90505f610dd083836136c6565b5f8490505f61266d8585858080601f0160208091040260200160405190810160405280939291908181526020018383808284375f920191909152506133ba92505050565b90505f610dd083836136d6565b5f6126ba8584848080601f0160208091040260200160405190810160405280939291908181526020018383808284375f920191909152506133d592505050565b90505f6126fc8585858080601f0160208091040260200160405190810160405280939291908181526020018383808284375f920191909152506133d592505050565b90505f6113af83836135a4565b5f6127498584848080601f0160208091040260200160405190810160405280939291908181526020018383808284375f920191909152506133d592505050565b90505f61278b8585858080601f0160208091040260200160405190810160405280939291908181526020018383808284375f920191909152506133d592505050565b90505f6113af83836136e6565b5f6127d88584848080601f0160208091040260200160405190810160405280939291908181526020018383808284375f920191909152506133d592505050565b90505f61281a8585858080601f0160208091040260200160405190810160405280939291908181526020018383808284375f920191909152506133d592505050565b90505f610f8083836136f2565b5f6128678584848080601f0160208091040260200160405190810160405280939291908181526020018383808284375f920191909152506133d592505050565b90505f6128a98585858080601f0160208091040260200160405190810160405280939291908181526020018383808284375f920191909152506133e292505050565b90505f610e7683836136fe565b5f6128f68584848080601f0160208091040260200160405190810160405280939291908181526020018383808284375f920191909152506133d592505050565b90505f6129388585858080601f0160208091040260200160405190810160405280939291908181526020018383808284375f920191909152506133e292505050565b90505f610f808383613712565b5f6129858584848080601f0160208091040260200160405190810160405280939291908181526020018383808284375f920191909152506133e292505050565b90505f6129c78585858080601f0160208091040260200160405190810160405280939291908181526020018383808284375f920191909152506133e292505050565b90505f610f808383613726565b5f612a148584848080601f0160208091040260200160405190810160405280939291908181526020018383808284375f920191909152506133ba92505050565b9050835f610dd08383613732565b5f612a628584848080601f0160208091040260200160405190810160405280939291908181526020018383808284375f920191909152506133d592505050565b90505f6129c78585858080601f0160208091040260200160405190810160405280939291908181526020018383808284375f920191909152506133d592505050565b5f612ae48584848080601f0160208091040260200160405190810160405280939291908181526020018383808284375f920191909152506133d592505050565b90505f612b268585858080601f0160208091040260200160405190810160405280939291908181526020018383808284375f920191909152506133e292505050565b90505f610e768383613742565b5f612b738584848080601f0160208091040260200160405190810160405280939291908181526020018383808284375f920191909152506133e292505050565b90505f612bb58585858080601f0160208091040260200160405190810160405280939291908181526020018383808284375f920191909152506133e292505050565b90505f610e7683836136e6565b5f8490505f612c068585858080601f0160208091040260200160405190810160405280939291908181526020018383808284375f920191909152506133ba92505050565b90505f610f808383613756565b5f8490505f612c578585858080601f0160208091040260200160405190810160405280939291908181526020018383808284375f920191909152506133ba92505050565b90505f610f808383613766565b5f8490505f612ca88585858080601f0160208091040260200160405190810160405280939291908181526020018383808284375f920191909152506133ba92505050565b90505f610f808383613776565b5f612cf58584848080601f0160208091040260200160405190810160405280939291908181526020018383808284375f920191909152506133ba92505050565b9050835f610f808383613786565b5f612d438584848080601f0160208091040260200160405190810160405280939291908181526020018383808284375f920191909152506133e292505050565b90505f61162c8585858080601f0160208091040260200160405190810160405280939291908181526020018383808284375f920191909152506133ba92505050565b5f612dc58584848080601f0160208091040260200160405190810160405280939291908181526020018383808284375f920191909152506133ba92505050565b9050835f610dd08383613796565b5f612e138584848080601f0160208091040260200160405190810160405280939291908181526020018383808284375f920191909152506133d592505050565b90505f612e558585858080601f0160208091040260200160405190810160405280939291908181526020018383808284375f920191909152506133d592505050565b90505f610f8083836137a6565b5f612ea28584848080601f0160208091040260200160405190810160405280939291908181526020018383808284375f9201919091525061338692505050565b9050835f610d6b83836137b2565b5f612ef08584848080601f0160208091040260200160405190810160405280939291908181526020018383808284375f920191909152506133ba92505050565b9050835f610f8083836137c3565b5f612f3e8584848080601f0160208091040260200160405190810160405280939291908181526020018383808284375f920191909152506133d592505050565b90505f612f808585858080601f0160208091040260200160405190810160405280939291908181526020018383808284375f920191909152506133e292505050565b90505f610f8083836137d3565b5f612fcd8584848080601f0160208091040260200160405190810160405280939291908181526020018383808284375f9201919091525061338692505050565b9050835f610d6b83836137e7565b5f61301b8584848080601f0160208091040260200160405190810160405280939291908181526020018383808284375f920191909152506133d592505050565b90505f611fc48585858080601f0160208091040260200160405190810160405280939291908181526020018383808284375f920191909152506133d592505050565b5f8490505f6130a18585858080601f0160208091040260200160405190810160405280939291908181526020018383808284375f920191909152506133ba92505050565b90505f610dd083836137f8565b5f6130ee8584848080601f0160208091040260200160405190810160405280939291908181526020018383808284375f920191909152506133e292505050565b90505f6112368585858080601f0160208091040260200160405190810160405280939291908181526020018383808284375f920191909152506133d592505050565b5f6131708584848080601f0160208091040260200160405190810160405280939291908181526020018383808284375f920191909152506133e292505050565b90505f6112368585858080601f0160208091040260200160405190810160405280939291908181526020018383808284375f9201919091525061338692505050565b5f6131f28584848080601f0160208091040260200160405190810160405280939291908181526020018383808284375f920191909152506133e292505050565b90505f6117df8585858080601f0160208091040260200160405190810160405280939291908181526020018383808284375f920191909152506134a992505050565b5f6132748584848080601f0160208091040260200160405190810160405280939291908181526020018383808284375f920191909152506133e292505050565b90505f6117df8585858080601f0160208091040260200160405190810160405280939291908181526020018383808284375f9201919091525061351792505050565b5f6132f68584848080601f0160208091040260200160405190810160405280939291908181526020018383808284375f920191909152506133e292505050565b90505f6113138585858080601f0160208091040260200160405190810160405280939291908181526020018383808284375f920191909152506134a992505050565b5f6133788584848080601f0160208091040260200160405190810160405280939291908181526020018383808284375f9201919091525061338692505050565b9050835f610d6b8383613808565b5f61339383836003613817565b9392505050565b5f6133938361ffff8416600161399b565b5f6133b68230613a58565b5090565b5f61339383836002613817565b5f6133938360ff8416613add565b5f61339383836006613817565b5f61339383836008613817565b5f6133936133fc84613b83565b835f613b8f565b5f6133938261ffff85166001613c06565b5f8061341f84613985565b905061342c81845f61399b565b949350505050565b5f6133938260ff85166001613c7d565b5f6133938361345284613b83565b5f613cf4565b5f6133938360ff84166001613c06565b5f6133938260ff85166001613b8f565b5f6133938260ff85166001613cf4565b5f6133938360ff84166001613d6b565b5f6133938261ffff85166001613de2565b5f61339383836004613817565b5f613393836134c484613b83565b5f613de2565b5f6133938360ff84166001613e59565b5f613393836134e884613b83565b5f613b8f565b5f61339383835f613ed0565b5f6133938261ffff85166001613b8f565b5f61339383835f613f47565b5f61339383836005613817565b5f6133938361353284613b83565b5f613fbe565b5f6133938261ffff85166001613e59565b5f6133938261ffff85166001613cf4565b5f6133938361356884613b83565b5f614035565b5f6133938361ffff84166001613fbe565b5f61339383835f613b8f565b5f6133938360ff84166140ac565b5f8061341f84613ace565b5f61339383835f613cf4565b5f61339383835f61410d565b5f6133938360ff84166001613ed0565b5f6133938360ff84166001613b8f565b5f6133938360ff84166001614035565b5f61339383835f613d6b565b5f6133938360ff8416600161399b565b5f6133938361ffff84166001613cf4565b5f6133938360ff84166001613de2565b5f6133938260ff85166001613c06565b5f61339383835f614035565b5f6133938361ffff84166001613b8f565b5f6133938360ff84166001613f47565b5f6133938260ff85166001613f47565b5f6133938360ff84166001614184565b5f6133938361ffff84166140ac565b5f6133938260ff85166001613fbe565b5f6133938361ffff84166001613c06565b5f6133938260ff85166001613e59565b5f6133938260ff85166001613de2565b5f6133938260ff8516600161410d565b5f61339383835f613de2565b5f61339383835f613c7d565b5f61339361370b84613b83565b835f613de2565b5f61339361371f84613b83565b835f613fbe565b5f61339383835f613fbe565b5f6133938360ff8416600161410d565b5f61339361374f84613b83565b835f613cf4565b5f6133938260ff85166001614035565b5f6133938260ff85166001613d6b565b5f6133938260ff85166001614184565b5f6133938360ff84166001613c7d565b5f6133938360ff84166001613cf4565b5f61339383835f614184565b5f6133938361ffff84166001613e59565b5f6133938360ff84166001613fbe565b5f6133936137e084613b83565b835f614035565b5f6133938361ffff84166001613de2565b5f6133938260ff85166001613ed0565b5f6133938361ffff8416613add565b5f7f962fa50f382287015f056c358858a5ce291a354f9e7465a7774aa01c0200ed7884845f60405161384b93929190614491565b60405180910390a15f8051602061455b8339815191525460405163196d0b9b60e01b81525f8051602061453b833981519152916001600160a01b03169063196d0b9b906138a29088903390899089906004016144d9565b6020604051808303815f875af11580156138be573d5f803e3d5ffd5b505050506040513d601f19601f820116820180604052508101906138e2919061450f565b91507f962fa50f382287015f056c358858a5ce291a354f9e7465a7774aa01c0200ed7885858460405161391793929190614491565b60405180910390a18054604051630f8e573b60e21b8152600481018490523360248201526001600160a01b0390911690633e395cec906044015f604051808303815f87803b158015613967575f80fd5b505af1158015613979573d5f803e3d5ffd5b50505050509392505050565b5f6139958261ffff1660036141fb565b92915050565b5f8082156139ae5750600160f81b6139b1565b505f5b5f8051602061455b833981519152546040516303056db360e31b815260048101879052602481018690526001600160f81b0319831660448201525f8051602061453b833981519152916001600160a01b03169063182b6d98906064015b6020604051808303815f875af1158015613a2a573d5f803e3d5ffd5b505050506040513d601f19601f82011682018060405250810190613a4e919061450f565b9695505050505050565b5f5f8051602061453b8339815191528054604051635ca4b5b160e11b8152600481018690526001600160a01b03858116602483015292935091169063b9496b62906044015f604051808303815f87803b158015613ab3575f80fd5b505af1158015613ac5573d5f803e3d5ffd5b50505050505050565b5f6139958260ff1660026141fb565b5f8051602061455b833981519152546040516367a68c5560e11b81526004810184905260248101839052600160f81b604482018190525f9290915f8051602061453b833981519152916001600160a01b03169063cf4d18aa906064015b6020604051808303815f875af1158015613b56573d5f803e3d5ffd5b505050506040513d601f19601f82011682018060405250810190613b7a919061450f565b95945050505050565b5f61399582600861428a565b5f808215613ba25750600160f81b613ba5565b505f5b5f8051602061455b8339815191525460405163d99882d560e01b815260048101879052602481018690526001600160f81b0319831660448201525f8051602061453b833981519152916001600160a01b03169063d99882d590606401613a0e565b5f808215613c195750600160f81b613c1c565b505f5b5f8051602061455b8339815191525460405163022f65e760e31b815260048101879052602481018690526001600160f81b0319831660448201525f8051602061453b833981519152916001600160a01b03169063117b2f3890606401613a0e565b5f808215613c905750600160f81b613c93565b505f5b5f8051602061455b83398151915254604051631391547f60e01b815260048101879052602481018690526001600160f81b0319831660448201525f8051602061453b833981519152916001600160a01b031690631391547f90606401613a0e565b5f808215613d075750600160f81b613d0a565b505f5b5f8051602061455b833981519152546040516363a2db2960e01b815260048101879052602481018690526001600160f81b0319831660448201525f8051602061453b833981519152916001600160a01b0316906363a2db2990606401613a0e565b5f808215613d7e5750600160f81b613d81565b505f5b5f8051602061455b83398151915254604051631d44e90160e21b815260048101879052602481018690526001600160f81b0319831660448201525f8051602061453b833981519152916001600160a01b031690637513a40490606401613a0e565b5f808215613df55750600160f81b613df8565b505f5b5f8051602061455b833981519152546040516322d273ad60e21b815260048101879052602481018690526001600160f81b0319831660448201525f8051602061453b833981519152916001600160a01b031690638b49ceb490606401613a0e565b5f808215613e6c5750600160f81b613e6f565b505f5b5f8051602061455b83398151915254604051630afe14ad60e31b815260048101879052602481018690526001600160f81b0319831660448201525f8051602061453b833981519152916001600160a01b0316906357f0a56890606401613a0e565b5f808215613ee35750600160f81b613ee6565b505f5b5f8051602061455b83398151915254604051630d8c635960e21b815260048101879052602481018690526001600160f81b0319831660448201525f8051602061453b833981519152916001600160a01b0316906336318d6490606401613a0e565b5f808215613f5a5750600160f81b613f5d565b505f5b5f8051602061455b83398151915254604051637210768160e01b815260048101879052602481018690526001600160f81b0319831660448201525f8051602061453b833981519152916001600160a01b031690637210768190606401613a0e565b5f808215613fd15750600160f81b613fd4565b505f5b5f8051602061455b8339815191525460405163f77f3f1d60e01b815260048101879052602481018690526001600160f81b0319831660448201525f8051602061453b833981519152916001600160a01b03169063f77f3f1d90606401613a0e565b5f8082156140485750600160f81b61404b565b505f5b5f8051602061455b833981519152546040516336024b2f60e21b815260048101879052602481018690526001600160f81b0319831660448201525f8051602061453b833981519152916001600160a01b03169063d8092cbc90606401613a0e565b5f8051602061455b83398151915254604051635a53accb60e01b81526004810184905260248101839052600160f81b604482018190525f9290915f8051602061453b833981519152916001600160a01b031690635a53accb90606401613b3a565b5f8082156141205750600160f81b614123565b505f5b5f8051602061455b833981519152546040516304559f7160e01b815260048101879052602481018690526001600160f81b0319831660448201525f8051602061453b833981519152916001600160a01b0316906304559f7190606401613a0e565b5f8082156141975750600160f81b61419a565b505f5b5f8051602061455b833981519152546040516385362ee760e01b815260048101879052602481018690526001600160f81b0319831660448201525f8051602061453b833981519152916001600160a01b0316906385362ee790606401613a0e565b5f8051602061455b83398151915254604051639cd07acb60e01b81525f915f8051602061453b833981519152916001600160a01b0390911690639cd07acb9061424a9087908790600401614526565b6020604051808303815f875af1158015614266573d5f803e3d5ffd5b505050506040513d601f19601f8201168201806040525081019061342c919061450f565b5f8051602061455b833981519152546040516307227b9160e21b81525f915f8051602061453b833981519152916001600160a01b0390911690631c89ee449061424a9087908790600401614526565b803561ffff811681146142ea575f80fd5b919050565b5f8083601f8401126142ff575f80fd5b50813567ffffffffffffffff811115614316575f80fd5b60208301915083602082850101111561432d575f80fd5b9250929050565b5f805f8060608587031215614347575f80fd5b84359350614357602086016142d9565b9250604085013567ffffffffffffffff811115614372575f80fd5b61437e878288016142ef565b95989497509550505050565b803560ff811681146142ea575f80fd5b5f805f80606085870312156143ad575f80fd5b843593506143576020860161438a565b5f805f80606085870312156143d0575f80fd5b8435935060208501359250604085013567ffffffffffffffff811115614372575f80fd5b5f805f8060608587031215614407575f80fd5b614410856142d9565b935060208501359250604085013567ffffffffffffffff811115614372575f80fd5b5f805f8060608587031215614445575f80fd5b6144108561438a565b5f81518084525f5b8181101561447257602081850181015186830182015201614456565b505f602082860101526020601f19601f83011685010191505092915050565b838152606060208201525f6144a9606083018561444e565b9050826040830152949350505050565b605481106144d557634e487b7160e01b5f52602160045260245ffd5b9052565b8481526001600160a01b0384166020820152608060408201525f614500608083018561444e565b9050613b7a60608301846144b9565b5f6020828403121561451f575f80fd5b5051919050565b8281526040810161339360208301846144b956feed8d60e34876f751cc8b014c560745351147d9de11b9347c854e881b128ea600ed8d60e34876f751cc8b014c560745351147d9de11b9347c854e881b128ea601a164736f6c6343000818000a",
  "linkReferences": {},
  "deployedLinkReferences": {}
}