{
  "_format": "hh-sol-artifact-1",
  "contractName": "FHEVMExecutorUpgradedExample",
  "sourceName": "examples/FHEVMExecutorUpgradedExample.sol",
  "abi": [
    {
      "inputs": [
        {
          "internalType": "bytes32",
          "name": "handle",
          "type": "bytes32"
        },
        {
          "internalType": "address",
          "name": "account",
          "type": "address"
        }
      ],
      "name": "ACLNotAllowed",
      "type": "error"
    },
    {
      "inputs": [
        {
          "internalType": "address",
          "name": "target",
          "type": "address"
        }
      ],
      "name": "AddressEmptyCode",
      "type": "error"
    },
    {
      "inputs": [],
      "name": "DivisionByZero",
      "type": "error"
    },
    {
      "inputs": [
        {
          "internalType": "address",
          "name": "implementation",
          "type": "address"
        }
      ],
      "name": "ERC1967InvalidImplementation",
      "type": "error"
    },
    {
      "inputs": [],
      "name": "ERC1967NonPayable",
      "type": "error"
    },
    {
      "inputs": [],
      "name": "FailedCall",
      "type": "error"
    },
    {
      "inputs": [],
      "name": "IncompatibleTypes",
      "type": "error"
    },
    {
      "inputs": [
        {
          "internalType": "enum FheType",
          "name": "typeOf",
          "type": "uint8"
        },
        {
          "internalType": "uint256",
          "name": "length",
          "type": "uint256"
        }
      ],
      "name": "InvalidByteLength",
      "type": "error"
    },
    {
      "inputs": [],
      "name": "InvalidInitialization",
      "type": "error"
    },
    {
      "inputs": [],
      "name": "InvalidType",
      "type": "error"
    },
    {
      "inputs": [],
      "name": "IsNotScalar",
      "type": "error"
    },
    {
      "inputs": [],
      "name": "IsScalar",
      "type": "error"
    },
    {
      "inputs": [],
      "name": "NotInitializing",
      "type": "error"
    },
    {
      "inputs": [],
      "name": "NotInitializingFromEmptyProxy",
      "type": "error"
    },
    {
      "inputs": [],
      "name": "NotPowerOfTwo",
      "type": "error"
    },
    {
      "inputs": [
        {
          "internalType": "address",
          "name": "owner",
          "type": "address"
        }
      ],
      "name": "OwnableInvalidOwner",
      "type": "error"
    },
    {
      "inputs": [
        {
          "internalType": "address",
          "name": "account",
          "type": "address"
        }
      ],
      "name": "OwnableUnauthorizedAccount",
      "type": "error"
    },
    {
      "inputs": [],
      "name": "SecondOperandIsNotScalar",
      "type": "error"
    },
    {
      "inputs": [],
      "name": "UUPSUnauthorizedCallContext",
      "type": "error"
    },
    {
      "inputs": [
        {
          "internalType": "bytes32",
          "name": "slot",
          "type": "bytes32"
        }
      ],
      "name": "UUPSUnsupportedProxiableUUID",
      "type": "error"
    },
    {
      "inputs": [],
      "name": "UnsupportedType",
      "type": "error"
    },
    {
      "anonymous": false,
      "inputs": [
        {
          "indexed": true,
          "internalType": "address",
          "name": "caller",
          "type": "address"
        },
        {
          "indexed": false,
          "internalType": "bytes32",
          "name": "ct",
          "type": "bytes32"
        },
        {
          "indexed": false,
          "internalType": "enum FheType",
          "name": "toType",
          "type": "uint8"
        },
        {
          "indexed": false,
          "internalType": "bytes32",
          "name": "result",
          "type": "bytes32"
        }
      ],
      "name": "Cast",
      "type": "event"
    },
    {
      "anonymous": false,
      "inputs": [
        {
          "indexed": true,
          "internalType": "address",
          "name": "caller",
          "type": "address"
        },
        {
          "indexed": false,
          "internalType": "bytes32",
          "name": "lhs",
          "type": "bytes32"
        },
        {
          "indexed": false,
          "internalType": "bytes32",
          "name": "rhs",
          "type": "bytes32"
        },
        {
          "indexed": false,
          "internalType": "bytes1",
          "name": "scalarByte",
          "type": "bytes1"
        },
        {
          "indexed": false,
          "internalType": "bytes32",
          "name": "result",
          "type": "bytes32"
        }
      ],
      "name": "FheAdd",
      "type": "event"
    },
    {
      "anonymous": false,
      "inputs": [
        {
          "indexed": true,
          "internalType": "address",
          "name": "caller",
          "type": "address"
        },
        {
          "indexed": false,
          "internalType": "bytes32",
          "name": "lhs",
          "type": "bytes32"
        },
        {
          "indexed": false,
          "internalType": "bytes32",
          "name": "rhs",
          "type": "bytes32"
        },
        {
          "indexed": false,
          "internalType": "bytes1",
          "name": "scalarByte",
          "type": "bytes1"
        },
        {
          "indexed": false,
          "internalType": "bytes32",
          "name": "result",
          "type": "bytes32"
        }
      ],
      "name": "FheBitAnd",
      "type": "event"
    },
    {
      "anonymous": false,
      "inputs": [
        {
          "indexed": true,
          "internalType": "address",
          "name": "caller",
          "type": "address"
        },
        {
          "indexed": false,
          "internalType": "bytes32",
          "name": "lhs",
          "type": "bytes32"
        },
        {
          "indexed": false,
          "internalType": "bytes32",
          "name": "rhs",
          "type": "bytes32"
        },
        {
          "indexed": false,
          "internalType": "bytes1",
          "name": "scalarByte",
          "type": "bytes1"
        },
        {
          "indexed": false,
          "internalType": "bytes32",
          "name": "result",
          "type": "bytes32"
        }
      ],
      "name": "FheBitOr",
      "type": "event"
    },
    {
      "anonymous": false,
      "inputs": [
        {
          "indexed": true,
          "internalType": "address",
          "name": "caller",
          "type": "address"
        },
        {
          "indexed": false,
          "internalType": "bytes32",
          "name": "lhs",
          "type": "bytes32"
        },
        {
          "indexed": false,
          "internalType": "bytes32",
          "name": "rhs",
          "type": "bytes32"
        },
        {
          "indexed": false,
          "internalType": "bytes1",
          "name": "scalarByte",
          "type": "bytes1"
        },
        {
          "indexed": false,
          "internalType": "bytes32",
          "name": "result",
          "type": "bytes32"
        }
      ],
      "name": "FheBitXor",
      "type": "event"
    },
    {
      "anonymous": false,
      "inputs": [
        {
          "indexed": true,
          "internalType": "address",
          "name": "caller",
          "type": "address"
        },
        {
          "indexed": false,
          "internalType": "bytes32",
          "name": "lhs",
          "type": "bytes32"
        },
        {
          "indexed": false,
          "internalType": "bytes32",
          "name": "rhs",
          "type": "bytes32"
        },
        {
          "indexed": false,
          "internalType": "bytes1",
          "name": "scalarByte",
          "type": "bytes1"
        },
        {
          "indexed": false,
          "internalType": "bytes32",
          "name": "result",
          "type": "bytes32"
        }
      ],
      "name": "FheDiv",
      "type": "event"
    },
    {
      "anonymous": false,
      "inputs": [
        {
          "indexed": true,
          "internalType": "address",
          "name": "caller",
          "type": "address"
        },
        {
          "indexed": false,
          "internalType": "bytes32",
          "name": "lhs",
          "type": "bytes32"
        },
        {
          "indexed": false,
          "internalType": "bytes32",
          "name": "rhs",
          "type": "bytes32"
        },
        {
          "indexed": false,
          "internalType": "bytes1",
          "name": "scalarByte",
          "type": "bytes1"
        },
        {
          "indexed": false,
          "internalType": "bytes32",
          "name": "result",
          "type": "bytes32"
        }
      ],
      "name": "FheEq",
      "type": "event"
    },
    {
      "anonymous": false,
      "inputs": [
        {
          "indexed": true,
          "internalType": "address",
          "name": "caller",
          "type": "address"
        },
        {
          "indexed": false,
          "internalType": "bytes32",
          "name": "lhs",
          "type": "bytes32"
        },
        {
          "indexed": false,
          "internalType": "bytes32",
          "name": "rhs",
          "type": "bytes32"
        },
        {
          "indexed": false,
          "internalType": "bytes1",
          "name": "scalarByte",
          "type": "bytes1"
        },
        {
          "indexed": false,
          "internalType": "bytes32",
          "name": "result",
          "type": "bytes32"
        }
      ],
      "name": "FheGe",
      "type": "event"
    },
    {
      "anonymous": false,
      "inputs": [
        {
          "indexed": true,
          "internalType": "address",
          "name": "caller",
          "type": "address"
        },
        {
          "indexed": false,
          "internalType": "bytes32",
          "name": "lhs",
          "type": "bytes32"
        },
        {
          "indexed": false,
          "internalType": "bytes32",
          "name": "rhs",
          "type": "bytes32"
        },
        {
          "indexed": false,
          "internalType": "bytes1",
          "name": "scalarByte",
          "type": "bytes1"
        },
        {
          "indexed": false,
          "internalType": "bytes32",
          "name": "result",
          "type": "bytes32"
        }
      ],
      "name": "FheGt",
      "type": "event"
    },
    {
      "anonymous": false,
      "inputs": [
        {
          "indexed": true,
          "internalType": "address",
          "name": "caller",
          "type": "address"
        },
        {
          "indexed": false,
          "internalType": "bytes32",
          "name": "control",
          "type": "bytes32"
        },
        {
          "indexed": false,
          "internalType": "bytes32",
          "name": "ifTrue",
          "type": "bytes32"
        },
        {
          "indexed": false,
          "internalType": "bytes32",
          "name": "ifFalse",
          "type": "bytes32"
        },
        {
          "indexed": false,
          "internalType": "bytes32",
          "name": "result",
          "type": "bytes32"
        }
      ],
      "name": "FheIfThenElse",
      "type": "event"
    },
    {
      "anonymous": false,
      "inputs": [
        {
          "indexed": true,
          "internalType": "address",
          "name": "caller",
          "type": "address"
        },
        {
          "indexed": false,
          "internalType": "bytes32",
          "name": "lhs",
          "type": "bytes32"
        },
        {
          "indexed": false,
          "internalType": "bytes32",
          "name": "rhs",
          "type": "bytes32"
        },
        {
          "indexed": false,
          "internalType": "bytes1",
          "name": "scalarByte",
          "type": "bytes1"
        },
        {
          "indexed": false,
          "internalType": "bytes32",
          "name": "result",
          "type": "bytes32"
        }
      ],
      "name": "FheLe",
      "type": "event"
    },
    {
      "anonymous": false,
      "inputs": [
        {
          "indexed": true,
          "internalType": "address",
          "name": "caller",
          "type": "address"
        },
        {
          "indexed": false,
          "internalType": "bytes32",
          "name": "lhs",
          "type": "bytes32"
        },
        {
          "indexed": false,
          "internalType": "bytes32",
          "name": "rhs",
          "type": "bytes32"
        },
        {
          "indexed": false,
          "internalType": "bytes1",
          "name": "scalarByte",
          "type": "bytes1"
        },
        {
          "indexed": false,
          "internalType": "bytes32",
          "name": "result",
          "type": "bytes32"
        }
      ],
      "name": "FheLt",
      "type": "event"
    },
    {
      "anonymous": false,
      "inputs": [
        {
          "indexed": true,
          "internalType": "address",
          "name": "caller",
          "type": "address"
        },
        {
          "indexed": false,
          "internalType": "bytes32",
          "name": "lhs",
          "type": "bytes32"
        },
        {
          "indexed": false,
          "internalType": "bytes32",
          "name": "rhs",
          "type": "bytes32"
        },
        {
          "indexed": false,
          "internalType": "bytes1",
          "name": "scalarByte",
          "type": "bytes1"
        },
        {
          "indexed": false,
          "internalType": "bytes32",
          "name": "result",
          "type": "bytes32"
        }
      ],
      "name": "FheMax",
      "type": "event"
    },
    {
      "anonymous": false,
      "inputs": [
        {
          "indexed": true,
          "internalType": "address",
          "name": "caller",
          "type": "address"
        },
        {
          "indexed": false,
          "internalType": "bytes32",
          "name": "lhs",
          "type": "bytes32"
        },
        {
          "indexed": false,
          "internalType": "bytes32",
          "name": "rhs",
          "type": "bytes32"
        },
        {
          "indexed": false,
          "internalType": "bytes1",
          "name": "scalarByte",
          "type": "bytes1"
        },
        {
          "indexed": false,
          "internalType": "bytes32",
          "name": "result",
          "type": "bytes32"
        }
      ],
      "name": "FheMin",
      "type": "event"
    },
    {
      "anonymous": false,
      "inputs": [
        {
          "indexed": true,
          "internalType": "address",
          "name": "caller",
          "type": "address"
        },
        {
          "indexed": false,
          "internalType": "bytes32",
          "name": "lhs",
          "type": "bytes32"
        },
        {
          "indexed": false,
          "internalType": "bytes32",
          "name": "rhs",
          "type": "bytes32"
        },
        {
          "indexed": false,
          "internalType": "bytes1",
          "name": "scalarByte",
          "type": "bytes1"
        },
        {
          "indexed": false,
          "internalType": "bytes32",
          "name": "result",
          "type": "bytes32"
        }
      ],
      "name": "FheMul",
      "type": "event"
    },
    {
      "anonymous": false,
      "inputs": [
        {
          "indexed": true,
          "internalType": "address",
          "name": "caller",
          "type": "address"
        },
        {
          "indexed": false,
          "internalType": "bytes32",
          "name": "lhs",
          "type": "bytes32"
        },
        {
          "indexed": false,
          "internalType": "bytes32",
          "name": "rhs",
          "type": "bytes32"
        },
        {
          "indexed": false,
          "internalType": "bytes1",
          "name": "scalarByte",
          "type": "bytes1"
        },
        {
          "indexed": false,
          "internalType": "bytes32",
          "name": "result",
          "type": "bytes32"
        }
      ],
      "name": "FheNe",
      "type": "event"
    },
    {
      "anonymous": false,
      "inputs": [
        {
          "indexed": true,
          "internalType": "address",
          "name": "caller",
          "type": "address"
        },
        {
          "indexed": false,
          "internalType": "bytes32",
          "name": "ct",
          "type": "bytes32"
        },
        {
          "indexed": false,
          "internalType": "bytes32",
          "name": "result",
          "type": "bytes32"
        }
      ],
      "name": "FheNeg",
      "type": "event"
    },
    {
      "anonymous": false,
      "inputs": [
        {
          "indexed": true,
          "internalType": "address",
          "name": "caller",
          "type": "address"
        },
        {
          "indexed": false,
          "internalType": "bytes32",
          "name": "ct",
          "type": "bytes32"
        },
        {
          "indexed": false,
          "internalType": "bytes32",
          "name": "result",
          "type": "bytes32"
        }
      ],
      "name": "FheNot",
      "type": "event"
    },
    {
      "anonymous": false,
      "inputs": [
        {
          "indexed": true,
          "internalType": "address",
          "name": "caller",
          "type": "address"
        },
        {
          "indexed": false,
          "internalType": "enum FheType",
          "name": "randType",
          "type": "uint8"
        },
        {
          "indexed": false,
          "internalType": "bytes16",
          "name": "seed",
          "type": "bytes16"
        },
        {
          "indexed": false,
          "internalType": "bytes32",
          "name": "result",
          "type": "bytes32"
        }
      ],
      "name": "FheRand",
      "type": "event"
    },
    {
      "anonymous": false,
      "inputs": [
        {
          "indexed": true,
          "internalType": "address",
          "name": "caller",
          "type": "address"
        },
        {
          "indexed": false,
          "internalType": "uint256",
          "name": "upperBound",
          "type": "uint256"
        },
        {
          "indexed": false,
          "internalType": "enum FheType",
          "name": "randType",
          "type": "uint8"
        },
        {
          "indexed": false,
          "internalType": "bytes16",
          "name": "seed",
          "type": "bytes16"
        },
        {
          "indexed": false,
          "internalType": "bytes32",
          "name": "result",
          "type": "bytes32"
        }
      ],
      "name": "FheRandBounded",
      "type": "event"
    },
    {
      "anonymous": false,
      "inputs": [
        {
          "indexed": true,
          "internalType": "address",
          "name": "caller",
          "type": "address"
        },
        {
          "indexed": false,
          "internalType": "bytes32",
          "name": "lhs",
          "type": "bytes32"
        },
        {
          "indexed": false,
          "internalType": "bytes32",
          "name": "rhs",
          "type": "bytes32"
        },
        {
          "indexed": false,
          "internalType": "bytes1",
          "name": "scalarByte",
          "type": "bytes1"
        },
        {
          "indexed": false,
          "internalType": "bytes32",
          "name": "result",
          "type": "bytes32"
        }
      ],
      "name": "FheRem",
      "type": "event"
    },
    {
      "anonymous": false,
      "inputs": [
        {
          "indexed": true,
          "internalType": "address",
          "name": "caller",
          "type": "address"
        },
        {
          "indexed": false,
          "internalType": "bytes32",
          "name": "lhs",
          "type": "bytes32"
        },
        {
          "indexed": false,
          "internalType": "bytes32",
          "name": "rhs",
          "type": "bytes32"
        },
        {
          "indexed": false,
          "internalType": "bytes1",
          "name": "scalarByte",
          "type": "bytes1"
        },
        {
          "indexed": false,
          "internalType": "bytes32",
          "name": "result",
          "type": "bytes32"
        }
      ],
      "name": "FheRotl",
      "type": "event"
    },
    {
      "anonymous": false,
      "inputs": [
        {
          "indexed": true,
          "internalType": "address",
          "name": "caller",
          "type": "address"
        },
        {
          "indexed": false,
          "internalType": "bytes32",
          "name": "lhs",
          "type": "bytes32"
        },
        {
          "indexed": false,
          "internalType": "bytes32",
          "name": "rhs",
          "type": "bytes32"
        },
        {
          "indexed": false,
          "internalType": "bytes1",
          "name": "scalarByte",
          "type": "bytes1"
        },
        {
          "indexed": false,
          "internalType": "bytes32",
          "name": "result",
          "type": "bytes32"
        }
      ],
      "name": "FheRotr",
      "type": "event"
    },
    {
      "anonymous": false,
      "inputs": [
        {
          "indexed": true,
          "internalType": "address",
          "name": "caller",
          "type": "address"
        },
        {
          "indexed": false,
          "internalType": "bytes32",
          "name": "lhs",
          "type": "bytes32"
        },
        {
          "indexed": false,
          "internalType": "bytes32",
          "name": "rhs",
          "type": "bytes32"
        },
        {
          "indexed": false,
          "internalType": "bytes1",
          "name": "scalarByte",
          "type": "bytes1"
        },
        {
          "indexed": false,
          "internalType": "bytes32",
          "name": "result",
          "type": "bytes32"
        }
      ],
      "name": "FheShl",
      "type": "event"
    },
    {
      "anonymous": false,
      "inputs": [
        {
          "indexed": true,
          "internalType": "address",
          "name": "caller",
          "type": "address"
        },
        {
          "indexed": false,
          "internalType": "bytes32",
          "name": "lhs",
          "type": "bytes32"
        },
        {
          "indexed": false,
          "internalType": "bytes32",
          "name": "rhs",
          "type": "bytes32"
        },
        {
          "indexed": false,
          "internalType": "bytes1",
          "name": "scalarByte",
          "type": "bytes1"
        },
        {
          "indexed": false,
          "internalType": "bytes32",
          "name": "result",
          "type": "bytes32"
        }
      ],
      "name": "FheShr",
      "type": "event"
    },
    {
      "anonymous": false,
      "inputs": [
        {
          "indexed": true,
          "internalType": "address",
          "name": "caller",
          "type": "address"
        },
        {
          "indexed": false,
          "internalType": "bytes32",
          "name": "lhs",
          "type": "bytes32"
        },
        {
          "indexed": false,
          "internalType": "bytes32",
          "name": "rhs",
          "type": "bytes32"
        },
        {
          "indexed": false,
          "internalType": "bytes1",
          "name": "scalarByte",
          "type": "bytes1"
        },
        {
          "indexed": false,
          "internalType": "bytes32",
          "name": "result",
          "type": "bytes32"
        }
      ],
      "name": "FheSub",
      "type": "event"
    },
    {
      "anonymous": false,
      "inputs": [
        {
          "indexed": false,
          "internalType": "uint64",
          "name": "version",
          "type": "uint64"
        }
      ],
      "name": "Initialized",
      "type": "event"
    },
    {
      "anonymous": false,
      "inputs": [
        {
          "indexed": true,
          "internalType": "address",
          "name": "previousOwner",
          "type": "address"
        },
        {
          "indexed": true,
          "internalType": "address",
          "name": "newOwner",
          "type": "address"
        }
      ],
      "name": "OwnershipTransferStarted",
      "type": "event"
    },
    {
      "anonymous": false,
      "inputs": [
        {
          "indexed": true,
          "internalType": "address",
          "name": "previousOwner",
          "type": "address"
        },
        {
          "indexed": true,
          "internalType": "address",
          "name": "newOwner",
          "type": "address"
        }
      ],
      "name": "OwnershipTransferred",
      "type": "event"
    },
    {
      "anonymous": false,
      "inputs": [
        {
          "indexed": true,
          "internalType": "address",
          "name": "caller",
          "type": "address"
        },
        {
          "indexed": false,
          "internalType": "uint256",
          "name": "pt",
          "type": "uint256"
        },
        {
          "indexed": false,
          "internalType": "enum FheType",
          "name": "toType",
          "type": "uint8"
        },
        {
          "indexed": false,
          "internalType": "bytes32",
          "name": "result",
          "type": "bytes32"
        }
      ],
      "name": "TrivialEncrypt",
      "type": "event"
    },
    {
      "anonymous": false,
      "inputs": [
        {
          "indexed": true,
          "internalType": "address",
          "name": "implementation",
          "type": "address"
        }
      ],
      "name": "Upgraded",
      "type": "event"
    },
    {
      "anonymous": false,
      "inputs": [
        {
          "indexed": true,
          "internalType": "address",
          "name": "caller",
          "type": "address"
        },
        {
          "indexed": false,
          "internalType": "bytes32",
          "name": "inputHandle",
          "type": "bytes32"
        },
        {
          "indexed": false,
          "internalType": "address",
          "name": "userAddress",
          "type": "address"
        },
        {
          "indexed": false,
          "internalType": "bytes",
          "name": "inputProof",
          "type": "bytes"
        },
        {
          "indexed": false,
          "internalType": "enum FheType",
          "name": "inputType",
          "type": "uint8"
        },
        {
          "indexed": false,
          "internalType": "bytes32",
          "name": "result",
          "type": "bytes32"
        }
      ],
      "name": "VerifyCiphertext",
      "type": "event"
    },
    {
      "inputs": [],
      "name": "HANDLE_VERSION",
      "outputs": [
        {
          "internalType": "uint8",
          "name": "",
          "type": "uint8"
        }
      ],
      "stateMutability": "view",
      "type": "function"
    },
    {
      "inputs": [],
      "name": "UPGRADE_INTERFACE_VERSION",
      "outputs": [
        {
          "internalType": "string",
          "name": "",
          "type": "string"
        }
      ],
      "stateMutability": "view",
      "type": "function"
    },
    {
      "inputs": [
        {
          "internalType": "bytes32",
          "name": "handle",
          "type": "bytes32"
        },
        {
          "internalType": "uint256",
          "name": "supportedTypes",
          "type": "uint256"
        }
      ],
      "name": "_verifyAndReturnType",
      "outputs": [
        {
          "internalType": "enum FheType",
          "name": "typeCt",
          "type": "uint8"
        }
      ],
      "stateMutability": "nonpayable",
      "type": "function"
    },
    {
      "inputs": [],
      "name": "acceptOwnership",
      "outputs": [],
      "stateMutability": "nonpayable",
      "type": "function"
    },
    {
      "inputs": [
        {
          "internalType": "bytes32",
          "name": "ct",
          "type": "bytes32"
        },
        {
          "internalType": "enum FheType",
          "name": "toType",
          "type": "uint8"
        }
      ],
      "name": "cast",
      "outputs": [
        {
          "internalType": "bytes32",
          "name": "result",
          "type": "bytes32"
        }
      ],
      "stateMutability": "nonpayable",
      "type": "function"
    },
    {
      "inputs": [
        {
          "internalType": "bytes32",
          "name": "lhs",
          "type": "bytes32"
        },
        {
          "internalType": "bytes32",
          "name": "rhs",
          "type": "bytes32"
        },
        {
          "internalType": "bytes1",
          "name": "scalarByte",
          "type": "bytes1"
        }
      ],
      "name": "fheAdd",
      "outputs": [
        {
          "internalType": "bytes32",
          "name": "result",
          "type": "bytes32"
        }
      ],
      "stateMutability": "nonpayable",
      "type": "function"
    },
    {
      "inputs": [
        {
          "internalType": "bytes32",
          "name": "lhs",
          "type": "bytes32"
        },
        {
          "internalType": "bytes32",
          "name": "rhs",
          "type": "bytes32"
        },
        {
          "internalType": "bytes1",
          "name": "scalarByte",
          "type": "bytes1"
        }
      ],
      "name": "fheBitAnd",
      "outputs": [
        {
          "internalType": "bytes32",
          "name": "result",
          "type": "bytes32"
        }
      ],
      "stateMutability": "nonpayable",
      "type": "function"
    },
    {
      "inputs": [
        {
          "internalType": "bytes32",
          "name": "lhs",
          "type": "bytes32"
        },
        {
          "internalType": "bytes32",
          "name": "rhs",
          "type": "bytes32"
        },
        {
          "internalType": "bytes1",
          "name": "scalarByte",
          "type": "bytes1"
        }
      ],
      "name": "fheBitOr",
      "outputs": [
        {
          "internalType": "bytes32",
          "name": "result",
          "type": "bytes32"
        }
      ],
      "stateMutability": "nonpayable",
      "type": "function"
    },
    {
      "inputs": [
        {
          "internalType": "bytes32",
          "name": "lhs",
          "type": "bytes32"
        },
        {
          "internalType": "bytes32",
          "name": "rhs",
          "type": "bytes32"
        },
        {
          "internalType": "bytes1",
          "name": "scalarByte",
          "type": "bytes1"
        }
      ],
      "name": "fheBitXor",
      "outputs": [
        {
          "internalType": "bytes32",
          "name": "result",
          "type": "bytes32"
        }
      ],
      "stateMutability": "nonpayable",
      "type": "function"
    },
    {
      "inputs": [
        {
          "internalType": "bytes32",
          "name": "lhs",
          "type": "bytes32"
        },
        {
          "internalType": "bytes32",
          "name": "rhs",
          "type": "bytes32"
        },
        {
          "internalType": "bytes1",
          "name": "scalarByte",
          "type": "bytes1"
        }
      ],
      "name": "fheDiv",
      "outputs": [
        {
          "internalType": "bytes32",
          "name": "result",
          "type": "bytes32"
        }
      ],
      "stateMutability": "nonpayable",
      "type": "function"
    },
    {
      "inputs": [
        {
          "internalType": "bytes32",
          "name": "lhs",
          "type": "bytes32"
        },
        {
          "internalType": "bytes32",
          "name": "rhs",
          "type": "bytes32"
        },
        {
          "internalType": "bytes1",
          "name": "scalarByte",
          "type": "bytes1"
        }
      ],
      "name": "fheEq",
      "outputs": [
        {
          "internalType": "bytes32",
          "name": "result",
          "type": "bytes32"
        }
      ],
      "stateMutability": "nonpayable",
      "type": "function"
    },
    {
      "inputs": [
        {
          "internalType": "bytes32",
          "name": "lhs",
          "type": "bytes32"
        },
        {
          "internalType": "bytes32",
          "name": "rhs",
          "type": "bytes32"
        },
        {
          "internalType": "bytes1",
          "name": "scalarByte",
          "type": "bytes1"
        }
      ],
      "name": "fheGe",
      "outputs": [
        {
          "internalType": "bytes32",
          "name": "result",
          "type": "bytes32"
        }
      ],
      "stateMutability": "nonpayable",
      "type": "function"
    },
    {
      "inputs": [
        {
          "internalType": "bytes32",
          "name": "lhs",
          "type": "bytes32"
        },
        {
          "internalType": "bytes32",
          "name": "rhs",
          "type": "bytes32"
        },
        {
          "internalType": "bytes1",
          "name": "scalarByte",
          "type": "bytes1"
        }
      ],
      "name": "fheGt",
      "outputs": [
        {
          "internalType": "bytes32",
          "name": "result",
          "type": "bytes32"
        }
      ],
      "stateMutability": "nonpayable",
      "type": "function"
    },
    {
      "inputs": [
        {
          "internalType": "bytes32",
          "name": "control",
          "type": "bytes32"
        },
        {
          "internalType": "bytes32",
          "name": "ifTrue",
          "type": "bytes32"
        },
        {
          "internalType": "bytes32",
          "name": "ifFalse",
          "type": "bytes32"
        }
      ],
      "name": "fheIfThenElse",
      "outputs": [
        {
          "internalType": "bytes32",
          "name": "result",
          "type": "bytes32"
        }
      ],
      "stateMutability": "nonpayable",
      "type": "function"
    },
    {
      "inputs": [
        {
          "internalType": "bytes32",
          "name": "lhs",
          "type": "bytes32"
        },
        {
          "internalType": "bytes32",
          "name": "rhs",
          "type": "bytes32"
        },
        {
          "internalType": "bytes1",
          "name": "scalarByte",
          "type": "bytes1"
        }
      ],
      "name": "fheLe",
      "outputs": [
        {
          "internalType": "bytes32",
          "name": "result",
          "type": "bytes32"
        }
      ],
      "stateMutability": "nonpayable",
      "type": "function"
    },
    {
      "inputs": [
        {
          "internalType": "bytes32",
          "name": "lhs",
          "type": "bytes32"
        },
        {
          "internalType": "bytes32",
          "name": "rhs",
          "type": "bytes32"
        },
        {
          "internalType": "bytes1",
          "name": "scalarByte",
          "type": "bytes1"
        }
      ],
      "name": "fheLt",
      "outputs": [
        {
          "internalType": "bytes32",
          "name": "result",
          "type": "bytes32"
        }
      ],
      "stateMutability": "nonpayable",
      "type": "function"
    },
    {
      "inputs": [
        {
          "internalType": "bytes32",
          "name": "lhs",
          "type": "bytes32"
        },
        {
          "internalType": "bytes32",
          "name": "rhs",
          "type": "bytes32"
        },
        {
          "internalType": "bytes1",
          "name": "scalarByte",
          "type": "bytes1"
        }
      ],
      "name": "fheMax",
      "outputs": [
        {
          "internalType": "bytes32",
          "name": "result",
          "type": "bytes32"
        }
      ],
      "stateMutability": "nonpayable",
      "type": "function"
    },
    {
      "inputs": [
        {
          "internalType": "bytes32",
          "name": "lhs",
          "type": "bytes32"
        },
        {
          "internalType": "bytes32",
          "name": "rhs",
          "type": "bytes32"
        },
        {
          "internalType": "bytes1",
          "name": "scalarByte",
          "type": "bytes1"
        }
      ],
      "name": "fheMin",
      "outputs": [
        {
          "internalType": "bytes32",
          "name": "result",
          "type": "bytes32"
        }
      ],
      "stateMutability": "nonpayable",
      "type": "function"
    },
    {
      "inputs": [
        {
          "internalType": "bytes32",
          "name": "lhs",
          "type": "bytes32"
        },
        {
          "internalType": "bytes32",
          "name": "rhs",
          "type": "bytes32"
        },
        {
          "internalType": "bytes1",
          "name": "scalarByte",
          "type": "bytes1"
        }
      ],
      "name": "fheMul",
      "outputs": [
        {
          "internalType": "bytes32",
          "name": "result",
          "type": "bytes32"
        }
      ],
      "stateMutability": "nonpayable",
      "type": "function"
    },
    {
      "inputs": [
        {
          "internalType": "bytes32",
          "name": "lhs",
          "type": "bytes32"
        },
        {
          "internalType": "bytes32",
          "name": "rhs",
          "type": "bytes32"
        },
        {
          "internalType": "bytes1",
          "name": "scalarByte",
          "type": "bytes1"
        }
      ],
      "name": "fheNe",
      "outputs": [
        {
          "internalType": "bytes32",
          "name": "result",
          "type": "bytes32"
        }
      ],
      "stateMutability": "nonpayable",
      "type": "function"
    },
    {
      "inputs": [
        {
          "internalType": "bytes32",
          "name": "ct",
          "type": "bytes32"
        }
      ],
      "name": "fheNeg",
      "outputs": [
        {
          "internalType": "bytes32",
          "name": "result",
          "type": "bytes32"
        }
      ],
      "stateMutability": "nonpayable",
      "type": "function"
    },
    {
      "inputs": [
        {
          "internalType": "bytes32",
          "name": "ct",
          "type": "bytes32"
        }
      ],
      "name": "fheNot",
      "outputs": [
        {
          "internalType": "bytes32",
          "name": "result",
          "type": "bytes32"
        }
      ],
      "stateMutability": "nonpayable",
      "type": "function"
    },
    {
      "inputs": [
        {
          "internalType": "enum FheType",
          "name": "randType",
          "type": "uint8"
        }
      ],
      "name": "fheRand",
      "outputs": [
        {
          "internalType": "bytes32",
          "name": "result",
          "type": "bytes32"
        }
      ],
      "stateMutability": "nonpayable",
      "type": "function"
    },
    {
      "inputs": [
        {
          "internalType": "uint256",
          "name": "upperBound",
          "type": "uint256"
        },
        {
          "internalType": "enum FheType",
          "name": "randType",
          "type": "uint8"
        }
      ],
      "name": "fheRandBounded",
      "outputs": [
        {
          "internalType": "bytes32",
          "name": "result",
          "type": "bytes32"
        }
      ],
      "stateMutability": "nonpayable",
      "type": "function"
    },
    {
      "inputs": [
        {
          "internalType": "bytes32",
          "name": "lhs",
          "type": "bytes32"
        },
        {
          "internalType": "bytes32",
          "name": "rhs",
          "type": "bytes32"
        },
        {
          "internalType": "bytes1",
          "name": "scalarByte",
          "type": "bytes1"
        }
      ],
      "name": "fheRem",
      "outputs": [
        {
          "internalType": "bytes32",
          "name": "result",
          "type": "bytes32"
        }
      ],
      "stateMutability": "nonpayable",
      "type": "function"
    },
    {
      "inputs": [
        {
          "internalType": "bytes32",
          "name": "lhs",
          "type": "bytes32"
        },
        {
          "internalType": "bytes32",
          "name": "rhs",
          "type": "bytes32"
        },
        {
          "internalType": "bytes1",
          "name": "scalarByte",
          "type": "bytes1"
        }
      ],
      "name": "fheRotl",
      "outputs": [
        {
          "internalType": "bytes32",
          "name": "result",
          "type": "bytes32"
        }
      ],
      "stateMutability": "nonpayable",
      "type": "function"
    },
    {
      "inputs": [
        {
          "internalType": "bytes32",
          "name": "lhs",
          "type": "bytes32"
        },
        {
          "internalType": "bytes32",
          "name": "rhs",
          "type": "bytes32"
        },
        {
          "internalType": "bytes1",
          "name": "scalarByte",
          "type": "bytes1"
        }
      ],
      "name": "fheRotr",
      "outputs": [
        {
          "internalType": "bytes32",
          "name": "result",
          "type": "bytes32"
        }
      ],
      "stateMutability": "nonpayable",
      "type": "function"
    },
    {
      "inputs": [
        {
          "internalType": "bytes32",
          "name": "lhs",
          "type": "bytes32"
        },
        {
          "internalType": "bytes32",
          "name": "rhs",
          "type": "bytes32"
        },
        {
          "internalType": "bytes1",
          "name": "scalarByte",
          "type": "bytes1"
        }
      ],
      "name": "fheShl",
      "outputs": [
        {
          "internalType": "bytes32",
          "name": "result",
          "type": "bytes32"
        }
      ],
      "stateMutability": "nonpayable",
      "type": "function"
    },
    {
      "inputs": [
        {
          "internalType": "bytes32",
          "name": "lhs",
          "type": "bytes32"
        },
        {
          "internalType": "bytes32",
          "name": "rhs",
          "type": "bytes32"
        },
        {
          "internalType": "bytes1",
          "name": "scalarByte",
          "type": "bytes1"
        }
      ],
      "name": "fheShr",
      "outputs": [
        {
          "internalType": "bytes32",
          "name": "result",
          "type": "bytes32"
        }
      ],
      "stateMutability": "nonpayable",
      "type": "function"
    },
    {
      "inputs": [
        {
          "internalType": "bytes32",
          "name": "lhs",
          "type": "bytes32"
        },
        {
          "internalType": "bytes32",
          "name": "rhs",
          "type": "bytes32"
        },
        {
          "internalType": "bytes1",
          "name": "scalarByte",
          "type": "bytes1"
        }
      ],
      "name": "fheSub",
      "outputs": [
        {
          "internalType": "bytes32",
          "name": "result",
          "type": "bytes32"
        }
      ],
      "stateMutability": "nonpayable",
      "type": "function"
    },
    {
      "inputs": [],
      "name": "getACLAddress",
      "outputs": [
        {
          "internalType": "address",
          "name": "",
          "type": "address"
        }
      ],
      "stateMutability": "view",
      "type": "function"
    },
    {
      "inputs": [],
      "name": "getHCULimitAddress",
      "outputs": [
        {
          "internalType": "address",
          "name": "",
          "type": "address"
        }
      ],
      "stateMutability": "view",
      "type": "function"
    },
    {
      "inputs": [],
      "name": "getInputVerifierAddress",
      "outputs": [
        {
          "internalType": "address",
          "name": "",
          "type": "address"
        }
      ],
      "stateMutability": "view",
      "type": "function"
    },
    {
      "inputs": [],
      "name": "getVersion",
      "outputs": [
        {
          "internalType": "string",
          "name": "",
          "type": "string"
        }
      ],
      "stateMutability": "pure",
      "type": "function"
    },
    {
      "inputs": [],
      "name": "initializeFromEmptyProxy",
      "outputs": [],
      "stateMutability": "nonpayable",
      "type": "function"
    },
    {
      "inputs": [],
      "name": "owner",
      "outputs": [
        {
          "internalType": "address",
          "name": "",
          "type": "address"
        }
      ],
      "stateMutability": "view",
      "type": "function"
    },
    {
      "inputs": [
        {
          "internalType": "bytes32",
          "name": "handle",
          "type": "bytes32"
        }
      ],
      "name": "peekTypeAndHandle",
      "outputs": [
        {
          "internalType": "bytes32",
          "name": "outHandle",
          "type": "bytes32"
        },
        {
          "internalType": "uint8",
          "name": "rawType",
          "type": "uint8"
        },
        {
          "internalType": "uint8",
          "name": "typeCt",
          "type": "uint8"
        }
      ],
      "stateMutability": "pure",
      "type": "function"
    },
    {
      "inputs": [],
      "name": "pendingOwner",
      "outputs": [
        {
          "internalType": "address",
          "name": "",
          "type": "address"
        }
      ],
      "stateMutability": "view",
      "type": "function"
    },
    {
      "inputs": [],
      "name": "proxiableUUID",
      "outputs": [
        {
          "internalType": "bytes32",
          "name": "",
          "type": "bytes32"
        }
      ],
      "stateMutability": "view",
      "type": "function"
    },
    {
      "inputs": [],
      "name": "reinitializeV2",
      "outputs": [],
      "stateMutability": "nonpayable",
      "type": "function"
    },
    {
      "inputs": [],
      "name": "renounceOwnership",
      "outputs": [],
      "stateMutability": "nonpayable",
      "type": "function"
    },
    {
      "inputs": [
        {
          "internalType": "address",
          "name": "newOwner",
          "type": "address"
        }
      ],
      "name": "transferOwnership",
      "outputs": [],
      "stateMutability": "nonpayable",
      "type": "function"
    },
    {
      "inputs": [
        {
          "internalType": "uint256",
          "name": "pt",
          "type": "uint256"
        },
        {
          "internalType": "enum FheType",
          "name": "toType",
          "type": "uint8"
        }
      ],
      "name": "trivialEncrypt",
      "outputs": [
        {
          "internalType": "bytes32",
          "name": "result",
          "type": "bytes32"
        }
      ],
      "stateMutability": "nonpayable",
      "type": "function"
    },
    {
      "inputs": [
        {
          "internalType": "address",
          "name": "newImplementation",
          "type": "address"
        },
        {
          "internalType": "bytes",
          "name": "data",
          "type": "bytes"
        }
      ],
      "name": "upgradeToAndCall",
      "outputs": [],
      "stateMutability": "payable",
      "type": "function"
    },
    {
      "inputs": [
        {
          "internalType": "bytes32",
          "name": "inputHandle",
          "type": "bytes32"
        },
        {
          "internalType": "address",
          "name": "userAddress",
          "type": "address"
        },
        {
          "internalType": "bytes",
          "name": "inputProof",
          "type": "bytes"
        },
        {
          "internalType": "enum FheType",
          "name": "inputType",
          "type": "uint8"
        }
      ],
      "name": "verifyCiphertext",
      "outputs": [
        {
          "internalType": "bytes32",
          "name": "result",
          "type": "bytes32"
        }
      ],
      "stateMutability": "nonpayable",
      "type": "function"
    }
  ],
  "bytecode": "0x60a06040523060805234801562000014575f80fd5b506200001f62000025565b620000d9565b7ff0c57e16840df040f15088dc2f81fe391c3923bec73e23a9662efc9c229c6a00805468010000000000000000900460ff1615620000765760405163f92ee8a960e01b815260040160405180910390fd5b80546001600160401b0390811614620000d65780546001600160401b0319166001600160401b0390811782556040519081527fc7f505b2f371ae2175ee4913f4499e1f2633a7b5936321eed1cdaeb6115181d29060200160405180910390a15b50565b6080516144f0620001005f395f81816133f30152818161341c015261358601526144f05ff3fe6080604052600436106102e2575f3560e01c806385362ee711610186578063cf4d18aa116100dc578063e30c397811610087578063f6859bdc11610062578063f6859bdc1461082e578063f77f3f1d14610854578063fc2fb3e114610873575f80fd5b8063e30c3978146107dc578063f2fde38b146107f0578063f51ccfb01461080f575f80fd5b8063d8092cbc116100b7578063d8092cbc14610778578063d99882d514610797578063e0786972146107b6575f80fd5b8063cf4d18aa1461071b578063d580c0631461073a578063d75d6e8a14610759575f80fd5b8063a8c7c2c11161013c578063c411587411610117578063c4115874146106aa578063c7ab42d5146106be578063ccc480a1146106fc575f80fd5b8063a8c7c2c11461061d578063ad3cb1cc14610643578063c021329e1461068b575f80fd5b80638da5cb5b1161016c5780638da5cb5b146105b357806391f98ffe146105df5780639cd07acb146105fe575f80fd5b806385362ee7146105755780638b49ceb414610594575f80fd5b806352d1902d1161023b5780636a8c8eb4116101f15780637513a404116101cc5780637513a404146105235780637702dcff1461054257806379ba509714610561575f80fd5b80636a8c8eb4146104cb578063715018a6146104f05780637210768114610504575f80fd5b80635a53accb116102215780635a53accb1461046e57806363a2db291461048d5780636754b360146104ac575f80fd5b806352d1902d1461043b57806357f0a5681461044f575f80fd5b8063196d0b9b1161029b57806339f738101161027657806339f73810146103f357806348eef47e146104095780634f1ef28614610428575f80fd5b8063196d0b9b146103965780631c89ee44146103b557806336318d64146103d4575f80fd5b8063117b2f38116102cb578063117b2f38146103395780631391547f14610358578063182b6d9814610377575f80fd5b806304559f71146102e65780630d8e6e2c14610318575b5f80fd5b3480156102f1575f80fd5b50610305610300366004613d8a565b61089f565b6040519081526020015b60405180910390f35b348015610323575f80fd5b5061032c6109c5565b60405161030f9190613e19565b348015610344575f80fd5b50610305610353366004613d8a565b610a40565b348015610363575f80fd5b50610305610372366004613d8a565b610b57565b348015610382575f80fd5b50610305610391366004613d8a565b610c6f565b3480156103a1575f80fd5b506103056103b0366004613ef1565b610d87565b3480156103c0575f80fd5b506103056103cf366004613f55565b610ead565b3480156103df575f80fd5b506103056103ee366004613d8a565b6111d6565b3480156103fe575f80fd5b506104076112ee565b005b348015610414575f80fd5b50610305610423366004613f55565b611430565b610407610436366004613f7f565b611497565b348015610446575f80fd5b506103056114b6565b34801561045a575f80fd5b50610305610469366004613d8a565b6114e4565b348015610479575f80fd5b50610305610488366004613d8a565b6115fc565b348015610498575f80fd5b506103056104a7366004613d8a565b61175b565b3480156104b7575f80fd5b506103056104c6366004613d8a565b61188c565b3480156104d6575f80fd5b506104de5f81565b60405160ff909116815260200161030f565b3480156104fb575f80fd5b506104076119b1565b34801561050f575f80fd5b5061030561051e366004613d8a565b6119c4565b34801561052e575f80fd5b5061030561053d366004613d8a565b611adc565b34801561054d575f80fd5b5061030561055c366004613fca565b611bf4565b34801561056c575f80fd5b50610407611d29565b348015610580575f80fd5b5061030561058f366004613d8a565b611d71565b34801561059f575f80fd5b506103056105ae366004613d8a565b611e89565b3480156105be575f80fd5b506105c7611fba565b6040516001600160a01b03909116815260200161030f565b3480156105ea575f80fd5b506103056105f9366004613d8a565b611fee565b348015610609575f80fd5b50610305610618366004613f55565b612113565b348015610628575f80fd5b50732af486b3c64d73b03a01ee8abd5a94287a5bfd496105c7565b34801561064e575f80fd5b5061032c6040518060400160405280600581526020017f352e302e3000000000000000000000000000000000000000000000000000000081525081565b348015610696575f80fd5b506103056106a5366004613d8a565b612302565b3480156106b5575f80fd5b50610407612427565b3480156106c9575f80fd5b506106dd6106d8366004613ff3565b6124ef565b6040805193845260ff928316602085015291169082015260600161030f565b348015610707575f80fd5b50610305610716366004613d8a565b612521565b348015610726575f80fd5b50610305610735366004613d8a565b612646565b348015610745575f80fd5b50610305610754366004613ff3565b6127a5565b348015610764575f80fd5b5061030561077336600461400a565b6128ac565b348015610783575f80fd5b50610305610792366004613d8a565b61290f565b3480156107a2575f80fd5b506103056107b1366004613d8a565b612a8e565b3480156107c1575f80fd5b5073dfb2fac1519eda2b3ee1edf578ee0509dc8633f76105c7565b3480156107e7575f80fd5b506105c7612bbf565b3480156107fb575f80fd5b5061040761080a366004614023565b612be7565b34801561081a575f80fd5b50610305610829366004613ff3565b612c6c565b348015610839575f80fd5b507305ce5c99898b2a4376381c3c39217833ed0e15a46105c7565b34801561085f575f80fd5b5061030561086e366004613d8a565b612d74565b34801561087e575f80fd5b5061089261088d36600461403c565b612ef3565b60405161030f9190614084565b5f806040602060106108b3600860046140a6565b6108bd91906140a6565b6108c791906140a6565b6108d191906140a6565b90505f6108de8683612ef3565b9050600160f81b84166108f5601288888486612f3f565b604051630642b14960e41b815290945073dfb2fac1519eda2b3ee1edf578ee0509dc8633f79063642b14909061093790859085908c908c908b906004016140b9565b5f604051808303815f87803b15801561094e575f80fd5b505af1158015610960573d5f803e3d5ffd5b5050604080518a8152602081018a90526001600160f81b0319891691810191909152606081018790523392507fc11d62b13c360a83082487064be1ec0878b2f0be4f012bf59f89e128063d47ff91506080015b60405180910390a25050509392505050565b60606040518060400160405280600d81526020017f464845564d4578656375746f7200000000000000000000000000000000000000815250610a065f613071565b610a106003613071565b610a195f613071565b604051602001610a2c94939291906140f4565b604051602081830303815290604052905090565b5f80604060206010610a54600860046140a6565b610a5e91906140a6565b610a6891906140a6565b610a7291906140a6565b90505f610a7f8683612ef3565b9050600160f81b8416610a955f88888486612f3f565b604051637ed6a64b60e11b815290945073dfb2fac1519eda2b3ee1edf578ee0509dc8633f79063fdad4c9690610ad790859085908c908c908b906004016140b9565b5f604051808303815f87803b158015610aee575f80fd5b505af1158015610b00573d5f803e3d5ffd5b5050604080518a8152602081018a90526001600160f81b0319891691810191909152606081018790523392507fdb9050d65240431621d61d6f94b970e63f53a67a5766614ee6e5c5bbd41c8e2e91506080016109b3565b5f80604060206010610b6b600860046140a6565b610b7591906140a6565b610b7f91906140a6565b610b8991906140a6565b90505f610b968683612ef3565b9050600160f81b8416610bad600e8888845f612f3f565b604051636bb3c61160e01b815290945073dfb2fac1519eda2b3ee1edf578ee0509dc8633f790636bb3c61190610bef90859085908c908c908b906004016140b9565b5f604051808303815f87803b158015610c06575f80fd5b505af1158015610c18573d5f803e3d5ffd5b5050604080518a8152602081018a90526001600160f81b0319891691810191909152606081018790523392507f38c3a63c4230de5b741f494ffb54e3087104030279bc7bccee8ad9ad31712b2191506080016109b3565b5f80604060206010610c83600860046140a6565b610c8d91906140a6565b610c9791906140a6565b610ca191906140a6565b90505f610cae8683612ef3565b9050600160f81b8416610cc5600188888486612f3f565b60405163120ea62160e31b815290945073dfb2fac1519eda2b3ee1edf578ee0509dc8633f790639075310890610d0790859085908c908c908b906004016140b9565b5f604051808303815f87803b158015610d1e575f80fd5b505af1158015610d30573d5f803e3d5ffd5b5050604080518a8152602081018a90526001600160f81b0319891691810191909152606081018790523392507feb6d37bd271abe1395b21d6d78f3487d6584862872c29ffd3f90736ee99b739391506080016109b3565b604080518082019091526001600160a01b03841681523360208201525f9081610daf8761310e565b9050806053811115610dc357610dc361405c565b846053811115610dd557610dd561405c565b14610df35760405163b968846160e01b815260040160405180910390fd5b604051630f8e573b60e21b8152600481018890523360248201527305ce5c99898b2a4376381c3c39217833ed0e15a490633e395cec906044015f604051808303815f87803b158015610e43575f80fd5b505af1158015610e55573d5f803e3d5ffd5b50505050336001600160a01b03167f6755f7cde41daab1460146e746a77619c8a667b2daf9a8a89f2ddbb4ab6c9c5c888888888c604051610e9a959493929190614171565b60405180910390a2509495945050505050565b6040516382027b6d60e01b8152600481018390523360248201525f907305ce5c99898b2a4376381c3c39217833ed0e15a4906382027b6d90604401602060405180830381865afa158015610f03573d5f803e3d5ffd5b505050506040513d601f19601f82011682018060405250810190610f2791906141b7565b610f5257604051632778ce4b60e21b8152600481018490523360248201526044015b60405180910390fd5b5f6101006040602060106008610f6a600460016140a6565b610f7491906140a6565b610f7e91906140a6565b610f8891906140a6565b610f9291906140a6565b610f9c91906140a6565b90505f610fa98583612ef3565b90505f610100604060206010610fc1600860046140a6565b610fcb91906140a6565b610fd591906140a6565b610fdf91906140a6565b610fe991906140a6565b905080856053811115610ffe57610ffe61405c565b60ff166001901b165f036110255760405163636f233560e11b815260040160405180910390fd5b8460538111156110375761103761405c565b8260538111156110495761104961405c565b036110675760405163b968846160e01b815260040160405180910390fd5b601786867305ce5c99898b2a4376381c3c39217833ed0e15a4466040516020016110959594939291906141fd565b6040516020818303038152906040528051906020012093506110b78486613124565b60405163016eb13b60e11b815290945073dfb2fac1519eda2b3ee1edf578ee0509dc8633f7906302dd6276906110f59088908a908990600401614243565b5f604051808303815f87803b15801561110c575f80fd5b505af115801561111e573d5f803e3d5ffd5b5050604051630f8e573b60e21b8152600481018790523360248201527305ce5c99898b2a4376381c3c39217833ed0e15a49250633e395cec91506044015f604051808303815f87803b158015611172575f80fd5b505af1158015611184573d5f803e3d5ffd5b50505050336001600160a01b03167f31ccae6a2f8e3ced1692f77c8f668133e4afdaaa35afe844ff4659a6c27e627f8787876040516111c593929190614262565b60405180910390a250505092915050565b5f806040602060106111ea600860046140a6565b6111f491906140a6565b6111fe91906140a6565b61120891906140a6565b90505f6112158683612ef3565b9050600160f81b841661122c601388888486612f3f565b604051631596be7160e31b815290945073dfb2fac1519eda2b3ee1edf578ee0509dc8633f79063acb5f3889061126e90859085908c908c908b906004016140b9565b5f604051808303815f87803b158015611285575f80fd5b505af1158015611297573d5f803e3d5ffd5b5050604080518a8152602081018a90526001600160f81b0319891691810191909152606081018790523392507ffd7c9208f956bf0c6ab76a667f04361245ad3e0a2d0eff92eb827acfcca68ea991506080016109b3565b7ff0c57e16840df040f15088dc2f81fe391c3923bec73e23a9662efc9c229c6a005467ffffffffffffffff1667ffffffffffffffff1660011461134457604051636f4f731f60e01b815260040160405180910390fd5b7ff0c57e16840df040f15088dc2f81fe391c3923bec73e23a9662efc9c229c6a00805460039190600160401b900460ff168061138e5750805467ffffffffffffffff808416911610155b156113ac5760405163f92ee8a960e01b815260040160405180910390fd5b805468ffffffffffffffffff191667ffffffffffffffff831617600160401b1781556113de6113d9611fba565b613171565b805468ff00000000000000001916815560405167ffffffffffffffff831681527fc7f505b2f371ae2175ee4913f4499e1f2633a7b5936321eed1cdaeb6115181d2906020015b60405180910390a15050565b5f8061143a613182565b9050611447848483613236565b9150336001600160a01b03167f5222d96b836727a1d6fe1ee9aef27f9bb507bd41794defa376ff6c648aaf8ff1858584866040516114889493929190614284565b60405180910390a25092915050565b61149f6133e8565b6114a88261349f565b6114b282826134a7565b5050565b5f6114bf61357b565b507f360894a13ba1a3210667c828492db98dca3e2076cc3735a920a3ca505d382bbc90565b5f806040602060106114f8600860046140a6565b61150291906140a6565b61150c91906140a6565b61151691906140a6565b90505f6115238683612ef3565b9050600160f81b841661153a600288888486612f3f565b604051633c16ff0d60e01b815290945073dfb2fac1519eda2b3ee1edf578ee0509dc8633f790633c16ff0d9061157c90859085908c908c908b906004016140b9565b5f604051808303815f87803b158015611593575f80fd5b505af11580156115a5573d5f803e3d5ffd5b5050604080518a8152602081018a90526001600160f81b0319891691810191909152606081018790523392507f215346a4f9f975e6d5484e290bd4e53ca14453a9d282ebd3ccedb2a0f171753d91506080016109b3565b5f600160f81b8083161461162357604051634f224e5360e01b815260040160405180910390fd5b5f839003611644576040516323d359a360e01b815260040160405180910390fd5b5f604060206010611657600860046140a6565b61166191906140a6565b61166b91906140a6565b61167591906140a6565b90505f6116828683612ef3565b9050600160f81b8416611699600388888486612f3f565b60405163406b451360e01b815290945073dfb2fac1519eda2b3ee1edf578ee0509dc8633f79063406b4513906116db90859085908c908c908b906004016140b9565b5f604051808303815f87803b1580156116f2575f80fd5b505af1158015611704573d5f803e3d5ffd5b5050604080518a8152602081018a90526001600160f81b0319891691810191909152606081018790523392507f3bab2ee0e2f90f4690c6a87bf63cf1a6b626086e95f231860b152966e8dabbf791506080016109b3565b5f806101006040602060106008611774600460016140a6565b61177e91906140a6565b61178891906140a6565b61179291906140a6565b61179c91906140a6565b6117a691906140a6565b90505f6117b38683612ef3565b9050600160f81b84166117ca600688888486612f3f565b60405163e8e399ad60e01b815290945073dfb2fac1519eda2b3ee1edf578ee0509dc8633f79063e8e399ad9061180c90859085908c908c908b906004016140b9565b5f604051808303815f87803b158015611823575f80fd5b505af1158015611835573d5f803e3d5ffd5b5050604080518a8152602081018a90526001600160f81b0319891691810191909152606081018790523392507f56df279bbfb03d9ed097bbe2f28d520ca0c1161206327926e98664d70d2c24c491506080016109b3565b5f806101006040602060106118a3600860046140a6565b6118ad91906140a6565b6118b791906140a6565b6118c191906140a6565b6118cb91906140a6565b90505f6118d88683612ef3565b9050600160f81b84166118ef600a88888486612f3f565b6040516314526e8760e01b815290945073dfb2fac1519eda2b3ee1edf578ee0509dc8633f7906314526e879061193190859085908c908c908b906004016140b9565b5f604051808303815f87803b158015611948575f80fd5b505af115801561195a573d5f803e3d5ffd5b5050604080518a8152602081018a90526001600160f81b0319891691810191909152606081018790523392507feb0e4f8dc74058194d0602425fe602f955c222200f7f10c6fe67992f7b24c7e991506080016109b3565b6119b96135c4565b6119c25f6135f6565b565b5f806040602060106119d8600860046140a6565b6119e291906140a6565b6119ec91906140a6565b6119f691906140a6565b90505f611a038683612ef3565b9050600160f81b8416611a1a60118888845f612f3f565b60405163099ce2f760e11b815290945073dfb2fac1519eda2b3ee1edf578ee0509dc8633f790631339c5ee90611a5c90859085908c908c908b906004016140b9565b5f604051808303815f87803b158015611a73575f80fd5b505af1158015611a85573d5f803e3d5ffd5b5050604080518a8152602081018a90526001600160f81b0319891691810191909152606081018790523392507f0d483b100d8c73b208984ec697caa3091521ee5525ce69edcf97d7e395d3d05991506080016109b3565b5f80604060206010611af0600860046140a6565b611afa91906140a6565b611b0491906140a6565b611b0e91906140a6565b90505f611b1b8683612ef3565b9050600160f81b8416611b3260108888845f612f3f565b60405163d47f3d5960e01b815290945073dfb2fac1519eda2b3ee1edf578ee0509dc8633f79063d47f3d5990611b7490859085908c908c908b906004016140b9565b5f604051808303815f87803b158015611b8b575f80fd5b505af1158015611b9d573d5f803e3d5ffd5b5050604080518a8152602081018a90526001600160f81b0319891691810191909152606081018790523392507fdef2e704a077284a07f3d0b436db88f5d981b69f58ab7c1ae623252718a6de0191506080016109b3565b5f8061010060806040602060106008611c0f600460016140a6565b611c1991906140a6565b611c2391906140a6565b611c2d91906140a6565b611c3791906140a6565b611c4191906140a6565b611c4b91906140a6565b90505f611c588583612ef3565b9050611c67601987878761362e565b604051634e72676960e01b815290935073dfb2fac1519eda2b3ee1edf578ee0509dc8633f790634e72676990611ca99084908a908a908a908a906004016142bd565b5f604051808303815f87803b158015611cc0575f80fd5b505af1158015611cd2573d5f803e3d5ffd5b50506040805189815260208101899052908101879052606081018690523392507f60be9d61aad849facc28c38b048cb5c4be3420b8fa2233e08cfa06be1b6d1c3e915060800160405180910390a250509392505050565b3380611d33612bbf565b6001600160a01b031614611d655760405163118cdaa760e01b81526001600160a01b0382166004820152602401610f49565b611d6e816135f6565b50565b5f80604060206010611d85600860046140a6565b611d8f91906140a6565b611d9991906140a6565b611da391906140a6565b90505f611db08683612ef3565b9050600160f81b8416611dc7600f8888845f612f3f565b604051630859a1b760e41b815290945073dfb2fac1519eda2b3ee1edf578ee0509dc8633f79063859a1b7090611e0990859085908c908c908b906004016140b9565b5f604051808303815f87803b158015611e20575f80fd5b505af1158015611e32573d5f803e3d5ffd5b5050604080518a8152602081018a90526001600160f81b0319891691810191909152606081018790523392507fc9ff8f0d18a3f766ce5de3de216076050140e4fc2652f5e0e745f6fc836cda8b91506080016109b3565b5f806101006040602060106008611ea2600460016140a6565b611eac91906140a6565b611eb691906140a6565b611ec091906140a6565b611eca91906140a6565b611ed491906140a6565b90505f611ee18683612ef3565b9050600160f81b8416611ef8600788888486612f3f565b604051631434ba4d60e01b815290945073dfb2fac1519eda2b3ee1edf578ee0509dc8633f790631434ba4d90611f3a90859085908c908c908b906004016140b9565b5f604051808303815f87803b158015611f51575f80fd5b505af1158015611f63573d5f803e3d5ffd5b5050604080518a8152602081018a90526001600160f81b0319891691810191909152606081018790523392507f4d32284bd3193ecaa44e1ceca32f41c5d6c32803a92e07967dd3ee422972158291506080016109b3565b5f807f9016d09d72d40fdae2fd8ceac6b6234c7706214fd39c1cd1e609a0528c1993005b546001600160a01b031692915050565b5f80610100604060206010612005600860046140a6565b61200f91906140a6565b61201991906140a6565b61202391906140a6565b61202d91906140a6565b90505f61203a8683612ef3565b9050600160f81b8416612051600988888486612f3f565b604051630f6c8ffb60e11b815290945073dfb2fac1519eda2b3ee1edf578ee0509dc8633f790631ed91ff69061209390859085908c908c908b906004016140b9565b5f604051808303815f87803b1580156120aa575f80fd5b505af11580156120bc573d5f803e3d5ffd5b5050604080518a8152602081018a90526001600160f81b0319891691810191909152606081018790523392507f324220bfc9cb158b492991c03c309cd86e5345cac45aacae2092ddabe31fa3d891506080016109b3565b5f806101006080604060206010600861212e600460016140a6565b61213891906140a6565b61214291906140a6565b61214c91906140a6565b61215691906140a6565b61216091906140a6565b61216a91906140a6565b90508083605381111561217f5761217f61405c565b60ff166001901b165f036121a65760405163636f233560e11b815260040160405180910390fd5b601884847305ce5c99898b2a4376381c3c39217833ed0e15a4466040516020016121d49594939291906141fd565b6040516020818303038152906040528051906020012091506121f68284613124565b60405163348c318560e01b815290925073dfb2fac1519eda2b3ee1edf578ee0509dc8633f79063348c31859061223290869086906004016142ed565b5f604051808303815f87803b158015612249575f80fd5b505af115801561225b573d5f803e3d5ffd5b5050604051630f8e573b60e21b8152600481018590523360248201527305ce5c99898b2a4376381c3c39217833ed0e15a49250633e395cec91506044015f604051808303815f87803b1580156122af575f80fd5b505af11580156122c1573d5f803e3d5ffd5b50505050336001600160a01b03167f063ccd1bba45151d91f6a418065047a3d048d058a922535747bb2b575a01d23685858560405161148893929190614262565b5f80610100604060206010612319600860046140a6565b61232391906140a6565b61232d91906140a6565b61233791906140a6565b61234191906140a6565b90505f61234e8683612ef3565b9050600160f81b8416612365600b88888486612f3f565b60405163019a460760e61b815290945073dfb2fac1519eda2b3ee1edf578ee0509dc8633f79063669181c0906123a790859085908c908c908b906004016140b9565b5f604051808303815f87803b1580156123be575f80fd5b505af11580156123d0573d5f803e3d5ffd5b5050604080518a8152602081018a90526001600160f81b0319891691810191909152606081018790523392507fc148675905d07ad5496f8ef4d8195c907503f3ec12fd10ed5f21240abc69363491506080016109b3565b7ff0c57e16840df040f15088dc2f81fe391c3923bec73e23a9662efc9c229c6a00805460039190600160401b900460ff16806124715750805467ffffffffffffffff808416911610155b1561248f5760405163f92ee8a960e01b815260040160405180910390fd5b805468ffffffffffffffffff191667ffffffffffffffff8316908117600160401b1768ff0000000000000000191682556040519081527fc7f505b2f371ae2175ee4913f4499e1f2633a7b5936321eed1cdaeb6115181d290602001611424565b80601e81901a5f8160538111156125085761250861405c565b60538111156125195761251961405c565b929491935050565b5f80610100604060206010612538600860046140a6565b61254291906140a6565b61254c91906140a6565b61255691906140a6565b61256091906140a6565b90505f61256d8683612ef3565b9050600160f81b8416612584600888888486612f3f565b60405163041f353960e51b815290945073dfb2fac1519eda2b3ee1edf578ee0509dc8633f7906383e6a720906125c690859085908c908c908b906004016140b9565b5f604051808303815f87803b1580156125dd575f80fd5b505af11580156125ef573d5f803e3d5ffd5b5050604080518a8152602081018a90526001600160f81b0319891691810191909152606081018790523392507fe84282aaebcca698443e39a2a948a345d0d2ebc654af5cb657a2d7e8053bf6cb91506080016109b3565b5f600160f81b8083161461266d57604051634f224e5360e01b815260040160405180910390fd5b5f83900361268e576040516323d359a360e01b815260040160405180910390fd5b5f6040602060106126a1600860046140a6565b6126ab91906140a6565b6126b591906140a6565b6126bf91906140a6565b90505f6126cc8683612ef3565b9050600160f81b84166126e3600488888486612f3f565b60405163fa08e38d60e01b815290945073dfb2fac1519eda2b3ee1edf578ee0509dc8633f79063fa08e38d9061272590859085908c908c908b906004016140b9565b5f604051808303815f87803b15801561273c575f80fd5b505af115801561274e573d5f803e3d5ffd5b5050604080518a8152602081018a90526001600160f81b0319891691810191909152606081018790523392507f0e691cd0bf8c4e9308e4ced1bb9c964117dc5c5bb9b9ab5bdfebf2c9b13a897c91506080016109b3565b5f806101006040602060106127bc600860046140a6565b6127c691906140a6565b6127d091906140a6565b6127da91906140a6565b6127e491906140a6565b90505f6127f18483612ef3565b90506127fe60148561378b565b604051635264c79f60e11b815290935073dfb2fac1519eda2b3ee1edf578ee0509dc8633f79063a4c98f3e9061283c90849088908890600401614243565b5f604051808303815f87803b158015612853575f80fd5b505af1158015612865573d5f803e3d5ffd5b505060408051878152602081018790523393507f8c664d3c3ca583fc5803b8a91c49644bbd9550bfa87967c73ad1de83027768c09250015b60405180910390a25050919050565b5f806128b6613182565b90506128c28382613856565b9150336001600160a01b03167f0c8aca6017003326051e19913ef02631f24b801125e1fa8a1d812e868319fda684838560405161290193929190614308565b60405180910390a250919050565b5f806101006080604060206010600861292a600460016140a6565b61293491906140a6565b61293e91906140a6565b61294891906140a6565b61295291906140a6565b61295c91906140a6565b61296691906140a6565b90505f6129738683612ef3565b9050600160f81b80851690811480156129a05750600882605381111561299b5761299b61405c565b60ff16115b156129be5760405163dac55bcd60e01b815260040160405180910390fd5b6129cc600d8888845f612f3f565b60405163fa5defdb60e01b815290945073dfb2fac1519eda2b3ee1edf578ee0509dc8633f79063fa5defdb90612a0e90859085908c908c908b906004016140b9565b5f604051808303815f87803b158015612a25575f80fd5b505af1158015612a37573d5f803e3d5ffd5b5050604080518a8152602081018a90526001600160f81b0319891691810191909152606081018790523392507f6960c1e88f61c352dba34d1bbf6753e302795264d5d8ae82f7983c7004651e5d91506080016109b3565b5f806101006040602060106008612aa7600460016140a6565b612ab191906140a6565b612abb91906140a6565b612ac591906140a6565b612acf91906140a6565b612ad991906140a6565b90505f612ae68683612ef3565b9050600160f81b8416612afd600588888486612f3f565b604051631856d91d60e01b815290945073dfb2fac1519eda2b3ee1edf578ee0509dc8633f790631856d91d90612b3f90859085908c908c908b906004016140b9565b5f604051808303815f87803b158015612b56575f80fd5b505af1158015612b68573d5f803e3d5ffd5b5050604080518a8152602081018a90526001600160f81b0319891691810191909152606081018790523392507fe42486b0ccdbef81a2075c48c8e515c079aea73c8b82429997c72a2fe1bf4fef91506080016109b3565b5f807f237e158222e3e6968b72b9db0d8043aacf074ad9f650f0d1606b4d82ee432c00611fde565b612bef6135c4565b7f237e158222e3e6968b72b9db0d8043aacf074ad9f650f0d1606b4d82ee432c0080546001600160a01b0319166001600160a01b0383169081178255612c33611fba565b6001600160a01b03167f38d16b8cac22d99fc7c124b9cd0de2d3fa1faef420bfe791d8c362d765e2270060405160405180910390a35050565b5f806101006040602060106008612c85600460016140a6565b612c8f91906140a6565b612c9991906140a6565b612ca391906140a6565b612cad91906140a6565b612cb791906140a6565b90505f612cc48483612ef3565b9050612cd160158561378b565b604051637e031e3160e11b815290935073dfb2fac1519eda2b3ee1edf578ee0509dc8633f79063fc063c6290612d0f90849088908890600401614243565b5f604051808303815f87803b158015612d26575f80fd5b505af1158015612d38573d5f803e3d5ffd5b505060408051878152602081018790523393507f55aff4cc7a3d160c83f1f15b818011ede841a0b4597fb14dcd3603df3a11e5e092500161289d565b5f8061010060806040602060106008612d8f600460016140a6565b612d9991906140a6565b612da391906140a6565b612dad91906140a6565b612db791906140a6565b612dc191906140a6565b612dcb91906140a6565b90505f612dd88683612ef3565b9050600160f81b8085169081148015612e0557506008826053811115612e0057612e0061405c565b60ff16115b15612e235760405163dac55bcd60e01b815260040160405180910390fd5b612e31600c8888845f612f3f565b6040516394e70e4f60e01b815290945073dfb2fac1519eda2b3ee1edf578ee0509dc8633f7906394e70e4f90612e7390859085908c908c908b906004016140b9565b5f604051808303815f87803b158015612e8a575f80fd5b505af1158015612e9c573d5f803e3d5ffd5b5050604080518a8152602081018a90526001600160f81b0319891691810191909152606081018790523392507fb3d5c664ec86575818e8d75ff25c5f867250df8954088549c41c848cd10e76cb91506080016109b3565b5f612efd8361310e565b905081816053811115612f1257612f1261405c565b60ff166001901b165f03612f395760405163636f233560e11b815260040160405180910390fd5b92915050565b5f6001600160f81b031983168103612fae575f612f5b8561310e565b90505f612f678761310e565b9050816053811115612f7b57612f7b61405c565b816053811115612f8d57612f8d61405c565b14612fab57604051631f3158c760e01b815260040160405180910390fd5b50505b858585857305ce5c99898b2a4376381c3c39217833ed0e15a446604051602001612fdd9695949392919061433a565b604051602081830303815290604052805190602001209050612fff8183613124565b604051630f8e573b60e21b8152600481018290523360248201529091507305ce5c99898b2a4376381c3c39217833ed0e15a490633e395cec906044015f604051808303815f87803b158015613052575f80fd5b505af1158015613064573d5f803e3d5ffd5b5050505095945050505050565b60605f61307d836139bc565b60010190505f8167ffffffffffffffff81111561309c5761309c613e46565b6040519080825280601f01601f1916602001820160405280156130c6576020820181803683370190505b5090508181016020015b5f19017f3031323334353637383961626364656600000000000000000000000000000000600a86061a8153600a85049450846130d057509392505050565b5f81601e1a6053811115612f3957612f3961405c565b69ffffffffffffffff00004660101b166affffffffffffffffffffff198316176aff000000000000000000001760088260538111156131655761316561405c565b60ff16901b1792915050565b613179613a9d565b611d6e81613ae6565b7f4613e1771f6b755d243e536fb5a23c5b15e2826575fee921e8fe7a22a760c80080545f91907305ce5c99898b2a4376381c3c39217833ed0e15a4466131c960014361438a565b60408051602081019590955260609390931b6bffffffffffffffffffffffff191692840192909252605483015240607482015242609482015260b40160408051601f1981840301815291905280516020909101208154909250815f61322d8361439d565b91905055505090565b5f8061010060406020601061324d600860046140a6565b61325791906140a6565b61326191906140a6565b61326b91906140a6565b61327591906140a6565b90508084605381111561328a5761328a61405c565b60ff166001901b165f036132b15760405163636f233560e11b815260040160405180910390fd5b6132ba85613b17565b6132d75760405163127473a160e11b815260040160405180910390fd5b601b8585856040516020016132ef94939291906143b5565b6040516020818303038152906040528051906020012091506133118285613124565b60405163664333c160e11b815290925073dfb2fac1519eda2b3ee1edf578ee0509dc8633f79063cc8667829061334d90879086906004016142ed565b5f604051808303815f87803b158015613364575f80fd5b505af1158015613376573d5f803e3d5ffd5b5050604051630f8e573b60e21b8152600481018590523360248201527305ce5c99898b2a4376381c3c39217833ed0e15a49250633e395cec91506044015f604051808303815f87803b1580156133ca575f80fd5b505af11580156133dc573d5f803e3d5ffd5b50505050509392505050565b306001600160a01b037f000000000000000000000000000000000000000000000000000000000000000016148061348157507f00000000000000000000000000000000000000000000000000000000000000006001600160a01b03166134757f360894a13ba1a3210667c828492db98dca3e2076cc3735a920a3ca505d382bbc546001600160a01b031690565b6001600160a01b031614155b156119c25760405163703e46dd60e11b815260040160405180910390fd5b611d6e6135c4565b816001600160a01b03166352d1902d6040518163ffffffff1660e01b8152600401602060405180830381865afa925050508015613501575060408051601f3d908101601f191682019092526134fe918101906143f7565b60015b61352957604051634c9c8ce360e01b81526001600160a01b0383166004820152602401610f49565b7f360894a13ba1a3210667c828492db98dca3e2076cc3735a920a3ca505d382bbc811461356c57604051632a87526960e21b815260048101829052602401610f49565b6135768383613b36565b505050565b306001600160a01b037f000000000000000000000000000000000000000000000000000000000000000016146119c25760405163703e46dd60e11b815260040160405180910390fd5b336135cd611fba565b6001600160a01b0316146119c25760405163118cdaa760e01b8152336004820152602401610f49565b7f237e158222e3e6968b72b9db0d8043aacf074ad9f650f0d1606b4d82ee432c0080546001600160a01b03191681556114b282613b8b565b5f806136398561310e565b90505f6136458561310e565b90505f6136518561310e565b90505f8360538111156136665761366661405c565b146136845760405163636f233560e11b815260040160405180910390fd5b8060538111156136965761369661405c565b8260538111156136a8576136a861405c565b146136c657604051631f3158c760e01b815260040160405180910390fd5b878787877305ce5c99898b2a4376381c3c39217833ed0e15a4466040516020016136f59695949392919061440e565b6040516020818303038152906040528051906020012093506137178483613124565b604051630f8e573b60e21b8152600481018290523360248201529094507305ce5c99898b2a4376381c3c39217833ed0e15a490633e395cec906044015f604051808303815f87803b15801561376a575f80fd5b505af115801561377c573d5f803e3d5ffd5b50505050505050949350505050565b5f82827305ce5c99898b2a4376381c3c39217833ed0e15a4466040516020016137b79493929190614454565b6040516020818303038152906040528051906020012090505f6137d98361310e565b90506137e58282613124565b604051630f8e573b60e21b8152600481018290523360248201529092507305ce5c99898b2a4376381c3c39217833ed0e15a490633e395cec906044015b5f604051808303815f87803b158015613839575f80fd5b505af115801561384b573d5f803e3d5ffd5b505050505092915050565b5f80610100604060206010600861386f600460016140a6565b61387991906140a6565b61388391906140a6565b61388d91906140a6565b61389791906140a6565b6138a191906140a6565b9050808460538111156138b6576138b661405c565b60ff166001901b165f036138dd5760405163636f233560e11b815260040160405180910390fd5b601a84846040516020016138f39392919061448d565b6040516020818303038152906040528051906020012091506139158285613124565b6040516309b04e8f60e01b815290925073dfb2fac1519eda2b3ee1edf578ee0509dc8633f7906309b04e8f9061395190879086906004016142ed565b5f604051808303815f87803b158015613968575f80fd5b505af115801561397a573d5f803e3d5ffd5b5050604051630f8e573b60e21b8152600481018590523360248201527305ce5c99898b2a4376381c3c39217833ed0e15a49250633e395cec9150604401613822565b5f807a184f03e93ff9f4daa797ed6e38ed64bf6a1f0100000000000000008310613a04577a184f03e93ff9f4daa797ed6e38ed64bf6a1f010000000000000000830492506040015b6d04ee2d6d415b85acef81000000008310613a30576d04ee2d6d415b85acef8100000000830492506020015b662386f26fc100008310613a4e57662386f26fc10000830492506010015b6305f5e1008310613a66576305f5e100830492506008015b6127108310613a7a57612710830492506004015b60648310613a8c576064830492506002015b600a8310612f395760010192915050565b7ff0c57e16840df040f15088dc2f81fe391c3923bec73e23a9662efc9c229c6a0054600160401b900460ff166119c257604051631afcd79f60e31b815260040160405180910390fd5b613aee613a9d565b6001600160a01b038116611d6557604051631e4fbdf760e01b81525f6004820152602401610f49565b5f8082118015612f395750613b2d60018361438a565b82161592915050565b613b3f82613bfb565b6040516001600160a01b038316907fbc7cd75a20ee27fd9adebab32041f755214dbc6bffa90cc0225b39da2e5c2d3b905f90a2805115613b83576135768282613c71565b6114b2613ce3565b7f9016d09d72d40fdae2fd8ceac6b6234c7706214fd39c1cd1e609a0528c19930080546001600160a01b031981166001600160a01b03848116918217845560405192169182907f8be0079c531659141344cd1fd0a4f28419497f9722a3daafe3b4186f6b6457e0905f90a3505050565b806001600160a01b03163b5f03613c3057604051634c9c8ce360e01b81526001600160a01b0382166004820152602401610f49565b7f360894a13ba1a3210667c828492db98dca3e2076cc3735a920a3ca505d382bbc80546001600160a01b0319166001600160a01b0392909216919091179055565b60605f80846001600160a01b031684604051613c8d91906144c8565b5f60405180830381855af49150503d805f8114613cc5576040519150601f19603f3d011682016040523d82523d5f602084013e613cca565b606091505b5091509150613cda858383613d02565b95945050505050565b34156119c25760405163b398979f60e01b815260040160405180910390fd5b606082613d1757613d1282613d61565b613d5a565b8151158015613d2e57506001600160a01b0384163b155b15613d5757604051639996b31560e01b81526001600160a01b0385166004820152602401610f49565b50805b9392505050565b805115613d715780518082602001fd5b60405163d6bda27560e01b815260040160405180910390fd5b5f805f60608486031215613d9c575f80fd5b833592506020840135915060408401356001600160f81b031981168114613dc1575f80fd5b809150509250925092565b5f5b83811015613de6578181015183820152602001613dce565b50505f910152565b5f8151808452613e05816020860160208601613dcc565b601f01601f19169290920160200192915050565b602081525f613d5a6020830184613dee565b80356001600160a01b0381168114613e41575f80fd5b919050565b634e487b7160e01b5f52604160045260245ffd5b5f82601f830112613e69575f80fd5b813567ffffffffffffffff80821115613e8457613e84613e46565b604051601f8301601f19908116603f01168101908282118183101715613eac57613eac613e46565b81604052838152866020858801011115613ec4575f80fd5b836020870160208301375f602085830101528094505050505092915050565b803560548110613e41575f80fd5b5f805f8060808587031215613f04575f80fd5b84359350613f1460208601613e2b565b9250604085013567ffffffffffffffff811115613f2f575f80fd5b613f3b87828801613e5a565b925050613f4a60608601613ee3565b905092959194509250565b5f8060408385031215613f66575f80fd5b82359150613f7660208401613ee3565b90509250929050565b5f8060408385031215613f90575f80fd5b613f9983613e2b565b9150602083013567ffffffffffffffff811115613fb4575f80fd5b613fc085828601613e5a565b9150509250929050565b5f805f60608486031215613fdc575f80fd5b505081359360208301359350604090920135919050565b5f60208284031215614003575f80fd5b5035919050565b5f6020828403121561401a575f80fd5b613d5a82613ee3565b5f60208284031215614033575f80fd5b613d5a82613e2b565b5f806040838503121561404d575f80fd5b50508035926020909101359150565b634e487b7160e01b5f52602160045260245ffd5b605481106140805761408061405c565b9052565b60208101612f398284614070565b634e487b7160e01b5f52601160045260245ffd5b80820180821115612f3957612f39614092565b60a081016140c78288614070565b6001600160f81b031995909516602082015260408101939093526060830191909152608090910152919050565b5f8551614105818460208a01613dcc565b61103b60f11b9083019081528551614124816002840160208a01613dcc565b808201915050601760f91b8060028301528551614148816003850160208a01613dcc565b60039201918201528351614163816004840160208801613dcc565b016004019695505050505050565b8581526001600160a01b038516602082015260a060408201525f61419860a0830186613dee565b90506141a76060830185614070565b8260808301529695505050505050565b5f602082840312156141c7575f80fd5b81518015158114613d5a575f80fd5b601c81106141e6576141e661405c565b60f81b9052565b605481106141e6576141e661405c565b61420781876141d6565b84600182015261421a60218201856141ed565b60609290921b6bffffffffffffffffffffffff1916602283015260368201526056019392505050565b606081016142518286614070565b602082019390935260400152919050565b838152606081016142766020830185614070565b826040830152949350505050565b848152608081016142986020830186614070565b6fffffffffffffffffffffffffffffffff199390931660408201526060015292915050565b60a081016142cb8288614070565b8560208301528460408301528360608301528260808301529695505050505050565b604081016142fb8285614070565b8260208301529392505050565b606081016143168286614070565b6fffffffffffffffffffffffffffffffff1993909316602082015260400152919050565b61434481886141d6565b600181019590955260218501939093526001600160f81b031991909116604184015260601b6bffffffffffffffffffffffff191660428301526056820152607601919050565b81810381811115612f3957612f39614092565b5f600182016143ae576143ae614092565b5060010190565b6143bf81866141d6565b8360018201526143d260218201846141ed565b6fffffffffffffffffffffffffffffffff199190911660228201526032019392505050565b5f60208284031215614407575f80fd5b5051919050565b61441881886141d6565b60018101959095526021850193909352604184019190915260601b6bffffffffffffffffffffffff191660618301526075820152609501919050565b61445e81866141d6565b600181019390935260609190911b6bffffffffffffffffffffffff191660218301526035820152605501919050565b61449781856141d6565b6144a460018201846141ed565b6fffffffffffffffffffffffffffffffff1991909116600282015260120192915050565b5f82516144d9818460208701613dcc565b919091019291505056fea164736f6c6343000818000a",
  "linkReferences": {},
  "deployedLinkReferences": {}
}