{
  "_format": "hh-sol-artifact-1",
  "contractName": "HCULimitTest",
  "sourceName": "examples/HCULimitTest.sol",
  "abi": [
    {
      "inputs": [],
      "stateMutability": "nonpayable",
      "type": "constructor"
    },
    {
      "inputs": [],
      "name": "aboveTransactionHCULimitWithSequentialOperations",
      "outputs": [],
      "stateMutability": "nonpayable",
      "type": "function"
    },
    {
      "inputs": [],
      "name": "aboveTransactionHCUWithNonSequentialOperations",
      "outputs": [],
      "stateMutability": "nonpayable",
      "type": "function"
    },
    {
      "inputs": [],
      "name": "underTransactionHCULimit",
      "outputs": [],
      "stateMutability": "nonpayable",
      "type": "function"
    },
    {
      "inputs": [],
      "name": "wayunderTransactionHCULimit",
      "outputs": [],
      "stateMutability": "nonpayable",
      "type": "function"
    }
  ],
  "bytecode": "0x608060405234801561000f575f80fd5b5061018a6100ae604080516080810182525f8082526020820181905291810182905260608101919091525060408051608081018252738b867b46793a978847e1254781579867fb129a13815273c5092f6c1f30c8970dc835f0f754057f79b89cc66020820152730ca0dc8810361829363ab17196a747fa1387d2029181019190915273482af59820c30d13c9b06adc75c741912e599d29606082015290565b80517fed8d60e34876f751cc8b014c560745351147d9de11b9347c854e881b128ea60080546001600160a01b03199081166001600160a01b039384161790915560208301517fed8d60e34876f751cc8b014c560745351147d9de11b9347c854e881b128ea6018054831691841691909117905560408301517fed8d60e34876f751cc8b014c560745351147d9de11b9347c854e881b128ea6028054831691841691909117905560608301517fed8d60e34876f751cc8b014c560745351147d9de11b9347c854e881b128ea6038054909216921691909117905550565b61043b806101975f395ff3fe608060405234801561000f575f80fd5b506004361061004a575f3560e01c8063291f2ed31461004e57806344ecdded14610058578063c75a587314610060578063f27038ee14610068575b5f80fd5b610056610070565b005b6100566100a2565b6100566100c5565b6100566100f2565b5f61007b600261011f565b90505f805b600f81101561009d57610093828461013b565b9150600101610080565b505050565b5f805b6127108110156100c1576100b761014e565b91506001016100a5565b5050565b5f6100d0600261011f565b90505f805b600381101561009d576100e8828461013b565b91506001016100d5565b5f6100fd600261011f565b90505f805b601081101561009d57610115828461013b565b9150600101610102565b5f6101358267ffffffffffffffff16600561015e565b92915050565b5f61014783835f610228565b9392505050565b5f6101596005610315565b905090565b7fed8d60e34876f751cc8b014c560745351147d9de11b9347c854e881b128ea60154604051639cd07acb60e01b81525f917fed8d60e34876f751cc8b014c560745351147d9de11b9347c854e881b128ea6009173ffffffffffffffffffffffffffffffffffffffff90911690639cd07acb906101e090879087906004016103f5565b6020604051808303815f875af11580156101fc573d5f803e3d5ffd5b505050506040513d601f19601f820116820180604052508101906102209190610409565b949350505050565b5f80821561023b5750600160f81b61023e565b505f5b5f7fed8d60e34876f751cc8b014c560745351147d9de11b9347c854e881b128ea6006001810154604051630afe14ad60e31b815260048101899052602481018890527fff000000000000000000000000000000000000000000000000000000000000008516604482015291925073ffffffffffffffffffffffffffffffffffffffff16906357f0a568906064016020604051808303815f875af11580156102e7573d5f803e3d5ffd5b505050506040513d601f19601f8201168201806040525081019061030b9190610409565b9695505050505050565b7fed8d60e34876f751cc8b014c560745351147d9de11b9347c854e881b128ea60154604051636baeb74560e11b81525f917fed8d60e34876f751cc8b014c560745351147d9de11b9347c854e881b128ea6009173ffffffffffffffffffffffffffffffffffffffff9091169063d75d6e8a90610395908690600401610420565b6020604051808303815f875af11580156103b1573d5f803e3d5ffd5b505050506040513d601f19601f820116820180604052508101906101479190610409565b605481106103f157634e487b7160e01b5f52602160045260245ffd5b9052565b8281526040810161014760208301846103d5565b5f60208284031215610419575f80fd5b5051919050565b6020810161013582846103d556fea164736f6c6343000818000a",
  "linkReferences": {},
  "deployedLinkReferences": {}
}