{
  "_format": "hh-sol-artifact-1",
  "contractName": "DecryptionOracle",
  "sourceName": "decryptionOracle/DecryptionOracle.sol",
  "abi": [
    {
      "inputs": [
        {
          "internalType": "address",
          "name": "target",
          "type": "address"
        }
      ],
      "name": "AddressEmptyCode",
      "type": "error"
    },
    {
      "inputs": [
        {
          "internalType": "address",
          "name": "implementation",
          "type": "address"
        }
      ],
      "name": "ERC1967InvalidImplementation",
      "type": "error"
    },
    {
      "inputs": [],
      "name": "ERC1967NonPayable",
      "type": "error"
    },
    {
      "inputs": [],
      "name": "FailedCall",
      "type": "error"
    },
    {
      "inputs": [],
      "name": "InvalidInitialization",
      "type": "error"
    },
    {
      "inputs": [],
      "name": "NotInitializing",
      "type": "error"
    },
    {
      "inputs": [
        {
          "internalType": "address",
          "name": "owner",
          "type": "address"
        }
      ],
      "name": "OwnableInvalidOwner",
      "type": "error"
    },
    {
      "inputs": [
        {
          "internalType": "address",
          "name": "account",
          "type": "address"
        }
      ],
      "name": "OwnableUnauthorizedAccount",
      "type": "error"
    },
    {
      "inputs": [],
      "name": "UUPSUnauthorizedCallContext",
      "type": "error"
    },
    {
      "inputs": [
        {
          "internalType": "bytes32",
          "name": "slot",
          "type": "bytes32"
        }
      ],
      "name": "UUPSUnsupportedProxiableUUID",
      "type": "error"
    },
    {
      "anonymous": false,
      "inputs": [
        {
          "indexed": true,
          "internalType": "uint256",
          "name": "counter",
          "type": "uint256"
        },
        {
          "indexed": false,
          "internalType": "uint256",
          "name": "requestID",
          "type": "uint256"
        },
        {
          "indexed": false,
          "internalType": "bytes32[]",
          "name": "cts",
          "type": "bytes32[]"
        },
        {
          "indexed": false,
          "internalType": "address",
          "name": "contractCaller",
          "type": "address"
        },
        {
          "indexed": false,
          "internalType": "bytes4",
          "name": "callbackSelector",
          "type": "bytes4"
        }
      ],
      "name": "DecryptionRequest",
      "type": "event"
    },
    {
      "anonymous": false,
      "inputs": [
        {
          "indexed": false,
          "internalType": "uint64",
          "name": "version",
          "type": "uint64"
        }
      ],
      "name": "Initialized",
      "type": "event"
    },
    {
      "anonymous": false,
      "inputs": [
        {
          "indexed": true,
          "internalType": "address",
          "name": "previousOwner",
          "type": "address"
        },
        {
          "indexed": true,
          "internalType": "address",
          "name": "newOwner",
          "type": "address"
        }
      ],
      "name": "OwnershipTransferStarted",
      "type": "event"
    },
    {
      "anonymous": false,
      "inputs": [
        {
          "indexed": true,
          "internalType": "address",
          "name": "previousOwner",
          "type": "address"
        },
        {
          "indexed": true,
          "internalType": "address",
          "name": "newOwner",
          "type": "address"
        }
      ],
      "name": "OwnershipTransferred",
      "type": "event"
    },
    {
      "anonymous": false,
      "inputs": [
        {
          "indexed": true,
          "internalType": "address",
          "name": "implementation",
          "type": "address"
        }
      ],
      "name": "Upgraded",
      "type": "event"
    },
    {
      "inputs": [],
      "name": "UPGRADE_INTERFACE_VERSION",
      "outputs": [
        {
          "internalType": "string",
          "name": "",
          "type": "string"
        }
      ],
      "stateMutability": "view",
      "type": "function"
    },
    {
      "inputs": [],
      "name": "acceptOwnership",
      "outputs": [],
      "stateMutability": "nonpayable",
      "type": "function"
    },
    {
      "inputs": [],
      "name": "getCounter",
      "outputs": [
        {
          "internalType": "uint256",
          "name": "",
          "type": "uint256"
        }
      ],
      "stateMutability": "nonpayable",
      "type": "function"
    },
    {
      "inputs": [],
      "name": "getVersion",
      "outputs": [
        {
          "internalType": "string",
          "name": "",
          "type": "string"
        }
      ],
      "stateMutability": "pure",
      "type": "function"
    },
    {
      "inputs": [],
      "name": "owner",
      "outputs": [
        {
          "internalType": "address",
          "name": "",
          "type": "address"
        }
      ],
      "stateMutability": "view",
      "type": "function"
    },
    {
      "inputs": [],
      "name": "pendingOwner",
      "outputs": [
        {
          "internalType": "address",
          "name": "",
          "type": "address"
        }
      ],
      "stateMutability": "view",
      "type": "function"
    },
    {
      "inputs": [],
      "name": "proxiableUUID",
      "outputs": [
        {
          "internalType": "bytes32",
          "name": "",
          "type": "bytes32"
        }
      ],
      "stateMutability": "view",
      "type": "function"
    },
    {
      "inputs": [],
      "name": "reinitialize",
      "outputs": [],
      "stateMutability": "nonpayable",
      "type": "function"
    },
    {
      "inputs": [],
      "name": "renounceOwnership",
      "outputs": [],
      "stateMutability": "nonpayable",
      "type": "function"
    },
    {
      "inputs": [
        {
          "internalType": "uint256",
          "name": "requestID",
          "type": "uint256"
        },
        {
          "internalType": "bytes32[]",
          "name": "ctsHandles",
          "type": "bytes32[]"
        },
        {
          "internalType": "bytes4",
          "name": "callbackSelector",
          "type": "bytes4"
        }
      ],
      "name": "requestDecryption",
      "outputs": [],
      "stateMutability": "nonpayable",
      "type": "function"
    },
    {
      "inputs": [
        {
          "internalType": "address",
          "name": "newOwner",
          "type": "address"
        }
      ],
      "name": "transferOwnership",
      "outputs": [],
      "stateMutability": "nonpayable",
      "type": "function"
    },
    {
      "inputs": [
        {
          "internalType": "address",
          "name": "newImplementation",
          "type": "address"
        },
        {
          "internalType": "bytes",
          "name": "data",
          "type": "bytes"
        }
      ],
      "name": "upgradeToAndCall",
      "outputs": [],
      "stateMutability": "payable",
      "type": "function"
    }
  ],
  "bytecode": "0x60a060405230608052348015610013575f80fd5b5061001c610021565b6100d3565b7ff0c57e16840df040f15088dc2f81fe391c3923bec73e23a9662efc9c229c6a00805468010000000000000000900460ff16156100715760405163f92ee8a960e01b815260040160405180910390fd5b80546001600160401b03908116146100d05780546001600160401b0319166001600160401b0390811782556040519081527fc7f505b2f371ae2175ee4913f4499e1f2633a7b5936321eed1cdaeb6115181d29060200160405180910390a15b50565b608051610ff66100f95f395f818161067f015281816106a801526108120152610ff65ff3fe6080604052600436106100c3575f3560e01c806379ba509711610071578063ad3cb1cc1161004c578063ad3cb1cc146101e2578063e30c39781461022a578063f2fde38b1461023e575f80fd5b806379ba50971461016f5780638ada066e146101835780638da5cb5b146101b6575f80fd5b806352d1902d116100a157806352d1902d146101255780636c2eb35014610147578063715018a61461015b575f80fd5b80630d8e6e2c146100c75780633263b83b146100f15780634f1ef28614610112575b5f80fd5b3480156100d2575f80fd5b506100db61025d565b6040516100e89190610ca2565b60405180910390f35b3480156100fc575f80fd5b5061011061010b366004610cd4565b6102d8565b005b610110610120366004610db2565b610354565b348015610130575f80fd5b50610139610373565b6040519081526020016100e8565b348015610152575f80fd5b506101106103a1565b348015610166575f80fd5b50610110610496565b34801561017a575f80fd5b506101106104a9565b34801561018e575f80fd5b507fd86fa2a52e99634194c279afa011b5f5166614c3198dd09bbd002d5fb5c0bc0054610139565b3480156101c1575f80fd5b506101ca6104f6565b6040516001600160a01b0390911681526020016100e8565b3480156101ed575f80fd5b506100db6040518060400160405280600581526020017f352e302e3000000000000000000000000000000000000000000000000000000081525081565b348015610235575f80fd5b506101ca61052a565b348015610249575f80fd5b50610110610258366004610e6e565b610552565b60606040518060400160405280601081526020017f44656372797074696f6e4f7261636c650000000000000000000000000000000081525061029e5f6105d7565b6102a860016105d7565b6102b15f6105d7565b6040516020016102c49493929190610e87565b604051602081830303815290604052905090565b7fd86fa2a52e99634194c279afa011b5f5166614c3198dd09bbd002d5fb5c0bc0080546040517ff9a580b32950f598a0b7fe0edf634b8af409702fb0fedad9ec367ce0e87fcbfd906103339088908890889033908990610f04565b60405180910390a28054815f61034883610f93565b91905055505050505050565b61035c610674565b6103658261072b565b61036f8282610733565b5050565b5f61037c610807565b507f360894a13ba1a3210667c828492db98dca3e2076cc3735a920a3ca505d382bbc90565b7ff0c57e16840df040f15088dc2f81fe391c3923bec73e23a9662efc9c229c6a0080546002919068010000000000000000900460ff16806103f05750805467ffffffffffffffff808416911610155b1561040e5760405163f92ee8a960e01b815260040160405180910390fd5b805468ffffffffffffffffff191667ffffffffffffffff831617680100000000000000001781556104456104406104f6565b610850565b805468ff00000000000000001916815560405167ffffffffffffffff831681527fc7f505b2f371ae2175ee4913f4499e1f2633a7b5936321eed1cdaeb6115181d29060200160405180910390a15050565b61049e610861565b6104a75f610893565b565b33806104b361052a565b6001600160a01b0316146104ea5760405163118cdaa760e01b81526001600160a01b03821660048201526024015b60405180910390fd5b6104f381610893565b50565b5f807f9016d09d72d40fdae2fd8ceac6b6234c7706214fd39c1cd1e609a0528c1993005b546001600160a01b031692915050565b5f807f237e158222e3e6968b72b9db0d8043aacf074ad9f650f0d1606b4d82ee432c0061051a565b61055a610861565b7f237e158222e3e6968b72b9db0d8043aacf074ad9f650f0d1606b4d82ee432c0080546001600160a01b0319166001600160a01b038316908117825561059e6104f6565b6001600160a01b03167f38d16b8cac22d99fc7c124b9cd0de2d3fa1faef420bfe791d8c362d765e2270060405160405180910390a35050565b60605f6105e3836108cb565b60010190505f8167ffffffffffffffff81111561060257610602610d9e565b6040519080825280601f01601f19166020018201604052801561062c576020820181803683370190505b5090508181016020015b5f19017f3031323334353637383961626364656600000000000000000000000000000000600a86061a8153600a850494508461063657509392505050565b306001600160a01b037f000000000000000000000000000000000000000000000000000000000000000016148061070d57507f00000000000000000000000000000000000000000000000000000000000000006001600160a01b03166107017f360894a13ba1a3210667c828492db98dca3e2076cc3735a920a3ca505d382bbc546001600160a01b031690565b6001600160a01b031614155b156104a75760405163703e46dd60e11b815260040160405180910390fd5b6104f3610861565b816001600160a01b03166352d1902d6040518163ffffffff1660e01b8152600401602060405180830381865afa92505050801561078d575060408051601f3d908101601f1916820190925261078a91810190610fb7565b60015b6107b557604051634c9c8ce360e01b81526001600160a01b03831660048201526024016104e1565b7f360894a13ba1a3210667c828492db98dca3e2076cc3735a920a3ca505d382bbc81146107f857604051632a87526960e21b8152600481018290526024016104e1565b61080283836109ad565b505050565b306001600160a01b037f000000000000000000000000000000000000000000000000000000000000000016146104a75760405163703e46dd60e11b815260040160405180910390fd5b610858610a02565b6104f381610a50565b3361086a6104f6565b6001600160a01b0316146104a75760405163118cdaa760e01b81523360048201526024016104e1565b7f237e158222e3e6968b72b9db0d8043aacf074ad9f650f0d1606b4d82ee432c0080546001600160a01b031916815561036f82610a81565b5f807a184f03e93ff9f4daa797ed6e38ed64bf6a1f0100000000000000008310610913577a184f03e93ff9f4daa797ed6e38ed64bf6a1f010000000000000000830492506040015b6d04ee2d6d415b85acef8100000000831061093f576d04ee2d6d415b85acef8100000000830492506020015b662386f26fc10000831061095d57662386f26fc10000830492506010015b6305f5e1008310610975576305f5e100830492506008015b612710831061098957612710830492506004015b6064831061099b576064830492506002015b600a83106109a7576001015b92915050565b6109b682610af1565b6040516001600160a01b038316907fbc7cd75a20ee27fd9adebab32041f755214dbc6bffa90cc0225b39da2e5c2d3b905f90a28051156109fa576108028282610b67565b61036f610bd9565b7ff0c57e16840df040f15088dc2f81fe391c3923bec73e23a9662efc9c229c6a005468010000000000000000900460ff166104a757604051631afcd79f60e31b815260040160405180910390fd5b610a58610a02565b6001600160a01b0381166104ea57604051631e4fbdf760e01b81525f60048201526024016104e1565b7f9016d09d72d40fdae2fd8ceac6b6234c7706214fd39c1cd1e609a0528c19930080546001600160a01b031981166001600160a01b03848116918217845560405192169182907f8be0079c531659141344cd1fd0a4f28419497f9722a3daafe3b4186f6b6457e0905f90a3505050565b806001600160a01b03163b5f03610b2657604051634c9c8ce360e01b81526001600160a01b03821660048201526024016104e1565b7f360894a13ba1a3210667c828492db98dca3e2076cc3735a920a3ca505d382bbc80546001600160a01b0319166001600160a01b0392909216919091179055565b60605f80846001600160a01b031684604051610b839190610fce565b5f60405180830381855af49150503d805f8114610bbb576040519150601f19603f3d011682016040523d82523d5f602084013e610bc0565b606091505b5091509150610bd0858383610bf8565b95945050505050565b34156104a75760405163b398979f60e01b815260040160405180910390fd5b606082610c0d57610c0882610c57565b610c50565b8151158015610c2457506001600160a01b0384163b155b15610c4d57604051639996b31560e01b81526001600160a01b03851660048201526024016104e1565b50805b9392505050565b805115610c675780518082602001fd5b60405163d6bda27560e01b815260040160405180910390fd5b5f5b83811015610c9a578181015183820152602001610c82565b50505f910152565b602081525f8251806020840152610cc0816040850160208701610c80565b601f01601f19169190910160400192915050565b5f805f8060608587031215610ce7575f80fd5b84359350602085013567ffffffffffffffff80821115610d05575f80fd5b818701915087601f830112610d18575f80fd5b813581811115610d26575f80fd5b8860208260051b8501011115610d3a575f80fd5b60209290920194509092505060408501357fffffffff0000000000000000000000000000000000000000000000000000000081168114610d78575f80fd5b939692955090935050565b80356001600160a01b0381168114610d99575f80fd5b919050565b634e487b7160e01b5f52604160045260245ffd5b5f8060408385031215610dc3575f80fd5b610dcc83610d83565b9150602083013567ffffffffffffffff80821115610de8575f80fd5b818501915085601f830112610dfb575f80fd5b813581811115610e0d57610e0d610d9e565b604051601f8201601f19908116603f01168101908382118183101715610e3557610e35610d9e565b81604052828152886020848701011115610e4d575f80fd5b826020860160208301375f6020848301015280955050505050509250929050565b5f60208284031215610e7e575f80fd5b610c5082610d83565b5f8551610e98818460208a01610c80565b61103b60f11b9083019081528551610eb7816002840160208a01610c80565b808201915050601760f91b8060028301528551610edb816003850160208a01610c80565b60039201918201528351610ef6816004840160208801610c80565b016004019695505050505050565b858152608060208201528360808201525f7f07ffffffffffffffffffffffffffffffffffffffffffffffffffffffffffffff851115610f41575f80fd5b8460051b808760a08501376001600160a01b03949094166040830152507fffffffff000000000000000000000000000000000000000000000000000000009190911660608201520160a0019392505050565b5f60018201610fb057634e487b7160e01b5f52601160045260245ffd5b5060010190565b5f60208284031215610fc7575f80fd5b5051919050565b5f8251610fdf818460208701610c80565b919091019291505056fea164736f6c6343000818000a",
  "linkReferences": {},
  "deployedLinkReferences": {}
}