{
  "_format": "hh-sol-artifact-1",
  "contractName": "Reencrypt",
  "sourceName": "examples/Reencrypt.sol",
  "abi": [
    {
      "inputs": [],
      "stateMutability": "nonpayable",
      "type": "constructor"
    },
    {
      "inputs": [],
      "name": "xAddress",
      "outputs": [
        {
          "internalType": "eaddress",
          "name": "",
          "type": "bytes32"
        }
      ],
      "stateMutability": "view",
      "type": "function"
    },
    {
      "inputs": [],
      "name": "xBool",
      "outputs": [
        {
          "internalType": "ebool",
          "name": "",
          "type": "bytes32"
        }
      ],
      "stateMutability": "view",
      "type": "function"
    },
    {
      "inputs": [],
      "name": "xUint128",
      "outputs": [
        {
          "internalType": "euint128",
          "name": "",
          "type": "bytes32"
        }
      ],
      "stateMutability": "view",
      "type": "function"
    },
    {
      "inputs": [],
      "name": "xUint16",
      "outputs": [
        {
          "internalType": "euint16",
          "name": "",
          "type": "bytes32"
        }
      ],
      "stateMutability": "view",
      "type": "function"
    },
    {
      "inputs": [],
      "name": "xUint256",
      "outputs": [
        {
          "internalType": "euint256",
          "name": "",
          "type": "bytes32"
        }
      ],
      "stateMutability": "view",
      "type": "function"
    },
    {
      "inputs": [],
      "name": "xUint32",
      "outputs": [
        {
          "internalType": "euint32",
          "name": "",
          "type": "bytes32"
        }
      ],
      "stateMutability": "view",
      "type": "function"
    },
    {
      "inputs": [],
      "name": "xUint64",
      "outputs": [
        {
          "internalType": "euint64",
          "name": "",
          "type": "bytes32"
        }
      ],
      "stateMutability": "view",
      "type": "function"
    },
    {
      "inputs": [],
      "name": "xUint8",
      "outputs": [
        {
          "internalType": "euint8",
          "name": "",
          "type": "bytes32"
        }
      ],
      "stateMutability": "view",
      "type": "function"
    }
  ],
  "bytecode": "0x608060405234801561000f575f80fd5b506101646100ae604080516080810182525f80825260208201819052918101829052606081019190915250604080516080810182527305ce5c99898b2a4376381c3c39217833ed0e15a4815273556994566b825becb7db89c345fc994f27e4ba0960208201527386b28e406738f2928be33d111a0b821bbc5610a291810191909152732af486b3c64d73b03a01ee8abd5a94287a5bfd49606082015290565b80515f805160206105dc83398151915280546001600160a01b03199081166001600160a01b039384161790915560208301515f805160206105fc8339815191528054831691841691909117905560408301517fed8d60e34876f751cc8b014c560745351147d9de11b9347c854e881b128ea6028054831691841691909117905560608301517fed8d60e34876f751cc8b014c560745351147d9de11b9347c854e881b128ea6038054909216921691909117905550565b61016e60016102e6565b5f81905561017b90610307565b505f546101889033610316565b50610193602a610328565b60018190556101a190610307565b506001546101af9033610316565b506101ba6010610337565b60028190556101c890610307565b506002546101d69033610316565b506101e16020610347565b60038190556101ef90610307565b506003546101fd9033610316565b5061020e6010600160401b03610359565b600481905561021c90610307565b5060045461022a9033610316565b506102446f6d4b2086ba8e3d2104fbf4a8dfe9679d61036e565b600581905561025290610307565b506005546102609033610316565b5061027e738ba1f109551bd432803012645ac136ddd64dba72610383565b600681905561028c90610307565b5060065461029a9033610316565b506102c47fa43c19c9c19fe2135e77133e55174fcb100521116fcad4e3a2e977a66c41ff11610398565b60078190556102d290610307565b506007546102e09033610316565b506104f4565b5f610301826102f5575f6102f8565b60015b60ff165f6103a0565b92915050565b5f6103128230610437565b5090565b5f6103218383610437565b5090919050565b5f61030160ff831660026103a0565b5f61030161ffff831660036103a0565b5f61030163ffffffff831660046103a0565b5f6103016001600160401b03831660056103a0565b5f6103016001600160801b03831660066103a0565b5f6103016001600160a01b03831660076103a0565b5f6103018260085b5f805160206105fc83398151915254604051639cd07acb60e01b81525f915f805160206105dc833981519152916001600160a01b0390911690639cd07acb906103ef90879087906004016104ad565b6020604051808303815f875af115801561040b573d5f803e3d5ffd5b505050506040513d601f19601f8201168201806040525081019061042f91906104dd565b949350505050565b5f5f805160206105dc8339815191528054604051635ca4b5b160e11b8152600481018690526001600160a01b03858116602483015292935091169063b9496b62906044015f604051808303815f87803b158015610492575f80fd5b505af11580156104a4573d5f803e3d5ffd5b50505050505050565b82815260408101605483106104d057634e487b7160e01b5f52602160045260245ffd5b8260208301529392505050565b5f602082840312156104ed575f80fd5b5051919050565b60dc806105005f395ff3fe6080604052348015600e575f80fd5b5060043610607a575f3560e01c80638e5bbd961160515780638e5bbd961460b0578063939836cd1460b7578063b7e7eb771460bf578063ce12cc831460c7575f80fd5b806326c3e48714607e578063378ccfd01460985780636319a6011460a05780637b30c9e51460a8575b5f80fd5b608660075481565b60405190815260200160405180910390f35b608660045481565b608660035481565b608660055481565b60865f5481565b608660015481565b608660065481565b60866002548156fea164736f6c6343000818000aed8d60e34876f751cc8b014c560745351147d9de11b9347c854e881b128ea600ed8d60e34876f751cc8b014c560745351147d9de11b9347c854e881b128ea601",
  "linkReferences": {},
  "deployedLinkReferences": {}
}