{
  "_format": "hh-sol-artifact-1",
  "contractName": "DecryptionOracleUpgradedExample",
  "sourceName": "examples/DecryptionOracleUpgradedExample.sol",
  "abi": [
    {
      "inputs": [
        {
          "internalType": "address",
          "name": "target",
          "type": "address"
        }
      ],
      "name": "AddressEmptyCode",
      "type": "error"
    },
    {
      "inputs": [
        {
          "internalType": "address",
          "name": "implementation",
          "type": "address"
        }
      ],
      "name": "ERC1967InvalidImplementation",
      "type": "error"
    },
    {
      "inputs": [],
      "name": "ERC1967NonPayable",
      "type": "error"
    },
    {
      "inputs": [],
      "name": "FailedCall",
      "type": "error"
    },
    {
      "inputs": [],
      "name": "InvalidInitialization",
      "type": "error"
    },
    {
      "inputs": [],
      "name": "NotInitializing",
      "type": "error"
    },
    {
      "inputs": [
        {
          "internalType": "address",
          "name": "owner",
          "type": "address"
        }
      ],
      "name": "OwnableInvalidOwner",
      "type": "error"
    },
    {
      "inputs": [
        {
          "internalType": "address",
          "name": "account",
          "type": "address"
        }
      ],
      "name": "OwnableUnauthorizedAccount",
      "type": "error"
    },
    {
      "inputs": [],
      "name": "UUPSUnauthorizedCallContext",
      "type": "error"
    },
    {
      "inputs": [
        {
          "internalType": "bytes32",
          "name": "slot",
          "type": "bytes32"
        }
      ],
      "name": "UUPSUnsupportedProxiableUUID",
      "type": "error"
    },
    {
      "anonymous": false,
      "inputs": [
        {
          "indexed": true,
          "internalType": "uint256",
          "name": "counter",
          "type": "uint256"
        },
        {
          "indexed": false,
          "internalType": "uint256",
          "name": "requestID",
          "type": "uint256"
        },
        {
          "indexed": false,
          "internalType": "bytes32[]",
          "name": "cts",
          "type": "bytes32[]"
        },
        {
          "indexed": false,
          "internalType": "address",
          "name": "contractCaller",
          "type": "address"
        },
        {
          "indexed": false,
          "internalType": "bytes4",
          "name": "callbackSelector",
          "type": "bytes4"
        }
      ],
      "name": "DecryptionRequest",
      "type": "event"
    },
    {
      "anonymous": false,
      "inputs": [
        {
          "indexed": false,
          "internalType": "uint64",
          "name": "version",
          "type": "uint64"
        }
      ],
      "name": "Initialized",
      "type": "event"
    },
    {
      "anonymous": false,
      "inputs": [
        {
          "indexed": true,
          "internalType": "address",
          "name": "previousOwner",
          "type": "address"
        },
        {
          "indexed": true,
          "internalType": "address",
          "name": "newOwner",
          "type": "address"
        }
      ],
      "name": "OwnershipTransferStarted",
      "type": "event"
    },
    {
      "anonymous": false,
      "inputs": [
        {
          "indexed": true,
          "internalType": "address",
          "name": "previousOwner",
          "type": "address"
        },
        {
          "indexed": true,
          "internalType": "address",
          "name": "newOwner",
          "type": "address"
        }
      ],
      "name": "OwnershipTransferred",
      "type": "event"
    },
    {
      "anonymous": false,
      "inputs": [
        {
          "indexed": true,
          "internalType": "address",
          "name": "implementation",
          "type": "address"
        }
      ],
      "name": "Upgraded",
      "type": "event"
    },
    {
      "inputs": [],
      "name": "UPGRADE_INTERFACE_VERSION",
      "outputs": [
        {
          "internalType": "string",
          "name": "",
          "type": "string"
        }
      ],
      "stateMutability": "view",
      "type": "function"
    },
    {
      "inputs": [],
      "name": "acceptOwnership",
      "outputs": [],
      "stateMutability": "nonpayable",
      "type": "function"
    },
    {
      "inputs": [],
      "name": "getCounter",
      "outputs": [
        {
          "internalType": "uint256",
          "name": "",
          "type": "uint256"
        }
      ],
      "stateMutability": "nonpayable",
      "type": "function"
    },
    {
      "inputs": [],
      "name": "getVersion",
      "outputs": [
        {
          "internalType": "string",
          "name": "",
          "type": "string"
        }
      ],
      "stateMutability": "pure",
      "type": "function"
    },
    {
      "inputs": [],
      "name": "lol",
      "outputs": [
        {
          "internalType": "uint256",
          "name": "",
          "type": "uint256"
        }
      ],
      "stateMutability": "pure",
      "type": "function"
    },
    {
      "inputs": [],
      "name": "owner",
      "outputs": [
        {
          "internalType": "address",
          "name": "",
          "type": "address"
        }
      ],
      "stateMutability": "view",
      "type": "function"
    },
    {
      "inputs": [],
      "name": "pendingOwner",
      "outputs": [
        {
          "internalType": "address",
          "name": "",
          "type": "address"
        }
      ],
      "stateMutability": "view",
      "type": "function"
    },
    {
      "inputs": [],
      "name": "proxiableUUID",
      "outputs": [
        {
          "internalType": "bytes32",
          "name": "",
          "type": "bytes32"
        }
      ],
      "stateMutability": "view",
      "type": "function"
    },
    {
      "inputs": [],
      "name": "reinitialize",
      "outputs": [],
      "stateMutability": "nonpayable",
      "type": "function"
    },
    {
      "inputs": [],
      "name": "renounceOwnership",
      "outputs": [],
      "stateMutability": "nonpayable",
      "type": "function"
    },
    {
      "inputs": [
        {
          "internalType": "uint256",
          "name": "requestID",
          "type": "uint256"
        },
        {
          "internalType": "bytes32[]",
          "name": "ctsHandles",
          "type": "bytes32[]"
        },
        {
          "internalType": "bytes4",
          "name": "callbackSelector",
          "type": "bytes4"
        }
      ],
      "name": "requestDecryption",
      "outputs": [],
      "stateMutability": "nonpayable",
      "type": "function"
    },
    {
      "inputs": [
        {
          "internalType": "address",
          "name": "newOwner",
          "type": "address"
        }
      ],
      "name": "transferOwnership",
      "outputs": [],
      "stateMutability": "nonpayable",
      "type": "function"
    },
    {
      "inputs": [
        {
          "internalType": "address",
          "name": "newImplementation",
          "type": "address"
        },
        {
          "internalType": "bytes",
          "name": "data",
          "type": "bytes"
        }
      ],
      "name": "upgradeToAndCall",
      "outputs": [],
      "stateMutability": "payable",
      "type": "function"
    }
  ],
  "bytecode": "0x60a060405230608052348015610013575f80fd5b5061001c610021565b6100d3565b7ff0c57e16840df040f15088dc2f81fe391c3923bec73e23a9662efc9c229c6a00805468010000000000000000900460ff16156100715760405163f92ee8a960e01b815260040160405180910390fd5b80546001600160401b03908116146100d05780546001600160401b0319166001600160401b0390811782556040519081527fc7f505b2f371ae2175ee4913f4499e1f2633a7b5936321eed1cdaeb6115181d29060200160405180910390a15b50565b6080516110146100f95f395f818161069d015281816106c6015261083001526110145ff3fe6080604052600436106100ce575f3560e01c806371e2d9191161007c5780638da5cb5b116100575780638da5cb5b146101d4578063ad3cb1cc14610200578063e30c397814610248578063f2fde38b1461025c575f80fd5b806371e2d9191461017a57806379ba50971461018d5780638ada066e146101a1575f80fd5b806352d1902d116100ac57806352d1902d146101305780636c2eb35014610152578063715018a614610166575f80fd5b80630d8e6e2c146100d25780633263b83b146100fc5780634f1ef2861461011d575b5f80fd5b3480156100dd575f80fd5b506100e661027b565b6040516100f39190610cc0565b60405180910390f35b348015610107575f80fd5b5061011b610116366004610cf2565b6102f6565b005b61011b61012b366004610dd0565b610372565b34801561013b575f80fd5b50610144610391565b6040519081526020016100f3565b34801561015d575f80fd5b5061011b6103bf565b348015610171575f80fd5b5061011b6104b4565b348015610185575f80fd5b50602a610144565b348015610198575f80fd5b5061011b6104c7565b3480156101ac575f80fd5b507fd86fa2a52e99634194c279afa011b5f5166614c3198dd09bbd002d5fb5c0bc0054610144565b3480156101df575f80fd5b506101e8610514565b6040516001600160a01b0390911681526020016100f3565b34801561020b575f80fd5b506100e66040518060400160405280600581526020017f352e302e3000000000000000000000000000000000000000000000000000000081525081565b348015610253575f80fd5b506101e8610548565b348015610267575f80fd5b5061011b610276366004610e8c565b610570565b60606040518060400160405280601081526020017f44656372797074696f6e4f7261636c65000000000000000000000000000000008152506102bc5f6105f5565b6102c660026105f5565b6102cf5f6105f5565b6040516020016102e29493929190610ea5565b604051602081830303815290604052905090565b7fd86fa2a52e99634194c279afa011b5f5166614c3198dd09bbd002d5fb5c0bc0080546040517ff9a580b32950f598a0b7fe0edf634b8af409702fb0fedad9ec367ce0e87fcbfd906103519088908890889033908990610f22565b60405180910390a28054815f61036683610fb1565b91905055505050505050565b61037a610692565b61038382610749565b61038d8282610751565b5050565b5f61039a610825565b507f360894a13ba1a3210667c828492db98dca3e2076cc3735a920a3ca505d382bbc90565b7ff0c57e16840df040f15088dc2f81fe391c3923bec73e23a9662efc9c229c6a0080546002919068010000000000000000900460ff168061040e5750805467ffffffffffffffff808416911610155b1561042c5760405163f92ee8a960e01b815260040160405180910390fd5b805468ffffffffffffffffff191667ffffffffffffffff8316176801000000000000000017815561046361045e610514565b61086e565b805468ff00000000000000001916815560405167ffffffffffffffff831681527fc7f505b2f371ae2175ee4913f4499e1f2633a7b5936321eed1cdaeb6115181d29060200160405180910390a15050565b6104bc61087f565b6104c55f6108b1565b565b33806104d1610548565b6001600160a01b0316146105085760405163118cdaa760e01b81526001600160a01b03821660048201526024015b60405180910390fd5b610511816108b1565b50565b5f807f9016d09d72d40fdae2fd8ceac6b6234c7706214fd39c1cd1e609a0528c1993005b546001600160a01b031692915050565b5f807f237e158222e3e6968b72b9db0d8043aacf074ad9f650f0d1606b4d82ee432c00610538565b61057861087f565b7f237e158222e3e6968b72b9db0d8043aacf074ad9f650f0d1606b4d82ee432c0080546001600160a01b0319166001600160a01b03831690811782556105bc610514565b6001600160a01b03167f38d16b8cac22d99fc7c124b9cd0de2d3fa1faef420bfe791d8c362d765e2270060405160405180910390a35050565b60605f610601836108e9565b60010190505f8167ffffffffffffffff81111561062057610620610dbc565b6040519080825280601f01601f19166020018201604052801561064a576020820181803683370190505b5090508181016020015b5f19017f3031323334353637383961626364656600000000000000000000000000000000600a86061a8153600a850494508461065457509392505050565b306001600160a01b037f000000000000000000000000000000000000000000000000000000000000000016148061072b57507f00000000000000000000000000000000000000000000000000000000000000006001600160a01b031661071f7f360894a13ba1a3210667c828492db98dca3e2076cc3735a920a3ca505d382bbc546001600160a01b031690565b6001600160a01b031614155b156104c55760405163703e46dd60e11b815260040160405180910390fd5b61051161087f565b816001600160a01b03166352d1902d6040518163ffffffff1660e01b8152600401602060405180830381865afa9250505080156107ab575060408051601f3d908101601f191682019092526107a891810190610fd5565b60015b6107d357604051634c9c8ce360e01b81526001600160a01b03831660048201526024016104ff565b7f360894a13ba1a3210667c828492db98dca3e2076cc3735a920a3ca505d382bbc811461081657604051632a87526960e21b8152600481018290526024016104ff565b61082083836109cb565b505050565b306001600160a01b037f000000000000000000000000000000000000000000000000000000000000000016146104c55760405163703e46dd60e11b815260040160405180910390fd5b610876610a20565b61051181610a6e565b33610888610514565b6001600160a01b0316146104c55760405163118cdaa760e01b81523360048201526024016104ff565b7f237e158222e3e6968b72b9db0d8043aacf074ad9f650f0d1606b4d82ee432c0080546001600160a01b031916815561038d82610a9f565b5f807a184f03e93ff9f4daa797ed6e38ed64bf6a1f0100000000000000008310610931577a184f03e93ff9f4daa797ed6e38ed64bf6a1f010000000000000000830492506040015b6d04ee2d6d415b85acef8100000000831061095d576d04ee2d6d415b85acef8100000000830492506020015b662386f26fc10000831061097b57662386f26fc10000830492506010015b6305f5e1008310610993576305f5e100830492506008015b61271083106109a757612710830492506004015b606483106109b9576064830492506002015b600a83106109c5576001015b92915050565b6109d482610b0f565b6040516001600160a01b038316907fbc7cd75a20ee27fd9adebab32041f755214dbc6bffa90cc0225b39da2e5c2d3b905f90a2805115610a18576108208282610b85565b61038d610bf7565b7ff0c57e16840df040f15088dc2f81fe391c3923bec73e23a9662efc9c229c6a005468010000000000000000900460ff166104c557604051631afcd79f60e31b815260040160405180910390fd5b610a76610a20565b6001600160a01b03811661050857604051631e4fbdf760e01b81525f60048201526024016104ff565b7f9016d09d72d40fdae2fd8ceac6b6234c7706214fd39c1cd1e609a0528c19930080546001600160a01b031981166001600160a01b03848116918217845560405192169182907f8be0079c531659141344cd1fd0a4f28419497f9722a3daafe3b4186f6b6457e0905f90a3505050565b806001600160a01b03163b5f03610b4457604051634c9c8ce360e01b81526001600160a01b03821660048201526024016104ff565b7f360894a13ba1a3210667c828492db98dca3e2076cc3735a920a3ca505d382bbc80546001600160a01b0319166001600160a01b0392909216919091179055565b60605f80846001600160a01b031684604051610ba19190610fec565b5f60405180830381855af49150503d805f8114610bd9576040519150601f19603f3d011682016040523d82523d5f602084013e610bde565b606091505b5091509150610bee858383610c16565b95945050505050565b34156104c55760405163b398979f60e01b815260040160405180910390fd5b606082610c2b57610c2682610c75565b610c6e565b8151158015610c4257506001600160a01b0384163b155b15610c6b57604051639996b31560e01b81526001600160a01b03851660048201526024016104ff565b50805b9392505050565b805115610c855780518082602001fd5b60405163d6bda27560e01b815260040160405180910390fd5b5f5b83811015610cb8578181015183820152602001610ca0565b50505f910152565b602081525f8251806020840152610cde816040850160208701610c9e565b601f01601f19169190910160400192915050565b5f805f8060608587031215610d05575f80fd5b84359350602085013567ffffffffffffffff80821115610d23575f80fd5b818701915087601f830112610d36575f80fd5b813581811115610d44575f80fd5b8860208260051b8501011115610d58575f80fd5b60209290920194509092505060408501357fffffffff0000000000000000000000000000000000000000000000000000000081168114610d96575f80fd5b939692955090935050565b80356001600160a01b0381168114610db7575f80fd5b919050565b634e487b7160e01b5f52604160045260245ffd5b5f8060408385031215610de1575f80fd5b610dea83610da1565b9150602083013567ffffffffffffffff80821115610e06575f80fd5b818501915085601f830112610e19575f80fd5b813581811115610e2b57610e2b610dbc565b604051601f8201601f19908116603f01168101908382118183101715610e5357610e53610dbc565b81604052828152886020848701011115610e6b575f80fd5b826020860160208301375f6020848301015280955050505050509250929050565b5f60208284031215610e9c575f80fd5b610c6e82610da1565b5f8551610eb6818460208a01610c9e565b61103b60f11b9083019081528551610ed5816002840160208a01610c9e565b808201915050601760f91b8060028301528551610ef9816003850160208a01610c9e565b60039201918201528351610f14816004840160208801610c9e565b016004019695505050505050565b858152608060208201528360808201525f7f07ffffffffffffffffffffffffffffffffffffffffffffffffffffffffffffff851115610f5f575f80fd5b8460051b808760a08501376001600160a01b03949094166040830152507fffffffff000000000000000000000000000000000000000000000000000000009190911660608201520160a0019392505050565b5f60018201610fce57634e487b7160e01b5f52601160045260245ffd5b5060010190565b5f60208284031215610fe5575f80fd5b5051919050565b5f8251610ffd818460208701610c9e565b919091019291505056fea164736f6c6343000818000a",
  "linkReferences": {},
  "deployedLinkReferences": {}
}