{
  "_format": "hh-sol-artifact-1",
  "contractName": "FHEVMTestSuite4",
  "sourceName": "examples/tests/FHEVMTestSuite4.sol",
  "abi": [
    {
      "inputs": [],
      "stateMutability": "nonpayable",
      "type": "constructor"
    },
    {
      "anonymous": false,
      "inputs": [
        {
          "indexed": false,
          "internalType": "bytes32",
          "name": "inputHandle",
          "type": "bytes32"
        },
        {
          "indexed": false,
          "internalType": "bytes",
          "name": "inputProof",
          "type": "bytes"
        },
        {
          "indexed": false,
          "internalType": "bytes32",
          "name": "result",
          "type": "bytes32"
        }
      ],
      "name": "DebugVerify",
      "type": "event"
    },
    {
      "inputs": [
        {
          "internalType": "externalEuint128",
          "name": "a",
          "type": "bytes32"
        },
        {
          "internalType": "externalEuint128",
          "name": "b",
          "type": "bytes32"
        },
        {
          "internalType": "bytes",
          "name": "inputProof",
          "type": "bytes"
        }
      ],
      "name": "add_euint128_euint128",
      "outputs": [],
      "stateMutability": "nonpayable",
      "type": "function"
    },
    {
      "inputs": [
        {
          "internalType": "externalEuint128",
          "name": "a",
          "type": "bytes32"
        },
        {
          "internalType": "externalEuint16",
          "name": "b",
          "type": "bytes32"
        },
        {
          "internalType": "bytes",
          "name": "inputProof",
          "type": "bytes"
        }
      ],
      "name": "add_euint128_euint16",
      "outputs": [],
      "stateMutability": "nonpayable",
      "type": "function"
    },
    {
      "inputs": [
        {
          "internalType": "externalEuint128",
          "name": "a",
          "type": "bytes32"
        },
        {
          "internalType": "externalEuint32",
          "name": "b",
          "type": "bytes32"
        },
        {
          "internalType": "bytes",
          "name": "inputProof",
          "type": "bytes"
        }
      ],
      "name": "add_euint128_euint32",
      "outputs": [],
      "stateMutability": "nonpayable",
      "type": "function"
    },
    {
      "inputs": [
        {
          "internalType": "externalEuint128",
          "name": "a",
          "type": "bytes32"
        },
        {
          "internalType": "externalEuint64",
          "name": "b",
          "type": "bytes32"
        },
        {
          "internalType": "bytes",
          "name": "inputProof",
          "type": "bytes"
        }
      ],
      "name": "add_euint128_euint64",
      "outputs": [],
      "stateMutability": "nonpayable",
      "type": "function"
    },
    {
      "inputs": [
        {
          "internalType": "externalEuint128",
          "name": "a",
          "type": "bytes32"
        },
        {
          "internalType": "externalEuint8",
          "name": "b",
          "type": "bytes32"
        },
        {
          "internalType": "bytes",
          "name": "inputProof",
          "type": "bytes"
        }
      ],
      "name": "add_euint128_euint8",
      "outputs": [],
      "stateMutability": "nonpayable",
      "type": "function"
    },
    {
      "inputs": [
        {
          "internalType": "externalEuint64",
          "name": "a",
          "type": "bytes32"
        },
        {
          "internalType": "externalEuint128",
          "name": "b",
          "type": "bytes32"
        },
        {
          "internalType": "bytes",
          "name": "inputProof",
          "type": "bytes"
        }
      ],
      "name": "add_euint64_euint128",
      "outputs": [],
      "stateMutability": "nonpayable",
      "type": "function"
    },
    {
      "inputs": [
        {
          "internalType": "externalEuint128",
          "name": "a",
          "type": "bytes32"
        },
        {
          "internalType": "externalEuint128",
          "name": "b",
          "type": "bytes32"
        },
        {
          "internalType": "bytes",
          "name": "inputProof",
          "type": "bytes"
        }
      ],
      "name": "and_euint128_euint128",
      "outputs": [],
      "stateMutability": "nonpayable",
      "type": "function"
    },
    {
      "inputs": [
        {
          "internalType": "externalEuint128",
          "name": "a",
          "type": "bytes32"
        },
        {
          "internalType": "externalEuint16",
          "name": "b",
          "type": "bytes32"
        },
        {
          "internalType": "bytes",
          "name": "inputProof",
          "type": "bytes"
        }
      ],
      "name": "and_euint128_euint16",
      "outputs": [],
      "stateMutability": "nonpayable",
      "type": "function"
    },
    {
      "inputs": [
        {
          "internalType": "externalEuint128",
          "name": "a",
          "type": "bytes32"
        },
        {
          "internalType": "externalEuint32",
          "name": "b",
          "type": "bytes32"
        },
        {
          "internalType": "bytes",
          "name": "inputProof",
          "type": "bytes"
        }
      ],
      "name": "and_euint128_euint32",
      "outputs": [],
      "stateMutability": "nonpayable",
      "type": "function"
    },
    {
      "inputs": [
        {
          "internalType": "externalEuint128",
          "name": "a",
          "type": "bytes32"
        },
        {
          "internalType": "externalEuint64",
          "name": "b",
          "type": "bytes32"
        },
        {
          "internalType": "bytes",
          "name": "inputProof",
          "type": "bytes"
        }
      ],
      "name": "and_euint128_euint64",
      "outputs": [],
      "stateMutability": "nonpayable",
      "type": "function"
    },
    {
      "inputs": [
        {
          "internalType": "externalEuint128",
          "name": "a",
          "type": "bytes32"
        },
        {
          "internalType": "externalEuint8",
          "name": "b",
          "type": "bytes32"
        },
        {
          "internalType": "bytes",
          "name": "inputProof",
          "type": "bytes"
        }
      ],
      "name": "and_euint128_euint8",
      "outputs": [],
      "stateMutability": "nonpayable",
      "type": "function"
    },
    {
      "inputs": [
        {
          "internalType": "externalEuint64",
          "name": "a",
          "type": "bytes32"
        },
        {
          "internalType": "externalEuint128",
          "name": "b",
          "type": "bytes32"
        },
        {
          "internalType": "bytes",
          "name": "inputProof",
          "type": "bytes"
        }
      ],
      "name": "and_euint64_euint128",
      "outputs": [],
      "stateMutability": "nonpayable",
      "type": "function"
    },
    {
      "inputs": [
        {
          "internalType": "externalEuint64",
          "name": "a",
          "type": "bytes32"
        },
        {
          "internalType": "externalEuint256",
          "name": "b",
          "type": "bytes32"
        },
        {
          "internalType": "bytes",
          "name": "inputProof",
          "type": "bytes"
        }
      ],
      "name": "and_euint64_euint256",
      "outputs": [],
      "stateMutability": "nonpayable",
      "type": "function"
    },
    {
      "inputs": [
        {
          "internalType": "externalEuint64",
          "name": "a",
          "type": "bytes32"
        },
        {
          "internalType": "externalEuint64",
          "name": "b",
          "type": "bytes32"
        },
        {
          "internalType": "bytes",
          "name": "inputProof",
          "type": "bytes"
        }
      ],
      "name": "and_euint64_euint64",
      "outputs": [],
      "stateMutability": "nonpayable",
      "type": "function"
    },
    {
      "inputs": [
        {
          "internalType": "externalEuint128",
          "name": "a",
          "type": "bytes32"
        },
        {
          "internalType": "externalEuint16",
          "name": "b",
          "type": "bytes32"
        },
        {
          "internalType": "bytes",
          "name": "inputProof",
          "type": "bytes"
        }
      ],
      "name": "eq_euint128_euint16",
      "outputs": [],
      "stateMutability": "nonpayable",
      "type": "function"
    },
    {
      "inputs": [
        {
          "internalType": "externalEuint128",
          "name": "a",
          "type": "bytes32"
        },
        {
          "internalType": "externalEuint32",
          "name": "b",
          "type": "bytes32"
        },
        {
          "internalType": "bytes",
          "name": "inputProof",
          "type": "bytes"
        }
      ],
      "name": "eq_euint128_euint32",
      "outputs": [],
      "stateMutability": "nonpayable",
      "type": "function"
    },
    {
      "inputs": [
        {
          "internalType": "externalEuint128",
          "name": "a",
          "type": "bytes32"
        },
        {
          "internalType": "externalEuint64",
          "name": "b",
          "type": "bytes32"
        },
        {
          "internalType": "bytes",
          "name": "inputProof",
          "type": "bytes"
        }
      ],
      "name": "eq_euint128_euint64",
      "outputs": [],
      "stateMutability": "nonpayable",
      "type": "function"
    },
    {
      "inputs": [
        {
          "internalType": "externalEuint128",
          "name": "a",
          "type": "bytes32"
        },
        {
          "internalType": "externalEuint8",
          "name": "b",
          "type": "bytes32"
        },
        {
          "internalType": "bytes",
          "name": "inputProof",
          "type": "bytes"
        }
      ],
      "name": "eq_euint128_euint8",
      "outputs": [],
      "stateMutability": "nonpayable",
      "type": "function"
    },
    {
      "inputs": [
        {
          "internalType": "externalEuint64",
          "name": "a",
          "type": "bytes32"
        },
        {
          "internalType": "externalEuint128",
          "name": "b",
          "type": "bytes32"
        },
        {
          "internalType": "bytes",
          "name": "inputProof",
          "type": "bytes"
        }
      ],
      "name": "eq_euint64_euint128",
      "outputs": [],
      "stateMutability": "nonpayable",
      "type": "function"
    },
    {
      "inputs": [
        {
          "internalType": "externalEuint64",
          "name": "a",
          "type": "bytes32"
        },
        {
          "internalType": "externalEuint256",
          "name": "b",
          "type": "bytes32"
        },
        {
          "internalType": "bytes",
          "name": "inputProof",
          "type": "bytes"
        }
      ],
      "name": "eq_euint64_euint256",
      "outputs": [],
      "stateMutability": "nonpayable",
      "type": "function"
    },
    {
      "inputs": [
        {
          "internalType": "externalEuint64",
          "name": "a",
          "type": "bytes32"
        },
        {
          "internalType": "externalEuint64",
          "name": "b",
          "type": "bytes32"
        },
        {
          "internalType": "bytes",
          "name": "inputProof",
          "type": "bytes"
        }
      ],
      "name": "eq_euint64_euint64",
      "outputs": [],
      "stateMutability": "nonpayable",
      "type": "function"
    },
    {
      "inputs": [
        {
          "internalType": "externalEuint128",
          "name": "a",
          "type": "bytes32"
        },
        {
          "internalType": "externalEuint16",
          "name": "b",
          "type": "bytes32"
        },
        {
          "internalType": "bytes",
          "name": "inputProof",
          "type": "bytes"
        }
      ],
      "name": "ge_euint128_euint16",
      "outputs": [],
      "stateMutability": "nonpayable",
      "type": "function"
    },
    {
      "inputs": [
        {
          "internalType": "externalEuint128",
          "name": "a",
          "type": "bytes32"
        },
        {
          "internalType": "externalEuint32",
          "name": "b",
          "type": "bytes32"
        },
        {
          "internalType": "bytes",
          "name": "inputProof",
          "type": "bytes"
        }
      ],
      "name": "ge_euint128_euint32",
      "outputs": [],
      "stateMutability": "nonpayable",
      "type": "function"
    },
    {
      "inputs": [
        {
          "internalType": "externalEuint128",
          "name": "a",
          "type": "bytes32"
        },
        {
          "internalType": "externalEuint64",
          "name": "b",
          "type": "bytes32"
        },
        {
          "internalType": "bytes",
          "name": "inputProof",
          "type": "bytes"
        }
      ],
      "name": "ge_euint128_euint64",
      "outputs": [],
      "stateMutability": "nonpayable",
      "type": "function"
    },
    {
      "inputs": [
        {
          "internalType": "externalEuint128",
          "name": "a",
          "type": "bytes32"
        },
        {
          "internalType": "externalEuint8",
          "name": "b",
          "type": "bytes32"
        },
        {
          "internalType": "bytes",
          "name": "inputProof",
          "type": "bytes"
        }
      ],
      "name": "ge_euint128_euint8",
      "outputs": [],
      "stateMutability": "nonpayable",
      "type": "function"
    },
    {
      "inputs": [
        {
          "internalType": "externalEuint64",
          "name": "a",
          "type": "bytes32"
        },
        {
          "internalType": "externalEuint128",
          "name": "b",
          "type": "bytes32"
        },
        {
          "internalType": "bytes",
          "name": "inputProof",
          "type": "bytes"
        }
      ],
      "name": "ge_euint64_euint128",
      "outputs": [],
      "stateMutability": "nonpayable",
      "type": "function"
    },
    {
      "inputs": [
        {
          "internalType": "externalEuint64",
          "name": "a",
          "type": "bytes32"
        },
        {
          "internalType": "externalEuint64",
          "name": "b",
          "type": "bytes32"
        },
        {
          "internalType": "bytes",
          "name": "inputProof",
          "type": "bytes"
        }
      ],
      "name": "ge_euint64_euint64",
      "outputs": [],
      "stateMutability": "nonpayable",
      "type": "function"
    },
    {
      "inputs": [
        {
          "internalType": "externalEuint128",
          "name": "a",
          "type": "bytes32"
        },
        {
          "internalType": "externalEuint16",
          "name": "b",
          "type": "bytes32"
        },
        {
          "internalType": "bytes",
          "name": "inputProof",
          "type": "bytes"
        }
      ],
      "name": "gt_euint128_euint16",
      "outputs": [],
      "stateMutability": "nonpayable",
      "type": "function"
    },
    {
      "inputs": [
        {
          "internalType": "externalEuint128",
          "name": "a",
          "type": "bytes32"
        },
        {
          "internalType": "externalEuint32",
          "name": "b",
          "type": "bytes32"
        },
        {
          "internalType": "bytes",
          "name": "inputProof",
          "type": "bytes"
        }
      ],
      "name": "gt_euint128_euint32",
      "outputs": [],
      "stateMutability": "nonpayable",
      "type": "function"
    },
    {
      "inputs": [
        {
          "internalType": "externalEuint128",
          "name": "a",
          "type": "bytes32"
        },
        {
          "internalType": "externalEuint64",
          "name": "b",
          "type": "bytes32"
        },
        {
          "internalType": "bytes",
          "name": "inputProof",
          "type": "bytes"
        }
      ],
      "name": "gt_euint128_euint64",
      "outputs": [],
      "stateMutability": "nonpayable",
      "type": "function"
    },
    {
      "inputs": [
        {
          "internalType": "externalEuint128",
          "name": "a",
          "type": "bytes32"
        },
        {
          "internalType": "externalEuint8",
          "name": "b",
          "type": "bytes32"
        },
        {
          "internalType": "bytes",
          "name": "inputProof",
          "type": "bytes"
        }
      ],
      "name": "gt_euint128_euint8",
      "outputs": [],
      "stateMutability": "nonpayable",
      "type": "function"
    },
    {
      "inputs": [
        {
          "internalType": "externalEuint64",
          "name": "a",
          "type": "bytes32"
        },
        {
          "internalType": "externalEuint128",
          "name": "b",
          "type": "bytes32"
        },
        {
          "internalType": "bytes",
          "name": "inputProof",
          "type": "bytes"
        }
      ],
      "name": "gt_euint64_euint128",
      "outputs": [],
      "stateMutability": "nonpayable",
      "type": "function"
    },
    {
      "inputs": [
        {
          "internalType": "externalEuint64",
          "name": "a",
          "type": "bytes32"
        },
        {
          "internalType": "externalEuint64",
          "name": "b",
          "type": "bytes32"
        },
        {
          "internalType": "bytes",
          "name": "inputProof",
          "type": "bytes"
        }
      ],
      "name": "gt_euint64_euint64",
      "outputs": [],
      "stateMutability": "nonpayable",
      "type": "function"
    },
    {
      "inputs": [
        {
          "internalType": "externalEuint128",
          "name": "a",
          "type": "bytes32"
        },
        {
          "internalType": "externalEuint16",
          "name": "b",
          "type": "bytes32"
        },
        {
          "internalType": "bytes",
          "name": "inputProof",
          "type": "bytes"
        }
      ],
      "name": "le_euint128_euint16",
      "outputs": [],
      "stateMutability": "nonpayable",
      "type": "function"
    },
    {
      "inputs": [
        {
          "internalType": "externalEuint128",
          "name": "a",
          "type": "bytes32"
        },
        {
          "internalType": "externalEuint32",
          "name": "b",
          "type": "bytes32"
        },
        {
          "internalType": "bytes",
          "name": "inputProof",
          "type": "bytes"
        }
      ],
      "name": "le_euint128_euint32",
      "outputs": [],
      "stateMutability": "nonpayable",
      "type": "function"
    },
    {
      "inputs": [
        {
          "internalType": "externalEuint128",
          "name": "a",
          "type": "bytes32"
        },
        {
          "internalType": "externalEuint64",
          "name": "b",
          "type": "bytes32"
        },
        {
          "internalType": "bytes",
          "name": "inputProof",
          "type": "bytes"
        }
      ],
      "name": "le_euint128_euint64",
      "outputs": [],
      "stateMutability": "nonpayable",
      "type": "function"
    },
    {
      "inputs": [
        {
          "internalType": "externalEuint128",
          "name": "a",
          "type": "bytes32"
        },
        {
          "internalType": "externalEuint8",
          "name": "b",
          "type": "bytes32"
        },
        {
          "internalType": "bytes",
          "name": "inputProof",
          "type": "bytes"
        }
      ],
      "name": "le_euint128_euint8",
      "outputs": [],
      "stateMutability": "nonpayable",
      "type": "function"
    },
    {
      "inputs": [
        {
          "internalType": "externalEuint64",
          "name": "a",
          "type": "bytes32"
        },
        {
          "internalType": "externalEuint128",
          "name": "b",
          "type": "bytes32"
        },
        {
          "internalType": "bytes",
          "name": "inputProof",
          "type": "bytes"
        }
      ],
      "name": "le_euint64_euint128",
      "outputs": [],
      "stateMutability": "nonpayable",
      "type": "function"
    },
    {
      "inputs": [
        {
          "internalType": "externalEuint64",
          "name": "a",
          "type": "bytes32"
        },
        {
          "internalType": "externalEuint64",
          "name": "b",
          "type": "bytes32"
        },
        {
          "internalType": "bytes",
          "name": "inputProof",
          "type": "bytes"
        }
      ],
      "name": "le_euint64_euint64",
      "outputs": [],
      "stateMutability": "nonpayable",
      "type": "function"
    },
    {
      "inputs": [
        {
          "internalType": "externalEuint128",
          "name": "a",
          "type": "bytes32"
        },
        {
          "internalType": "externalEuint16",
          "name": "b",
          "type": "bytes32"
        },
        {
          "internalType": "bytes",
          "name": "inputProof",
          "type": "bytes"
        }
      ],
      "name": "lt_euint128_euint16",
      "outputs": [],
      "stateMutability": "nonpayable",
      "type": "function"
    },
    {
      "inputs": [
        {
          "internalType": "externalEuint128",
          "name": "a",
          "type": "bytes32"
        },
        {
          "internalType": "externalEuint32",
          "name": "b",
          "type": "bytes32"
        },
        {
          "internalType": "bytes",
          "name": "inputProof",
          "type": "bytes"
        }
      ],
      "name": "lt_euint128_euint32",
      "outputs": [],
      "stateMutability": "nonpayable",
      "type": "function"
    },
    {
      "inputs": [
        {
          "internalType": "externalEuint128",
          "name": "a",
          "type": "bytes32"
        },
        {
          "internalType": "externalEuint64",
          "name": "b",
          "type": "bytes32"
        },
        {
          "internalType": "bytes",
          "name": "inputProof",
          "type": "bytes"
        }
      ],
      "name": "lt_euint128_euint64",
      "outputs": [],
      "stateMutability": "nonpayable",
      "type": "function"
    },
    {
      "inputs": [
        {
          "internalType": "externalEuint128",
          "name": "a",
          "type": "bytes32"
        },
        {
          "internalType": "externalEuint8",
          "name": "b",
          "type": "bytes32"
        },
        {
          "internalType": "bytes",
          "name": "inputProof",
          "type": "bytes"
        }
      ],
      "name": "lt_euint128_euint8",
      "outputs": [],
      "stateMutability": "nonpayable",
      "type": "function"
    },
    {
      "inputs": [
        {
          "internalType": "externalEuint64",
          "name": "a",
          "type": "bytes32"
        },
        {
          "internalType": "externalEuint128",
          "name": "b",
          "type": "bytes32"
        },
        {
          "internalType": "bytes",
          "name": "inputProof",
          "type": "bytes"
        }
      ],
      "name": "lt_euint64_euint128",
      "outputs": [],
      "stateMutability": "nonpayable",
      "type": "function"
    },
    {
      "inputs": [
        {
          "internalType": "externalEuint64",
          "name": "a",
          "type": "bytes32"
        },
        {
          "internalType": "externalEuint64",
          "name": "b",
          "type": "bytes32"
        },
        {
          "internalType": "bytes",
          "name": "inputProof",
          "type": "bytes"
        }
      ],
      "name": "lt_euint64_euint64",
      "outputs": [],
      "stateMutability": "nonpayable",
      "type": "function"
    },
    {
      "inputs": [
        {
          "internalType": "externalEuint128",
          "name": "a",
          "type": "bytes32"
        },
        {
          "internalType": "externalEuint16",
          "name": "b",
          "type": "bytes32"
        },
        {
          "internalType": "bytes",
          "name": "inputProof",
          "type": "bytes"
        }
      ],
      "name": "max_euint128_euint16",
      "outputs": [],
      "stateMutability": "nonpayable",
      "type": "function"
    },
    {
      "inputs": [
        {
          "internalType": "externalEuint128",
          "name": "a",
          "type": "bytes32"
        },
        {
          "internalType": "externalEuint32",
          "name": "b",
          "type": "bytes32"
        },
        {
          "internalType": "bytes",
          "name": "inputProof",
          "type": "bytes"
        }
      ],
      "name": "max_euint128_euint32",
      "outputs": [],
      "stateMutability": "nonpayable",
      "type": "function"
    },
    {
      "inputs": [
        {
          "internalType": "externalEuint128",
          "name": "a",
          "type": "bytes32"
        },
        {
          "internalType": "externalEuint64",
          "name": "b",
          "type": "bytes32"
        },
        {
          "internalType": "bytes",
          "name": "inputProof",
          "type": "bytes"
        }
      ],
      "name": "max_euint128_euint64",
      "outputs": [],
      "stateMutability": "nonpayable",
      "type": "function"
    },
    {
      "inputs": [
        {
          "internalType": "externalEuint128",
          "name": "a",
          "type": "bytes32"
        },
        {
          "internalType": "externalEuint8",
          "name": "b",
          "type": "bytes32"
        },
        {
          "internalType": "bytes",
          "name": "inputProof",
          "type": "bytes"
        }
      ],
      "name": "max_euint128_euint8",
      "outputs": [],
      "stateMutability": "nonpayable",
      "type": "function"
    },
    {
      "inputs": [
        {
          "internalType": "externalEuint64",
          "name": "a",
          "type": "bytes32"
        },
        {
          "internalType": "externalEuint128",
          "name": "b",
          "type": "bytes32"
        },
        {
          "internalType": "bytes",
          "name": "inputProof",
          "type": "bytes"
        }
      ],
      "name": "max_euint64_euint128",
      "outputs": [],
      "stateMutability": "nonpayable",
      "type": "function"
    },
    {
      "inputs": [
        {
          "internalType": "externalEuint64",
          "name": "a",
          "type": "bytes32"
        },
        {
          "internalType": "externalEuint64",
          "name": "b",
          "type": "bytes32"
        },
        {
          "internalType": "bytes",
          "name": "inputProof",
          "type": "bytes"
        }
      ],
      "name": "max_euint64_euint64",
      "outputs": [],
      "stateMutability": "nonpayable",
      "type": "function"
    },
    {
      "inputs": [
        {
          "internalType": "externalEuint128",
          "name": "a",
          "type": "bytes32"
        },
        {
          "internalType": "externalEuint16",
          "name": "b",
          "type": "bytes32"
        },
        {
          "internalType": "bytes",
          "name": "inputProof",
          "type": "bytes"
        }
      ],
      "name": "min_euint128_euint16",
      "outputs": [],
      "stateMutability": "nonpayable",
      "type": "function"
    },
    {
      "inputs": [
        {
          "internalType": "externalEuint128",
          "name": "a",
          "type": "bytes32"
        },
        {
          "internalType": "externalEuint32",
          "name": "b",
          "type": "bytes32"
        },
        {
          "internalType": "bytes",
          "name": "inputProof",
          "type": "bytes"
        }
      ],
      "name": "min_euint128_euint32",
      "outputs": [],
      "stateMutability": "nonpayable",
      "type": "function"
    },
    {
      "inputs": [
        {
          "internalType": "externalEuint128",
          "name": "a",
          "type": "bytes32"
        },
        {
          "internalType": "externalEuint64",
          "name": "b",
          "type": "bytes32"
        },
        {
          "internalType": "bytes",
          "name": "inputProof",
          "type": "bytes"
        }
      ],
      "name": "min_euint128_euint64",
      "outputs": [],
      "stateMutability": "nonpayable",
      "type": "function"
    },
    {
      "inputs": [
        {
          "internalType": "externalEuint128",
          "name": "a",
          "type": "bytes32"
        },
        {
          "internalType": "externalEuint8",
          "name": "b",
          "type": "bytes32"
        },
        {
          "internalType": "bytes",
          "name": "inputProof",
          "type": "bytes"
        }
      ],
      "name": "min_euint128_euint8",
      "outputs": [],
      "stateMutability": "nonpayable",
      "type": "function"
    },
    {
      "inputs": [
        {
          "internalType": "externalEuint64",
          "name": "a",
          "type": "bytes32"
        },
        {
          "internalType": "externalEuint128",
          "name": "b",
          "type": "bytes32"
        },
        {
          "internalType": "bytes",
          "name": "inputProof",
          "type": "bytes"
        }
      ],
      "name": "min_euint64_euint128",
      "outputs": [],
      "stateMutability": "nonpayable",
      "type": "function"
    },
    {
      "inputs": [
        {
          "internalType": "externalEuint64",
          "name": "a",
          "type": "bytes32"
        },
        {
          "internalType": "externalEuint64",
          "name": "b",
          "type": "bytes32"
        },
        {
          "internalType": "bytes",
          "name": "inputProof",
          "type": "bytes"
        }
      ],
      "name": "min_euint64_euint64",
      "outputs": [],
      "stateMutability": "nonpayable",
      "type": "function"
    },
    {
      "inputs": [
        {
          "internalType": "externalEuint128",
          "name": "a",
          "type": "bytes32"
        },
        {
          "internalType": "externalEuint128",
          "name": "b",
          "type": "bytes32"
        },
        {
          "internalType": "bytes",
          "name": "inputProof",
          "type": "bytes"
        }
      ],
      "name": "mul_euint128_euint128",
      "outputs": [],
      "stateMutability": "nonpayable",
      "type": "function"
    },
    {
      "inputs": [
        {
          "internalType": "externalEuint128",
          "name": "a",
          "type": "bytes32"
        },
        {
          "internalType": "externalEuint16",
          "name": "b",
          "type": "bytes32"
        },
        {
          "internalType": "bytes",
          "name": "inputProof",
          "type": "bytes"
        }
      ],
      "name": "mul_euint128_euint16",
      "outputs": [],
      "stateMutability": "nonpayable",
      "type": "function"
    },
    {
      "inputs": [
        {
          "internalType": "externalEuint128",
          "name": "a",
          "type": "bytes32"
        },
        {
          "internalType": "externalEuint32",
          "name": "b",
          "type": "bytes32"
        },
        {
          "internalType": "bytes",
          "name": "inputProof",
          "type": "bytes"
        }
      ],
      "name": "mul_euint128_euint32",
      "outputs": [],
      "stateMutability": "nonpayable",
      "type": "function"
    },
    {
      "inputs": [
        {
          "internalType": "externalEuint128",
          "name": "a",
          "type": "bytes32"
        },
        {
          "internalType": "externalEuint64",
          "name": "b",
          "type": "bytes32"
        },
        {
          "internalType": "bytes",
          "name": "inputProof",
          "type": "bytes"
        }
      ],
      "name": "mul_euint128_euint64",
      "outputs": [],
      "stateMutability": "nonpayable",
      "type": "function"
    },
    {
      "inputs": [
        {
          "internalType": "externalEuint128",
          "name": "a",
          "type": "bytes32"
        },
        {
          "internalType": "externalEuint8",
          "name": "b",
          "type": "bytes32"
        },
        {
          "internalType": "bytes",
          "name": "inputProof",
          "type": "bytes"
        }
      ],
      "name": "mul_euint128_euint8",
      "outputs": [],
      "stateMutability": "nonpayable",
      "type": "function"
    },
    {
      "inputs": [
        {
          "internalType": "externalEuint64",
          "name": "a",
          "type": "bytes32"
        },
        {
          "internalType": "externalEuint128",
          "name": "b",
          "type": "bytes32"
        },
        {
          "internalType": "bytes",
          "name": "inputProof",
          "type": "bytes"
        }
      ],
      "name": "mul_euint64_euint128",
      "outputs": [],
      "stateMutability": "nonpayable",
      "type": "function"
    },
    {
      "inputs": [
        {
          "internalType": "externalEuint128",
          "name": "a",
          "type": "bytes32"
        },
        {
          "internalType": "externalEuint16",
          "name": "b",
          "type": "bytes32"
        },
        {
          "internalType": "bytes",
          "name": "inputProof",
          "type": "bytes"
        }
      ],
      "name": "ne_euint128_euint16",
      "outputs": [],
      "stateMutability": "nonpayable",
      "type": "function"
    },
    {
      "inputs": [
        {
          "internalType": "externalEuint128",
          "name": "a",
          "type": "bytes32"
        },
        {
          "internalType": "externalEuint32",
          "name": "b",
          "type": "bytes32"
        },
        {
          "internalType": "bytes",
          "name": "inputProof",
          "type": "bytes"
        }
      ],
      "name": "ne_euint128_euint32",
      "outputs": [],
      "stateMutability": "nonpayable",
      "type": "function"
    },
    {
      "inputs": [
        {
          "internalType": "externalEuint128",
          "name": "a",
          "type": "bytes32"
        },
        {
          "internalType": "externalEuint64",
          "name": "b",
          "type": "bytes32"
        },
        {
          "internalType": "bytes",
          "name": "inputProof",
          "type": "bytes"
        }
      ],
      "name": "ne_euint128_euint64",
      "outputs": [],
      "stateMutability": "nonpayable",
      "type": "function"
    },
    {
      "inputs": [
        {
          "internalType": "externalEuint128",
          "name": "a",
          "type": "bytes32"
        },
        {
          "internalType": "externalEuint8",
          "name": "b",
          "type": "bytes32"
        },
        {
          "internalType": "bytes",
          "name": "inputProof",
          "type": "bytes"
        }
      ],
      "name": "ne_euint128_euint8",
      "outputs": [],
      "stateMutability": "nonpayable",
      "type": "function"
    },
    {
      "inputs": [
        {
          "internalType": "externalEuint64",
          "name": "a",
          "type": "bytes32"
        },
        {
          "internalType": "externalEuint128",
          "name": "b",
          "type": "bytes32"
        },
        {
          "internalType": "bytes",
          "name": "inputProof",
          "type": "bytes"
        }
      ],
      "name": "ne_euint64_euint128",
      "outputs": [],
      "stateMutability": "nonpayable",
      "type": "function"
    },
    {
      "inputs": [
        {
          "internalType": "externalEuint64",
          "name": "a",
          "type": "bytes32"
        },
        {
          "internalType": "externalEuint256",
          "name": "b",
          "type": "bytes32"
        },
        {
          "internalType": "bytes",
          "name": "inputProof",
          "type": "bytes"
        }
      ],
      "name": "ne_euint64_euint256",
      "outputs": [],
      "stateMutability": "nonpayable",
      "type": "function"
    },
    {
      "inputs": [
        {
          "internalType": "externalEuint64",
          "name": "a",
          "type": "bytes32"
        },
        {
          "internalType": "externalEuint64",
          "name": "b",
          "type": "bytes32"
        },
        {
          "internalType": "bytes",
          "name": "inputProof",
          "type": "bytes"
        }
      ],
      "name": "ne_euint64_euint64",
      "outputs": [],
      "stateMutability": "nonpayable",
      "type": "function"
    },
    {
      "inputs": [
        {
          "internalType": "externalEuint128",
          "name": "a",
          "type": "bytes32"
        },
        {
          "internalType": "externalEuint16",
          "name": "b",
          "type": "bytes32"
        },
        {
          "internalType": "bytes",
          "name": "inputProof",
          "type": "bytes"
        }
      ],
      "name": "or_euint128_euint16",
      "outputs": [],
      "stateMutability": "nonpayable",
      "type": "function"
    },
    {
      "inputs": [
        {
          "internalType": "externalEuint128",
          "name": "a",
          "type": "bytes32"
        },
        {
          "internalType": "externalEuint32",
          "name": "b",
          "type": "bytes32"
        },
        {
          "internalType": "bytes",
          "name": "inputProof",
          "type": "bytes"
        }
      ],
      "name": "or_euint128_euint32",
      "outputs": [],
      "stateMutability": "nonpayable",
      "type": "function"
    },
    {
      "inputs": [
        {
          "internalType": "externalEuint128",
          "name": "a",
          "type": "bytes32"
        },
        {
          "internalType": "externalEuint64",
          "name": "b",
          "type": "bytes32"
        },
        {
          "internalType": "bytes",
          "name": "inputProof",
          "type": "bytes"
        }
      ],
      "name": "or_euint128_euint64",
      "outputs": [],
      "stateMutability": "nonpayable",
      "type": "function"
    },
    {
      "inputs": [
        {
          "internalType": "externalEuint128",
          "name": "a",
          "type": "bytes32"
        },
        {
          "internalType": "externalEuint8",
          "name": "b",
          "type": "bytes32"
        },
        {
          "internalType": "bytes",
          "name": "inputProof",
          "type": "bytes"
        }
      ],
      "name": "or_euint128_euint8",
      "outputs": [],
      "stateMutability": "nonpayable",
      "type": "function"
    },
    {
      "inputs": [
        {
          "internalType": "externalEuint64",
          "name": "a",
          "type": "bytes32"
        },
        {
          "internalType": "externalEuint128",
          "name": "b",
          "type": "bytes32"
        },
        {
          "internalType": "bytes",
          "name": "inputProof",
          "type": "bytes"
        }
      ],
      "name": "or_euint64_euint128",
      "outputs": [],
      "stateMutability": "nonpayable",
      "type": "function"
    },
    {
      "inputs": [
        {
          "internalType": "externalEuint64",
          "name": "a",
          "type": "bytes32"
        },
        {
          "internalType": "externalEuint256",
          "name": "b",
          "type": "bytes32"
        },
        {
          "internalType": "bytes",
          "name": "inputProof",
          "type": "bytes"
        }
      ],
      "name": "or_euint64_euint256",
      "outputs": [],
      "stateMutability": "nonpayable",
      "type": "function"
    },
    {
      "inputs": [
        {
          "internalType": "externalEuint64",
          "name": "a",
          "type": "bytes32"
        },
        {
          "internalType": "externalEuint64",
          "name": "b",
          "type": "bytes32"
        },
        {
          "internalType": "bytes",
          "name": "inputProof",
          "type": "bytes"
        }
      ],
      "name": "or_euint64_euint64",
      "outputs": [],
      "stateMutability": "nonpayable",
      "type": "function"
    },
    {
      "inputs": [],
      "name": "resEbool",
      "outputs": [
        {
          "internalType": "ebool",
          "name": "",
          "type": "bytes32"
        }
      ],
      "stateMutability": "view",
      "type": "function"
    },
    {
      "inputs": [],
      "name": "resEuint128",
      "outputs": [
        {
          "internalType": "euint128",
          "name": "",
          "type": "bytes32"
        }
      ],
      "stateMutability": "view",
      "type": "function"
    },
    {
      "inputs": [],
      "name": "resEuint16",
      "outputs": [
        {
          "internalType": "euint16",
          "name": "",
          "type": "bytes32"
        }
      ],
      "stateMutability": "view",
      "type": "function"
    },
    {
      "inputs": [],
      "name": "resEuint256",
      "outputs": [
        {
          "internalType": "euint256",
          "name": "",
          "type": "bytes32"
        }
      ],
      "stateMutability": "view",
      "type": "function"
    },
    {
      "inputs": [],
      "name": "resEuint32",
      "outputs": [
        {
          "internalType": "euint32",
          "name": "",
          "type": "bytes32"
        }
      ],
      "stateMutability": "view",
      "type": "function"
    },
    {
      "inputs": [],
      "name": "resEuint64",
      "outputs": [
        {
          "internalType": "euint64",
          "name": "",
          "type": "bytes32"
        }
      ],
      "stateMutability": "view",
      "type": "function"
    },
    {
      "inputs": [],
      "name": "resEuint8",
      "outputs": [
        {
          "internalType": "euint8",
          "name": "",
          "type": "bytes32"
        }
      ],
      "stateMutability": "view",
      "type": "function"
    },
    {
      "inputs": [
        {
          "internalType": "externalEuint128",
          "name": "a",
          "type": "bytes32"
        },
        {
          "internalType": "externalEuint128",
          "name": "b",
          "type": "bytes32"
        },
        {
          "internalType": "bytes",
          "name": "inputProof",
          "type": "bytes"
        }
      ],
      "name": "sub_euint128_euint128",
      "outputs": [],
      "stateMutability": "nonpayable",
      "type": "function"
    },
    {
      "inputs": [
        {
          "internalType": "externalEuint128",
          "name": "a",
          "type": "bytes32"
        },
        {
          "internalType": "externalEuint16",
          "name": "b",
          "type": "bytes32"
        },
        {
          "internalType": "bytes",
          "name": "inputProof",
          "type": "bytes"
        }
      ],
      "name": "sub_euint128_euint16",
      "outputs": [],
      "stateMutability": "nonpayable",
      "type": "function"
    },
    {
      "inputs": [
        {
          "internalType": "externalEuint128",
          "name": "a",
          "type": "bytes32"
        },
        {
          "internalType": "externalEuint32",
          "name": "b",
          "type": "bytes32"
        },
        {
          "internalType": "bytes",
          "name": "inputProof",
          "type": "bytes"
        }
      ],
      "name": "sub_euint128_euint32",
      "outputs": [],
      "stateMutability": "nonpayable",
      "type": "function"
    },
    {
      "inputs": [
        {
          "internalType": "externalEuint128",
          "name": "a",
          "type": "bytes32"
        },
        {
          "internalType": "externalEuint64",
          "name": "b",
          "type": "bytes32"
        },
        {
          "internalType": "bytes",
          "name": "inputProof",
          "type": "bytes"
        }
      ],
      "name": "sub_euint128_euint64",
      "outputs": [],
      "stateMutability": "nonpayable",
      "type": "function"
    },
    {
      "inputs": [
        {
          "internalType": "externalEuint128",
          "name": "a",
          "type": "bytes32"
        },
        {
          "internalType": "externalEuint8",
          "name": "b",
          "type": "bytes32"
        },
        {
          "internalType": "bytes",
          "name": "inputProof",
          "type": "bytes"
        }
      ],
      "name": "sub_euint128_euint8",
      "outputs": [],
      "stateMutability": "nonpayable",
      "type": "function"
    },
    {
      "inputs": [
        {
          "internalType": "externalEuint64",
          "name": "a",
          "type": "bytes32"
        },
        {
          "internalType": "externalEuint128",
          "name": "b",
          "type": "bytes32"
        },
        {
          "internalType": "bytes",
          "name": "inputProof",
          "type": "bytes"
        }
      ],
      "name": "sub_euint64_euint128",
      "outputs": [],
      "stateMutability": "nonpayable",
      "type": "function"
    },
    {
      "inputs": [
        {
          "internalType": "externalEuint128",
          "name": "a",
          "type": "bytes32"
        },
        {
          "internalType": "externalEuint16",
          "name": "b",
          "type": "bytes32"
        },
        {
          "internalType": "bytes",
          "name": "inputProof",
          "type": "bytes"
        }
      ],
      "name": "xor_euint128_euint16",
      "outputs": [],
      "stateMutability": "nonpayable",
      "type": "function"
    },
    {
      "inputs": [
        {
          "internalType": "externalEuint128",
          "name": "a",
          "type": "bytes32"
        },
        {
          "internalType": "externalEuint32",
          "name": "b",
          "type": "bytes32"
        },
        {
          "internalType": "bytes",
          "name": "inputProof",
          "type": "bytes"
        }
      ],
      "name": "xor_euint128_euint32",
      "outputs": [],
      "stateMutability": "nonpayable",
      "type": "function"
    },
    {
      "inputs": [
        {
          "internalType": "externalEuint128",
          "name": "a",
          "type": "bytes32"
        },
        {
          "internalType": "externalEuint64",
          "name": "b",
          "type": "bytes32"
        },
        {
          "internalType": "bytes",
          "name": "inputProof",
          "type": "bytes"
        }
      ],
      "name": "xor_euint128_euint64",
      "outputs": [],
      "stateMutability": "nonpayable",
      "type": "function"
    },
    {
      "inputs": [
        {
          "internalType": "externalEuint128",
          "name": "a",
          "type": "bytes32"
        },
        {
          "internalType": "externalEuint8",
          "name": "b",
          "type": "bytes32"
        },
        {
          "internalType": "bytes",
          "name": "inputProof",
          "type": "bytes"
        }
      ],
      "name": "xor_euint128_euint8",
      "outputs": [],
      "stateMutability": "nonpayable",
      "type": "function"
    },
    {
      "inputs": [
        {
          "internalType": "externalEuint64",
          "name": "a",
          "type": "bytes32"
        },
        {
          "internalType": "externalEuint128",
          "name": "b",
          "type": "bytes32"
        },
        {
          "internalType": "bytes",
          "name": "inputProof",
          "type": "bytes"
        }
      ],
      "name": "xor_euint64_euint128",
      "outputs": [],
      "stateMutability": "nonpayable",
      "type": "function"
    },
    {
      "inputs": [
        {
          "internalType": "externalEuint64",
          "name": "a",
          "type": "bytes32"
        },
        {
          "internalType": "externalEuint256",
          "name": "b",
          "type": "bytes32"
        },
        {
          "internalType": "bytes",
          "name": "inputProof",
          "type": "bytes"
        }
      ],
      "name": "xor_euint64_euint256",
      "outputs": [],
      "stateMutability": "nonpayable",
      "type": "function"
    },
    {
      "inputs": [
        {
          "internalType": "externalEuint64",
          "name": "a",
          "type": "bytes32"
        },
        {
          "internalType": "externalEuint64",
          "name": "b",
          "type": "bytes32"
        },
        {
          "internalType": "bytes",
          "name": "inputProof",
          "type": "bytes"
        }
      ],
      "name": "xor_euint64_euint64",
      "outputs": [],
      "stateMutability": "nonpayable",
      "type": "function"
    }
  ],
  "bytecode": "0x608060405234801562000010575f80fd5b506200018d620000b1604080516080810182525f8082526020820181905291810182905260608101919091525060408051608081018252738b867b46793a978847e1254781579867fb129a13815273c5092f6c1f30c8970dc835f0f754057f79b89cc66020820152730ca0dc8810361829363ab17196a747fa1387d2029181019190915273482af59820c30d13c9b06adc75c741912e599d29606082015290565b80517fed8d60e34876f751cc8b014c560745351147d9de11b9347c854e881b128ea60080546001600160a01b03199081166001600160a01b039384161790915560208301517fed8d60e34876f751cc8b014c560745351147d9de11b9347c854e881b128ea6018054831691841691909117905560408301517fed8d60e34876f751cc8b014c560745351147d9de11b9347c854e881b128ea6028054831691841691909117905560608301517fed8d60e34876f751cc8b014c560745351147d9de11b9347c854e881b128ea6038054909216921691909117905550565b614c51806200019b5f395ff3fe608060405234801561000f575f80fd5b506004361061061a575f3560e01c80637b9496ee11610328578063c6628342116101b3578063eb04c2da116100fe578063f6d7cd04116100a9578063f9af11b011610084578063f9af11b014610cd2578063fae0015d14610ce5578063fcdae95614610cf8578063ff907ccc14610d0b575f80fd5b8063f6d7cd0414610c99578063f7c70b7014610cac578063f80ef16f14610cbf575f80fd5b8063f266d3a8116100d9578063f266d3a814610c60578063f5d85e0f14610c73578063f6cd9ca014610c86575f80fd5b8063eb04c2da14610c31578063ec154c3814610c3a578063eee6fb7114610c4d575f80fd5b8063dcb528441161015e578063e141191f11610139578063e141191f14610bf8578063e25ac56414610c0b578063e4621f4214610c1e575f80fd5b8063dcb5284414610bbf578063dcd384ed14610bd2578063dd52e2d914610be5575f80fd5b8063d0f63ce81161018e578063d0f63ce814610b86578063d486fea414610b99578063d6bd5cfb14610bac575f80fd5b8063c662834214610b57578063c685718614610b60578063d086897c14610b73575f80fd5b8063ae8b062011610273578063b7440fdb1161021e578063bbc307da116101f9578063bbc307da14610b28578063bd154ffe14610b31578063bdeb7f2514610b44575f80fd5b8063b7440fdb14610af9578063b903a65514610b02578063ba00816a14610b15575f80fd5b8063b42eb51d1161024e578063b42eb51d14610ac0578063b479662514610ad3578063b571f24614610ae6575f80fd5b8063ae8b062014610a87578063affb113014610a9a578063b1ce340314610aad575f80fd5b80639199e0d9116102d3578063a1ae1bb3116102ae578063a1ae1bb314610a58578063a71a71eb14610a6b578063ab4a262314610a74575f80fd5b80639199e0d914610a1f57806395776f9914610a3257806397e4ed9914610a45575f80fd5b80638c041690116103035780638c041690146109e65780638c883355146109f957806390edfdb114610a0c575f80fd5b80637b9496ee146109ad5780637c7c443e146109c05780637f867d1e146109d3575f80fd5b80633c3554d5116104a85780635c544918116103f357806370a69cac1161039e5780637369269b116103795780637369269b1461097e578063776598de1461099157806377d91178146109a4575f80fd5b806370a69cac146109455780637283d7251461095857806372b694681461096b575f80fd5b8063689e2a7e116103ce578063689e2a7e1461090c5780636b6b3e5a1461091f5780637040ee9a14610932575f80fd5b80635c544918146108d35780635f846437146108e657806361a4c5fe146108f9575f80fd5b80634b54325111610453578063566ab27a1161042e578063566ab27a1461089a578063592530f8146108ad5780635b68b37e146108c0575f80fd5b80634b543251146108615780634c469f0d146108745780634f23783614610887575f80fd5b80634392e83d116104835780634392e83d1461082857806346e942161461083b578063499d09701461084e575f80fd5b80633c3554d5146107ef5780633d06ceaa14610802578063419001c814610815575f80fd5b80631e036899116105685780632cd442c7116105135780632fc4a5d8116104ee5780632fc4a5d8146107b6578063321b7f53146107c9578063392e6253146107dc575f80fd5b80632cd442c7146107765780632d37c2ff146107895780632db7b7e3146107a3575f80fd5b80632619a4c6116105435780632619a4c61461073d5780632837a60b146107505780632c7a6dd814610763575f80fd5b80631e036899146107045780631f0a9edc14610717578063217949c51461072a575f80fd5b8063096088b1116105c857806318241e62116105a357806318241e62146106cb578063184b0361146106de5780631c20e9b3146106f1575f80fd5b8063096088b11461069257806315b04dfe146106a55780631722b6a0146106b8575f80fd5b806306bd8601116105f857806306bd86011461065957806307d260161461066c57806307d3bafa1461067f575f80fd5b8063019c596c1461061e57806304229e4314610633578063069e5e0414610646575b5f80fd5b61063161062c366004614ac0565b610d1e565b005b610631610641366004614ac0565b610dc4565b610631610654366004614ac0565b610e53565b610631610667366004614ac0565b610ef8565b61063161067a366004614ac0565b610f87565b61063161068d366004614ac0565b611016565b6106316106a0366004614ac0565b6110a5565b6106316106b3366004614ac0565b611134565b6106316106c6366004614ac0565b6111b6565b6106316106d9366004614ac0565b611238565b6106316106ec366004614ac0565b6112c7565b6106316106ff366004614ac0565b611349565b610631610712366004614ac0565b6113d8565b610631610725366004614ac0565b611467565b610631610738366004614ac0565b6114f6565b61063161074b366004614ac0565b611585565b61063161075e366004614ac0565b611614565b610631610771366004614ac0565b611696565b610631610784366004614ac0565b611725565b6107915f5481565b60405190815260200160405180910390f35b6106316107b1366004614ac0565b6117b4565b6106316107c4366004614ac0565b611843565b6106316107d7366004614ac0565b6118d2565b6106316107ea366004614ac0565b611954565b6106316107fd366004614ac0565b6119d6565b610631610810366004614ac0565b611a65565b610631610823366004614ac0565b611ae7565b610631610836366004614ac0565b611b69565b610631610849366004614ac0565b611beb565b61063161085c366004614ac0565b611c7a565b61063161086f366004614ac0565b611d09565b610631610882366004614ac0565b611d8b565b610631610895366004614ac0565b611e1a565b6106316108a8366004614ac0565b611ea9565b6106316108bb366004614ac0565b611f2b565b6106316108ce366004614ac0565b611fba565b6106316108e1366004614ac0565b612049565b6106316108f4366004614ac0565b6120cb565b610631610907366004614ac0565b612171565b61063161091a366004614ac0565b612200565b61063161092d366004614ac0565b61228f565b610631610940366004614ac0565b61231e565b610631610953366004614ac0565b6123c4565b610631610966366004614ac0565b612453565b610631610979366004614ac0565b6124e2565b61063161098c366004614ac0565b612571565b61063161099f366004614ac0565b6125f3565b61079160065481565b6106316109bb366004614ac0565b612675565b6106316109ce366004614ac0565b6126f7565b6106316109e1366004614ac0565b612779565b6106316109f4366004614ac0565b612808565b610631610a07366004614ac0565b612897565b610631610a1a366004614ac0565b612919565b610631610a2d366004614ac0565b6129a8565b610631610a40366004614ac0565b612a37565b610631610a53366004614ac0565b612ab9565b610631610a66366004614ac0565b612b3b565b61079160035481565b610631610a82366004614ac0565b612bca565b610631610a95366004614ac0565b612c59565b610631610aa8366004614ac0565b612cdb565b610631610abb366004614ac0565b612d6a565b610631610ace366004614ac0565b612dec565b610631610ae1366004614ac0565b612e6e565b610631610af4366004614ac0565b612ef0565b61079160015481565b610631610b10366004614ac0565b612f7f565b610631610b23366004614ac0565b61300e565b61079160025481565b610631610b3f366004614ac0565b613090565b610631610b52366004614ac0565b613112565b61079160055481565b610631610b6e366004614ac0565b613194565b610631610b81366004614ac0565b613216565b610631610b94366004614ac0565b613298565b610631610ba7366004614ac0565b613327565b610631610bba366004614ac0565b6133a9565b610631610bcd366004614ac0565b613438565b610631610be0366004614ac0565b6134ba565b610631610bf3366004614ac0565b61353c565b610631610c06366004614ac0565b6135cb565b610631610c19366004614ac0565b61364d565b610631610c2c366004614ac0565b6136cf565b61079160045481565b610631610c48366004614ac0565b613751565b610631610c5b366004614ac0565b6137d3565b610631610c6e366004614ac0565b613862565b610631610c81366004614ac0565b6138e4565b610631610c94366004614ac0565b613973565b610631610ca7366004614ac0565b613a02565b610631610cba366004614ac0565b613a84565b610631610ccd366004614ac0565b613b13565b610631610ce0366004614ac0565b613b95565b610631610cf3366004614ac0565b613c17565b610631610d06366004614ac0565b613c99565b610631610d19366004614ac0565b613d1b565b5f610d5e8584848080601f0160208091040260200160405190810160405280939291908181526020018383808284375f92019190915250613d9d92505050565b90505f610da08585858080601f0160208091040260200160405190810160405280939291908181526020018383808284375f92019190915250613db192505050565b90505f610dad8383613dbe565b9050610db881613dd2565b50600555505050505050565b5f610e048584848080601f0160208091040260200160405190810160405280939291908181526020018383808284375f92019190915250613d9d92505050565b90505f610e468585858080601f0160208091040260200160405190810160405280939291908181526020018383808284375f92019190915250613d9d92505050565b90505f610dad8383613de1565b5f610e938584848080601f0160208091040260200160405190810160405280939291908181526020018383808284375f92019190915250613d9d92505050565b90505f610ed58585858080601f0160208091040260200160405190810160405280939291908181526020018383808284375f92019190915250613ded92505050565b90505f610ee28383613dfa565b9050610eed81613dd2565b505f55505050505050565b5f610f388584848080601f0160208091040260200160405190810160405280939291908181526020018383808284375f92019190915250613d9d92505050565b90505f610f7a8585858080601f0160208091040260200160405190810160405280939291908181526020018383808284375f92019190915250613e0e92505050565b90505f610ee28383613e1b565b5f610fc78584848080601f0160208091040260200160405190810160405280939291908181526020018383808284375f92019190915250613ded92505050565b90505f6110098585858080601f0160208091040260200160405190810160405280939291908181526020018383808284375f92019190915250613ded92505050565b90505f610ee28383613e2f565b5f6110568584848080601f0160208091040260200160405190810160405280939291908181526020018383808284375f92019190915250613d9d92505050565b90505f6110988585858080601f0160208091040260200160405190810160405280939291908181526020018383808284375f92019190915250613e0e92505050565b90505f610dad8383613e3b565b5f6110e58584848080601f0160208091040260200160405190810160405280939291908181526020018383808284375f92019190915250613d9d92505050565b90505f6111278585858080601f0160208091040260200160405190810160405280939291908181526020018383808284375f92019190915250613db192505050565b90505f610dad8383613e4f565b5f6111748584848080601f0160208091040260200160405190810160405280939291908181526020018383808284375f92019190915250613d9d92505050565b90505f6110988585858080601f0160208091040260200160405190810160405280939291908181526020018383808284375f92019190915250613db192505050565b5f6111f68584848080601f0160208091040260200160405190810160405280939291908181526020018383808284375f92019190915250613d9d92505050565b90505f610ed58585858080601f0160208091040260200160405190810160405280939291908181526020018383808284375f92019190915250613e6392505050565b5f6112788584848080601f0160208091040260200160405190810160405280939291908181526020018383808284375f92019190915250613d9d92505050565b90505f6112ba8585858080601f0160208091040260200160405190810160405280939291908181526020018383808284375f92019190915250613d9d92505050565b90505f610dad8383613e70565b5f6113078584848080601f0160208091040260200160405190810160405280939291908181526020018383808284375f92019190915250613d9d92505050565b90505f6110988585858080601f0160208091040260200160405190810160405280939291908181526020018383808284375f92019190915250613e6392505050565b5f6113898584848080601f0160208091040260200160405190810160405280939291908181526020018383808284375f92019190915250613d9d92505050565b90505f6113cb8585858080601f0160208091040260200160405190810160405280939291908181526020018383808284375f92019190915250613ded92505050565b90505f610ee28383613e7c565b5f6114188584848080601f0160208091040260200160405190810160405280939291908181526020018383808284375f92019190915250613d9d92505050565b90505f61145a8585858080601f0160208091040260200160405190810160405280939291908181526020018383808284375f92019190915250613e0e92505050565b90505f610dad8383613e90565b5f6114a78584848080601f0160208091040260200160405190810160405280939291908181526020018383808284375f92019190915250613ded92505050565b90505f6114e98585858080601f0160208091040260200160405190810160405280939291908181526020018383808284375f92019190915250613ded92505050565b90505f610ee28383613ea4565b5f6115368584848080601f0160208091040260200160405190810160405280939291908181526020018383808284375f92019190915250613ded92505050565b90505f6115788585858080601f0160208091040260200160405190810160405280939291908181526020018383808284375f92019190915250613ded92505050565b90505f610ee28383613eb0565b5f6115c58584848080601f0160208091040260200160405190810160405280939291908181526020018383808284375f92019190915250613ded92505050565b90505f6116078585858080601f0160208091040260200160405190810160405280939291908181526020018383808284375f92019190915250613d9d92505050565b90505f610dad8383613ebc565b5f6116548584848080601f0160208091040260200160405190810160405280939291908181526020018383808284375f92019190915250613d9d92505050565b90505f610da08585858080601f0160208091040260200160405190810160405280939291908181526020018383808284375f92019190915250613e6392505050565b5f6116d68584848080601f0160208091040260200160405190810160405280939291908181526020018383808284375f92019190915250613ded92505050565b90505f6117188585858080601f0160208091040260200160405190810160405280939291908181526020018383808284375f92019190915250613ded92505050565b90505f610ee28383613ed0565b5f6117658584848080601f0160208091040260200160405190810160405280939291908181526020018383808284375f92019190915250613ded92505050565b90505f6117a78585858080601f0160208091040260200160405190810160405280939291908181526020018383808284375f92019190915250613d9d92505050565b90505f610dad8383613edc565b5f6117f48584848080601f0160208091040260200160405190810160405280939291908181526020018383808284375f92019190915250613d9d92505050565b90505f6118368585858080601f0160208091040260200160405190810160405280939291908181526020018383808284375f92019190915250613db192505050565b90505f610ee28383613ef0565b5f6118838584848080601f0160208091040260200160405190810160405280939291908181526020018383808284375f92019190915250613d9d92505050565b90505f6118c58585858080601f0160208091040260200160405190810160405280939291908181526020018383808284375f92019190915250613db192505050565b90505f610dad8383613f04565b5f6119128584848080601f0160208091040260200160405190810160405280939291908181526020018383808284375f92019190915250613d9d92505050565b90505f6118c58585858080601f0160208091040260200160405190810160405280939291908181526020018383808284375f92019190915250613ded92505050565b5f6119948584848080601f0160208091040260200160405190810160405280939291908181526020018383808284375f92019190915250613d9d92505050565b90505f610da08585858080601f0160208091040260200160405190810160405280939291908181526020018383808284375f92019190915250613e0e92505050565b5f611a168584848080601f0160208091040260200160405190810160405280939291908181526020018383808284375f92019190915250613ded92505050565b90505f611a588585858080601f0160208091040260200160405190810160405280939291908181526020018383808284375f92019190915250613ded92505050565b90505f610ee28383613f18565b5f611aa58584848080601f0160208091040260200160405190810160405280939291908181526020018383808284375f92019190915250613d9d92505050565b90505f6118368585858080601f0160208091040260200160405190810160405280939291908181526020018383808284375f92019190915250613ded92505050565b5f611b278584848080601f0160208091040260200160405190810160405280939291908181526020018383808284375f92019190915250613d9d92505050565b90505f6113cb8585858080601f0160208091040260200160405190810160405280939291908181526020018383808284375f92019190915250613db192505050565b5f611ba98584848080601f0160208091040260200160405190810160405280939291908181526020018383808284375f92019190915250613d9d92505050565b90505f6118368585858080601f0160208091040260200160405190810160405280939291908181526020018383808284375f92019190915250613e6392505050565b5f611c2b8584848080601f0160208091040260200160405190810160405280939291908181526020018383808284375f92019190915250613d9d92505050565b90505f611c6d8585858080601f0160208091040260200160405190810160405280939291908181526020018383808284375f92019190915250613e0e92505050565b90505f610dad8383613f24565b5f611cba8584848080601f0160208091040260200160405190810160405280939291908181526020018383808284375f92019190915250613ded92505050565b90505f611cfc8585858080601f0160208091040260200160405190810160405280939291908181526020018383808284375f92019190915250613f3892505050565b90505f610ee28383613f45565b5f611d498584848080601f0160208091040260200160405190810160405280939291908181526020018383808284375f92019190915250613d9d92505050565b90505f610f7a8585858080601f0160208091040260200160405190810160405280939291908181526020018383808284375f92019190915250613ded92505050565b5f611dcb8584848080601f0160208091040260200160405190810160405280939291908181526020018383808284375f92019190915250613ded92505050565b90505f611e0d8585858080601f0160208091040260200160405190810160405280939291908181526020018383808284375f92019190915250613d9d92505050565b90505f610ee28383613f59565b5f611e5a8584848080601f0160208091040260200160405190810160405280939291908181526020018383808284375f92019190915250613d9d92505050565b90505f611e9c8585858080601f0160208091040260200160405190810160405280939291908181526020018383808284375f92019190915250613e0e92505050565b90505f610dad8383613f6d565b5f611ee98584848080601f0160208091040260200160405190810160405280939291908181526020018383808284375f92019190915250613d9d92505050565b90505f611c6d8585858080601f0160208091040260200160405190810160405280939291908181526020018383808284375f92019190915250613e6392505050565b5f611f6b8584848080601f0160208091040260200160405190810160405280939291908181526020018383808284375f92019190915250613d9d92505050565b90505f611fad8585858080601f0160208091040260200160405190810160405280939291908181526020018383808284375f92019190915250613d9d92505050565b90505f610dad8383613f81565b5f611ffa8584848080601f0160208091040260200160405190810160405280939291908181526020018383808284375f92019190915250613d9d92505050565b90505f61203c8585858080601f0160208091040260200160405190810160405280939291908181526020018383808284375f92019190915250613db192505050565b90505f610ee28383613f8d565b5f6120898584848080601f0160208091040260200160405190810160405280939291908181526020018383808284375f92019190915250613d9d92505050565b90505f61203c8585858080601f0160208091040260200160405190810160405280939291908181526020018383808284375f92019190915250613e0e92505050565b5f61210b8584848080601f0160208091040260200160405190810160405280939291908181526020018383808284375f92019190915250613ded92505050565b90505f61214d8585858080601f0160208091040260200160405190810160405280939291908181526020018383808284375f92019190915250613f3892505050565b90505f61215a8383613fa1565b905061216581613dd2565b50600655505050505050565b5f6121b18584848080601f0160208091040260200160405190810160405280939291908181526020018383808284375f92019190915250613ded92505050565b90505f6121f38585858080601f0160208091040260200160405190810160405280939291908181526020018383808284375f92019190915250613f3892505050565b90505f61215a8383613fb5565b5f6122408584848080601f0160208091040260200160405190810160405280939291908181526020018383808284375f92019190915250613d9d92505050565b90505f6122828585858080601f0160208091040260200160405190810160405280939291908181526020018383808284375f92019190915250613d9d92505050565b90505f610dad8383613fc2565b5f6122cf8584848080601f0160208091040260200160405190810160405280939291908181526020018383808284375f92019190915250613ded92505050565b90505f6123118585858080601f0160208091040260200160405190810160405280939291908181526020018383808284375f92019190915250613d9d92505050565b90505f610dad8383613fce565b5f61235e8584848080601f0160208091040260200160405190810160405280939291908181526020018383808284375f92019190915250613ded92505050565b90505f6123a08585858080601f0160208091040260200160405190810160405280939291908181526020018383808284375f92019190915250613ded92505050565b90505f6123ad8383613fe2565b90506123b881613dd2565b50600455505050505050565b5f6124048584848080601f0160208091040260200160405190810160405280939291908181526020018383808284375f92019190915250613d9d92505050565b90505f6124468585858080601f0160208091040260200160405190810160405280939291908181526020018383808284375f92019190915250613db192505050565b90505f610ee28383613fee565b5f6124938584848080601f0160208091040260200160405190810160405280939291908181526020018383808284375f92019190915250613d9d92505050565b90505f6124d58585858080601f0160208091040260200160405190810160405280939291908181526020018383808284375f92019190915250613e6392505050565b90505f610dad8383614002565b5f6125228584848080601f0160208091040260200160405190810160405280939291908181526020018383808284375f92019190915250613ded92505050565b90505f6125648585858080601f0160208091040260200160405190810160405280939291908181526020018383808284375f92019190915250613d9d92505050565b90505f610dad8383614016565b5f6125b18584848080601f0160208091040260200160405190810160405280939291908181526020018383808284375f92019190915250613d9d92505050565b90505f61145a8585858080601f0160208091040260200160405190810160405280939291908181526020018383808284375f92019190915250613ded92505050565b5f6126338584848080601f0160208091040260200160405190810160405280939291908181526020018383808284375f92019190915250613d9d92505050565b90505f6124d58585858080601f0160208091040260200160405190810160405280939291908181526020018383808284375f92019190915250613db192505050565b5f6126b58584848080601f0160208091040260200160405190810160405280939291908181526020018383808284375f92019190915250613d9d92505050565b90505f6124468585858080601f0160208091040260200160405190810160405280939291908181526020018383808284375f92019190915250613e0e92505050565b5f6127378584848080601f0160208091040260200160405190810160405280939291908181526020018383808284375f92019190915250613d9d92505050565b90505f61145a8585858080601f0160208091040260200160405190810160405280939291908181526020018383808284375f92019190915250613db192505050565b5f6127b98584848080601f0160208091040260200160405190810160405280939291908181526020018383808284375f92019190915250613ded92505050565b90505f6127fb8585858080601f0160208091040260200160405190810160405280939291908181526020018383808284375f92019190915250613d9d92505050565b90505f610ee28383614023565b5f6128488584848080601f0160208091040260200160405190810160405280939291908181526020018383808284375f92019190915250613ded92505050565b90505f61288a8585858080601f0160208091040260200160405190810160405280939291908181526020018383808284375f92019190915250613ded92505050565b90505f6123ad8383613f81565b5f6128d78584848080601f0160208091040260200160405190810160405280939291908181526020018383808284375f92019190915250613d9d92505050565b90505f610f7a8585858080601f0160208091040260200160405190810160405280939291908181526020018383808284375f92019190915250613e6392505050565b5f6129598584848080601f0160208091040260200160405190810160405280939291908181526020018383808284375f92019190915250613ded92505050565b90505f61299b8585858080601f0160208091040260200160405190810160405280939291908181526020018383808284375f92019190915250613d9d92505050565b90505f610ee28383614037565b5f6129e88584848080601f0160208091040260200160405190810160405280939291908181526020018383808284375f92019190915250613ded92505050565b90505f612a2a8585858080601f0160208091040260200160405190810160405280939291908181526020018383808284375f92019190915250613d9d92505050565b90505f610dad838361404b565b5f612a778584848080601f0160208091040260200160405190810160405280939291908181526020018383808284375f92019190915250613d9d92505050565b90505f610da08585858080601f0160208091040260200160405190810160405280939291908181526020018383808284375f92019190915250613ded92505050565b5f612af98584848080601f0160208091040260200160405190810160405280939291908181526020018383808284375f92019190915250613d9d92505050565b90505f6113cb8585858080601f0160208091040260200160405190810160405280939291908181526020018383808284375f92019190915250613e6392505050565b5f612b7b8584848080601f0160208091040260200160405190810160405280939291908181526020018383808284375f92019190915250613ded92505050565b90505f612bbd8585858080601f0160208091040260200160405190810160405280939291908181526020018383808284375f92019190915250613f3892505050565b90505f61215a838361405f565b5f612c0a8584848080601f0160208091040260200160405190810160405280939291908181526020018383808284375f92019190915250613ded92505050565b90505f612c4c8585858080601f0160208091040260200160405190810160405280939291908181526020018383808284375f92019190915250613f3892505050565b90505f610ee2838361406c565b5f612c998584848080601f0160208091040260200160405190810160405280939291908181526020018383808284375f92019190915250613d9d92505050565b90505f6110988585858080601f0160208091040260200160405190810160405280939291908181526020018383808284375f92019190915250613ded92505050565b5f612d1b8584848080601f0160208091040260200160405190810160405280939291908181526020018383808284375f92019190915250613ded92505050565b90505f612d5d8585858080601f0160208091040260200160405190810160405280939291908181526020018383808284375f92019190915250613ded92505050565b90505f610ee28383614080565b5f612daa8584848080601f0160208091040260200160405190810160405280939291908181526020018383808284375f92019190915250613d9d92505050565b90505f6118368585858080601f0160208091040260200160405190810160405280939291908181526020018383808284375f92019190915250613e0e92505050565b5f612e2c8584848080601f0160208091040260200160405190810160405280939291908181526020018383808284375f92019190915250613d9d92505050565b90505f611c6d8585858080601f0160208091040260200160405190810160405280939291908181526020018383808284375f92019190915250613ded92505050565b5f612eae8584848080601f0160208091040260200160405190810160405280939291908181526020018383808284375f92019190915250613d9d92505050565b90505f611c6d8585858080601f0160208091040260200160405190810160405280939291908181526020018383808284375f92019190915250613db192505050565b5f612f308584848080601f0160208091040260200160405190810160405280939291908181526020018383808284375f92019190915250613ded92505050565b90505f612f728585858080601f0160208091040260200160405190810160405280939291908181526020018383808284375f92019190915250613d9d92505050565b90505f610dad838361408c565b5f612fbf8584848080601f0160208091040260200160405190810160405280939291908181526020018383808284375f92019190915250613ded92505050565b90505f6130018585858080601f0160208091040260200160405190810160405280939291908181526020018383808284375f92019190915250613d9d92505050565b90505f610ee283836140a0565b5f61304e8584848080601f0160208091040260200160405190810160405280939291908181526020018383808284375f92019190915250613d9d92505050565b90505f6124468585858080601f0160208091040260200160405190810160405280939291908181526020018383808284375f92019190915250613ded92505050565b5f6130d08584848080601f0160208091040260200160405190810160405280939291908181526020018383808284375f92019190915250613d9d92505050565b90505f610ed58585858080601f0160208091040260200160405190810160405280939291908181526020018383808284375f92019190915250613db192505050565b5f6131528584848080601f0160208091040260200160405190810160405280939291908181526020018383808284375f92019190915250613d9d92505050565b90505f611e9c8585858080601f0160208091040260200160405190810160405280939291908181526020018383808284375f92019190915250613db192505050565b5f6131d48584848080601f0160208091040260200160405190810160405280939291908181526020018383808284375f92019190915250613d9d92505050565b90505f610ed58585858080601f0160208091040260200160405190810160405280939291908181526020018383808284375f92019190915250613e0e92505050565b5f6132568584848080601f0160208091040260200160405190810160405280939291908181526020018383808284375f92019190915250613d9d92505050565b90505f610f7a8585858080601f0160208091040260200160405190810160405280939291908181526020018383808284375f92019190915250613db192505050565b5f6132d88584848080601f0160208091040260200160405190810160405280939291908181526020018383808284375f92019190915250613ded92505050565b90505f61331a8585858080601f0160208091040260200160405190810160405280939291908181526020018383808284375f92019190915250613ded92505050565b90505f6123ad83836140b4565b5f6133678584848080601f0160208091040260200160405190810160405280939291908181526020018383808284375f92019190915250613d9d92505050565b90505f611e9c8585858080601f0160208091040260200160405190810160405280939291908181526020018383808284375f92019190915250613e6392505050565b5f6133e98584848080601f0160208091040260200160405190810160405280939291908181526020018383808284375f92019190915250613ded92505050565b90505f61342b8585858080601f0160208091040260200160405190810160405280939291908181526020018383808284375f92019190915250613d9d92505050565b90505f610ee283836140c0565b5f6134788584848080601f0160208091040260200160405190810160405280939291908181526020018383808284375f92019190915250613d9d92505050565b90505f611e9c8585858080601f0160208091040260200160405190810160405280939291908181526020018383808284375f92019190915250613ded92505050565b5f6134fa8584848080601f0160208091040260200160405190810160405280939291908181526020018383808284375f92019190915250613d9d92505050565b90505f61203c8585858080601f0160208091040260200160405190810160405280939291908181526020018383808284375f92019190915250613e6392505050565b5f61357c8584848080601f0160208091040260200160405190810160405280939291908181526020018383808284375f92019190915250613ded92505050565b90505f6135be8585858080601f0160208091040260200160405190810160405280939291908181526020018383808284375f92019190915250613d9d92505050565b90505f610dad83836140cd565b5f61360b8584848080601f0160208091040260200160405190810160405280939291908181526020018383808284375f92019190915250613d9d92505050565b90505f6111278585858080601f0160208091040260200160405190810160405280939291908181526020018383808284375f92019190915250613e0e92505050565b5f61368d8584848080601f0160208091040260200160405190810160405280939291908181526020018383808284375f92019190915250613d9d92505050565b90505f6124d58585858080601f0160208091040260200160405190810160405280939291908181526020018383808284375f92019190915250613e0e92505050565b5f61370f8584848080601f0160208091040260200160405190810160405280939291908181526020018383808284375f92019190915250613d9d92505050565b90505f61203c8585858080601f0160208091040260200160405190810160405280939291908181526020018383808284375f92019190915250613ded92505050565b5f6137918584848080601f0160208091040260200160405190810160405280939291908181526020018383808284375f92019190915250613d9d92505050565b90505f6118c58585858080601f0160208091040260200160405190810160405280939291908181526020018383808284375f92019190915250613e6392505050565b5f6138138584848080601f0160208091040260200160405190810160405280939291908181526020018383808284375f92019190915250613ded92505050565b90505f6138558585858080601f0160208091040260200160405190810160405280939291908181526020018383808284375f92019190915250613ded92505050565b90505f6123ad83836140e1565b5f6138a28584848080601f0160208091040260200160405190810160405280939291908181526020018383808284375f92019190915250613d9d92505050565b90505f61145a8585858080601f0160208091040260200160405190810160405280939291908181526020018383808284375f92019190915250613e6392505050565b5f6139248584848080601f0160208091040260200160405190810160405280939291908181526020018383808284375f92019190915250613ded92505050565b90505f6139668585858080601f0160208091040260200160405190810160405280939291908181526020018383808284375f92019190915250613d9d92505050565b90505f610ee283836140ed565b5f6139b38584848080601f0160208091040260200160405190810160405280939291908181526020018383808284375f92019190915250613ded92505050565b90505f6139f58585858080601f0160208091040260200160405190810160405280939291908181526020018383808284375f92019190915250613d9d92505050565b90505f610dad83836140fa565b5f613a428584848080601f0160208091040260200160405190810160405280939291908181526020018383808284375f92019190915250613d9d92505050565b90505f6111278585858080601f0160208091040260200160405190810160405280939291908181526020018383808284375f92019190915250613ded92505050565b5f613ac48584848080601f0160208091040260200160405190810160405280939291908181526020018383808284375f92019190915250613ded92505050565b90505f613b068585858080601f0160208091040260200160405190810160405280939291908181526020018383808284375f92019190915250613ded92505050565b90505f6123ad838361410e565b5f613b538584848080601f0160208091040260200160405190810160405280939291908181526020018383808284375f92019190915250613d9d92505050565b90505f6113cb8585858080601f0160208091040260200160405190810160405280939291908181526020018383808284375f92019190915250613e0e92505050565b5f613bd58584848080601f0160208091040260200160405190810160405280939291908181526020018383808284375f92019190915250613d9d92505050565b90505f6124d58585858080601f0160208091040260200160405190810160405280939291908181526020018383808284375f92019190915250613ded92505050565b5f613c578584848080601f0160208091040260200160405190810160405280939291908181526020018383808284375f92019190915250613d9d92505050565b90505f6111278585858080601f0160208091040260200160405190810160405280939291908181526020018383808284375f92019190915250613e6392505050565b5f613cd98584848080601f0160208091040260200160405190810160405280939291908181526020018383808284375f92019190915250613d9d92505050565b90505f6118c58585858080601f0160208091040260200160405190810160405280939291908181526020018383808284375f92019190915250613e0e92505050565b5f613d5b8584848080601f0160208091040260200160405190810160405280939291908181526020018383808284375f92019190915250613d9d92505050565b90505f6124468585858080601f0160208091040260200160405190810160405280939291908181526020018383808284375f92019190915250613e6392505050565b5f613daa8383600661411a565b9392505050565b5f613daa8383600261411a565b5f613daa83613dcc8461428e565b5f61429a565b5f613ddd8230614357565b5090565b5f613daa83835f6143cd565b5f613daa8383600561411a565b5f613daa83613e088461428e565b5f614444565b5f613daa8383600361411a565b5f613daa83613e298461428e565b5f6144bb565b5f613daa83835f614532565b5f613daa83613e498461428e565b5f6145a9565b5f613daa83613e5d8461428e565b5f6143cd565b5f613daa8383600461411a565b5f613daa83835f614620565b5f613daa83613e8a8461428e565b5f614697565b5f613daa83613e9e8461428e565b5f61470e565b5f613daa83835f614785565b5f613daa83835f6144bb565b5f613daa613ec98461428e565b835f6147fc565b5f613daa83835f614697565b5f613daa613ee98461428e565b835f61429a565b5f613daa83613efe8461428e565b5f614532565b5f613daa83613f128461428e565b5f6147fc565b5f613daa83835f614444565b5f613daa83613f328461428e565b5f614873565b5f613daa8383600861411a565b5f613daa613f52846148ea565b835f614785565b5f613daa613f668461428e565b835f614444565b5f613daa83613f7b8461428e565b5f614620565b5f613daa83835f61429a565b5f613daa83613f9b8461428e565b5f6148f6565b5f613daa613fae846148ea565b835f61496d565b5f613daa613ee9846148ea565b5f613daa83835f614873565b5f613daa613fdb8461428e565b835f61470e565b5f613daa83835f61496d565b5f613daa83613ffc8461428e565b5f614785565b5f613daa836140108461428e565b5f61496d565b5f613daa613fae8461428e565b5f613daa6140308461428e565b835f614697565b5f613daa6140448461428e565b835f6148f6565b5f613daa6140588461428e565b835f6145a9565b5f613daa613fdb846148ea565b5f613daa614079846148ea565b835f614532565b5f613daa83835f6148f6565b5f613daa6140998461428e565b835f6143cd565b5f613daa6140ad8461428e565b835f6144bb565b5f613daa83835f61470e565b5f613daa6140798461428e565b5f613daa6140da8461428e565b835f614873565b5f613daa83835f6145a9565b5f613daa613f528461428e565b5f613daa6141078461428e565b835f614620565b5f613daa83835f6147fc565b5f7f962fa50f382287015f056c358858a5ce291a354f9e7465a7774aa01c0200ed7884845f60405161414e93929190614b52565b60405180910390a15f80516020614c258339815191525460405163196d0b9b60e01b81525f80516020614c05833981519152916001600160a01b03169063196d0b9b906141a5908890339089908990600401614b9a565b6020604051808303815f875af11580156141c1573d5f803e3d5ffd5b505050506040513d601f19601f820116820180604052508101906141e59190614bd9565b91507f962fa50f382287015f056c358858a5ce291a354f9e7465a7774aa01c0200ed7885858460405161421a93929190614b52565b60405180910390a18054604051630f8e573b60e21b8152600481018490523360248201526001600160a01b0390911690633e395cec906044015f604051808303815f87803b15801561426a575f80fd5b505af115801561427c573d5f803e3d5ffd5b50505050509392505050565b92915050565b5f614288826006614a2c565b5f8082156142ad5750600160f81b6142b0565b505f5b5f80516020614c258339815191525460405163d99882d560e01b815260048101879052602481018690526001600160f81b0319831660448201525f80516020614c05833981519152916001600160a01b03169063d99882d5906064015b6020604051808303815f875af1158015614329573d5f803e3d5ffd5b505050506040513d601f19601f8201168201806040525081019061434d9190614bd9565b9695505050505050565b5f5f80516020614c058339815191528054604051635ca4b5b160e11b8152600481018690526001600160a01b03858116602483015292935091169063b9496b62906044015f604051808303815f87803b1580156143b2575f80fd5b505af11580156143c4573d5f803e3d5ffd5b50505050505050565b5f8082156143e05750600160f81b6143e3565b505f5b5f80516020614c25833981519152546040516303056db360e31b815260048101879052602481018690526001600160f81b0319831660448201525f80516020614c05833981519152916001600160a01b03169063182b6d989060640161430d565b5f8082156144575750600160f81b61445a565b505f5b5f80516020614c25833981519152546040516385362ee760e01b815260048101879052602481018690526001600160f81b0319831660448201525f80516020614c05833981519152916001600160a01b0316906385362ee79060640161430d565b5f8082156144ce5750600160f81b6144d1565b505f5b5f80516020614c2583398151915254604051631d44e90160e21b815260048101879052602481018690526001600160f81b0319831660448201525f80516020614c05833981519152916001600160a01b031690637513a4049060640161430d565b5f8082156145455750600160f81b614548565b505f5b5f80516020614c258339815191525460405163f77f3f1d60e01b815260048101879052602481018690526001600160f81b0319831660448201525f80516020614c05833981519152916001600160a01b03169063f77f3f1d9060640161430d565b5f8082156145bc5750600160f81b6145bf565b505f5b5f80516020614c2583398151915254604051630d8c635960e21b815260048101879052602481018690526001600160f81b0319831660448201525f80516020614c05833981519152916001600160a01b0316906336318d649060640161430d565b5f8082156146335750600160f81b614636565b505f5b5f80516020614c258339815191525460405163022f65e760e31b815260048101879052602481018690526001600160f81b0319831660448201525f80516020614c05833981519152916001600160a01b03169063117b2f389060640161430d565b5f8082156146aa5750600160f81b6146ad565b505f5b5f80516020614c2583398151915254604051631391547f60e01b815260048101879052602481018690526001600160f81b0319831660448201525f80516020614c05833981519152916001600160a01b031690631391547f9060640161430d565b5f8082156147215750600160f81b614724565b505f5b5f80516020614c25833981519152546040516363a2db2960e01b815260048101879052602481018690526001600160f81b0319831660448201525f80516020614c05833981519152916001600160a01b0316906363a2db299060640161430d565b5f8082156147985750600160f81b61479b565b505f5b5f80516020614c25833981519152546040516336024b2f60e21b815260048101879052602481018690526001600160f81b0319831660448201525f80516020614c05833981519152916001600160a01b03169063d8092cbc9060640161430d565b5f80821561480f5750600160f81b614812565b505f5b5f80516020614c25833981519152546040516304559f7160e01b815260048101879052602481018690526001600160f81b0319831660448201525f80516020614c05833981519152916001600160a01b0316906304559f719060640161430d565b5f8082156148865750600160f81b614889565b505f5b5f80516020614c2583398151915254604051630afe14ad60e31b815260048101879052602481018690526001600160f81b0319831660448201525f80516020614c05833981519152916001600160a01b0316906357f0a5689060640161430d565b5f614288826008614a2c565b5f8082156149095750600160f81b61490c565b505f5b5f80516020614c2583398151915254604051637210768160e01b815260048101879052602481018690526001600160f81b0319831660448201525f80516020614c05833981519152916001600160a01b03169063721076819060640161430d565b5f8082156149805750600160f81b614983565b505f5b5f80516020614c25833981519152546040516322d273ad60e21b815260048101879052602481018690526001600160f81b0319831660448201525f80516020614c05833981519152916001600160a01b031690638b49ceb49060640161430d565b6020604051808303815f875af1158015614a00573d5f803e3d5ffd5b505050506040513d601f19601f82011682018060405250810190614a249190614bd9565b949350505050565b5f80516020614c25833981519152546040516307227b9160e21b81525f915f80516020614c05833981519152916001600160a01b0390911690631c89ee44906149e49087908790600401614bf0565b5f8083601f840112614a8b575f80fd5b50813567ffffffffffffffff811115614aa2575f80fd5b602083019150836020828501011115614ab9575f80fd5b9250929050565b5f805f8060608587031215614ad3575f80fd5b8435935060208501359250604085013567ffffffffffffffff811115614af7575f80fd5b614b0387828801614a7b565b95989497509550505050565b5f81518084525f5b81811015614b3357602081850181015186830182015201614b17565b505f602082860101526020601f19601f83011685010191505092915050565b838152606060208201525f614b6a6060830185614b0f565b9050826040830152949350505050565b60548110614b9657634e487b7160e01b5f52602160045260245ffd5b9052565b8481526001600160a01b0384166020820152608060408201525f614bc16080830185614b0f565b9050614bd06060830184614b7a565b95945050505050565b5f60208284031215614be9575f80fd5b5051919050565b82815260408101613daa6020830184614b7a56feed8d60e34876f751cc8b014c560745351147d9de11b9347c854e881b128ea600ed8d60e34876f751cc8b014c560745351147d9de11b9347c854e881b128ea601a164736f6c6343000818000a",
  "linkReferences": {},
  "deployedLinkReferences": {}
}